:100000000C946C030C9494030C9494030C9494033C
:100010000C9494030C9494030C9494030C94940304
:100020000C9494030C9494030C9426070C94950759
:100030000C9494030C9494030C9494030C949403E4
:100040000C9494030C9494030C9494030C949403D4
:100050000C9494030C9494030C9494030C94C7098B
:100060000C9494030C9494030C9494030C949403B4
:100070000C9494030C9494030C9494030C949403A4
:100080000C9494030C9494030C9494030C94940394
:100090000C9494030C9494030C9494030C94940384
:1000A0000C9494030C9494030C94940300000000AB
:1000B000003E5B4F5B3E3E6B4F6B3E1C3E7C3E1CEE
:1000C000183C7E3C181C577D571C1C5E7F5E1C0034
:1000D000183C1800FFE7C3E7FF0018241800FFE7EB
:1000E000DBE7FF30483A060E2629792926407F05AE
:1000F0000507407F05253F5A3CE73C5A7F3E1C1CC4
:1001000008081C1C3E7F14227F22145F5F005F5F83
:1001100006097F017F006689956A6060606060946F
:10012000A2FFA29408047E040810207E2010080874
:100130002A1C08081C2A08081E101010100C1E0C7F
:100140001E0C30383E3830060E3E0E060000000011
:100150000000005F00000007000700147F147F14F8
:10016000242A7F2A1223130864623649562050003D
:1001700008070300001C2241000041221C002A1C29
:100180007F1C2A08083E0808008070300008080814
:100190000808000060600020100804023E51494534
:1001A0003E00427F400072494949462141494D3352
:1001B0001814127F1027454545393C4A49493141B9
:1001C000211109073649494936464949291E000087
:1001D00014000000403400000008142241141414DC
:1001E0001414004122140802015909063E415D59C8
:1001F0004E7C1211127C7F494949363E41414122D1
:100200007F4141413E7F494949417F090909013EFA
:10021000414151737F0808087F00417F4100204021
:10022000413F017F081422417F404040407F021C33
:10023000027F7F0408107F3E4141413E7F0909094A
:10024000063E4151215E7F09192946264949493216
:1002500003017F01033F4040403F1F2040201F3FDC
:100260004038403F63140814630304780403615961
:10027000494D43007F4141410204081020004141A3
:10028000417F04020102044040404040000307084F
:100290000020545478407F2844443838444444284B
:1002A000384444287F385454541800087E090218F2
:1002B000A4A49C787F0804047800447D400020407A
:1002C000403D007F1028440000417F40007C0478BE
:1002D00004787C080404783844444438FC18242406
:1002E0001818242418FC7C08040408485454542486
:1002F00004043F44243C4040207C1C2040201C3C03
:100300004030403C44281028444C9090907C4464F9
:10031000544C44000836410000007700000041368C
:10032000080002010204023C2623263C1EA1A16112
:10033000123A4040207A3854545559215555794144
:100340002154547841215554784020545579400C1B
:100350001E527212395555555939545454593955FC
:100360005454580000457C410002457D420001453F
:100370007C40F0292429F0F0282528F07C545545AC
:10038000002054547C547C0A097F4932494949323F
:100390003248484832324A4848303A4141217A3A54
:1003A00042402078009DA0A07D39444444393D401E
:1003B00040403D3C24FF2424487E4943662B2FFCCB
:1003C0002F2BFF0929F620C0887E09032054547979
:1003D000410000447D413048484A32384040227A4A
:1003E000007A0A0A727D0D19317D2629292F2826C7
:1003F0002929292630484D402038080808080808CF
:100400000808382F10C8ACBA2F102834FA00007B27
:10041000000008142A142222142A1408950022002D
:1004200095AA005500AAAA55AA55AA000000FF00E7
:10043000101010FF00141414FF001010FF00FF1024
:1004400010F010F0141414FC001414F700FF000056
:10045000FF00FF1414F404FC141417101F10101FD5
:10046000101F1414141F00101010F0000000001FC3
:10047000101010101F10101010F010000000FF10CE
:100480001010101010101010FF10000000FF1400CA
:1004900000FF00FF00001F10170000FC04F41414FC
:1004A0001710171414F404F40000FF00F7141414C8
:1004B00014141414F700F7141414171410101F1048
:1004C0001F141414F4141010F010F000001F101F6B
:1004D0000000001F14000000FC140000F010F010D9
:1004E00010FF10FF141414FF141010101F00000050
:1004F00000F010FFFFFFFFFFF0F0F0F0F0FFFFFF54
:100500000000000000FFFF0F0F0F0F0F38444438AA
:10051000447C2A2A3E147E02020606027E027E02E5
:1005200063554941633844443C04407E201E200604
:10053000027E020299A5E7A5991C2A492A1C4C7241
:1005400001724C304A4D4D303048784830BC625AC8
:10055000463D3E494949007E0101017E2A2A2A2A58
:100560002A44445F444440514A444040444A514034
:100570000000FF0103E080FF000008086B6B0836F5
:1005800012362436060F090F060000181800000066
:100590001010003040FF0101001F01011E00191D55
:1005A0001712003C3C3C3C0000000000F0F89C8E20
:1005B0008783878E9CF8F00000FEFF03030303038C
:1005C000070EFCF80000FEFF0303030303070EFC05
:1005D000F80000FFFF00000000000000FFFF000027
:1005E000FEFF8383838383C7EE7C380000F8FC0E14
:1005F00007030303070EFCF800003F7FE0C0808084
:10060000C0E07F3FFFFF01010101010101FFFF0089
:1006100000FFFF0C0C0C0C1C3E77E3C100007FFFB9
:10062000C0C0C0C0C0E0703F1F00001F3F70E0C0EE
:10063000C0C0E0703F1F00007FFFC1C1C1C1C1E366
:10064000773E1C00001F3F70E0C0C0C0E0703F1F3D
:10065000000000000001FFFF01000000D5F08D1434
:10066000A1C881CFD9F1AF2000080B00020202001F
:100670000009040000010202000005240010010529
:100680002401010104240206052406000107058156
:100690000310004009040100020A000000070502DF
:1006A0000240000007058302400000040309041211
:1006B000010002EF020140412336800001010203E4
:1006C0000141726475696E6F204C4C430041726445
:1006D00075626F790000440A11241FBECFEFDAE083
:1006E000DEBFCDBF11E0A0E0B1E0E8E7FBE102C072
:1006F00005900D92A23AB107D9F726E0A2EAB1E03F
:1007000001C01D92A931B207E1F713E0CCE6D3E0B6
:1007100004C02197FE010E94B40DCB36D107C9F762
:100720000E94610A0C94BA0D0C940000E5ECF1E013
:10073000A0E0B8E000800EBC8111012C1197A0FD53
:10074000FDCF0192B9F70DB40895FC018091C40169
:10075000882311F13FB7F89482E08093E90020915B
:10076000F200822F90E01816190614F481E090E050
:10077000882339F0289844E64093C3014091F10062
:100780004083222339F02091F200211103C02BE68F
:100790002093E8003FBF08958FEF9FEF08952FB794
:1007A000F89483E08093E9009091E800892F8072AB
:1007B00095FF04C09091F20080E4891B2FBF08953B
:1007C0008091BB0181110DC082E08093B70184E06C
:1007D0008093B8011092BA011092B90181E0809320
:1007E000BB0187EB91E00895CF93DF931F92CDB7C4
:1007F000DEB76983DC01ED91FC910280F381E02D8D
:1008000041E050E0BE016F5F7F4F09950F90DF918F
:10081000CF91089583E08093E9008091F2008823CE
:1008200019F08AE38093E80008950E94CF0390E0D6
:100830000895CF93DF931F92CDB7DEB7FC01848577
:10084000958597FD08C02FEF3FEF358724870F90E0
:10085000DF91CF910895CE0101960E94A5030197E3
:1008600019F4898190E0F3CF8FEF9FEFF0CF0F93D2
:100870001F93CF93DF931F92CDB7DEB78C01FC019E
:100880008485958597FF0BC0CE0101960E94A50334
:10089000019771F4898190E0F80195878487F801C8
:1008A000848595850F90DF91CF911F910F910895C9
:1008B0008FEF9FEFF1CFFC018485958597FD0BC0ED
:1008C0009FB7F89482E08093E9008091F2009FBF87
:1008D00090E0019608959FB7F89482E08093E90034
:1008E0008091F2009FBF90E008954091B101509136
:1008F000B2012091AF013091B00142175307B4F417
:100900009091E8009570E1F39091E80092FD19C094
:100910008093F1008091B1019091B20101968F73A3
:100920009927892B19F48EEF8093E8008091B1010B
:100930009091B20101969093B2018093B10181E050
:10094000089580E00895DF92EF92FF920F931F9336
:10095000CF93DF93D82E8A01EB017B01E40EF51EC5
:10096000CE15DF0559F0D7FE12C0FE0184910E941A
:10097000750421968111F4CF0FEF1FEFC801DF91AD
:10098000CF911F910F91FF90EF90DF900895888194
:10099000EECF0F931F93CF93DF931F92CDB7DEB7A8
:1009A00082E0898342E450E069E676E080E80E94D4
:1009B000A3040E94E003DC0112960D911C91011525
:1009C000110589F0D801ED91FC910280F381E02DB1
:1009D000BE016F5F7F4FC801099597FD04C0F80104
:1009E00000851185ECCF89810F90DF91CF911F9108
:1009F0000F910895615030F02091F100FC012083A7
:100A00000196F8CF289884E68093C30108953FB7F4
:100A1000F8948091AB019091AC01A091AD01B0919F
:100A2000AE0126B5A89B05C02F3F19F00196A11D68
:100A3000B11D3FBFBA2FA92F982F8827BC01CD0128
:100A4000620F711D811D911D42E0660F771F881F87
:100A5000991F4A95D1F708958F929F92AF92BF92B6
:100A6000CF92DF92EF92FF926B017C010E9407050B
:100A70004B015C01C114D104E104F104B9F00E94FE
:100A80000705681979098A099B09683E7340810541
:100A9000910580F321E0C21AD108E108F10888EE3F
:100AA000880E83E0981EA11CB11CE4CFFF90EF904C
:100AB000DF90CF90BF90AF909F908F9008958F92CE
:100AC0009F92AF92BF92CF92DF92EF92FF920F93DD
:100AD0001F93CF93DF936C017B018A018091710199
:100AE000882309F45CC08091C401882309F457C0AD
:100AF0008091B60180FF05C08091E0008260809304
:100B0000E000E801B12C8AEFA82E93E0892E2AE3B9
:100B1000922E209711F4BB20D9F10E94CF038111AE
:100B20000AC0AA94AA20D9F161E070E080E090E0C8
:100B30000E942C05EECF8C171D0611F00CF08C2FA7
:100B40009FB7F8948092E9002091E80025FD02C04B
:100B50009FBFDFCF282F30E0C21BD30BF70181509E
:100B600020F041914093F100FACFE20EF31EBB203A
:100B700021F09092E800B12CEBCF8091E80085FD48
:100B8000E7CF9092E800BB24B394209709F3F3CF0A
:100B90005D9884E68093B501101611063CF081E063
:100BA00090E0F6019383828310E000E0C801DF91BA
:100BB000CF911F910F91FF90EF90DF90CF90BF905A
:100BC000AF909F908F900895AF92BF92CF92DF9297
:100BD000EF92FF920F931F93CF93DF936C017B01F2
:100BE0008B01040F151FEB015E01AE18BF08C01783
:100BF000D10759F06991D601ED91FC910190F081F6
:100C0000E02DC6010995892B79F7C501DF91CF91B8
:100C10001F910F91FF90EF90DF90CF90BF90AF901A
:100C200008952D9A0895BC0190E080E00C942C0565
:100C30008FB18095807F669B88601C9B846008953F
:100C4000AF92BF92CF92DF92EF92FF920F931F93DA
:100C5000CF93DF936D3079F0C091A401D091A501BD
:100C60006A30B1F41092A3011092A2012896D09399
:100C7000A501C093A40181E090E0DF91CF911F9185
:100C80000F91FF90EF90DF90CF90BF90AF900895BD
:100C90004091A2015091A30185E0689FF0011124C9
:100CA000E455FF4F9A01C12C80E1E82EA5E070E0E9
:100CB000CA1621F0CF0101967491FC0110E000E00A
:100CC000B72FB170DB2E20383105D0F4CE01800F64
:100CD000911F80349105A0F461E081FD64E080FD06
:100CE000660F82FD6295887FE89ED0011124A20FD5
:100CF000F62EAB53BE4F8C91DD20A9F0862B8C9342
:100D000076950F5F1F4F08301105D1F6C3942F5F02
:100D10003F4F86E0C812CACF4A5F5F4F5093A3018E
:100D20004093A201A8CFF0948F21E9CF80E00C94EA
:100D30009603089590E080E008958F929F92AF927D
:100D4000BF920F931F93CF93DF93CDB7DEB7A197D9
:100D50000FB6F894DEBF0FBECDBF19A2423008F423
:100D60004AE08E010F5D1F4F842E912CB12CA12CD7
:100D7000A50194010E946A0DE62FB901CA01EA306B
:100D800044F5E05DD801EE938D01232B242B252B18
:100D900079F790E080E0109769F0FD010190002064
:100DA000E9F73197AF014A1B5B0BBD0185E196E086
:100DB0000E94E405A1960FB6F894DEBF0FBECDBF2A
:100DC000DF91CF911F910F91BF90AF909F908F9027
:100DD0000895E95CD7CFFC0101900020E9F7319735
:100DE000AF01481B590BBC0185E196E00C94E4056A
:100DF000CF92DF92EF92FF92CF93DF9397FF1BC0CA
:100E00006B017C016DE285E196E00E942006EC0119
:100E100066277727CB016C197D098E099F094AE067
:100E20000E949D068C0F9D1FDF91CF91FF90EF9048
:100E3000DF90CF9008954AE0DF91CF91FF90EF903F
:100E4000DF90CF900C949D060C94540D1F920F923E
:100E50000FB60F9211248F939F938091E100909190
:100E6000E100937F9093E10083FF0FC01092E900AF
:100E700091E09093EB001092EC0092E39093ED00E0
:100E80001092C40198E09093F00082FF22C093E09A
:100E90009093E9009091F200992319F09AE39093CE
:100EA000E8009091B501992341F09091B5019150DE
:100EB0009093B501911101C05D9A9091C30199235E
:100EC00041F09091C30191509093C301911101C0E1
:100ED000289A84FF18C08091E2008E7E8160809302
:100EE000E2008091E1008F7E8093E1008091B60165
:100EF0008E7E80618093B6019F918F910F900FBE7F
:100F00000F901F90189580FFF7CF8091E2008E7EA2
:100F100080618093E2008091E1008E7E8093E10009
:100F20008091B6018E7E8160E5CF1F920F920FB641
:100F30000F921124CF92DF92EF92FF920F931F93A3
:100F40002F933F934F935F936F937F938F939F93D1
:100F5000AF93BF93EF93FF93CF93DF93CDB7DEB7FC
:100F60006C97DEBFCDBF1092E9008091E80083FF4F
:100F700025C068E0CE0145960E94FA0482EF809376
:100F8000E8008D8987FF39C09091E80090FFFCCF81
:100F9000982F907609F034C19E894F89588D2F89FA
:100FA000F88C911131C0803861F58091B401809343
:100FB000F1001092F1008EEF8093E8006C960FB66E
:100FC000F894DEBF0FBECDBFDF91CF91FF91EF91BF
:100FD000BF91AF919F918F917F916F915F914F9151
:100FE0003F912F911F910F91FF90EF90DF90CF9045
:100FF0000F900FBE0F901F9018959EEF9093E800F2
:10100000C7CF1092F100D5CF913059F48111D3CFD1
:101010004130510581F68091B4018D7F8093B401F8
:10102000CACF933049F48111C6CF4130510519F62A
:101030008091B4018260F2CF953041F48091E80054
:1010400080FFFCCF20682093E300B5CF963009F0F5
:10105000A9C00B8D1C8D22E01092E9001092B20104
:101060001092B101F2122EC01092B0011092AF0195
:101070000E94C9041F8299E09983FA8291E09E83BD
:1010800090EA98879AEF99872091B1013091B20147
:10109000275F3F4F3C832B838D831092E900109292
:1010A000B2011092B1011093B0010093AF0149E079
:1010B00050E0BE016F5F7F4F80E00E94A3040E945A
:1010C000C90479CF1093B0010093AF010E94E003EF
:1010D000DC0112960D911C910115110509F451C105
:1010E000D801ED91FC910480F581E02DBE016B5E8D
:1010F0007F4FC8010995009709F03EC1F8010085AE
:101100001185EACFF3E0FF120EC08F89882309F41E
:1011100040C0823061F440E867E08DEC96E00E94C8
:10112000110A811148CF81E28093EB0047CF8130D3
:1011300029F440E86BE081EC96E0F1CF833099F739
:101140000E94E003DC011296ED90FC908E010F5F8F
:101150001F4F6801E114F10479F0D701ED91FC9182
:101160000680F781E02DB801C7010995080F111D10
:10117000F701E084F184EECFD8011C92F6010190D2
:101180000020E9F73197BF016C197D0940E0C601E5
:10119000C6CF6BEA76E0FB01449150E080E80E9404
:1011A000A30409CF973009F4BECF983021F481E031
:1011B0008093F10000CF993009F0FDCE837009F0E3
:1011C000B2CFE3E7F1E081E031E096E32191222321
:1011D00071F08093E9003093EB00DF0111972C91BF
:1011E0002093EC009093ED008F5F873079F78EE7C6
:1011F0008093EA001092EA008F898093C401DBCECD
:101200008B8D9C8D1092E9001092B2011092B10169
:101210009093B0018093AF01898D811192C08E8926
:101220009D89913A49F4813209F07DCF47E050E041
:101230006AE671E080E0B3CF913209F074CF833277
:1012400069F48F89988DB0E0A0E080936601909357
:101250006701A0936801B0936901ADCE803269F453
:101260008091E80082FFFCCF67E08AE691E00E946F
:10127000FA048BEF8093E8009ECE823209F09BCE79
:101280008F8980937101EEEFFFE7859194918B3FF9
:101290009C4D51F1E0E0F8E080916A0190916B0182
:1012A000A0916C01B0916D01803B9440A105B10506
:1012B000F1F48091710180FD1AC0EE3F8AE0F807D9
:1012C00089F587E797E79183808380916000809319
:1012D000B30188E19BE00FB6F894A8958093600075
:1012E0000FBE9093600067CEEEEFFAE0D5CF80811D
:1012F00091818737974709F05ECEA895809160006D
:101300008861809360008091B30180936000EE3F1C
:101310002AE0F20789F08091FE0A9091FF0A9183FA
:10132000808349CE808191818737980751F29093CD
:10133000FF0A8093FE0AC5CF1092FF0A1092FE0AA0
:101340003ACE0E94E003DC0112960D911C9101152A
:10135000110509F4E8CED801ED91FC910190F081DE
:10136000E02DBE016B5E7F4FC8010995811123CE30
:10137000F80100851185EBCF181619060CF41BCE69
:10138000D2CEF1E0FF12BECE6FEA76E004CF1F921C
:101390000F920FB60F9211242F933F938F939F9329
:1013A000AF93BF938091A7019091A801A091A9014B
:1013B000B091AA013091A60123E0230F2D3758F5F3
:1013C0000196A11DB11D2093A6018093A7019093C2
:1013D000A801A093A901B093AA018091AB019091BB
:1013E000AC01A091AD01B091AE010196A11DB11D5E
:1013F0008093AB019093AC01A093AD01B093AE018B
:10140000BF91AF919F918F913F912F910F900FBE00
:101410000F901F90189526E8230F0296A11DB11D6D
:10142000D2CFEF92FF920F931F93CF93DF93F82EBB
:10143000192FE62E042F81E0860F880F0E94750475
:1014400083E00E947504CF2DD12FEC0EFD2EF11CF0
:10145000CE15DF05B9F007FF13C0FE0184910E948D
:101460007504182F80E00E94750481232196811154
:10147000EFCFDF91CF911F910F91FF90EF900895E3
:101480008881EDCF81E0F5CFE5ECF5E013821282A3
:1014900088EE93E0A0E0B0E084839583A683B783D1
:1014A0008DE791E0918380838FEF9FEF958784870D
:1014B000E5E1F6E0138212828FE891E09183808368
:1014C0000895789484B5826084BD84B5816084BDBC
:1014D00085B5826085BD85B5816085BD80916E00D2
:1014E000816080936E001092810080918100826003
:1014F0008093810080918100816080938100809140
:101500008000816080938000809191008260809350
:101510009100809191008160809391008091900072
:101520008160809390008091C10084608093C100AD
:101530008091C10082608093C1008091C100816070
:101540008093C1008091C30081608093C30080912B
:10155000C00082608093C0008091C200816080934F
:10156000C20080917A00846080937A0080917A0032
:10157000826080937A0080917A00816080937A0003
:1015800080917A00806880937A001092C401109252
:10159000B4011092B6018091D70081608093D7008A
:1015A00080EA8093D80089B5806189BD89B5826061
:1015B00089BD09B400FEFDCF61E070E080E090E0FD
:1015C0000E942C058091D8008F7C80618093D80088
:1015D0008091E000807F8093E0008091E1008E7E2A
:1015E0008093E1008DE08093E200559A209A81EC8F
:1015F00080937C0085B1806F85B984B1877E84B982
:1016000084B1876E84B95E9A5F988AB1806D8AB919
:10161000769A6E9881B3806F81BB899880B38D7004
:1016200080BB80E58CBD81E08DBD85E090E00E94AF
:1016300013065F9A85E090E00E9413065E985C981E
:10164000ECE5F6E089E696E024912EBD00000DB4AD
:1016500007FEFDCF31968E179F07B1F75C9A81E8A0
:1016600080936400809165008160809365000E9492
:1016700096060E94180687FF15C05C9885EA8EBD05
:1016800000000DB407FEFDCF5C9A2E982F982D9880
:101690008091640080628093640081E083BF8895BC
:1016A00013BEFCCF0E94180682FF48C02D980E94EE
:1016B000180684788438E1F40E94110688EC90E0E2
:1016C0000E9413062F9882E090E00E94540D8F3FF5
:1016D00029F06FEF82E090E00E945C0D84EF91E0D2
:1016E0000E9413062F9A0E94180684788438D9F332
:1016F0000E94180684718431E1F40E94110688EC7E
:1017000090E00E9413062E9882E090E00E94540D13
:10171000882329F060E082E090E00E945C0D84EF75
:1017200091E00E9413062E9A0E941806847184315B
:10173000D9F388EC90E00E941306B4CF0E94110602
:1017400082E090E00E942407882309F45CC03E9A5E
:101750003F9A81E090E00E942407482F4470942E25
:1017600081FF10C041112E98C1EFDFEF08E010E0BB
:10177000B8E58B2E0E94180686FF48C02E9A2F9A35
:101780000E94110682E390E00E9413060E94180650
:101790008111F8CFE5ECF1E081118FEF0024819306
:1017A0008193819381930394D1F71092A5011092B4
:1017B000A4011092A3011092A201609164017091A2
:1017C0006501072E000C880B990B0E94F80687E92B
:1017D00091E00E94EB0600E011E0D0E0C0E08091D3
:1017E000640190916501C817D9070CF0D0C0D801E9
:1017F0006D917D918D01072E000C880B990B0E9435
:10180000F8062196ECCF3E983F98A3CF992029F077
:10181000C430D10511F42E9A2F9881E00E949603CE
:101820009E01D7FF04C0222733272C1B3D0B2770B6
:101830003327CE01D7FD0796A3E095958795AA9506
:10184000E1F7D7FF05C00197D801A21BB30B9D019B
:10185000BC017695762F6627779567956B537E4FFB
:10186000F12CE12C3801621A730A8E3FBFEF9B07FF
:1018700009F43DC08E9CD0018F9CB00D112450E026
:1018800040E0A455BA4F5B01E0E8AE0EB11C8F3FBB
:10189000980791F0FD01E40FF51FE4916B01C40E70
:1018A000D51EF0E02F01022E01C0440C0A94EAF785
:1018B000F60154884528448A2115310599F0FD0127
:1018C000E40FF51FE4916501C40ED51EF0E02F0171
:1018D000062C02C0559447940A94E2F7F601548806
:1018E0004528448A4F5F5F4F4835510581F6019680
:1018F00060587F4FEA94EF2809F045C00E94960691
:101900008FE090E00E9413062196C931D10509F0BD
:1019100031CF992011F02F9A2D9880E991E00E9403
:1019200013060E94110681E090E00E94240780FFC8
:1019300029CF8AE090E00E9424079FEF980F9E3FF6
:1019400008F020CF22E330E03093A3012093A201DE
:1019500028E330E03093A5012093A401CBE0D0E050
:10196000682F85E196E00E942006CE010E942407A0
:101970002196C131D105A1F70E94960688EE93E029
:101980000E941306FFCEEE24E394F12C6ECF80EA82
:1019900091E00E94EB06E3E0F0E0EF012197209157
:1019A000640130916501CE01B9010E948C0D880F50
:1019B000991FAC0140505F4F7A01DA01CD90DC9065
:1019C000CF010196B9010E948C0D8C01000F111FEF
:1019D00000501F4FD8018D919C91C816D90609F06F
:1019E0005AC0BFEFCB1ADB0AD701CD92DC92CF01F0
:1019F000B9010E948C0DDC01AA0FBB1FA050BF4F84
:101A00001D921C92D8011D921C92CF010296B90121
:101A10000E948C0DFC01EE0FFF1FE050FF4F82175C
:101A2000930744F441915191DF0116974D935C93D4
:101A30000196F5CFB9016250710970936501609309
:101A40006401072E000C880B990B0E94F80687E9A9
:101A500091E00E94EB0680E0E82E81E0F82E10E095
:101A600000E08091640190916501081719076CF4FA
:101A7000F701619171917F01072E000C880B990B82
:101A80000E94F8060F5F1F4FECCF80EA91E00E94A2
:101A9000EB06FE0182CF0E949606C0E0D0E02097C0
:101AA000F1F30E940000FBCFF999FECF92BD81BDFA
:101AB000F89A992780B50895262FF999FECF1FBA75
:101AC00092BD81BD20BD0FB6F894FA9AF99A0FBE67
:101AD00001960895A1E21A2EAA1BBB1BFD010DC0A1
:101AE000AA1FBB1FEE1FFF1FA217B307E407F507CE
:101AF00020F0A21BB30BE40BF50B661F771F881FAA
:101B0000991F1A9469F760957095809590959B013F
:101B1000AC01BD01CF01089597FB072E16F4009488
:101B200007D077FD09D00E94A00D07FC05D03EF438
:101B3000909581959F4F0895709561957F4F089579
:101B4000AA1BBB1B51E107C0AA1FBB1FA617B707E3
:101B500010F0A61BB70B881F991F5A95A9F78095FF
:101B60009095BC01CD010895EE0FFF1F0590F491F3
:081B7000E02D0994F894FFCF69
:101B7800010002000300FFFF030002000100020051
:101B8800000000000000000000000000000000004D
:101B9800000000000000000000000000000000003D
:101BA800000000000000000000000000000000002D
:101BB800000000000000000000000000000000001D
:101BC800000000000000000000000000000000000D
:101BD800000000000800FFFFFFFF00E10000000018
:101BE800000000C1808100000000000000F4035FD5
:101BF8000515040A045B04190437040000000020DA
:101C080006E4059A0699062041746F6D733A200020
:021C18000A00C0
:00000001FF
