:100000000C9492030C94BA030C94BA030C94BA03A4
:100010000C94BA030C94BA030C94BA030C94BA036C
:100020000C94BA030C94BA030C94410B0C94B00BCF
:100030000C94BA030C94BA030C94BA030C94BA034C
:100040000C94BA030C94BA030C94BA030C94BA033C
:100050000C94BA030C94BA030C94BA030C94E20DFA
:100060000C94BA030C94BA030C94BA030C94BA031C
:100070000C94BA030C94BA030C94BA030C94BA030C
:100080000C94BA030C94BA030C94BA030C94BA03FC
:100090000C94BA030C94BA030C94BA030C94BA03EC
:1000A0000C94BA030C94BA030C94BA03084AD73BD5
:1000B0003BCE016E84BCBFFDC12F3D6C74319ABD37
:1000C00056833DDA3D00C77F11BED9E4BB4C3E915B
:1000D0006BAAAABE000000803F05A84CCDB2D44E4A
:1000E000B93836A9020C50B9918688083CA6AAAA4C
:1000F0002ABE000000803F0000000000003E5B4F71
:100100005B3E3E6B4F6B3E1C3E7C3E1C183C7E3C77
:10011000181C577D571C1C5E7F5E1C00183C180085
:10012000FFE7C3E7FF0018241800FFE7DBE7FF3015
:10013000483A060E2629792926407F050507407F83
:1001400005253F5A3CE73C5A7F3E1C1C08081C1CF6
:100150003E7F14227F22145F5F005F5F06097F01EC
:100160007F006689956A606060606094A2FFA294D7
:1001700008047E040810207E201008082A1C0808A5
:100180001C2A08081E101010100C1E0C1E0C3038F3
:100190003E3830060E3E0E06000000000000005FF4
:1001A00000000007000700147F147F14242A7F2A10
:1001B00012231308646236495620500008070300D2
:1001C000001C2241000041221C002A1C7F1C2A081E
:1001D000083E080800807030000808080808000081
:1001E00060600020100804023E5149453E00427FF5
:1001F000400072494949462141494D331814127F44
:100200001027454545393C4A4949314121110907E3
:100210003649494936464949291E00001400000064
:100220004034000000081422411414141414004136
:1002300022140802015909063E415D594E7C1211F3
:10024000127C7F494949363E414141227F4141412B
:100250003E7F494949417F090909013E41415173A6
:100260007F0808087F00417F41002040413F017F17
:10027000081422417F404040407F021C027F7F04DF
:1002800008107F3E4141413E7F090909063E415128
:10029000215E7F09192946264949493203017F0118
:1002A000033F4040403F1F2040201F3F4038403F19
:1002B000631408146303047804036159494D43002F
:1002C0007F4141410204081020004141417F040266
:1002D00001020440404040400003070800205454FD
:1002E00078407F28444438384444442838444428DB
:1002F0007F385454541800087E090218A4A49C782E
:100300007F0804047800447D40002040403D007F89
:100310001028440000417F40007C047804787C0869
:100320000404783844444438FC182424181824243D
:1003300018FC7C08040408485454542404043F4422
:10034000243C4040207C1C2040201C3C4030403C51
:1003500044281028444C9090907C4464544C4400B1
:100360000836410000007700000041360800020115
:100370000204023C2623263C1EA1A161123A404001
:10038000207A38545455592155557941215454787F
:1003900041215554784020545579400C1E52721218
:1003A00039555555593954545459395554545800A0
:1003B00000457C410002457D420001457C40F0291A
:1003C0002429F0F0282528F07C5455450020545469
:1003D0007C547C0A097F49324949493232484848AD
:1003E00032324A4848303A4141217A3A42402078F4
:1003F000009DA0A07D39444444393D4040403D3CEF
:1004000024FF2424487E4943662B2FFC2F2BFF0911
:1004100029F620C0887E0903205454794100004405
:100420007D413048484A32384040227A007A0A0AF0
:10043000727D0D19317D2629292F28262929292663
:1004400030484D4020380808080808080808382FA8
:1004500010C8ACBA2F102834FA00007B0000081432
:100460002A142222142A14089500220095AA005565
:1004700000AAAA55AA55AA000000FF00101010FFFC
:1004800000141414FF001010FF00FF1010F010F003
:10049000141414FC001414F700FF0000FF00FF14F4
:1004A00014F404FC141417101F10101F101F141440
:1004B000141F00101010F0000000001F101010108A
:1004C0001F10101010F010000000FF10101010107E
:1004D00010101010FF10000000FF140000FF00FFBC
:1004E00000001F10170000FC04F414141710171458
:1004F00014F404F40000FF00F7141414141414147A
:10050000F700F7141414171410101F101F141414EC
:10051000F4141010F010F000001F101F0000001F56
:1005200014000000FC140000F010F01010FF10FF89
:10053000141414FF141010101F00000000F010FF1E
:10054000FFFFFFFFF0F0F0F0F0FFFFFF0000000002
:1005500000FFFF0F0F0F0F0F38444438447C2A2A46
:100560003E147E02020606027E027E026355494167
:10057000633844443C04407E201E2006027E020272
:1005800099A5E7A5991C2A492A1C4C7201724C3086
:100590004A4D4D303048784830BC625A463D3E495D
:1005A0004949007E0101017E2A2A2A2A2A44445F01
:1005B000444440514A444040444A51400000FF01F5
:1005C00003E080FF000008086B6B08361236243603
:1005D000060F090F06000018180000001010003068
:1005E00040FF0101001F01011E00191D1712003CF0
:1005F0003C3C3C0000000000F0F89C8E8783878E16
:100600009CF8F00000FEFF0303030303070EFCF851
:100610000000FEFF0303030303070EFCF80000FFC6
:10062000FF00000000000000FFFF0000FEFF8383CA
:10063000838383C7EE7C380000F8FC0E07030303B6
:10064000070EFCF800003F7FE0C08080C0E07F3FE5
:10065000FFFF01010101010101FFFF0000FFFF0C8D
:100660000C0C0C1C3E77E3C100007FFFC0C0C0C073
:10067000C0E0703F1F00001F3F70E0C0C0C0E070CE
:100680003F1F00007FFFC1C1C1C1C1E3773E1C0015
:10069000001F3F70E0C0C0C0E0703F1F00000000BE
:1006A0000001FFFF01000000D5F08D14A1C881CF2B
:1006B000D9F1AF2000080B0002020200000904007B
:1006C00000010202000005240010010524010101BF
:1006D00004240206052406000107058103100040DA
:1006E00009040100020A00000007050202400000A0
:1006F000070583024000000403090412010002EF11
:10070000020140412336800001010203014172646D
:1007100075696E6F204C4C430041726475626F794D
:1007200000005F0E11241FBECFEFDAE0DEBFCDBFA9
:1007300011E0A0E0B1E0EEE2F7E302C005900D9217
:10074000A039B107D9F727E0A0E9B1E001C01D92B7
:10075000A835B207E1F713E0C2E9D3E004C021975E
:10076000FE010E948F1BC139D107C9F70E947C0E80
:100770000C94951B0C9400002F923F924F925F9225
:100780006F927F928F929F92AF92BF92CF92DF92A1
:10079000EF92FF920F931F93CF93DF93EC012B0106
:1007A0003A01DA011D921C92FB011182108230E0A5
:1007B00020E0F12CE12C2C173D070CF04EC0690114
:1007C000F2E0CF0ED11CE2E0F0E0CE17DF070CF430
:1007D00041C01F013594279410E000E0560181E0EC
:1007E000A81AB108C801820F931FBE010E94671B9F
:1007F000DC01AA0FBB1FA85EBE4F8D909C90C50167
:10080000801B910BBE010E94671BDC01AA0FBB1F5E
:10081000A85EBE4F8D919C9188169906B1F48920EF
:10082000809499F00F5F1F4F20163106D9F6EE160F
:10083000FF065CF4D2012D933C93C501BE010E94DA
:10084000671BD3018D939C937F013296B2E0CB0E50
:10085000D11CBBCF2F5F3F4FAECFC701DF91CF91F0
:100860001F910F91FF90EF90DF90CF90BF90AF90CE
:100870009F908F907F906F905F904F903F902F90C0
:100880000895E4E0F3E0A0E0B8E000800EBC811140
:10089000012C1197A0FDFDCF0192B9F70DB4089579
:1008A000FC0180910303882311F13FB7F89482E0A3
:1008B0008093E9002091F200822F90E0181619062B
:1008C00014F481E090E0882339F0289844E64093BE
:1008D00002034091F1004083222339F02091F2007D
:1008E000211103C02BE62093E8003FBF08958FEF4E
:1008F0009FEF08952FB7F89483E08093E9009091DB
:10090000E800892F807295FF04C09091F20080E486
:10091000891B2FBF08958091FA0281110DC082E0DA
:100920008093F60284E08093F7021092F90210920D
:10093000F80281E08093FA0286EF92E00895CF9367
:10094000DF931F92CDB7DEB76983DC01ED91FC9197
:100950000280F381E02D41E050E0BE016F5F7F4FE8
:1009600009950F90DF91CF91089583E08093E9007E
:100970008091F200882319F08AE38093E8000895BB
:100980000E947A0490E00895CF93DF931F92CDB731
:10099000DEB7FC018485958597FD08C02FEF3FEFFA
:1009A000358724870F90DF91CF910895CE0101966E
:1009B0000E945004019719F4898190E0F3CF8FEFE2
:1009C0009FEFF0CF0F931F93CF93DF931F92CDB77D
:1009D000DEB78C01FC018485958597FF0BC0CE01A5
:1009E00001960E945004019771F4898190E0F8010A
:1009F00095878487F801848595850F90DF91CF9145
:100A00001F910F9108958FEF9FEFF1CFFC01848527
:100A1000958597FD0BC09FB7F89482E08093E9001D
:100A20008091F2009FBF90E0019608959FB7F894DF
:100A300082E08093E9008091F2009FBF90E00895EA
:100A40004091F0025091F1022091EE023091EF02BC
:100A500042175307B4F49091E8009570E1F3909138
:100A6000E80092FD19C08093F1008091F00290910E
:100A7000F10201968F739927892B19F48EEF8093D9
:100A8000E8008091F0029091F10201969093F102BA
:100A90008093F00281E0089580E00895DF92EF9264
:100AA000FF920F931F93CF93DF93D82E8A01EB0110
:100AB0007B01E40EF51ECE15DF0559F0D7FE12C0FE
:100AC000FE0184910E94200521968111F4CF0FEF41
:100AD0001FEFC801DF91CF911F910F91FF90EF9011
:100AE000DF9008958881EECF0F931F93CF93DF930C
:100AF0001F92CDB7DEB782E0898342E450E065EB18
:100B000076E080E80E944E050E948B04DC0112967C
:100B10000D911C910115110589F0D801ED91FC9101
:100B20000280F381E02DBE016F5F7F4FC801099500
:100B300097FD04C0F80100851185ECCF89810F90E5
:100B4000DF91CF911F910F910895615030F0209166
:100B5000F100FC0120830196F8CF289884E6809369
:100B600002030895AF92BF92CF92DF92EF92FF926D
:100B70000F931F93CF93DF936C017B018B01040FC5
:100B8000151FEB015E01AE18BF08C017D10759F061
:100B90006991D601ED91FC910190F081E02DC601A3
:100BA0000995892B79F7C501DF91CF911F910F919D
:100BB000FF90EF90DF90CF90BF90AF9008952D9A67
:100BC00008958FB18095807F669B88601C9B8460B0
:100BD000089580E0E4E0F3E081118FEF0024819339
:100BE0008193819381930394D1F71092B70210926D
:100BF000B6021092B9021092B80208959091BA020A
:100C0000982329F49091BB02982381E009F480E0B5
:100C1000089580E00C94410480389105B8F4603464
:100C20007105A0F420E191E061FD94E060FD990F71
:100C300062FD9295687F269FD0011124A80FAC5FBA
:100C4000BC4F8C9140FF03C0892B8C9308959095E5
:100C50008923FBCFEF92FF920F931F93CF93DF93E4
:100C60007C018B01040F111DEB0177FF02C0D0E066
:100C7000C0E0C8010134110514F080E490E0C81709
:100C8000D9073CF441E0BE01C7010E940C06219641
:100C9000F0CFDF91CF911F910F91FF90EF900895CA
:100CA0008F929F92AF92BF92CF92DF92EF92FF927C
:100CB0000F931F93CF93DF93EC018B017B0182E0B5
:100CC000E81AF1085E018FEFA81AB80A45E0B701EB
:100CD000C5010E942A06015011094E0182E0880ECA
:100CE000911C43E0B801C4010E942A066E0181E014
:100CF000C81AD10845E0B701C6010E942A0622970A
:100D000043E0B801CE010E942A0643E0B801C401C5
:100D10000E942A0645E0B701C5010E942A0643E069
:100D2000B801CE010E942A0645E0B701C601DF9155
:100D3000CF911F910F91FF90EF90DF90CF90BF90D8
:100D4000AF909F908F900C942A068F929F92AF92B3
:100D5000BF92CF92DF92EF92FF920F931F93CF93A8
:100D6000DF936D3089F0C090B602D090B7026A3040
:100D7000D1F41092B9021092B80288E0C80ED11CCA
:100D8000D092B702C092B60281E090E0DF91CF919D
:100D90001F910F91FF90EF90DF90CF90BF90AF9099
:100DA0009F908F9008950091B8021091B902E5E0EC
:100DB0006E9FE0011124C850DF4F4801F12CF5E08F
:100DC000E12CFF1629F0CE010196FE01E490EC0122
:100DD000B12CA12C4E2D4170B6016A0D7B1DC401B2
:100DE0000E940C06E694FFEFAF1ABF0A88E0A8162F
:100DF000B10481F7F394EFEF8E1A9E0AF6E0FF122A
:100E0000DECF0A5F1F4F1093B9020093B802BCCF28
:100E10003FB7F8948091920190919301A091940131
:100E2000B091950126B5A89B05C02F3F19F00196FA
:100E3000A11DB11D3FBFBA2FA92F982F8827BC0134
:100E4000CD01620F711D811D911D42E0660F771F5C
:100E5000881F991F4A95D1F708958F929F92AF925C
:100E6000BF92CF92DF92EF92FF926B017C010E94C2
:100E700008074B015C01C114D104E104F104B9F08D
:100E80000E940807681979098A099B09683E73401E
:100E90008105910580F321E0C21AD108E108F1082B
:100EA00088EE880E83E0981EA11CB11CE4CFFF9051
:100EB000EF90DF90CF90BF90AF909F908F9008956C
:100EC0008F929F92AF92BF92CF92DF92EF92FF925A
:100ED0000F931F93CF93DF936C017B018A01809165
:100EE0001701882309F45CC080910303882309F467
:100EF00057C08091F50280FF05C08091E0008260BC
:100F00008093E000E801B12C8AEFA82E93E0892EAF
:100F10002AE3922E209711F4BB20D9F10E947A0483
:100F200081110AC0AA94AA20D9F161E070E080E0A2
:100F300090E00E942D07EECF8C171D0611F00CF0EB
:100F40008C2F9FB7F8948092E9002091E80025FD4E
:100F500002C09FBFDFCF282F30E0C21BD30BF701A9
:100F6000815020F041914093F100FACFE20EF31E40
:100F7000BB2021F09092E800B12CEBCF8091E800EB
:100F800085FDE7CF9092E800BB24B394209709F346
:100F9000F3CF5D9884E68093F402101611063CF0BE
:100FA00081E090E0F6019383828310E000E0C801C5
:100FB000DF91CF911F910F91FF90EF90DF90CF9035
:100FC000BF90AF909F908F900895BC0190E080E01B
:100FD0000C942D07FC01CB012091070130910801F1
:100FE000B9010E94671BAC01440F551FE40FF51FA8
:100FF000215031098217930734F442815381419380
:1010000051930196F7CF309308012093070108957B
:10101000089590E080E008958F929F92AF92BF92E2
:101020000F931F93CF93DF93CDB7DEB7A1970FB682
:10103000F894DEBF0FBECDBF19A2423008F44AE0DB
:101040008E010F5D1F4F842E912CB12CA12CA50178
:1010500094010E94E517E62FB901CA01EA3044F570
:10106000E05DD801EE938D01232B242B252B79F7FE
:1010700090E080E0109769F0FD0101900020E9F711
:101080003197AF014A1B5B0BBD0184E597E00E94DD
:10109000B205A1960FB6F894DEBF0FBECDBFDF91AB
:1010A000CF911F910F91BF90AF909F908F90089517
:1010B000E95CD7CFFC0101900020E9F73197AF013F
:1010C000481B590BBC0184E597E00C94B205CF9204
:1010D000DF92EF92FF92CF93DF936C01990FEE08AE
:1010E000FF08F7FE19C06DE284E597E00E94A506AF
:1010F000EC0166277727CB016C197D098E099F09C2
:101100004AE00E940C088C0F9D1FDF91CF91FF9049
:10111000EF90DF90CF9008954AE0C701B601DF91CC
:10112000CF91FF90EF90DF90CF900C940C082F920E
:101130003F924F925F926F927F928F929F92AF9267
:10114000BF92CF92DF92EF92FF920F931F93CF93B4
:10115000DF9300D000D000D0CDB7DEB78C017E8306
:101160006D833A016B5F7F4F41E00E940C066D81F9
:101170007E816550710941E0C8010E940C0641E082
:101180006D817E81C80105960E940C0641E06D814B
:101190007E81C80105970E940C0681E090E09A8349
:1011A0008983D12CC12C85E0E82EF12C86EF9FEFAE
:1011B0009C838B839CEFA92EBB24BA949FEFC91A02
:1011C000D90A89819A8102969A838983A80EB91EC9
:1011D0002601400E511E41E08D809E808E0C9F1C8A
:1011E000B401C2010E940C0618012C183D0841E010
:1011F000B401C1010E940C0641E08D809E808E18D2
:101200009F08B401C2010E940C0641E0B401C10173
:101210000E940C068D809E808C0C9D1C41E0B401C8
:1012200028014E0C5F1CC2010E940C0641E0B40173
:1012300018012E183F08C1010E940C068D809E8067
:101240008C189D0841E0B401C2010E940C0641E0E7
:10125000B401C1010E940C06CE14DF04B4F1C80130
:1012600002979093B9028093B8028D819E81039773
:101270009093B7028093B6029FEF6916790691F5B5
:1012800089E691E00E945A086D817E816C5F7F4FF4
:1012900041E0C801039626960FB6F894DEBF0FBE54
:1012A000CDBFDF91CF911F910F91FF90EF90DF9015
:1012B000CF90BF90AF909F908F907F906F905F90F6
:1012C0004F903F902F900C940C06B7FC77CF91E095
:1012D000E91AF1088B819C8102969C838B83A80E6E
:1012E000B91E6CCF8EEF68168FEF780619F48BE677
:1012F00091E0C8CFC3010E946708C6CFEF92FF926A
:101300000F931F93CF93DF938C017B01CB010E943E
:1013100067088CE891E00E945A08E80110E000E0BC
:101320000E151F053CF4899199910E9467080F5F83
:101330001F4FF6CF8DE691E0DF91CF911F910F9176
:10134000FF90EF900C945A080C949D172F923F92A7
:101350004F925F926F927F928F929F92AF92BF92C5
:10136000CF92DF92EF92FF920F931F93CF93DF9371
:101370006B017C01EA01190160910701709108017C
:10138000072E000C880B990B0E94A9199B01AC0138
:101390006BED7FE089EC90E40E94FF18A7019601B5
:1013A0000E94CC1A6B017C010E94FA182B013C01AF
:1013B000BE01DD0F880B990B0E94A9194B015C013E
:1013C000AC019B01C301B2010E94CC1A20E030E0C5
:1013D00040E852E40E9417180E947119F1017183CC
:1013E0006083C701B6010E94391B9B01AC01C50196
:1013F000B4010E94CC1A20E030E040E052E40E94A8
:1014000017180E947119F80171836083DF91CF91E1
:101410001F910F91FF90EF90DF90CF90BF90AF9012
:101420009F908F907F906F905F904F903F902F9004
:1014300008952F923F924F925F926F927F928F9278
:101440009F92AF92BF92CF92DF92EF92FF920F9353
:101450001F93CF93DF93CDB7DEB728970FB6F894DD
:10146000DEBF0FBECDBF6B017C01609107017091A3
:101470000801072E000C880B990B0E94A9199B01EB
:10148000AC016BED7FE089EC90E40E94FF184B010A
:101490005C016091C3027091C402072E000C880B9E
:1014A000990B0E94A919A50194010E94CC1A2B0145
:1014B0003C01A7019601C501B4010E94CC1A9B0111
:1014C000AC01C301B2010E9417184B015C010E94DC
:1014D000391B2B013C0120E030E040EC51E40E943C
:1014E000CC1A20E030E040E052E40E9417180E943D
:1014F00071196B011B01C501B4010E94FA184B015F
:101500005C0120E030E040EC51E40E94CC1A20E085
:1015100030E040E852E40E9417180E9471196B8372
:101520007C838D839E830B811C8120E030E040E230
:1015300051E4C301B2010E94CC1A20E030E040E047
:1015400052E40E9417180E9471192B0178876F834B
:1015500020E030E040E251E4C501B4010E94CC1A21
:1015600020E030E040E852E40E9417180E94711910
:101570005B019601241935093A83298337FF05C099
:101580003195219531093A8329838B809C80861A75
:10159000970A97FE03C091948194910829813A811A
:1015A0008216930634F486012B803C8052017887A2
:1015B0006F830A151B055CF49F81888538862F820E
:1015C000292E382E9A2D8B2D5801092F182F2801DE
:1015D0004A185B0831018F819885681A790A77FE6D
:1015E00003C0719461947108620157FE03C09FEFBC
:1015F000C91AD90AD594C7942F8138858FEF22153F
:1016000033050CF481E0E82E880FFF080A151B054E
:10161000FCF089819A8141E088169906ACF4B50105
:101620008F8198850E940C06C618D708D7FE08C07F
:101630002F8138852E0D3F1D38872F83C40CD51C74
:101640003FEFA31AB30AE2CF6F817885C501EACFD5
:1016500028960FB6F894DEBF0FBECDBFDF91CF91B5
:101660001F910F91FF90EF90DF90CF90BF90AF90C0
:101670009F908F907F906F905F904F903F902F90B2
:1016800008951F920F920FB60F9211248F939F937C
:101690008091E1009091E100937F9093E10083FFBE
:1016A0000FC01092E90091E09093EB001092EC00D3
:1016B00092E39093ED001092030398E09093F00072
:1016C00082FF22C093E09093E9009091F200992369
:1016D00019F09AE39093E8009091F402992341F075
:1016E0009091F40291509093F402911101C05D9A8F
:1016F00090910203992341F09091020391509093AD
:101700000203911101C0289A84FF18C08091E20061
:101710008E7E81608093E2008091E1008F7E8093D5
:10172000E1008091F5028E7E80618093F5029F91A9
:101730008F910F900FBE0F901F90189580FFF7CFDD
:101740008091E2008E7E80618093E2008091E100D2
:101750008E7E8093E1008091F5028E7E8160E5CFE0
:101760001F920F920FB60F921124CF92DF92EF9239
:10177000FF920F931F932F933F934F935F936F931A
:101780007F938F939F93AF93BF93EF93FF93CF93E9
:10179000DF93CDB7DEB76C97DEBFCDBF1092E90007
:1017A0008091E80083FF25C068E0CE0145960E9445
:1017B000A50582EF8093E8008D8987FF39C090915D
:1017C000E80090FFFCCF982F907609F034C19E89F5
:1017D0004F89588D2F89F88C911131C0803861F56F
:1017E0008091F3028093F1001092F1008EEF8093CC
:1017F000E8006C960FB6F894DEBF0FBECDBFDF9148
:10180000CF91FF91EF91BF91AF919F918F917F9178
:101810006F915F914F913F912F911F910F91FF9089
:10182000EF90DF90CF900F900FBE0F901F90189504
:101830009EEF9093E800C7CF1092F100D5CF913082
:1018400059F48111D3CF4130510581F68091F302D3
:101850008D7F8093F302CACF933049F48111C6CFB4
:101860004130510519F68091F3028260F2CF953034
:1018700041F48091E80080FFFCCF20682093E300D2
:10188000B5CF963009F0A9C00B8D1C8D22E01092C7
:10189000E9001092F1021092F002F2122EC01092A2
:1018A000EF021092EE020E9474051F8299E0998364
:1018B000FA8291E09E8390EA98879AEF9987209127
:1018C000F0023091F102275F3F4F3C832B838D83E1
:1018D0001092E9001092F1021092F0021093EF02C0
:1018E0000093EE0249E050E0BE016F5F7F4F80E061
:1018F0000E944E050E94740579CF1093EF02009369
:10190000EE020E948B04DC0112960D911C910115D0
:10191000110509F451C1D801ED91FC910480F581C4
:10192000E02DBE016B5E7F4FC8010995009709F05D
:101930003EC1F80100851185EACFF3E0FF120EC029
:101940008F89882309F440C0823061F440E867E061
:1019500089E197E00E942C0E811148CF81E28093AB
:10196000EB0047CF813029F440E86BE08DE097E051
:10197000F1CF833099F70E948B04DC011296ED9031
:10198000FC908E010F5F1F4F6801E114F10479F0A4
:10199000D701ED91FC910680F781E02DB801C701D8
:1019A0000995080F111DF701E084F184EECFD801ED
:1019B0001C92F60101900020E9F73197BF016C19E4
:1019C0007D0940E0C601C6CF67EF76E0FB01449198
:1019D00050E080E80E944E0509CF973009F4BECF51
:1019E000983021F481E08093F10000CF993009F024
:1019F000FDCE837009F0B2CFE5E4F1E081E031E0A3
:101A000096E32191222371F08093E9003093EB005B
:101A1000DF0111972C912093EC009093ED008F5FE4
:101A2000873079F78EE78093EA001092EA008F8979
:101A300080930303DBCE8B8D9C8D1092E900109276
:101A4000F1021092F0029093EF028093EE02898DE2
:101A5000811192C08E899D89913A49F4813209F0B1
:101A60007DCF47E050E060E171E080E0B3CF91329C
:101A700009F074CF833269F48F89988DB0E0A0E0CB
:101A800080930C0190930D01A0930E01B0930F0170
:101A9000ADCE803269F48091E80082FFFCCF67E030
:101AA00080E191E00E94A5058BEF8093E8009ECE37
:101AB000823209F09BCE8F8980931701EEEFFFE70A
:101AC000859194918B3F9C4D51F1E0E0F8E080913D
:101AD000100190911101A0911201B0911301803B6E
:101AE0009440A105B105F1F48091170180FD1AC061
:101AF000EE3F8AE0F80789F587E797E791838083CF
:101B0000809160008093F20288E19BE00FB6F89428
:101B1000A895809360000FBE9093600067CEEEEFB3
:101B2000FAE0D5CF808191818737974709F05ECE63
:101B3000A895809160008861809360008091F20296
:101B400080936000EE3F2AE0F20789F08091FE0A60
:101B50009091FF0A9183808349CE8081918187375C
:101B6000980751F29093FF0A8093FE0AC5CF109216
:101B7000FF0A1092FE0A3ACE0E948B04DC011296F4
:101B80000D911C910115110509F4E8CED801ED91D4
:101B9000FC910190F081E02DBE016B5E7F4FC8018A
:101BA0000995811123CEF80100851185EBCF181618
:101BB00019060CF41BCED2CEF1E0FF12BECE6BEFB5
:101BC00076E004CF0F920FB68F939F93EF93FF931E
:101BD000809191018D5F8D3708F08D578093910131
:101BE000E6E9F1E080818E4F808391819F4F918360
:101BF00082818F4F828383818F4F8383E2E9F1E07B
:101C000080818F5F808381818F4F818382818F4F1D
:101C1000828383818F4F83838FB18F6066991C9BF2
:101C200088278F3681F480919001981B963068F058
:101C3000E0E0F8E087E78083818388E180936000BB
:101C4000F0936000FFCF90939001FF91EF919F91EF
:101C50008F910FBE0F901895EF92FF920F931F93E5
:101C6000CF93DF93F82E192FE62E042F81E0860FF5
:101C7000880F0E94200583E00E942005CF2DD12FE0
:101C8000EC0EFD2EF11CCE15DF05B9F007FF13C0D9
:101C9000FE0184910E942005182F80E00E942005FB
:101CA000812321968111EFCFDF91CF911F910F9169
:101CB000FF90EF9008958881EDCF81E0F5CFE4E0CB
:101CC000F7E01382128288EE93E0A0E0B0E0848314
:101CD0009583A683B7838FE491E0918380838FEF10
:101CE0009FEF95878487E4E5F7E01382128281E60F
:101CF00091E0918380830895CF93DF93CDB7DEB7D2
:101D0000A4970FB6F894DEBF0FBECDBF789484B50C
:101D1000826084BD84B5816084BD85B5826085BDE7
:101D200085B5816085BD80916E00816080936E0075
:101D30001092810080918100826080938100809167
:101D40008100816080938100809180008160809318
:101D50008000809191008260809391008091910039
:101D600081608093910080919000816080939000C9
:101D70008091C10084608093C1008091C100826025
:101D80008093C1008091C10081608093C1008091E7
:101D9000C30081608093C3008091C0008260809303
:101DA000C0008091C20081608093C20080917A005F
:101DB000846080937A0080917A00826080937A00B8
:101DC00080917A00816080937A0080917A008068A7
:101DD00080937A00109203031092F3021092F5029E
:101DE0008091D70081608093D70080EA8093D800EB
:101DF00089B5806189BD89B5826089BD09B400FE5D
:101E0000FDCF61E070E080E090E00E942D078091BE
:101E1000D8008F7C80618093D8008091E000807F23
:101E20008093E0008091E1008E7E8093E1008DE060
:101E30008093E200559A209A81EC80937C0085B1D2
:101E4000806F85B984B1877E84B984B1876E84B987
:101E50005E9A5F988AB1806D8AB9769A6E9881B3DE
:101E6000806F81BB899880B38D7080BB80E58CBD0D
:101E700081E08DBD85E090E00E94E5075F9A85E0F6
:101E800090E00E94E5075E985C98E8EAF6E08491AD
:101E90008EBD00000DB407FEFDCF319606E0E53B98
:101EA000F007A9F75C9A81E880936400809165004F
:101EB0008160809365000E9409060E94E10587FF0A
:101EC00015C05C9885EA8EBD00000DB407FEFDCFFD
:101ED0005C9A2E982F982D98809164008062809350
:101EE000640081E083BF889513BEFCCF0E94E105AA
:101EF00082FF48C02D980E94E10584788438E1F47F
:101F00000E94DF0588EC90E00E94E5072F9882E0B0
:101F100090E00E949D178F3F29F06FEF82E090E0E4
:101F20000E94A51784EF91E00E94E5072F9A0E9476
:101F3000E10584788438D9F30E94E1058471843105
:101F4000E1F40E94DF0588EC90E00E94E5072E98FE
:101F500082E090E00E949D17882329F060E082E0F3
:101F600090E00E94A51784EF91E00E94E5072E9A69
:101F70000E94E10584718431D9F388EC90E00E94DD
:101F8000E507B4CF0E94DF0582E090E00E94A4093B
:101F9000882309F470C03E9A3F9A81E090E00E9445
:101FA000A409182F1470712E81FF0FC011112E98E3
:101FB00001EF1FEF68E0E62EF12C0E94E10586FF9D
:101FC0005DC02E9A2F9A0E94DF0582E390E00E9466
:101FD000E5070E94E1058111F8CF0E94E90580E143
:101FE00080930001809164008E7F809364008091D3
:101FF0007A00806480937A0080917A0086FDFCCF1D
:1020000000917800109179000E940807AB01BC0193
:10201000C801B0E0A0E0DC01992788278C019D0170
:10202000040F151F261F371FC901B8012091640036
:10203000216020936400611571058105910511F0FF
:102040000E9494178FB7F894409196015091970190
:1020500060919801709199018FBF80919C018823B4
:1020600009F4CAC010929C0180E090E0892B51F3E2
:102070000E940000E7CF3E983F988FCF772029F04D
:102080000430110511F42E9A2F9881E00E9441042A
:10209000980117FF04C022273327201B310B27701C
:1020A0003327C80117FD079653E0959587955A95F4
:1020B000E1F717FF05C00197A701421B530B9A01D7
:1020C000BC017695762F6627779567956C5F7C4F78
:1020D000B0E0A0E02701421A530A8E3F5FEF950758
:1020E00009F43AC050E040E0FD01E850FA4F5F01CA
:1020F0004B01F0E88F0E911C8F3F980791F0F5018E
:10210000E40FF51FE4916B01C40ED51EF0E01F0132
:10211000022E01C0220C0A94EAF7F60164882628F0
:10212000248A2115310599F0F501E40FF51FE4919A
:102130006401C40ED51EF0E01F01042C02C03594CA
:1021400027940A94E2F7F60164882628248A4F5FD0
:102150005F4F4835510581F60196A85ABF4F605828
:102160007F4FA03BB10509F0B8CF0E9409068FE070
:1021700090E00E94E5070F5F1F4F0931110509F03C
:102180001CCF772011F02F9A2D9880E991E00E94C2
:10219000E5070E94DF0581E090E00E94A40980FF2E
:1021A00014CF8AE090E00E94A4099FEF980F9E3F11
:1021B00008F00BCF22E330E03093B9022093B8024D
:1021C00028E330E03093B7022093B6020BE010E032
:1021D000682F84E597E00E94A506C8010E94A40923
:1021E0000F5F1F4F0131110599F70E94090688EE14
:1021F00093E00E94E507E9CE80919D01142F181B02
:10220000812F90910001191748F48F5F891708F00A
:102210002BCF81E083BF889513BE26CF11E01093AA
:102220009C0140939D0180919A0190919B010196A0
:1022300090939B0180939A018091BB028093BA0294
:102240000E94E1058093BB0280E10E94FE05882385
:1022500029F080910B01812780930B018091ED0281
:10226000882309F474C00E94E9058091BC02909112
:10227000BD0201969093BD028093BC020EE911E06D
:10228000D12CC12C2091010130910201A090BC02FF
:10229000B090BD028091070190910801C816D9063F
:1022A0000CF04AC0D8011C966D907C901D97149636
:1022B0008D909C9015971296ED90FC90F90137FD4A
:1022C0003196F595E795D8011A964D915C914E1986
:1022D0005F094A9DC0014B9D900D5A9D900D1124A0
:1022E0008E0F9F1FB9010E94671BE60EF71ED801D3
:1022F0001796FC92EE921697681879086A9CC001AE
:102300006B9C900D7A9C900D11248E0F9F1FB9012C
:102310000E94671B680D791DF801718760874081F5
:102320005181C7010E9497080E940906FFEFCF1A4A
:10233000DF0A025F1F4FA6CF2A153B050CF094CE93
:102340001092ED021092BD021092BC028DCE88E078
:102350000E94FE05882309F42AC2209107013091CA
:1023600008010091090110910A010E3F4FEF140777
:1023700081F4A8E1B1E0E5ECF2E090E080E08217C2
:1023800093070CF0B5C24D915D9141935193019625
:10239000F6CFF8E14F2EF1E05F2EA5ECB2E0A201FE
:1023A00090E080E08217930744F4FA016191719103
:1023B000AF016D937D930196F5CF8091C30290910B
:1023C000C40201964091C0025091C1024F5F5F4F1D
:1023D0005093C1024093C002B9010E94671BA9013A
:1023E0004F5F5F4F5093080140930701D901AA0F37
:1023F000BB1FA85EBE4F12978217930754F421505B
:1024000031094D915C91119713965C934E931297FD
:10241000F2CF880F991FDC01A85EBE4F0D931C936D
:1024200080910B01882309F4C5C0F12CE12C6AE0EE
:10243000362E6091070170910801369EC001379ECB
:10244000900D1124E816F9060CF0B4C0C7010E94E3
:10245000671B8C01FC01EE0FFF1FE85EFE4F8081C1
:102460009181019609F0A2C0A0900701B0900801E7
:1024700023E0A216B1040CF499C0680131E0C31A3C
:10248000D108C50101970115110521F0C601B5015B
:102490000E94671B880F991FFC01E85EFE4F208198
:1024A0003181C8010196B5010E94671B4C01880F5C
:1024B000991FAC01485E5E4F3A01DA018D919C9103
:1024C0002817390709F072C02F3F320709F46EC090
:1024D000C801B5010E94671BDC01AA0FBB1FA85EE3
:1024E000BE4F8D919C9111978F3F980751F52F5FAB
:1024F0003F4F2D933C9311821082E9E0F0E0D3012D
:10250000ED93FC930115110531F561E070E088E170
:1025100091E00E94EA076091070170910801615003
:10252000710988E191E00E94EA07609107017091CA
:10253000080163307105D4F188E191E00E947E09C1
:1025400093CF821793071CF42E5F3F4FD2CF019693
:102550008D939C93D0CFB40188E191E00E94EA076B
:102560006091070170910801C6010617170719F459
:10257000C8010297B8010E94671BBC0188E191E085
:102580000E94EA07609107017091080163307105AC
:102590006CF088E191E00E947E09609107017091E2
:1025A0000801C6010E94671B8C015ECFFFEFEF1A86
:1025B000FF0A3FCFADB6BEB62091C0023091C10236
:1025C000C90168E270E00E94671B892B49F4809181
:1025D00005019091060101969093060180930501F3
:1025E000C90166E970E00E94671B892B49F480915C
:1025F00003019091040101969093040180930301DB
:102600008091050190910601C0900301D0900401D2
:102610003C01092E000C880899089C012C0D3D1DD9
:1026200082179307ACF40D2C000CEE08FF08C114C0
:10263000D104E104F10441F00E944517A70196017D
:102640000E94B3176B017C016C0C7D1C8E1C9F1CBF
:1026500070920A01609209010E94451729E030E05A
:1026600040E050E00E94B317672B682B692B51F4B0
:102670008FEF9FEF90930A01809309011092BF02A0
:102680001092BE02E0900701F0900801C701880F88
:10269000991F0DB71EB7081B190B0FB6F8941EBF74
:1026A0000FBE0DBF2DB73EB72F5F3F4F6901409161
:1026B00005015091060190E080E010E000E08E15E9
:1026C0009F05C4F4D2012D913D912D0124173507AA
:1026D0007CF4B9016E5F7F4F6230710548F0F801FC
:1026E000EE0FFF1FEC0DFD1D318320830F5F1F4F89
:1026F0000196E5CF60E070E0CB011E141F0444F4A6
:102700000E9445179701FF0C440B550B0E94B3170D
:102710002801110F66087708641575058605970569
:10272000C4F4411451046104710439F00E94451746
:10273000A30192010E94B3172B018201000F111F08
:102740000C0D1D1DF8018081918190930A018093E9
:1027500009018091BE029091BF02069754F08FEF5D
:102760009FEF90930A01809309011092BF0210928B
:10277000BE028091C0029091C10264E170E00E94AB
:10278000671B892B31F48EEF9FEF90930A018093A2
:1027900009018091BE029091BF0201969093BF0201
:1027A0008093BE020FB6F894BEBE0FBEADBE84E0ED
:1027B0000E94FE05882361F08091C202882341F0C7
:1027C0008FEF9FEF90930A01809309011092C2024C
:1027D00080E20E94FE050091070110910801882304
:1027E00069F08091C3029091C402181619060CF08A
:1027F00096C001979093C4028093C30280E40E9424
:10280000FE05882381F08091C3029091C402980153
:1028100021503109821793070CF083C001969093E1
:10282000C4028093C302013111050CF4B4C00E94AC
:10283000E9058FE691E00E945A088091C0029091CC
:10284000C1020E9467088BE791E00E945A088DE65A
:1028500091E00E945A0880E092E00E94A409009151
:10286000C0021091C102801711065CF480E092E072
:102870000E949D17081729F0602F80E092E00E94C7
:10288000A51782E891E00E945A0880E092E00E9439
:10289000A409682F70E090E080E04AE00E940C08F4
:1028A0000E9409068091BB028093BA020E94E10552
:1028B0008093BB0288E00E94FE05182F84E00E94EE
:1028C000FE05111102C0882369F3209107013091A0
:1028D0000801A8E1B1E0E5ECF2E090E080E08217C9
:1028E000930724F51D921D92119211920196F7CF34
:1028F0006091C3027091C402FB01EE0FFF1FE85EFE
:10290000FE4F8081918190930A018093090188E1B3
:1029100091E00E94EA0781E08093C20248CFC8019B
:1029200068CF1092C4021092C3027DCF81E090E084
:1029300090931901809318019093080180930701E7
:1029400021E020930B011092BF021092BE02109260
:10295000C1021092C002909306018093050124E009
:1029600030E0309304012093030190930A01809397
:1029700009011092C4021092C3021092BD0210927B
:10298000BC028CE390E090930201809301011092CD
:10299000C2021092ED020E94E90598E1C92E91E071
:1029A000D92EF12CE12C8091070190910801E816B5
:1029B000F90604F5D601AD90BD906D01B7010F2C5D
:1029C000000C880B990B0E94A9198E010F5F1F4FF5
:1029D0009E012D5F3F4F48E150E00E94A6096981AA
:1029E0007A81A5018B819C810E949708BFEFEB1A29
:1029F000FB0AD9CF4091090150910A0160E270E0D1
:102A000080E490E00E9497084090070150900801F0
:102A1000AE01475F5F4FBE01655F7F4FC2010E94FD
:102A2000BC039E878D87712C612C019798A38F8F93
:102A3000EF8DF8A16E167F060CF06AC18B859C8520
:102A4000860D971DB2010E94671BBC01990F880B70
:102A5000990B0E94A9198E010B5F1F4F9E01295FE0
:102A60003F4F4EE050E00E94A6098B859C85860D65
:102A7000971D0196B2010E94671BBC01990F880B3C
:102A8000990B0E94A919045011099E012D5F3F4F17
:102A90004EE050E00E94A6096F817885605471096C
:102AA000072E000C880B990B0E94A9196B017C0161
:102AB0006D817E8160527109072E000C880B990B85
:102AC0000E94A919A70196010E949618162F072F98
:102AD000F82EE92E6B817C8160547109072E000C61
:102AE000880B990B0E94A9194B015C0169817A81BD
:102AF00060527109072E000C880B990B0E94A919CE
:102B0000A50194010E9496184B015C0120E030E081
:102B1000A901612F702F8F2D9E2D0E94F51887FF20
:102B20000EC02BED3FE049EC50E4612F702F8F2D4C
:102B30009E2D0E941718162F072FF82EE92E20E041
:102B400030E0A901C501B4010E94F51887FF0AC051
:102B50002BED3FE049EC50E4C501B4010E94171889
:102B60004B015C01A5019401612F702F8F2D9E2DCB
:102B70000E94F518212F302F4F2D5E2D87FF91C019
:102B8000C501B4010E9416186F87788B898B9A8BC8
:102B9000A50194016BED7FE089EC90E40E9416188A
:102BA000212F302F4F2D5E2D0E9417181B014C0135
:102BB0009B01AC016F85788989899A890E94F518F3
:102BC00087FF86C0FF85FB8B28892C8B39893D8B3D
:102BD0004A894E8B8AE097EDA3E2BDE38F8B988FF5
:102BE000A98FBA8FA12EB02ECF2CDE2C9101A4017B
:102BF0006F85788989899A890E94F51887FF75C041
:102C0000212F302F4F2D5E2D6B897C898D899E89D8
:102C10000E9417189501A6010E94BF1A87FD74C073
:102C2000B501C6010E94FA186B8F7C8F8D8F9E8F25
:102C3000B501C6010E94391B20E030E040E651E4B6
:102C40000E94CC1A20E030E040E052E40E941718C5
:102C50000E94711969A37AA38BA39CA320E030E0A2
:102C600040E651E46B8D7C8D8D8D9E8D0E94CC1A3B
:102C700020E030E040E852E40E9417180E947119E9
:102C8000CB0141E069A17AA10E940C062F89388D01
:102C9000498D5A8DB501C6010E9417185B016C0160
:102CA000A5CF6BED7FE089EC90E40E941618A5019A
:102CB00094010E9417186F87788B898B9A8BA501D6
:102CC0009401612F702F8F2D9E2D0E9416186ECFAC
:102CD0002B8A3C8A8D8A9E8A2AE037ED43E25DEB9F
:102CE0002F8B388F498F5A8F7DCF2B893C894D8907
:102CF0005E89612F702F8F2D9E2D0E9416189B01CB
:102D0000AC01B501C60188CF3FEF631A730A90CEBC
:102D10004D855E854230510509F04CC052E04516A4
:102D2000510409F04CC06B857C856F5F7F4F072E87
:102D3000000C880B990B0E94A91920E030E040E0BC
:102D40005FE30E9417188E010B5F1F4F9E01295FE2
:102D50003F4F4EE050E00E94A609ED80FE800F81BB
:102D60001885B7016250710945E0C8010E942A0622
:102D7000B701C8010E94500683E090E09093B90229
:102D80008093B8029093B7028093B6028091C002FC
:102D90009091C1020E9467088091090190910A01F7
:102DA000029611F560E070E0CB010E94190A0E94C2
:102DB00009065AC98D859E8518161906ECF66D858B
:102DC0007E85759567958B859C85680F791F072E85
:102DD000000C880B990B0E94A91920E030E040E01C
:102DE0005FE30E941618AFCF60E070E080E09FE3E1
:102DF000DCCF8F929F92AF92BF92CF92DF92EF92F1
:102E0000FF92CF93DF93EC01688179818A819B8166
:102E1000611571058105910521F464E279ED8BE579
:102E200097E02DE133EF41E050E00E94B3174901F4
:102E30005A019B01AC01A7EAB1E40E94D2176B01D1
:102E40007C01ACEEB4EFA50194010E94E017C60E20
:102E5000D71EE81EF91EF7FE06C081E0C81AD10889
:102E6000E10880E8F80AC882D982EA82FB82C701B9
:102E7000B6019F77DF91CF91FF90EF90DF90CF90D9
:102E8000BF90AF909F908F9008958F929F92AF9236
:102E9000BF92CF92DF92EF92FF92609140017091CA
:102EA00041018091420190914301611571058105B5
:102EB000910521F464E279ED8BE597E02DE133EFA4
:102EC00041E050E00E94B31749015A019B01AC0157
:102ED000A7EAB1E40E94D2176B017C01ACEEB4EF1B
:102EE000A50194010E94E017C60ED71EE81EF91E28
:102EF000F7FE06C081E0C81AD108E10880E8F80AA8
:102F0000C0924001D0924101E0924201F09243010F
:102F1000C701B6019F77FF90EF90DF90CF90BF90F1
:102F2000AF909F908F9008956093400170934101FE
:102F300080934201909343010895F999FECF92BD89
:102F400081BDF89A992780B50895262FF999FECF6B
:102F50001FBA92BD81BD20BD0FB6F894FA9AF99AB6
:102F60000FBE01960895052E97FB1EF400940E9453
:102F7000CA1757FD07D00E94E51707FC03D04EF48F
:102F80000C94CA1750954095309521953F4F4F4F5F
:102F90005F4F089590958095709561957F4F8F4F05
:102FA0009F4F08950E940718A59F900DB49F900D04
:102FB000A49F800D911D11240895B7FF0C94D21782
:102FC0000E94D217821B930B0895A1E21A2EAA1B0E
:102FD000BB1BFD010DC0AA1FBB1FEE1FFF1FA217C9
:102FE000B307E407F50720F0A21BB30BE40BF50BC6
:102FF000661F771F881F991F1A9469F7609570954F
:10300000809590959B01AC01BD01CF010895A29FD1
:10301000B001B39FC001A39F700D811D1124911DAC
:10302000B29F700D811D1124911D08955058BB272A
:10303000AA270E942E180C94711A0E94381A38F090
:103040000E943F1A20F039F49F3F19F426F40C94A3
:103050000E1A0EF4E095E7FB0C94081AE92F0E9473
:10306000961A58F3BA17620773078407950720F07A
:1030700079F4A6F50C94B81A0EF4E0950B2EBA2F3D
:10308000A02D0B01B90190010C01CA01A00111246E
:10309000FF27591B99F0593F50F4503E68F11A161A
:1030A000F040A22F232F342F4427585FF3CF4695AB
:1030B00037952795A795F0405395C9F77EF41F16CD
:1030C000BA0B620B730B840BBAF09150A1F0FF0F97
:1030D000BB1F661F771F881FC2F70EC0BA0F621F83
:1030E000731F841F48F4879577956795B795F79573
:1030F0009E3F08F0B0CF9395880F08F09927EE0F08
:103100009795879508950E94381A60F080E891E0BD
:1031100009F49EEF0E943F1A28F040E851E071F454
:103120005EEF0CC00C940E1A0C94B81AE92FE078DC
:103130000E94961A40F3092E052AB1F32617370785
:103140004807590738F00E2E07F8E02569F0E0250A
:10315000E0640AC0EF6307F8009407FADB01B901E5
:103160009D01DC01CA01AD01EF930E9416190E9476
:10317000711A0E94C6185F91552339F02BED3FE07C
:1031800049E450FD49EC0C9417180895DF93DD27AE
:10319000B92FBF7740E85FE31616170648075B07AD
:1031A00018F4D92F0E94C41A9F938F937F936F9323
:1031B0000E94411BECEAF0E00E94111A0E94711A71
:1031C0002F913F914F915F910E94DF1ADD2351F0C3
:1031D0009058A2EA2AED3FE049EC5FE3D0785D2702
:1031E0000E942E18DF910C94711A0E94E41908F4C1
:1031F00081E008950E94481AE3950C94821A0E9477
:1032000013190C94711A0E943F1A58F00E94381A30
:1032100040F029F45F3F29F00C94081A51110C94E6
:10322000B91A0C940E1A0E94961A68F39923B1F3F6
:10323000552391F3951B550BBB27AA2762177307DC
:10324000840738F09F5F5F4F220F331F441FAA1F70
:10325000A9F335D00E2E3AF0E0E832D0915050402C
:10326000E695001CCAF72BD0FE2F29D0660F771FDA
:10327000881FBB1F261737074807AB07B0E809F0C0
:10328000BB0B802DBF01FF2793585F4F3AF09E3F45
:10329000510578F00C94081A0C94B91A5F3FE4F3C6
:1032A000983ED4F3869577956795B795F7959F5F88
:1032B000C9F7880F911D9695879597F90895E1E0D4
:1032C000660F771F881FBB1F621773078407BA0733
:1032D00020F0621B730B840BBA0BEE1F88F7E0958E
:1032E00008950E9478196894B1110C94B91A089540
:1032F0000E949E1A88F09F5798F0B92F9927B751CE
:10330000B0F0E1F0660F771F881F991F1AF0BA9589
:10331000C9F714C0B13091F00E94B81AB1E0089515
:103320000C94B81A672F782F8827B85F39F0B93F07
:10333000CCF3869577956795B395D9F73EF490953C
:103340008095709561957F4F8F4F9F4F0895E894BA
:1033500009C097FB3EF490958095709561957F4FDD
:103360008F4F9F4F9923A9F0F92F96E9BB2793958B
:10337000F695879577956795B795F111F8CFFAF49B
:10338000BB0F11F460FF1BC06F5F7F4F8F4F9F4FCC
:1033900016C0882311F096E911C0772321F09EE82A
:1033A000872F762F05C0662371F096E8862F70E090
:1033B00060E02AF09A95660F771F881FDAF7880F6A
:1033C0009695879597F90895990F0008550FAA0BC0
:1033D000E0E8FEEF16161706E807F907C0F0121628
:1033E0001306E407F50798F0621B730B840B950B2B
:1033F00039F40A2661F0232B242B252B21F4089580
:103400000A2609F4A140A6958FEF811D811D08951C
:1034100097F99F6780E870E060E008959FEF80EC87
:103420000895DF93CF931F930F93FF92EF92DF9254
:103430007B018C01689406C0DA2EEF010E94DF1A2E
:10344000FE01E894A5912591359145915591A6F3FA
:10345000EF010E942E18FE019701A801DA9469F786
:10346000DF90EF90FF900F911F91CF91DF91089522
:1034700000240A9416161706180609060895002453
:103480000A94121613061406050608950C940E1AD3
:103490000E949E1AD8F3E894E0E0BB279F57F0F013
:1034A0002AED3FE049EC06C0EE0FBB0F661F771F09
:1034B000881F28F0B23A62077307840728F0B25ACF
:1034C000620B730B840BE3959A9572F7803830F496
:1034D0009A95BB0F661F771F881FD2F790480C94F0
:1034E000471B092E0394000C11F4882352F0BB0FE4
:1034F00040F4BF2B11F460FF04C06F5F7F4F8F4F0C
:103500009F4F0895EF93E0FF07C0A2EA2AED3FE046
:1035100049EC5FEB0E942E180E94711A0F900394E1
:1035200001FC9058E9EDF0E00C94531B57FD9058C6
:10353000440F551F59F05F3F71F04795880F97FB77
:10354000991F61F09F3F79F0879508951216130631
:103550001406551FF2CF4695F1DF08C01616170660
:103560001806991FF1CF8695710561050894089595
:10357000E894BB2766277727CB0197F908950E9427
:10358000E41908F48FEF08959B01AC0160E070E04E
:1035900080E89FE30C94FF180E94DF1A0C94711AC4
:1035A0000E94381A38F00E943F1A20F0952311F03B
:1035B0000C94081A0C940E1A11240C94B91A0E9437
:1035C000961A70F3959FC1F3950F50E0551F629FB7
:1035D000F001729FBB27F00DB11D639FAA27F00D6C
:1035E000B11DAA1F649F6627B00DA11D661F829F93
:1035F0002227B00DA11D621F739FB00DA11D621F78
:10360000839FA00D611D221F749F3327A00D611D94
:10361000231F849F600D211D822F762F6A2F112476
:103620009F5750409AF0F1F088234AF0EE0FFF1FA9
:10363000BB1F661F771F881F91505040A9F79E3F00
:10364000510580F00C94081A0C94B91A5F3FE4F30A
:10365000983ED4F3869577956795B795F795E79556
:103660009F5FC1F7FE2B880F911D9695879597F95F
:1036700008959F930E94481A0F9007FCEE5F0C94E8
:10368000821A9B01AC010C94CC1A9F3F31F09150EF
:1036900020F4879577956795B795880F911D969536
:1036A000879597F908959F938F937F936F93FF93D7
:1036B000EF939B01AC010E94CC1AEF91FF910E9405
:1036C000111A2F913F914F915F910C94CC1A97FB57
:1036D000072E16F4009407D077FD09D00E947B1BBB
:1036E00007FC05D03EF4909581959F4F0895709505
:1036F00061957F4F0895AA1BBB1B51E107C0AA1F0C
:10370000BB1FA617B70710F0A61BB70B881F991F82
:103710005A95A9F780959095BC01CD010895EE0FBB
:0E372000FF1F0590F491E02D0994F894FFCF5F
:10372E00103C00040001000100010001FFFFFFFF3B
:10373E0000E1000000000000010000000000000099
:10374E00000000000000000000000000000000006B
:10375E00000000000000000000000000000000005B
:10376E000100000000C18081000000000000009FE9
:10377E00046007C004B5040605C404E2040000009A
:10378E0000A506B205090808082B002D000A0059ED
:10379E006F75206C61737465642000207475726E91
:1037AE007300486967682053636F72653A200000A2
:00000001FF
