:100000000C9492030C94BA030C94BA030C94BA03A4
:100010000C94BA030C94BA030C94BA030C94BA036C
:100020000C94BA030C94BA030C94320E0C94A10EE7
:100030000C94BA030C94BA030C94BA030C94BA034C
:100040000C94BA030C94BA030C94BA030C94BA033C
:100050000C94BA030C94BA030C94BA030C94D31006
:100060000C94BA030C94BA030C94BA030C94BA031C
:100070000C94BA030C94BA030C94BA030C94BA030C
:100080000C94BA030C94BA030C94BA030C94BA03FC
:100090000C94BA030C94BA030C94BA030C94BA03EC
:1000A0000C94BA030C94BA030C94BA03084AD73BD5
:1000B0003BCE016E84BCBFFDC12F3D6C74319ABD37
:1000C00056833DDA3D00C77F11BED9E4BB4C3E915B
:1000D0006BAAAABE000000803F05A84CCDB2D44E4A
:1000E000B93836A9020C50B9918688083CA6AAAA4C
:1000F0002ABE000000803F0000000000003E5B4F71
:100100005B3E3E6B4F6B3E1C3E7C3E1C183C7E3C77
:10011000181C577D571C1C5E7F5E1C00183C180085
:10012000FFE7C3E7FF0018241800FFE7DBE7FF3015
:10013000483A060E2629792926407F050507407F83
:1001400005253F5A3CE73C5A7F3E1C1C08081C1CF6
:100150003E7F14227F22145F5F005F5F06097F01EC
:100160007F006689956A606060606094A2FFA294D7
:1001700008047E040810207E201008082A1C0808A5
:100180001C2A08081E101010100C1E0C1E0C3038F3
:100190003E3830060E3E0E06000000000000005FF4
:1001A00000000007000700147F147F14242A7F2A10
:1001B00012231308646236495620500008070300D2
:1001C000001C2241000041221C002A1C7F1C2A081E
:1001D000083E080800807030000808080808000081
:1001E00060600020100804023E5149453E00427FF5
:1001F000400072494949462141494D331814127F44
:100200001027454545393C4A4949314121110907E3
:100210003649494936464949291E00001400000064
:100220004034000000081422411414141414004136
:1002300022140802015909063E415D594E7C1211F3
:10024000127C7F494949363E414141227F4141412B
:100250003E7F494949417F090909013E41415173A6
:100260007F0808087F00417F41002040413F017F17
:10027000081422417F404040407F021C027F7F04DF
:1002800008107F3E4141413E7F090909063E415128
:10029000215E7F09192946264949493203017F0118
:1002A000033F4040403F1F2040201F3F4038403F19
:1002B000631408146303047804036159494D43002F
:1002C0007F4141410204081020004141417F040266
:1002D00001020440404040400003070800205454FD
:1002E00078407F28444438384444442838444428DB
:1002F0007F385454541800087E090218A4A49C782E
:100300007F0804047800447D40002040403D007F89
:100310001028440000417F40007C047804787C0869
:100320000404783844444438FC182424181824243D
:1003300018FC7C08040408485454542404043F4422
:10034000243C4040207C1C2040201C3C4030403C51
:1003500044281028444C9090907C4464544C4400B1
:100360000836410000007700000041360800020115
:100370000204023C2623263C1EA1A161123A404001
:10038000207A38545455592155557941215454787F
:1003900041215554784020545579400C1E52721218
:1003A00039555555593954545459395554545800A0
:1003B00000457C410002457D420001457C40F0291A
:1003C0002429F0F0282528F07C5455450020545469
:1003D0007C547C0A097F49324949493232484848AD
:1003E00032324A4848303A4141217A3A42402078F4
:1003F000009DA0A07D39444444393D4040403D3CEF
:1004000024FF2424487E4943662B2FFC2F2BFF0911
:1004100029F620C0887E0903205454794100004405
:100420007D413048484A32384040227A007A0A0AF0
:10043000727D0D19317D2629292F28262929292663
:1004400030484D4020380808080808080808382FA8
:1004500010C8ACBA2F102834FA00007B0000081432
:100460002A142222142A14089500220095AA005565
:1004700000AAAA55AA55AA000000FF00101010FFFC
:1004800000141414FF001010FF00FF1010F010F003
:10049000141414FC001414F700FF0000FF00FF14F4
:1004A00014F404FC141417101F10101F101F141440
:1004B000141F00101010F0000000001F101010108A
:1004C0001F10101010F010000000FF10101010107E
:1004D00010101010FF10000000FF140000FF00FFBC
:1004E00000001F10170000FC04F414141710171458
:1004F00014F404F40000FF00F7141414141414147A
:10050000F700F7141414171410101F101F141414EC
:10051000F4141010F010F000001F101F0000001F56
:1005200014000000FC140000F010F01010FF10FF89
:10053000141414FF141010101F00000000F010FF1E
:10054000FFFFFFFFF0F0F0F0F0FFFFFF0000000002
:1005500000FFFF0F0F0F0F0F38444438447C2A2A46
:100560003E147E02020606027E027E026355494167
:10057000633844443C04407E201E2006027E020272
:1005800099A5E7A5991C2A492A1C4C7201724C3086
:100590004A4D4D303048784830BC625A463D3E495D
:1005A0004949007E0101017E2A2A2A2A2A44445F01
:1005B000444440514A444040444A51400000FF01F5
:1005C00003E080FF000008086B6B08361236243603
:1005D000060F090F06000018180000001010003068
:1005E00040FF0101001F01011E00191D1712003CF0
:1005F0003C3C3C0000000000F0F89C8E8783878E16
:100600009CF8F00000FEFF0303030303070EFCF851
:100610000000FEFF0303030303070EFCF80000FFC6
:10062000FF00000000000000FFFF0000FEFF8383CA
:10063000838383C7EE7C380000F8FC0E07030303B6
:10064000070EFCF800003F7FE0C08080C0E07F3FE5
:10065000FFFF01010101010101FFFF0000FFFF0C8D
:100660000C0C0C1C3E77E3C100007FFFC0C0C0C073
:10067000C0E0703F1F00001F3F70E0C0C0C0E070CE
:100680003F1F00007FFFC1C1C1C1C1E3773E1C0015
:10069000001F3F70E0C0C0C0E0703F1F00000000BE
:1006A0000001FFFF01000000D5F08D14A1C881CF2B
:1006B000D9F1AF2000080B0002020200000904007B
:1006C00000010202000005240010010524010101BF
:1006D00004240206052406000107058103100040DA
:1006E00009040100020A00000007050202400000A0
:1006F000070583024000000403090412010002EF11
:10070000020140412336800001010203014172646D
:1007100075696E6F204C4C430041726475626F794D
:100720000000501111241FBECFEFDAE0DEBFCDBFB5
:1007300011E0A0E0B1E0EAEBFCE302C005900D920D
:10074000AA39B107D9F727E0AAE9B1E001C01D92A3
:10075000A039B207E1F713E0C2E9D3E004C0219762
:10076000FE010E94551EC139D107C9F70E946D11C3
:100770000C945B1E0C94000020913E0130913F01CF
:10078000B9010E942D1EFC01EE0FFF1FEA5EFE4F15
:10079000215031098217930734F4428153814193E8
:1007A00051930196F7CF30933F0120933E01089576
:1007B000ECE3F3E0A0E0B8E000800EBC8111012C76
:1007C0001197A0FDFDCF0192B9F70DB408952F92B6
:1007D0003F924F925F926F927F928F929F92AF92D1
:1007E000BF92CF92DF92EF92FF920F931F93CF931E
:1007F000DF93EC012B013A01DA011D921C92FB01FF
:100800001182108230E020E0F12CE12C2C173D0702
:100810000CF04EC06901F2E0CF0ED11CE2E0F0E036
:10082000CE17DF070CF441C01F013594279410E068
:1008300000E0560181E0A81AB108C801820F931F99
:10084000BE010E942D1EDC01AA0FBB1FAA5EBE4F77
:100850008D909C90C501801B910BBE010E942D1EA6
:10086000DC01AA0FBB1FAA5EBE4F8D919C9188161A
:100870009906B1F48920809499F00F5F1F4F2016DC
:100880003106D9F6EE16FF065CF4D2012D933C93A7
:10089000C501BE010E942D1ED3018D939C937F0143
:1008A0003296B2E0CB0ED11CBBCF2F5F3F4FAECF05
:1008B000C701DF91CF911F910F91FF90EF90DF90D3
:1008C000CF90BF90AF909F908F907F906F905F90F0
:1008D0004F903F902F900895FC0180913B03882317
:1008E00011F13FB7F89482E08093E9002091F20083
:1008F000822F90E01816190614F481E090E0882306
:1009000039F0289844E640933A034091F10040833F
:10091000222339F02091F200211103C02BE620930D
:10092000E8003FBF08958FEF9FEF08952FB7F89429
:1009300083E08093E9009091E800892F807295FF11
:1009400004C09091F20080E4891B2FBF089580912C
:10095000320381110DC082E080932E0384E08093E6
:100960002F03109231031092300381E08093320301
:100970008EE293E00895CF93DF931F92CDB7DEB759
:100980006983DC01ED91FC910280F381E02D41E06F
:1009900050E0BE016F5F7F4F09950F90DF91CF91BF
:1009A000089583E08093E9008091F200882319F094
:1009B0008AE38093E80008950E94960490E00895E9
:1009C000CF93DF931F92CDB7DEB7FC018485958569
:1009D00097FD08C02FEF3FEF358724870F90DF91F9
:1009E000CF910895CE0101960E946C04019719F4ED
:1009F000898190E0F3CF8FEF9FEFF0CF0F931F939C
:100A0000CF93DF931F92CDB7DEB78C01FC018485B5
:100A1000958597FF0BC0CE0101960E946C0401974B
:100A200071F4898190E0F80195878487F8018485C5
:100A300095850F90DF91CF911F910F9108958FEFC2
:100A40009FEFF1CFFC018485958597FD0BC09FB783
:100A5000F89482E08093E9008091F2009FBF90E0DB
:100A6000019608959FB7F89482E08093E900809101
:100A7000F2009FBF90E00895409128035091290310
:100A8000209126033091270342175307B4F4909125
:100A9000E8009570E1F39091E80092FD19C0809311
:100AA000F100809128039091290301968F73992773
:100AB000892B19F48EEF8093E800809128039091A0
:100AC00029030196909329038093280381E00895D8
:100AD00080E00895DF92EF92FF920F931F93CF93E0
:100AE000DF93D82E8A01EB017B01E40EF51ECE15B3
:100AF000DF0559F0D7FE12C0FE0184910E943C052B
:100B000021968111F4CF0FEF1FEFC801DF91CF9134
:100B10001F910F91FF90EF90DF9008958881EECFA5
:100B20000F931F93CF93DF931F92CDB7DEB782E071
:100B3000898342E450E065EB76E080E80E946A0534
:100B40000E94A704DC0112960D911C91011511055C
:100B500089F0D801ED91FC910280F381E02DBE0176
:100B60006F5F7F4FC801099597FD04C0F8010085AC
:100B70001185ECCF89810F90DF91CF911F910F915B
:100B80000895615030F02091F100FC01208301961E
:100B9000F8CF289884E680933A030895AF92BF92E5
:100BA000CF92DF92EF92FF920F931F93CF93DF9339
:100BB0006C017B018B01040F151FEB015E01AE1868
:100BC000BF08C017D10759F06991D601ED91FC918A
:100BD0000190F081E02DC6010995892B79F7C501B7
:100BE000DF91CF911F910F91FF90EF90DF90CF9009
:100BF000BF90AF9008952D9A08958FB18095807F12
:100C0000669B88601C9B8460089580E0ECE3F3E0C1
:100C100081118FEF002481938193819381930394B9
:100C2000D1F71092EB021092EA021092ED021092AC
:100C3000EC0208959091EE02982329F49091EF022E
:100C4000982381E009F480E0089580E00C94D803B3
:100C500080389105B8F460347105A0F420E191E08A
:100C600061FD94E060FD990F62FD9295687F269F7B
:100C7000D0011124A80FA45CBC4F8C9140FF03C08D
:100C8000892B8C93089590958923FBCFEF92FF9247
:100C90000F931F93CF93DF937C018B01040F111DE2
:100CA000EB0177FF02C0D0E0C0E0C80101341105BC
:100CB00014F080E490E0C817D9073CF441E0BE018D
:100CC000C7010E9428062196F0CFDF91CF911F9196
:100CD0000F91FF90EF9008958F929F92AF92BF92E5
:100CE000CF92DF92EF92FF920F931F93CF93DF93F8
:100CF000EC018B017B0182E0E81AF1085E018FEFC5
:100D0000A81AB80A45E0B701C5010E94460601507D
:100D100011094E0182E0880E911C43E0B801C40124
:100D20000E9446066E0181E0C81AD10845E0B7016D
:100D3000C6010E944606229743E0B801CE010E94F8
:100D4000460643E0B801C4010E94460645E0B701EB
:100D5000C5010E94460643E0B801CE010E94460646
:100D600045E0B701C601DF91CF911F910F91FF9030
:100D7000EF90DF90CF90BF90AF909F908F900C94AA
:100D800046068F929F92AF92BF92CF92DF92EF92E0
:100D9000FF920F931F93CF93DF936D3089F0C09034
:100DA000EA02D090EB026A30D1F41092ED02109278
:100DB000EC0288E0C80ED11CD092EB02C092EA028D
:100DC00081E090E0DF91CF911F910F91FF90EF9024
:100DD000DF90CF90BF90AF909F908F90089500913B
:100DE000EC021091ED02E5E06E9FE0011124C85085
:100DF000DF4F4801F12CF5E0E12CFF1629F0CE0180
:100E00000196FE01E490EC01B12CA12C4E2D417015
:100E1000B6016A0D7B1DC4010E942806E694FFEF0F
:100E2000AF1ABF0A88E0A816B10481F7F394EFEF78
:100E30008E1A9E0AF6E0FF12DECF0A5F1F4F109354
:100E4000ED020093EC02BCCF3FB7F8948091C6014D
:100E50009091C701A091C801B091C90126B5A89B86
:100E600005C02F3F19F00196A11DB11D3FBFBA2F3C
:100E7000A92F982F8827BC01CD01620F711D811DFC
:100E8000911D42E0660F771F881F991F4A95D1F781
:100E900008958F929F92AF92BF92CF92DF92EF927E
:100EA000FF926B017C010E9424074B015C01C1147D
:100EB000D104E104F104B9F00E942407681979090A
:100EC0008A099B09683E73408105910580F321E002
:100ED000C21AD108E108F10888EE880E83E0981E56
:100EE000A11CB11CE4CFFF90EF90DF90CF90BF909A
:100EF000AF909F908F9008958F929F92AF92BF92E4
:100F0000CF92DF92EF92FF920F931F93CF93DF93D5
:100F10006C017B018A0180911501882309F45CC072
:100F200080913B03882309F457C080912D0380FFF3
:100F300005C08091E00082608093E000E801B12C60
:100F40008AEFA82E93E0892E2AE3922E209711F49F
:100F5000BB20D9F10E94960481110AC0AA94AA204C
:100F6000D9F161E070E080E090E00E944907EECFA7
:100F70008C171D0611F00CF08C2F9FB7F8948092FF
:100F8000E9002091E80025FD02C09FBFDFCF282F98
:100F900030E0C21BD30BF701815020F04191409308
:100FA000F100FACFE20EF31EBB2021F09092E80090
:100FB000B12CEBCF8091E80085FDE7CF9092E8005F
:100FC000BB24B394209709F3F3CF5D9884E6809314
:100FD0002C03101611063CF081E090E0F60193839B
:100FE000828310E000E0C801DF91CF911F910F9143
:100FF000FF90EF90DF90CF90BF90AF909F908F9039
:101000000895BC0190E080E00C944907089590E0B9
:1010100080E008958F929F92AF92BF920F931F939B
:10102000CF93DF93CDB7DEB7A1970FB6F894DEBFAD
:101030000FBECDBF19A2423008F44AE08E010F5D09
:101040001F4F842E912CB12CA12CA50194010E943C
:10105000611AE62FB901CA01EA3044F5E05DD80112
:10106000EE938D01232B242B252B79F790E080E044
:10107000109769F0FD0101900020E9F73197AF0169
:101080004A1B5B0BBD018CE897E00E94CE05A19640
:101090000FB6F894DEBF0FBECDBFDF91CF911F9189
:1010A0000F91BF90AF909F908F900895E95CD7CF3C
:1010B000FC0101900020E9F73197AF01481B590B63
:1010C000BC018CE897E00C94CE05CF92DF92EF92B2
:1010D000FF92CF93DF936C01990FEE08FF08F7FEA4
:1010E00019C06DE28CE897E00E94C106EC0166270A
:1010F0007727CB016C197D098E099F094AE00E9470
:101100000A088C0F9D1FDF91CF91FF90EF90DF9029
:10111000CF9008954AE0C701B601DF91CF91FF90CB
:10112000EF90DF90CF900C940A08EF92FF920F930C
:101130001F93CF93DF93E0903E01F0903F01C701F2
:101140000E94650887E991E00E94580806E111E0D5
:10115000D0E0C0E0CE15DF0544F4F8018191919113
:101160008F010E9465082196F5CF89E691E0DF9115
:10117000CF911F910F91FF90EF900C9458082F92F0
:101180003F924F925F926F927F928F929F92AF9217
:10119000BF92CF92DF92EF92FF920F931F93CF9364
:1011A000DF9300D000D000D0CDB7DEB78C017E83B6
:1011B0006D833A016B5F7F4F41E00E9428066D818D
:1011C0007E816550710941E0C8010E94280641E016
:1011D0006D817E81C80105960E94280641E06D81DF
:1011E0007E81C80105970E94280681E090E09A83DD
:1011F0008983D12CC12C85E0E82EF12C86EF9FEF5E
:101200009C838B839CEFA92EBB24BA949FEFC91AB1
:10121000D90A89819A8102969A838983A80EB91E78
:101220002601400E511E41E08D809E808E0C9F1C39
:10123000B401C2010E94280618012C183D0841E0A3
:10124000B401C1010E94280641E08D809E808E1865
:101250009F08B401C2010E94280641E0B401C10107
:101260000E9428068D809E808C0C9D1C41E0B4015C
:1012700028014E0C5F1CC2010E94280641E0B40107
:1012800018012E183F08C1010E9428068D809E80FB
:101290008C189D0841E0B401C2010E94280641E07B
:1012A000B401C1010E942806CE14DF04B4F1C801C4
:1012B00002979093ED028093EC028D819E810397BB
:1012C0009093EB028093EA029FEF6916790691F5FD
:1012D0008BE691E00E9458086D817E816C5F7F4FA4
:1012E00041E0C801039626960FB6F894DEBF0FBE04
:1012F000CDBFDF91CF911F910F91FF90EF90DF90C5
:10130000CF90BF90AF909F908F907F906F905F90A5
:101310004F903F902F900C942806B7FC77CF91E028
:10132000E91AF1088B819C8102969C838B83A80E1D
:10133000B91E6CCF8EEF68168FEF780619F48DE624
:1013400091E0C8CFC3010E946508C6CF2F923F929B
:101350004F925F926F927F928F929F92AF92BF92C5
:10136000CF92DF92EF92FF920F931F93CF93DF9371
:101370006B017C01EA01190160913E0170913F010E
:10138000072E000C880B990B0E94251C9B01AC01B9
:101390006BED7FE089EC90E40E947B1BA701960136
:1013A0000E94A01D6B017C010E94761B2B013C0159
:1013B000BE01DD0F880B990B0E94251C4B015C01BF
:1013C000AC019B01C301B2010E94A01D20E030E0EE
:1013D00040E852E40E94931A0E94ED1BF1017183D0
:1013E0006083C701B6010E940D1E9B01AC01C501BF
:1013F000B4010E94A01D20E030E040E052E40E94D1
:10140000931A0E94ED1BF80171836083DF91CF91E5
:101410001F910F91FF90EF90DF90CF90BF90AF9012
:101420009F908F907F906F905F904F903F902F9004
:1014300008952F923F924F925F926F927F928F9278
:101440009F92AF92BF92CF92DF92EF92FF920F9353
:101450001F93CF93DF93CDB7DEB728970FB6F894DD
:10146000DEBF0FBECDBF6B017C0160913E0170916C
:101470003F01072E000C880B990B0E94251C9B0135
:10148000AC016BED7FE089EC90E40E947B1B4B018B
:101490005C016091F9027091FA02072E000C880B32
:1014A000990B0E94251CA50194010E94A01D2B01EF
:1014B0003C01A7019601C501B4010E94A01D9B013A
:1014C000AC01C301B2010E94931A4B015C010E945E
:1014D0000D1E2B013C0120E030E040EC51E40E9465
:1014E000A01D20E030E040E052E40E94931A0E94E8
:1014F000ED1B6B011B01C501B4010E94761B4B0162
:101500005C0120E030E040EC51E40E94A01D20E0AE
:1015100030E040E852E40E94931A0E94ED1B6B8376
:101520007C838D839E830B811C8120E030E040E230
:1015300051E4C301B2010E94A01D20E030E040E070
:1015400052E40E94931A0E94ED1B2B0178876F834F
:1015500020E030E040E251E4C501B4010E94A01D4A
:1015600020E030E040E852E40E94931A0E94ED1B14
:101570005B019601241935093A83298337FF05C099
:101580003195219531093A8329838B809C80861A75
:10159000970A97FE03C091948194910829813A811A
:1015A0008216930634F486012B803C8052017887A2
:1015B0006F830A151B055CF49F81888538862F820E
:1015C000292E382E9A2D8B2D5801092F182F2801DE
:1015D0004A185B0831018F819885681A790A77FE6D
:1015E00003C0719461947108620157FE03C09FEFBC
:1015F000C91AD90AD594C7942F8138858FEF22153F
:1016000033050CF481E0E82E880FFF080A151B054E
:10161000FCF089819A8141E088169906ACF4B50105
:101620008F8198850E942806C618D708D7FE08C063
:101630002F8138852E0D3F1D38872F83C40CD51C74
:101640003FEFA31AB30AE2CF6F817885C501EACFD5
:1016500028960FB6F894DEBF0FBECDBFDF91CF91B5
:101660001F910F91FF90EF90DF90CF90BF90AF90C0
:101670009F908F907F906F905F904F903F902F90B2
:1016800008950C94191A2F923F924F925F926F9285
:101690007F928F929F92AF92BF92CF92DF92EF9202
:1016A000FF920F931F93CF93DF93CDB7DEB72C97A5
:1016B0000FB6F894DEBF0FBECDBF9C838B837C87B3
:1016C0006B874A0189011A8219822B8520FD18C176
:1016D0002B843C8437FE03C03FEF231A330A359432
:1016E0002794C10181509048FC01EE0FFF1FFE833B
:1016F000ED836B807C806E0E7F1EF301A080B18035
:1017000082819381A816B90609F0FAC02B853C8521
:10171000223031050CF4F4C03FEF831A930AB40170
:10172000092C000C880B990B0E94251C20E030E04E
:1017300040E05FE30E94A01D20E030E040E85FE36E
:101740000E94931A6B017C0181E08816910409F0D4
:1017500071C0EB85FC85329789F5B5016F5F7F4FCE
:10176000F80171836083072E000C880B990B0E948F
:10177000251CA70196010E94A01D0E94601C0E94CA
:10178000ED1B89819A81860F971F2C960FB6F894CE
:10179000DEBF0FBECDBFDF91CF911F910F91FF90A4
:1017A000EF90DF90CF90BF90AF909F908F907F9001
:1017B0006F905F904F903F902F900895F801B18205
:1017C000A082F3012FEF221A320A8B859C858215A5
:1017D00093052CF08481958181939193F3CFF80147
:1017E000608171816F5F7F4F71836083072E000C72
:1017F000880B990B0E94251CA70196010E94A01D31
:101800000E94601C6B017C016B857C8562507109B4
:10181000980141E050E08B819C810E94430BBC0108
:10182000990F880B990B0E94251CA70196010E9415
:10183000931AA5CFF801608071802301FFEF4F1A42
:101840005F0AB201052C000C880B990B0E94251C25
:10185000A70196010E94A01D0E94601C0E94ED1B22
:101860006F83788789879A876F817885A614B704F4
:10187000BCF1B501661977096F5F7F4F072E000C29
:10188000880B990B0E94251C2B013C01A701960196
:10189000C701B6010E94931A9B01AC01C301B201BA
:1018A0000E94A01D0E94ED1B2F813885620F731FBF
:1018B000C5010296F80191838083EB81FC812D8123
:1018C0003E81E20FF31F3FEF231A330A8B859C857D
:1018D000821593054CF08481958181939193F3CF88
:1018E000F80151824082E9CFEB85FC853297FC8775
:1018F000EB8729813A81260F371F3A832983E5CE6A
:1019000070E060E03ECF2F923F924F925F926F92D5
:101910007F928F929F92AF92BF92CF92DF92EF927F
:10192000FF920F931F93CF93DF93CDB7DEB7289726
:101930000FB6F894DEBF0FBECDBF0E9405060E9411
:10194000950820913E0130913F0146E151E05C83D2
:101950004B83FA0190E080E0821793070CF061C19D
:10196000419151914F3F5F4F11F00196F5CFE6E164
:10197000F1E010E000E0819191910217130729F046
:10198000019629F00F5F1F4FF6CF0196F1F618016F
:10199000220C331CF101EA5EFE4F80819181019699
:1019A00009F051C0233031050CF44DC06901F1E05C
:1019B000CF1AD1080115110521F0680141E0C41AC0
:1019C000D10878015FEFE51AF50AE216F30614F084
:1019D000F12CE12CD601AA0FBB1FAA5EBE4FF70166
:1019E000EE0FFF1FEA5EFE4F4D915C918081918169
:1019F0004817590741F5F0E0E0E0C9018C0D9D1D45
:101A00000197B9010E942D1E5C01C7010196B90121
:101A10000E942D1ED501AA0FBB1FAA5EBE4FAC01AE
:101A2000440F551F4A5E5E4F6D917C91DA014D91D6
:101A30005C916417750739F42E173F0721F0319632
:101A400065017C01DACFB12CA12CEC14FD0481F0EE
:101A5000CE14DF040CF06EC05701AC18BD08B1E025
:101A6000AB16B10409F062C05901EFEFAE1ABE0A1D
:101A7000C8010E94BC031092C3011092C201B7FEBC
:101A800003C06FEFA61AB60AC501959587959E8388
:101A90008D83D101AC5EBE4F1D013801512C412C0C
:101AA000ED81FE814E165F060CF06FC0F1E06F1AFB
:101AB0007108D1018D919C9160EC862E61E0962E8B
:101AC000F401329122914F01338322832AE931E0DC
:101AD0002E173F07A9F790939B0180939A0140919D
:101AE000C2015091C30158874F835A015FEFA51A75
:101AF000B50AB092C301A092C201C3010E94BC0307
:101B000064E1A616B104B8F5D1012D913C9183E1B1
:101B100090E0B2E08B1A9108A816B906F4F4019788
:101B2000F40146A157A151A740A7F3CFFFEFAF1A89
:101B3000BF0A9ECFC6018E199F0959014FEFA41A03
:101B4000B40A019709F494CF2C193D092E0D3F1DBD
:101B500059015FEFA51AB50A8BCFF501EE0FFF1FF4
:101B6000E656FE4F318320838F81988502969093AD
:101B7000C3018093C201C3010E94BC03FFEF4F1A4F
:101B80005F0A22E0221A31088BCFAD80BE80B7FEFB
:101B900002C0B12CA12C0A191B096091C2017091DD
:101BA000C3019E012F5F3F4F50E040E08AE991E082
:101BB0000E94430B2091F2023091F302820F931F97
:101BC0009093F3028093F2020431110508F0B9CE2C
:101BD00029813A8183E190E04B815C814250510937
:101BE0005C834B838017910759F00197DA01969631
:101BF0004D915C91979799965C934E939897ECCF03
:101C0000880F991FFC01EA5EFE4F3183208380918B
:101C10003E0190913F01019690933F0180933E01D8
:101C200090CE0E9495080E94250688EB9BE00E94BA
:101C3000010828960FB6F894DEBF0FBECDBFDF9126
:101C4000CF911F910F91FF90EF90DF90CF90BF90B9
:101C5000AF909F908F907F906F905F904F903F904C
:101C60002F9008951F920F920FB60F9211248F9309
:101C70009F938091E1009091E100937F9093E10028
:101C800083FF0FC01092E90091E09093EB00109257
:101C9000EC0092E39093ED0010923B0398E0909358
:101CA000F00082FF22C093E09093E9009091F2004F
:101CB000992319F09AE39093E80090912C039923CB
:101CC00041F090912C03915090932C03911101C0FD
:101CD0005D9A90913A03992341F090913A03915083
:101CE00090933A03911101C0289A84FF18C0809103
:101CF000E2008E7E81608093E2008091E1008F7E21
:101D00008093E10080912D038E7E806180932D036E
:101D10009F918F910F900FBE0F901F90189580FF8D
:101D2000F7CF8091E2008E7E80618093E200809107
:101D3000E1008E7E8093E10080912D038E7E816094
:101D4000E5CF1F920F920FB60F921124CF92DF9220
:101D5000EF92FF920F931F932F933F934F935F93B5
:101D60006F937F938F939F93AF93BF93EF93FF9363
:101D7000CF93DF93CDB7DEB76C97DEBFCDBF1092A8
:101D8000E9008091E80083FF25C068E0CE01459618
:101D90000E94C10582EF8093E8008D8987FF39C0DA
:101DA0009091E80090FFFCCF982F907609F034C115
:101DB0009E894F89588D2F89F88C911131C08038B8
:101DC00061F580912B038093F1001092F1008EEF6A
:101DD0008093E8006C960FB6F894DEBF0FBECDBFBF
:101DE000DF91CF91FF91EF91BF91AF919F918F9133
:101DF0007F916F915F914F913F912F911F910F9123
:101E0000FF90EF90DF90CF900F900FBE0F901F903C
:101E100018959EEF9093E800C7CF1092F100D5CFB0
:101E2000913059F48111D3CF4130510581F6809121
:101E30002B038D7F80932B03CACF933049F48111FC
:101E4000C6CF4130510519F680912B038260F2CF45
:101E5000953041F48091E80080FFFCCF206820930A
:101E6000E300B5CF963009F0A9C00B8D1C8D22E0A0
:101E70001092E9001092290310922803F2122EC04A
:101E800010922703109226030E9490051F8299E06A
:101E90009983FA8291E09E8390EA98879AEF9987D6
:101EA0002091280330912903275F3F4F3C832B83E8
:101EB0008D831092E9001092290310922803109349
:101EC00027030093260349E050E0BE016F5F7F4F78
:101ED00080E00E946A050E94900579CF1093270345
:101EE000009326030E94A704DC0112960D911C9119
:101EF0000115110509F451C1D801ED91FC9104803F
:101F0000F581E02DBE016B5E7F4FC80109950097FA
:101F100009F03EC1F80100851185EACFF3E0FF1218
:101F20000EC08F89882309F440C0823061F440E8F4
:101F300067E089E197E00E941D11811148CF81E29D
:101F40008093EB0047CF813029F440E86BE08DE0CF
:101F500097E0F1CF833099F70E94A704DC01129635
:101F6000ED90FC908E010F5F1F4F6801E114F104AA
:101F700079F0D701ED91FC910680F781E02DB80151
:101F8000C7010995080F111DF701E084F184EECF18
:101F9000D8011C92F60101900020E9F73197BF01AA
:101FA0006C197D0940E0C601C6CF67EF76E0FB0102
:101FB000449150E080E80E946A0509CF973009F407
:101FC000BECF983021F481E08093F10000CF9930AA
:101FD00009F0FDCE837009F0B2CFE5E4F1E081E0D5
:101FE00031E096E32191222371F08093E900309350
:101FF000EB00DF0111972C912093EC009093ED0002
:102000008F5F873079F78EE78093EA001092EA00BD
:102010008F8980933B03DBCE8B8D9C8D1092E900E2
:10202000109229031092280390932703809326038C
:10203000898D811192C08E899D89913A49F48132AE
:1020400009F07DCF47E050E06EE071E080E0B3CF73
:10205000913209F074CF833269F48F89988DB0E0A2
:10206000A0E080930A0190930B01A0930C01B09320
:102070000D01ADCE803269F48091E80082FFFCCF83
:1020800067E08EE091E00E94C1058BEF8093E8004D
:102090009ECE823209F09BCE8F8980931501EEEFA0
:1020A000FFE7859194918B3F9C4D51F1E0E0F8E082
:1020B00080910E0190910F01A0911001B09111013A
:1020C000803B9440A105B105F1F48091150180FD9C
:1020D0001AC0EE3F8AE0F80789F587E797E7918312
:1020E00080838091600080932A0388E19BE00FB693
:1020F000F894A895809360000FBE9093600067CE1F
:10210000EEEFFAE0D5CF808191818737974709F0CC
:102110005ECEA89580916000886180936000809178
:102120002A0380936000EE3F2AE0F20789F0809155
:10213000FE0A9091FF0A9183808349CE808191812C
:102140008737980751F29093FF0A8093FE0AC5CF14
:102150001092FF0A1092FE0A3ACE0E94A704DC01F8
:1021600012960D911C910115110509F4E8CED801C4
:10217000ED91FC910190F081E02DBE016B5E7F4FEF
:10218000C8010995811123CEF80100851185EBCF97
:10219000181619060CF41BCED2CEF1E0FF12BECEFB
:1021A0006BEF76E004CF0F920FB68F939F93EF9370
:1021B000FF938091C5018D5F8D3708F08D57809317
:1021C000C501EAECF1E080818E4F808391819F4FC1
:1021D000918382818F4F828383818F4F8383E6EC4B
:1021E000F1E080818F5F808381818F4F8183828145
:1021F0008F4F828383818F4F83838FB18F606699E6
:102200001C9B88278F3681F48091C401981B9630DF
:1022100068F0E0E0F8E087E78083818388E18093DD
:102220006000F0936000FFCF9093C401FF91EF91A5
:102230009F918F910FBE0F901895EF92FF920F9381
:102240001F93CF93DF93F82E192FE62E042F81E0F2
:10225000860F880F0E943C0583E00E943C05CF2D2D
:10226000D12FEC0EFD2EF11CCE15DF05B9F007FFC6
:1022700013C0FE0184910E943C05182F80E00E944B
:102280003C05812321968111EFCFDF91CF911F91E2
:102290000F91FF90EF9008958881EDCF81E0F5CF09
:1022A000ECE3F7E01382128288EE93E0A0E0B0E066
:1022B00084839583A683B7838FE491E091838083A1
:1022C0008FEF9FEF95878487ECE8F7E01382128207
:1022D00081E691E0918380830895CF93DF93CDB71A
:1022E000DEB7A2970FB6F894DEBF0FBECDBF7894CD
:1022F00084B5826084BD84B5816084BD85B582600B
:1023000085BD85B5816085BD80916E0081608093BB
:102310006E00109281008091810082608093810024
:102320008091810081608093810080918000816034
:1023300080938000809191008260809391008091D1
:1023400091008160809391008091900081608093E2
:1023500090008091C10084608093C1008091C10091
:1023600082608093C1008091C10081608093C10030
:102370008091C30081608093C3008091C00082601F
:102380008093C0008091C20081608093C2008091E0
:102390007A00846080937A0080917A0082608093D2
:1023A0007A0080917A00816080937A0080917A002F
:1023B000806880937A0010923B0310922B03109256
:1023C0002D038091D70081608093D70080EA8093AD
:1023D000D80089B5806189BD89B5826089BD09B49D
:1023E00000FEFDCF61E070E080E090E00E944907D0
:1023F0008091D8008F7C80618093D8008091E0002C
:10240000807F8093E0008091E1008E7E8093E100E8
:102410008DE08093E200559A209A81EC80937C00B5
:1024200085B1806F85B984B1877E84B984B1876EA8
:1024300084B95E9A5F988AB1806D8AB9769A6E98EF
:1024400081B3806F81BB899880B38D7080BB80E53C
:102450008CBD81E08DBD85E090E00E9401085F9A0F
:1024600085E090E00E9401085E985C98E8EAF6E05A
:1024700085EB96E024912EBD00000DB407FEFDCF44
:1024800031968E179F07B1F75C9A81E880936400BC
:10249000809165008160809365000E9425060E94FE
:1024A000FD0587FF15C05C9885EA8EBD00000DB460
:1024B00007FEFDCF5C9A2E982F982D98809164008E
:1024C00080628093640081E083BF889513BEFCCF57
:1024D0000E94FD0582FF48C02D980E94FD0584786A
:1024E0008438E1F40E94FB0588EC90E00E9401082A
:1024F0002F9882E090E00E94191A8F3F29F06FEF29
:1025000082E090E00E94211A84EF91E00E9401088D
:102510002F9A0E94FD0584788438D9F30E94FD0526
:1025200084718431E1F40E94FB0588EC90E00E9404
:1025300001082E9882E090E00E94191A882329F061
:1025400060E082E090E00E94211A84EF91E00E9416
:1025500001082E9A0E94FD0584718431D9F388EC1C
:1025600090E00E940108B4CF0E94FB0582E090E059
:102570000E94410B882309F470C03E9A3F9A81E083
:1025800090E00E94410B81FF12C0082F0470502E72
:1025900082FD2E9801EF1FEF68E0E62EF12C0E94DD
:1025A000FD0586FF5DC02E9A2F9A0E94FB0582E3EF
:1025B00090E00E9401080E94FD058111F8CF0E9461
:1025C000050688EE80930001809164008E7F8093E1
:1025D000640080917A00806480937A0080917A0010
:1025E00086FDFCCF00917800109179000E942407AD
:1025F000AB01BC01C801B0E0A0E0DC01992788274D
:102600008C019D01040F151F261F371FC901B8013A
:10261000209164002160209364006115710581059B
:10262000910511F00E94101A8FB7F8944091CA01D9
:102630005091CB016091CC017091CD018FBF809101
:10264000D001882309F4CAC01092D00180E090E044
:10265000892B51F30E940000E7CF3E983F988FCF1F
:10266000552029F00430110511F42E9A2F9881E09D
:102670000E94D803980117FF04C022273327201B8C
:10268000310B27703327C80117FD079653E0959546
:1026900087955A95E1F717FF05C00197A701421BDF
:1026A000530B9A01BC017695762F6627779567952F
:1026B000645C7C4FB0E0A0E03701621A730A8E3F81
:1026C0005FEF950709F43AC050E040E0FD01E850A3
:1026D000FA4F5F014B01F0E88F0E911C8F3F980776
:1026E00091F0F501E40FF51FE4916B01C40ED51EC6
:1026F000F0E01F01022E01C0220C0A94EAF7F60155
:1027000044882428248A2115310599F0F501E40F25
:10271000F51FE4916401C40ED51EF0E01F01062CE4
:1027200002C0359427940A94E2F7F60144882428DD
:10273000248A4F5F5F4F4835510581F60196A85AAC
:10274000BF4F60587F4FA03BB10509F0B8CF0E9442
:1027500025068FE090E00E9401080F5F1F4F0931AE
:10276000110509F01CCF552011F02F9A2D9880E902
:1027700091E00E9401080E94FB0581E090E00E9428
:10278000410B80FF14CF8AE090E00E94410B9FEF45
:10279000980F9E3F08F00BCF22E330E03093ED021C
:1027A0002093EC0228E330E03093EB022093EA021E
:1027B0000BE010E0682F8CE897E00E94C106C8018A
:1027C0000E94410B0F5F1F4F0131110599F70E94C5
:1027D000250688EE93E00E940108E9CE8091D101A0
:1027E000142F181B812F90910001191748F48F5F47
:1027F000891708F02BCF81E083BF889513BE26CFC1
:1028000011E01093D0014093D1018091CE019091BD
:10281000CF0101969093CF018093CE018091EF027A
:102820008093EE020E94FD058093EF0280E10E94FA
:102830001A06882329F080910901812780930901D4
:10284000209024033090250321E02216310469F5FD
:102850000E9405060E94950889E691E00E945808AA
:102860008FE691E00E945808AE014F5F5F4FBE01B6
:102870006D5F7F4F80913E0190913F010E94E70381
:102880000E94650889E691E00E9458088B819C812E
:102890000E94650888E991E00E94580889819A8120
:1028A0000E9465080E942506FFCF32E023163104FE
:1028B00059F40E9405060E9495080E94830C0E940C
:1028C00095080E942506FFCF2114310409F0BECEE1
:1028D00080912303882309F472C00E940506809129
:1028E000F0029091F10201969093F1028093F00230
:1028F00002ED11E02091010130910201C090F0023F
:10290000D090F10280913E0190913F012816390646
:102910000CF04AC0D8011C96AD90BC901D9714963F
:102920008D909C9015971296ED90FC90F90137FDD3
:102930003196F595E795D8011A964D915C914E190F
:102940005F094C9DC0014D9D900D5C9D900D112423
:102950008E0F9F1FB9010E942D1EE60EF71ED80193
:102960001796FC92EE921697A818B908AC9CC00175
:10297000AD9C900DBC9C900D11248E0F9F1FB90132
:102980000E942D1E680D791DF801718760874081B6
:102990005181C7010E94BF080E942506FFEF2F1A30
:1029A0003F0A025F1F4FA6CF2C153D050CF04ECEFF
:1029B000109223031092F1021092F00247CE88E0A9
:1029C0000E941A06882309F461C120913E013091CA
:1029D0003F0100910701109108010E3F4FEF1407CE
:1029E00081F4A6E1B1E0EBEFF2E090E080E0821745
:1029F00093070CF0D7C14D915D914193519301968E
:102A0000F6CFA6E1AA2EA1E0BA2EEBEFF2E0D501B7
:102A100090E080E08217930734F44D915D914193EB
:102A200051930196F7CF8091F9029091FA020196A5
:102A30004091F6025091F7024F5F5F4F5093F702BB
:102A40004093F602B9010E942D1E84319105E0F4F5
:102A5000E6E1F1E043E150E032978417950739F061
:102A60004150510966A177A171A760A7F5CF880FE2
:102A7000991FFC01EA5EFE4F118300832F5F3F4FD9
:102A800030933F0120933E018091090181110E9402
:102A9000830C8DB69EB62091F6023091F702C901E3
:102AA00068E270E00E942D1E892B49F48091050197
:102AB0009091060101969093060180930501C9014A
:102AC00066E970E00E942D1E892B49F48091030174
:102AD00090910401019690930401809303018091E9
:102AE000050190910601C0900301D09004012C01D2
:102AF000092E000C660877089C012C0D3D1D8217DD
:102B00009307ACF40D2C000CEE08FF08C114D1049F
:102B1000E104F10441F00E94C119A70196010E944D
:102B20002F1A6B017C014C0C5D1C6E1C7F1C50929B
:102B30000801409207010E94C11929E030E040E0FD
:102B400050E00E942F1A672B682B692B51F48FEFEE
:102B50009FEF90930801809307011092F502109265
:102B6000F402E0903E01F0903F01C701880F991FE9
:102B7000ADB7BEB7A81BB90B0FB6F894BEBF0FBE5A
:102B8000ADBFEDB7FEB731966F0140910501509191
:102B9000060190E080E0512C412C8E159F05CCF46D
:102BA000D5012D913D915D012417350784F4B901BC
:102BB0006E5F7F4F6230710550F0F201EE0FFF1F24
:102BC000EC0DFD1D31832083BFEF4B1A5B0A01968C
:102BD000E4CF60E070E0CB011E141F0444F40E94B7
:102BE000C1199701FF0C440B550B0E942F1A052C9D
:102BF000000C660877086415750586059705C4F40A
:102C0000411451046104710439F00E94C119A301F7
:102C100092010E942F1A2B018201000F111F0C0D2F
:102C20001D1DF80180819181909308018093070117
:102C30008091F4029091F502069754F08FEF9FEF88
:102C400090930801809307011092F5021092F4020C
:102C50008091F6029091F70264E170E00E942D1ECF
:102C6000892B31F48EEF9FEF909308018093070139
:102C70008091F4029091F50201969093F502809371
:102C8000F4020FB6F8949EBE0FBE8DBE84E00E9483
:102C90001A06882369F08091F802882309F4ACC0F1
:102CA0008FEF9FEF90930801809307011092F80235
:102CB00080E20E941A0600913E0110913F01882394
:102CC00069F08091F9029091FA02181619060CF039
:102CD0009AC001979093FA028093F90280E40E94CF
:102CE0001A06882381F08091F9029091FA029801E6
:102CF00021503109821793070CF087C001969093F9
:102D0000FA028093F902013111050CF4BCC00E9453
:102D100005068AE791E00E9458088091F60290919A
:102D2000F7020E94650886E891E00E94580889E64B
:102D300091E00E9458088DE891E00E94580880E0D8
:102D400092E00E94410B682F70E090E080E04AE042
:102D50000E940A080E9425068091EF028093EE02ED
:102D60000E94FD058093EF0288E00E941A06182F4A
:102D700084E00E941A06111102C0882369F3209191
:102D80003E0130913F01A6E1B1E0EBEFF2E090E0CF
:102D900080E082179307F4F51D921D921192119213
:102DA0000196F7CF8091F9029091FA02FC01EE0FA3
:102DB000FF1FEA5EFE4F408151815093080140930E
:102DC0000701B9010E942D1EFC01EE0FFF1FEA5EF4
:102DD000FE4F215031098217930734F44281538109
:102DE000419351930196F7CF30933F0120933E01D9
:102DF00081E08093F8024ACF82E090E0909325032F
:102E00008093240355CFC80164CF1092FA02109228
:102E1000F90279CF81E090E0909317018093160139
:102E200090933F0180933E0121E02093090110928D
:102E3000F5021092F4021092F7021092F60210922C
:102E4000F3021092F202909306018093050124E0B0
:102E500030E03093040120930301909308018093A4
:102E600007011092FA021092F9021092F1021092E8
:102E7000F0028CE390E090930201809301011092A4
:102E8000F802109223030E94050696E1C92E91E0F4
:102E9000D92EF12CE12C80913E0190913F01E81652
:102EA000F90604F5D601AD90BD906D01B7010F2C68
:102EB000000C880B990B0E94251C8E010F5F1F4F81
:102EC0009E012D5F3F4F48E150E00E94A6096981B5
:102ED0007A81A5018B819C810E94BF08BFEFEB1A0C
:102EE000FB0AD9CF409107015091080160E270E0E0
:102EF00080E490E00E94BF08AE01475F5F4FBE01D3
:102F0000655F7F4F80913E0190913F010E94E703F2
:102F10003C01FC013197FE8FED8F0D8D1E8D20162B
:102F200031060CF073C18B859C85820D931D6091D9
:102F30003E0170913F010E942D1EBC01990F880B2C
:102F4000990B0E94251C8E010B5F1F4F9E01295F6C
:102F50003F4F4EE050E00E94A6098B859C85820D74
:102F6000931D019660913E0170913F010E942D1EBC
:102F7000BC01990F880B990B0E94251C0450110964
:102F80009E012D5F3F4F4EE050E00E94A6096F81E9
:102F9000788560547109072E000C880B990B0E94EC
:102FA000251C6B017C016D817E8160527109072EA9
:102FB000000C880B990B0E94251CA70196010E940A
:102FC000121B162F072FF82EE92E6B817C8160547F
:102FD0007109072E000C880B990B0E94251C4B01D0
:102FE0005C0169817A8160527109072E000C880B9F
:102FF000990B0E94251CA50194010E94121B4B01F4
:103000005C0120E030E0A901612F702F8F2D9E2DF3
:103010000E94711B87FF0EC02BED3FE049EC50E48E
:10302000612F702F8F2D9E2D0E94931A162F072F20
:10303000F82EE92E20E030E0A901C501B4010E947C
:10304000711B87FF0AC02BED3FE049EC50E4C5013E
:10305000B4010E94931A4B015C01A5019401612FF8
:10306000702F8F2D9E2D0E94711B212F302F4F2DE1
:103070005E2D87FF92C0C501B4010E94921A562EA0
:10308000472E8D879E87A50194016BED7FE089EC2B
:1030900090E40E94921A212F302F4F2D5E2D0E9416
:1030A000931A6F87788B4C012F853889AC01652D79
:1030B000742D8D859E850E94711B87FF85C0598A5E
:1030C0004A8A2D852B8B3E853C8B8AE097EDA3E2C7
:1030D000BDE38D8B9E8BAF8BB88FA12EB02ECF2CE6
:1030E000DE2C2F853889A401652D742D8D859E8554
:1030F0000E94711B87FF77C0212F302F4F2D5E2D2F
:1031000069897A898B899C890E94931A9501A60105
:103110000E94931D87FD76C0B501C6010E94761BF3
:10312000698F7A8F8B8F9C8FB501C6010E940D1E0F
:1031300020E030E040E651E40E94A01D20E030E0B5
:1031400040E052E40E94931A0E94ED1B6F8F78A317
:1031500089A39AA320E030E040E651E4698D7A8D9E
:103160008B8D9C8D0E94A01D20E030E040E852E451
:103170000E94931A0E94ED1BCB0141E06F8D78A154
:103180000E9428062D893E894F89588DB501C601B8
:103190000E94931A5B016C01A4CF6BED7FE089EC78
:1031A00090E40E94921AA50194010E94931A562E4F
:1031B000472E8D879E87A5019401612F702F8F2D3B
:1031C0009E2D0E94921A6DCF9F85998BA889AA8BFC
:1031D0008B8A9C8A2AE037ED43E25DEB2D8B3E8B98
:1031E0004F8B588F7ACF29893A894B895C89612F17
:1031F000702F8F2D9E2D0E94921A9B01AC01B5015C
:10320000C60186CF3FEF231A330A87CE42E0641609
:10321000710409F04EC080913E0190913F010297E8
:1032200009F04AC06B857C856F5F7F4F072E000CCD
:10323000880B990B0E94251C20E030E040E05FE302
:103240000E94931A8E010B5F1F4F9E01295F3F4F13
:103250004EE050E00E94A609ED80FE800F811885A7
:10326000B7016250710945E0C8010E944606B701E6
:10327000C8010E946C0683E090E09093ED02809379
:10328000EC029093EB028093EA028091F602909117
:10329000F7020E946508809107019091080102964B
:1032A000F9F460E070E0CB010E94190A0E94250643
:1032B000CDC916141704FCF6B301759567958B8577
:1032C0009C85680F791F072E000C880B990B0E94B4
:1032D000251C20E030E040E05FE30E94921AB2CF6C
:1032E00060E070E080E09FE3DFCF8F929F92AF922B
:1032F000BF92CF92DF92EF92FF92CF93DF93EC01D8
:10330000688179818A819B816115710581059105AB
:1033100021F464E279ED8BE597E02DE133EF41E0B4
:1033200050E00E942F1A49015A019B01AC01A7EA03
:10333000B1E40E944E1A6B017C01ACEEB4EFA50122
:1033400094010E945C1AC60ED71EE81EF91EF7FEF5
:1033500006C081E0C81AD108E10880E8F80AC882EE
:10336000D982EA82FB82C701B6019F77DF91CF91B4
:10337000FF90EF90DF90CF90BF90AF909F908F9095
:1033800008958F929F92AF92BF92CF92DF92EF9269
:10339000FF926091400170914101809142019091B2
:1033A0004301611571058105910521F464E279ED10
:1033B0008BE597E02DE133EF41E050E00E942F1ABA
:1033C00049015A019B01AC01A7EAB1E40E944E1ADF
:1033D0006B017C01ACEEB4EFA50194010E945C1A74
:1033E000C60ED71EE81EF91EF7FE06C081E0C81AF9
:1033F000D108E10880E8F80AC0924001D09241016A
:10340000E0924201F0924301C701B6019F77FF901D
:10341000EF90DF90CF90BF90AF909F908F900895E6
:103420006093400170934101809342019093430166
:103430000895F999FECF92BD81BDF89A992780B57C
:103440000895262FF999FECF1FBA92BD81BD20BDE8
:103450000FB6F894FA9AF99A0FBE01960895052EC0
:1034600097FB1EF400940E94461A57FD07D00E9455
:10347000611A07FC03D04EF40C94461A50954095FF
:10348000309521953F4F4F4F5F4F08959095809510
:10349000709561957F4F8F4F9F4F08950E94831ABB
:1034A000A59F900DB49F900DA49F800D911D112498
:1034B0000895B7FF0C944E1A0E944E1A821B930B6C
:1034C0000895A1E21A2EAA1BBB1BFD010DC0AA1F65
:1034D000BB1FEE1FFF1FA217B307E407F50720F07D
:1034E000A21BB30BE40BF50B661F771F881F991FF8
:1034F0001A9469F760957095809590959B01AC0141
:10350000BD01CF010895A29FB001B39FC001A39F49
:10351000700D811D1124911DB29F700D811D11240C
:10352000911D08955058BB27AA270E94AA1A0C94EF
:103530002D1D0E94F41C38F00E94FB1C20F039F471
:103540009F3F19F426F40C94CA1C0EF4E095E7FB97
:103550000C949B1CE92F0E94521D58F3BA17620766
:1035600073078407950720F079F4A6F50C948C1D59
:103570000EF4E0950B2EBA2FA02D0B01B90190018E
:103580000C01CA01A0011124FF27591B99F0593FD2
:1035900050F4503E68F11A16F040A22F232F342F1A
:1035A0004427585FF3CF469537952795A795F04068
:1035B0005395C9F77EF41F16BA0B620B730B840B7D
:1035C000BAF09150A1F0FF0FBB1F661F771F881F35
:1035D000C2F70EC0BA0F621F731F841F48F487958D
:1035E00077956795B795F7959E3F08F0B0CF93957F
:1035F000880F08F09927EE0F9795879508950E94F8
:10360000F41C60F080E891E009F49EEF0E94FB1C3E
:1036100028F040E851E071F45EEF0CC00C94CA1C35
:103620000C948C1DE92FE0780E94521D40F3092E66
:10363000052AB1F3261737074807590738F00E2E29
:1036400007F8E02569F0E025E0640AC0EF6307F8B9
:10365000009407FADB01B9019D01DC01CA01AD014B
:10366000EF930E94921B0E942D1D0E94421B5F91AE
:10367000552339F02BED3FE049E450FD49EC0C9423
:10368000931A0895DF93DD27B92FBF7740E85FE3F2
:103690001616170648075B0718F4D92F0E94981DC5
:1036A0009F938F937F936F930E94151EECEAF0E037
:1036B0000E94CD1C0E942D1D2F913F914F915F9133
:1036C0000E94B31DDD2351F09058A2EA2AED3FE09D
:1036D00049EC5FE3D0785D270E94AA1ADF910C9431
:1036E0002D1D0E94771C08F481E008950E94041D9E
:1036F000E3950C943E1D0E948F1B0C942D1D0E947F
:10370000FB1C58F00E94F41C40F029F45F3F29F0A4
:103710000C949B1C51110C948D1D0C94CA1C0E947E
:10372000521D68F39923B1F3552391F3951B550B63
:10373000BB27AA2762177307840738F09F5F5F4F84
:10374000220F331F441FAA1FA9F335D00E2E3AF0C3
:10375000E0E832D091505040E695001CCAF72BD0DB
:10376000FE2F29D0660F771F881FBB1F261737072C
:103770004807AB07B0E809F0BB0B802DBF01FF275E
:1037800093585F4F3AF09E3F510578F00C949B1C84
:103790000C948D1D5F3FE4F3983ED4F386957795A6
:1037A0006795B795F7959F5FC9F7880F911D969517
:1037B000879597F90895E1E0660F771F881FBB1F73
:1037C000621773078407BA0720F0621B730B840B20
:1037D000BA0BEE1F88F7E09508950E94F41B6894D9
:1037E000B1110C948D1D08950E945A1D88F09F57A9
:1037F00098F0B92F9927B751B0F0E1F0660F771F15
:10380000881F991F1AF0BA95C9F714C0B13091F00A
:103810000E948C1DB1E008950C948C1D672F782FA9
:103820008827B85F39F0B93FCCF3869577956795CF
:10383000B395D9F73EF490958095709561957F4F3B
:103840008F4F9F4F0895E89409C097FB3EF49095E1
:103850008095709561957F4F8F4F9F4F9923A9F069
:10386000F92F96E9BB279395F695879577956795F8
:10387000B795F111F8CFFAF4BB0F11F460FF1BC03C
:103880006F5F7F4F8F4F9F4F16C0882311F096E9CF
:1038900011C0772321F09EE8872F762F05C066237D
:1038A00071F096E8862F70E060E02AF09A95660F36
:1038B000771F881FDAF7880F9695879597F90895EF
:1038C0000E94741D90F09F3748F4911116F00C94EB
:1038D0008D1D60E070E080E89FEB089526F41B16D4
:1038E000611D711D811D0C94A11C0C94BC1C990FB1
:1038F0000008550FAA0BE0E8FEEF16161706E807BA
:10390000F907C0F012161306E407F50798F0621BDA
:10391000730B840B950B39F40A2661F0232B242BAF
:10392000252B21F408950A2609F4A140A6958FEFCE
:10393000811D811D089597F99F6780E870E060E020
:103940000895882371F4772321F09850872B762FE0
:1039500007C0662311F499270DC09051862B70E0A3
:1039600060E02AF09A95660F771F881FDAF7880FB4
:103970009695879597F908959F3F31F0915020F4DF
:10398000879577956795B795880F911D969587953B
:1039900097F908959FEF80EC0895DF93CF931F93DD
:1039A0000F93FF92EF92DF927B018C01689406C027
:1039B000DA2EEF010E94B31DFE01E894A591259136
:1039C000359145915591A6F3EF010E94AA1AFE0187
:1039D0009701A801DA9469F7DF90EF90FF900F91BB
:1039E0001F91CF91DF91089500240A9416161706AF
:1039F00018060906089500240A94121613061406E0
:103A0000050608950C94CA1C0E945A1DD8F3E89428
:103A1000E0E0BB279F57F0F02AED3FE049EC06C0FD
:103A2000EE0FBB0F661F771F881F28F0B23A6207A0
:103A30007307840728F0B25A620B730B840BE3956B
:103A40009A9572F7803830F49A95BB0F661F771FEE
:103A5000881FD2F790480C94BE1C092E0394000CCA
:103A600011F4882352F0BB0F40F4BF2B11F460FF18
:103A700004C06F5F7F4F8F4F9F4F0895EF93E0FF1C
:103A800007C0A2EA2AED3FE049EC5FEB0E94AA1AC8
:103A90000E942D1D0F90039401FC9058E9EDF0E079
:103AA0000C94191E57FD9058440F551F59F05F3F55
:103AB00071F04795880F97FB991F61F09F3F79F050
:103AC00087950895121613061406551FF2CF4695D2
:103AD000F1DF08C0161617061806991FF1CF869554
:103AE00071056105089408950E945A1DA0F0BEE773
:103AF000B91788F4BB279F3860F41616B11D672FDD
:103B0000782F8827985FF7CF869577956795B11DB1
:103B100093959639C8F30895E894BB2766277727CD
:103B2000CB0197F908950E94771C08F48FEF089550
:103B30009B01AC0160E070E080E89FE30C947B1B8C
:103B40000E94B31D0C942D1D0E94F41C38F00E949D
:103B5000FB1C20F0952311F00C949B1C0C94CA1CA8
:103B600011240C948D1D0E94521D70F3959FC1F37A
:103B7000950F50E0551F629FF001729FBB27F00D1B
:103B8000B11D639FAA27F00DB11DAA1F649F662770
:103B9000B00DA11D661F829F2227B00DA11D621FBF
:103BA000739FB00DA11D621F839FA00D611D221F79
:103BB000749F3327A00D611D231F849F600D211D5D
:103BC000822F762F6A2F11249F5750409AF0F1F0E0
:103BD00088234AF0EE0FFF1FBB1F661F771F881F49
:103BE00091505040A9F79E3F510580F00C949B1CCA
:103BF0000C948D1D5F3FE4F3983ED4F38695779542
:103C00006795B795F795E7959F5FC1F7FE2B880FEE
:103C1000911D9695879597F908959F930E94041D8D
:103C20000F9007FCEE5F0C943E1D9B01AC010C94C1
:103C3000A01D9F938F937F936F93FF93EF939B01AF
:103C4000AC010E94A01DEF91FF910E94CD1C2F910D
:103C50003F914F915F910C94A01D97FB072E16F496
:103C6000009407D077FD09D00E94411E07FC05D0C3
:103C70003EF4909581959F4F0895709561957F4F83
:103C80000895AA1BBB1B51E107C0AA1FBB1FA617A3
:103C9000B70710F0A61BB70B881F991F5A95A9F7F5
:103CA00080959095BC01CD010895EE0FFF1F059002
:0A3CB000F491E02D0994F894FFCF81
:103CBA00103C0004000100FFFF01FFFFFFFF00E1CD
:103CCA0000000000000001000100040002000000E2
:103CDA0000000000000000000000000000000000DA
:103CEA0000000000000000000000000000000400C6
:103CFA000100000000C1808100000000000000BB3C
:103D0A00047C07DC04D1042205E004FE0400000060
:103D1A0000C106CE05070806080A002B002D00532D
:103D2A00796D6D657472793A2000596F75206C61EE
:103D3A00737465642000207475726E730048696735
:0A3D4A00682053636F72653A200091
:00000001FF
