:100000000C9492030C94BA030C94BA030C94BA03A4
:100010000C94BA030C94BA030C94BA030C94BA036C
:100020000C94BA030C94BA030C94410C0C94B00CCD
:100030000C94BA030C94BA030C94BA030C94BA034C
:100040000C94BA030C94BA030C94BA030C94BA033C
:100050000C94BA030C94BA030C94BA030C94E20EF9
:100060000C94BA030C94BA030C94BA030C94BA031C
:100070000C94BA030C94BA030C94BA030C94BA030C
:100080000C94BA030C94BA030C94BA030C94BA03FC
:100090000C94BA030C94BA030C94BA030C94BA03EC
:1000A0000C94BA030C94BA030C94BA03084AD73BD5
:1000B0003BCE016E84BCBFFDC12F3D6C74319ABD37
:1000C00056833DDA3D00C77F11BED9E4BB4C3E915B
:1000D0006BAAAABE000000803F05A84CCDB2D44E4A
:1000E000B93836A9020C50B9918688083CA6AAAA4C
:1000F0002ABE000000803F0000000000003E5B4F71
:100100005B3E3E6B4F6B3E1C3E7C3E1C183C7E3C77
:10011000181C577D571C1C5E7F5E1C00183C180085
:10012000FFE7C3E7FF0018241800FFE7DBE7FF3015
:10013000483A060E2629792926407F050507407F83
:1001400005253F5A3CE73C5A7F3E1C1C08081C1CF6
:100150003E7F14227F22145F5F005F5F06097F01EC
:100160007F006689956A606060606094A2FFA294D7
:1001700008047E040810207E201008082A1C0808A5
:100180001C2A08081E101010100C1E0C1E0C3038F3
:100190003E3830060E3E0E06000000000000005FF4
:1001A00000000007000700147F147F14242A7F2A10
:1001B00012231308646236495620500008070300D2
:1001C000001C2241000041221C002A1C7F1C2A081E
:1001D000083E080800807030000808080808000081
:1001E00060600020100804023E5149453E00427FF5
:1001F000400072494949462141494D331814127F44
:100200001027454545393C4A4949314121110907E3
:100210003649494936464949291E00001400000064
:100220004034000000081422411414141414004136
:1002300022140802015909063E415D594E7C1211F3
:10024000127C7F494949363E414141227F4141412B
:100250003E7F494949417F090909013E41415173A6
:100260007F0808087F00417F41002040413F017F17
:10027000081422417F404040407F021C027F7F04DF
:1002800008107F3E4141413E7F090909063E415128
:10029000215E7F09192946264949493203017F0118
:1002A000033F4040403F1F2040201F3F4038403F19
:1002B000631408146303047804036159494D43002F
:1002C0007F4141410204081020004141417F040266
:1002D00001020440404040400003070800205454FD
:1002E00078407F28444438384444442838444428DB
:1002F0007F385454541800087E090218A4A49C782E
:100300007F0804047800447D40002040403D007F89
:100310001028440000417F40007C047804787C0869
:100320000404783844444438FC182424181824243D
:1003300018FC7C08040408485454542404043F4422
:10034000243C4040207C1C2040201C3C4030403C51
:1003500044281028444C9090907C4464544C4400B1
:100360000836410000007700000041360800020115
:100370000204023C2623263C1EA1A161123A404001
:10038000207A38545455592155557941215454787F
:1003900041215554784020545579400C1E52721218
:1003A00039555555593954545459395554545800A0
:1003B00000457C410002457D420001457C40F0291A
:1003C0002429F0F0282528F07C5455450020545469
:1003D0007C547C0A097F49324949493232484848AD
:1003E00032324A4848303A4141217A3A42402078F4
:1003F000009DA0A07D39444444393D4040403D3CEF
:1004000024FF2424487E4943662B2FFC2F2BFF0911
:1004100029F620C0887E0903205454794100004405
:100420007D413048484A32384040227A007A0A0AF0
:10043000727D0D19317D2629292F28262929292663
:1004400030484D4020380808080808080808382FA8
:1004500010C8ACBA2F102834FA00007B0000081432
:100460002A142222142A14089500220095AA005565
:1004700000AAAA55AA55AA000000FF00101010FFFC
:1004800000141414FF001010FF00FF1010F010F003
:10049000141414FC001414F700FF0000FF00FF14F4
:1004A00014F404FC141417101F10101F101F141440
:1004B000141F00101010F0000000001F101010108A
:1004C0001F10101010F010000000FF10101010107E
:1004D00010101010FF10000000FF140000FF00FFBC
:1004E00000001F10170000FC04F414141710171458
:1004F00014F404F40000FF00F7141414141414147A
:10050000F700F7141414171410101F101F141414EC
:10051000F4141010F010F000001F101F0000001F56
:1005200014000000FC140000F010F01010FF10FF89
:10053000141414FF141010101F00000000F010FF1E
:10054000FFFFFFFFF0F0F0F0F0FFFFFF0000000002
:1005500000FFFF0F0F0F0F0F38444438447C2A2A46
:100560003E147E02020606027E027E026355494167
:10057000633844443C04407E201E2006027E020272
:1005800099A5E7A5991C2A492A1C4C7201724C3086
:100590004A4D4D303048784830BC625A463D3E495D
:1005A0004949007E0101017E2A2A2A2A2A44445F01
:1005B000444440514A444040444A51400000FF01F5
:1005C00003E080FF000008086B6B08361236243603
:1005D000060F090F06000018180000001010003068
:1005E00040FF0101001F01011E00191D1712003CF0
:1005F0003C3C3C0000000000F0F89C8E8783878E16
:100600009CF8F00000FEFF0303030303070EFCF851
:100610000000FEFF0303030303070EFCF80000FFC6
:10062000FF00000000000000FFFF0000FEFF8383CA
:10063000838383C7EE7C380000F8FC0E07030303B6
:10064000070EFCF800003F7FE0C08080C0E07F3FE5
:10065000FFFF01010101010101FFFF0000FFFF0C8D
:100660000C0C0C1C3E77E3C100007FFFC0C0C0C073
:10067000C0E0703F1F00001F3F70E0C0C0C0E070CE
:100680003F1F00007FFFC1C1C1C1C1E3773E1C0015
:10069000001F3F70E0C0C0C0E0703F1F00000000BE
:1006A0000001FFFF01000000D5F08D14A1C881CF2B
:1006B000D9F1AF2000080B0002020200000904007B
:1006C00000010202000005240010010524010101BF
:1006D00004240206052406000107058103100040DA
:1006E00009040100020A00000007050202400000A0
:1006F000070583024000000403090412010002EF11
:10070000020140412336800001010203014172646D
:1007100075696E6F204C4C430041726475626F794D
:100720000000850F11241FBECFEFDAE0DEBFCDBF82
:1007300011E0A0E0B1E0E4E4FCE302C005900D921A
:10074000A039B107D9F727E0A0E9B1E001C01D92B7
:10075000A935B207E1F713E0C2E9D3E004C021975D
:10076000FE010E941A1EC139D107C9F70E94A20FCB
:100770000C94201E0C9400002F923F924F925F9297
:100780006F927F928F929F92AF92BF92CF92DF92A1
:10079000EF92FF920F931F93CF93DF93EC012B0106
:1007A0003A01DA011D921C92FB011182108230E0A5
:1007B00020E0F12CE12C2C173D070CF04EC0690114
:1007C000F2E0CF0ED11CE2E0F0E0CE17DF070CF430
:1007D00041C01F013594279410E000E0560181E0EC
:1007E000A81AB108C801820F931FBE010E94F21D12
:1007F000DC01AA0FBB1FA85EBE4F8D909C90C50167
:10080000801B910BBE010E94F21DDC01AA0FBB1FD1
:10081000A85EBE4F8D919C9188169906B1F48920EF
:10082000809499F00F5F1F4F20163106D9F6EE160F
:10083000FF065CF4D2012D933C93C501BE010E94DA
:10084000F21DD3018D939C937F013296B2E0CB0EC3
:10085000D11CBBCF2F5F3F4FAECFC701DF91CF91F0
:100860001F910F91FF90EF90DF90CF90BF90AF90CE
:100870009F908F907F906F905F904F903F902F90C0
:100880000895E5E0F3E0A0E0B8E000800EBC81113F
:10089000012C1197A0FDFDCF0192B9F70DB4089579
:1008A000FC0180910403882311F13FB7F89482E0A2
:1008B0008093E9002091F200822F90E0181619062B
:1008C00014F481E090E0882339F0289844E64093BE
:1008D00003034091F1004083222339F02091F2007C
:1008E000211103C02BE62093E8003FBF08958FEF4E
:1008F0009FEF08952FB7F89483E08093E9009091DB
:10090000E800892F807295FF04C09091F20080E486
:10091000891B2FBF08958091FB0281110DC082E0D9
:100920008093F70284E08093F8021092FA0210920A
:10093000F90281E08093FB0287EF92E00895CF9364
:10094000DF931F92CDB7DEB76983DC01ED91FC9197
:100950000280F381E02D41E050E0BE016F5F7F4FE8
:1009600009950F90DF91CF91089583E08093E9007E
:100970008091F200882319F08AE38093E8000895BB
:100980000E947A0490E00895CF93DF931F92CDB731
:10099000DEB7FC018485958597FD08C02FEF3FEFFA
:1009A000358724870F90DF91CF910895CE0101966E
:1009B0000E945004019719F4898190E0F3CF8FEFE2
:1009C0009FEFF0CF0F931F93CF93DF931F92CDB77D
:1009D000DEB78C01FC018485958597FF0BC0CE01A5
:1009E00001960E945004019771F4898190E0F8010A
:1009F00095878487F801848595850F90DF91CF9145
:100A00001F910F9108958FEF9FEFF1CFFC01848527
:100A1000958597FD0BC09FB7F89482E08093E9001D
:100A20008091F2009FBF90E0019608959FB7F894DF
:100A300082E08093E9008091F2009FBF90E00895EA
:100A40004091F1025091F2022091EF023091F002B8
:100A500042175307B4F49091E8009570E1F3909138
:100A6000E80092FD19C08093F1008091F10290910D
:100A7000F20201968F739927892B19F48EEF8093D8
:100A8000E8008091F1029091F20201969093F202B7
:100A90008093F10281E0089580E00895DF92EF9263
:100AA000FF920F931F93CF93DF93D82E8A01EB0110
:100AB0007B01E40EF51ECE15DF0559F0D7FE12C0FE
:100AC000FE0184910E94200521968111F4CF0FEF41
:100AD0001FEFC801DF91CF911F910F91FF90EF9011
:100AE000DF9008958881EECF0F931F93CF93DF930C
:100AF0001F92CDB7DEB782E0898342E450E065EB18
:100B000076E080E80E944E050E948B04DC0112967C
:100B10000D911C910115110589F0D801ED91FC9101
:100B20000280F381E02DBE016F5F7F4FC801099500
:100B300097FD04C0F80100851185ECCF89810F90E5
:100B4000DF91CF911F910F910895615030F0209166
:100B5000F100FC0120830196F8CF289884E6809369
:100B6000030308953FB7F8948091EB029091EC0253
:100B7000A091ED02B091EE0226B5A89B05C02F3FD3
:100B800019F00196A11DB11D3FBFBA2FA92F982FB3
:100B90008827BC01CD01620F711D811D911D42E0AE
:100BA000660F771F881F991F4A95D1F708958F9276
:100BB0009F92AF92BF92CF92DF92EF92FF926B0122
:100BC0007C010E94B2054B015C01C114D104E10417
:100BD000F104B9F00E94B205681979098A099B09E4
:100BE000683E73408105910580F321E0C21AD10867
:100BF000E108F10888EE880E83E0981EA11CB11C64
:100C0000E4CFFF90EF90DF90CF90BF90AF909F9098
:100C10008F9008958F929F92AF92BF92CF92DF9262
:100C2000EF92FF920F931F93CF93DF936C017B01A1
:100C30008A0180911701882309F45CC08091040324
:100C4000882309F457C08091F60280FF05C0809187
:100C5000E00082608093E000E801B12C8AEFA82ECA
:100C600093E0892E2AE3922E209711F4BB20D9F12C
:100C70000E947A0481110AC0AA94AA20D9F161E0E5
:100C800070E080E090E00E94D705EECF8C171D0643
:100C900011F00CF08C2F9FB7F8948092E90020910E
:100CA000E80025FD02C09FBFDFCF282F30E0C21B28
:100CB000D30BF701815020F041914093F100FACF1E
:100CC000E20EF31EBB2021F09092E800B12CEBCF96
:100CD0008091E80085FDE7CF9092E800BB24B394B3
:100CE000209709F3F3CF5D9884E68093F502101600
:100CF00011063CF081E090E0F6019383828310E0DE
:100D000000E0C801DF91CF911F910F91FF90EF900C
:100D1000DF90CF90BF90AF909F908F900895AF924B
:100D2000BF92CF92DF92EF92FF920F931F93CF93D8
:100D3000DF936C017B018B01040F151FEB015E013A
:100D4000AE18BF08C017D10759F06991D601ED91CF
:100D5000FC910190F081E02DC6010995892B79F76E
:100D6000C501DF91CF911F910F91FF90EF90DF9020
:100D7000CF90BF90AF9008952D9A0895BC0190E058
:100D800080E00C94D7058FB18095807F669B88604A
:100D90001C9B8460089580E0E5E0F3E081118FEF13
:100DA000002481938193819381930394D1F71092CE
:100DB000AD021092AC021092AF021092AE020895F2
:100DC0009091B002982329F49091B102982381E088
:100DD00009F480E0089580E00C9441048038910586
:100DE000B8F460347105A0F420E191E061FD94E075
:100DF00060FD990F62FD9295687F269FD0011124B6
:100E0000A80FAB5FBC4F8C9140FF03C0892B8C9324
:100E1000089590958923FBCFEF92FF920F931F9334
:100E2000CF93DF937C018B01040F111DEB0177FF42
:100E300002C0D0E0C0E0C8010134110514F080E424
:100E400090E0C817D9073CF441E0BE01C7010E94F9
:100E5000EE062196F0CFDF91CF911F910F91FF9079
:100E6000EF9008958F929F92AF92BF92CF92DF92B0
:100E7000EF92FF920F931F93CF93DF93EC018B01BF
:100E80007B0182E0E81AF1085E018FEFA81AB80A28
:100E900045E0B701C5010E940C07015011094E0140
:100EA00082E0880E911C43E0B801C4010E940C0747
:100EB0006E0181E0C81AD10845E0B701C6010E9461
:100EC0000C07229743E0B801CE010E940C0743E0D3
:100ED000B801C4010E940C0745E0B701C5010E949A
:100EE0000C0743E0B801CE010E940C0745E0B701B2
:100EF000C601DF91CF911F910F91FF90EF90DF908E
:100F0000CF90BF90AF909F908F900C940C078F92D2
:100F10009F92AF92BF92CF92DF92EF92FF920F9388
:100F20001F93CF93DF936D3089F0C090AC02D090C7
:100F3000AD026A30D1F41092AF021092AE0288E096
:100F4000C80ED11CD092AD02C092AC0281E090E0FC
:100F5000DF91CF911F910F91FF90EF90DF90CF9095
:100F6000BF90AF909F908F9008950091AE02109126
:100F7000AF02E5E06E9FE0011124C850DF4F480149
:100F8000F12CF5E0E12CFF1629F0CE010196FE01CF
:100F9000E490EC01B12CA12C4E2D4170B6016A0DEC
:100FA0007B1DC4010E94EE06E694FFEFAF1ABF0A54
:100FB00088E0A816B10481F7F394EFEF8E1A9E0A29
:100FC000F6E0FF12DECF0A5F1F4F1093AF020093CF
:100FD000AE02BCCFFB0130E020E0241735074CF413
:100FE000DC016D917D91CD01619371932F5F3F4F36
:100FF000F4CF0895089590E080E008958F929F9235
:10100000AF92BF920F931F93CF93DF93CDB7DEB70D
:10101000A1970FB6F894DEBF0FBECDBF19A2423024
:1010200008F44AE08E010F5D1F4F842E912CB12CE5
:10103000A12CA50194010E94261AE62FB901CA012C
:10104000EA3044F5E05DD801EE938D01232B242B8B
:10105000252B79F790E080E0109769F0FD01019071
:101060000020E9F73197AF014A1B5B0BBD0185E515
:1010700097E00E948F06A1960FB6F894DEBF0FBED0
:10108000CDBFDF91CF911F910F91BF90AF909F90F7
:101090008F900895E95CD7CFFC0101900020E9F71B
:1010A0003197AF01481B590BBC0185E597E00C94C3
:1010B0008F06CF92DF92EF92FF92CF93DF936C0176
:1010C000990FEE08FF08F7FE19C06DE285E597E07D
:1010D0000E948707EC0166277727CB016C197D09F1
:1010E0008E099F094AE00E94FE078C0F9D1FDF9129
:1010F000CF91FF90EF90DF90CF9008954AE0C70125
:10110000B601DF91CF91FF90EF90DF90CF900C94DC
:10111000FE072F923F924F925F926F927F928F9233
:101120009F92AF92BF92CF92DF92EF92FF920F9376
:101130001F93CF93DF9300D000D000D0CDB7DEB7A0
:101140008C017E836D833A016B5F7F4F41E00E948B
:10115000EE066D817E816550710941E0C8010E94F3
:10116000EE0641E06D817E81C80105960E94EE0683
:1011700041E06D817E81C80105970E94EE0681E005
:1011800090E09A838983D12CC12C85E0E82EF12C44
:1011900086EF9FEF9C838B839CEFA92EBB24BA9490
:1011A0009FEFC91AD90A89819A8102969A83898305
:1011B000A80EB91E2601400E511E41E08D809E8072
:1011C0008E0C9F1CB401C2010E94EE0618012C185F
:1011D0003D0841E0B401C1010E94EE0641E08D806E
:1011E0009E808E189F08B401C2010E94EE0641E065
:1011F000B401C1010E94EE068D809E808C0C9D1C66
:1012000041E0B40128014E0C5F1CC2010E94EE06B1
:1012100041E0B40118012E183F08C1010E94EE06FA
:101220008D809E808C189D0841E0B401C2010E940F
:10123000EE0641E0B401C1010E94EE06CE14DF04C7
:10124000B4F1C80102979093AF028093AE028D81F2
:101250009E8103979093AD028093AC029FEF691635
:10126000790691F589E691E00E944C086D817E81B6
:101270006C5F7F4F41E0C801039626960FB6F89445
:10128000DEBF0FBECDBFDF91CF911F910F91FF90B9
:10129000EF90DF90CF90BF90AF909F908F907F9016
:1012A0006F905F904F903F902F900C94EE06B7FC9C
:1012B00077CF91E0E91AF1088B819C8102969C839B
:1012C0008B83A80EB91E6CCF8EEF68168FEF780651
:1012D00019F48BE691E0C8CFC3010E945908C6CF2C
:1012E0002F923F924F925F926F927F928F929F9236
:1012F000AF92BF92CF92DF92EF92FF920F931F9324
:10130000CF93DF936B017C01EA0119016091070122
:1013100070910801072E000C880B990B0E94EA1BA4
:101320009B01AC016BED7FE089EC90E40E94401BD7
:10133000A70196010E94651D6B017C010E943B1B69
:101340002B013C01BE01DD0F880B990B0E94EA1BAB
:101350004B015C01AC019B01C301B2010E94651D00
:1013600020E030E040E852E40E94581A0E94B21B8C
:10137000F10171836083C701B6010E94D21D9B01F8
:10138000AC01C501B4010E94651D20E030E040E0E1
:1013900052E40E94581A0E94B21BF80171836083C4
:1013A000DF91CF911F910F91FF90EF90DF90CF9041
:1013B000BF90AF909F908F907F906F905F904F9075
:1013C0003F902F9008952F923F924F925F926F928D
:1013D0007F928F929F92AF92BF92CF92DF92EF92C5
:1013E000FF920F931F93CF93DF93CDB7DEB728976C
:1013F0000FB6F894DEBF0FBECDBF6B017C016091CC
:10140000070170910801072E000C880B990B0E94B0
:10141000EA1B9B01AC016BED7FE089EC90E40E943C
:10142000401B4B015C016091BB027091BC02072E16
:10143000000C880B990B0E94EA1BA50194010E94E5
:10144000651D2B013C01A7019601C501B4010E9455
:10145000651D9B01AC01C301B2010E94581A4B01EA
:101460005C010E94D21D2B013C0120E030E040ECE9
:1014700051E40E94651D20E030E040E052E40E940B
:10148000581A0E94B21B6B011B01C501B4010E94D6
:101490003B1B4B015C0120E030E040EC51E40E943A
:1014A000651D20E030E040E852E40E94581A0E9496
:1014B000B21B6B837C838D839E830B811C8120E018
:1014C00030E040E251E4C301B2010E94651D20E01A
:1014D00030E040E052E40E94581A0E94B21B2B01F7
:1014E00078876F8320E030E040E251E4C501B40129
:1014F0000E94651D20E030E040E852E40E94581A46
:101500000E94B21B5B019601241935093A83298395
:1015100037FF05C03195219531093A8329838B80A6
:101520009C80861A970A97FE03C091948194910833
:1015300029813A818216930634F486012B803C80FF
:10154000520178876F830A151B055CF49F8188859B
:1015500038862F82292E382E9A2D8B2D5801092F4F
:10156000182F28014A185B0831018F819885681A65
:10157000790A77FE03C0719461947108620157FE85
:1015800003C09FEFC91AD90AD594C7942F81388513
:101590008FEF221533050CF481E0E82E880FFF0849
:1015A0000A151B05FCF089819A8141E0881699068D
:1015B000ACF4B5018F8198850E94EE06C618D70855
:1015C000D7FE08C02F8138852E0D3F1D38872F8309
:1015D000C40CD51C3FEFA31AB30AE2CF6F81788504
:1015E000C501EACF28960FB6F894DEBF0FBECDBF77
:1015F000DF91CF911F910F91FF90EF90DF90CF90EF
:10160000BF90AF909F908F907F906F905F904F9022
:101610003F902F9008950C94DE192F923F924F9295
:101620005F926F927F928F929F92AF92BF92CF9272
:10163000DF92EF92FF920F931F93CF93DF93CDB77B
:10164000DEB72C970FB6F894DEBF0FBECDBF9C83DC
:101650008B837C876B874A0119011A8219822B853B
:1016600020FD0CC10B851C8517FF02C00F5F1F4FAB
:1016700015950795C80181509048FC01EE0FFF1F9A
:10168000FE83ED836B807C806E0E7F1EF301A08055
:10169000B18082819381A816B90609F0EFC0FFEFEF
:1016A0008F1A9F0AB401092C000C880B990B0E9419
:1016B000EA1B20E030E040E05FE30E94651D20E08F
:1016C00030E040E85FE30E94581A6B017C01F101B1
:1016D00021E08216910409F06DC0B182A0822B85B1
:1016E0003C852230310571F5B5016F5F7F4F072EC4
:1016F000000C880B990B0E94EA1BA70196010E941F
:10170000651D0E94251C0E94B21B89819A81860F4B
:10171000971F2C960FB6F894DEBF0FBECDBFDF919A
:10172000CF911F910F91FF90EF90DF90CF90BF90DE
:10173000AF909F908F907F906F905F904F903F9071
:101740002F900895F3010F5F1F4F8B859C858017A5
:1017500091072CF08481958181939193F4CFF101CD
:10176000608171816F5F7F4F71836083072E000CF2
:10177000880B990B0E94EA1BA70196010E94651D28
:101780000E94251C6B017C016B857C856250710970
:10179000910141E050E08B819C810E940D0BBC01C6
:1017A000990F880B990B0E94EA1BA70196010E94D2
:1017B000581AA9CF608071802301FFEF4F1A5F0A8A
:1017C000B201052C000C880B990B0E94EA1BA701A3
:1017D00096010E94651D0E94251C0E94B21B6F830A
:1017E000788789879A876F817885A614B704B4F1C2
:1017F000B501661977096F5F7F4F072E000C880BC4
:10180000990B0E94EA1B2B013C01A7019601C7011D
:10181000B6010E94581A9B01AC01C301B2010E949B
:10182000651D0E94B21B2F813885620F731FC50191
:101830000296F10191838083EB81FC812D813E81B1
:10184000E20FF31F0F5F1F4F8B859C858017910759
:101850004CF08481958181939193F4CFF101518271
:101860004082EACFEB85FC853297FC87EB872981A4
:101870003A81260F371F3A832983F1CE70E060E06A
:1018800044CF1F920F920FB60F9211248F939F9304
:101890008091E1009091E100937F9093E10083FFBC
:1018A0000FC01092E90091E09093EB001092EC00D1
:1018B00092E39093ED001092040398E09093F0006F
:1018C00082FF22C093E09093E9009091F200992367
:1018D00019F09AE39093E8009091F502992341F072
:1018E0009091F50291509093F502911101C05D9A8B
:1018F00090910303992341F09091030391509093A9
:101900000303911101C0289A84FF18C08091E2005E
:101910008E7E81608093E2008091E1008F7E8093D3
:10192000E1008091F6028E7E80618093F6029F91A5
:101930008F910F900FBE0F901F90189580FFF7CFDB
:101940008091E2008E7E80618093E2008091E100D0
:101950008E7E8093E1008091F6028E7E8160E5CFDD
:101960001F920F920FB60F921124CF92DF92EF9237
:10197000FF920F931F932F933F934F935F936F9318
:101980007F938F939F93AF93BF93EF93FF93CF93E7
:10199000DF93CDB7DEB76C97DEBFCDBF1092E90005
:1019A0008091E80083FF25C068E0CE0145960E9443
:1019B000A50582EF8093E8008D8987FF39C090915B
:1019C000E80090FFFCCF982F907609F034C19E89F3
:1019D0004F89588D2F89F88C911131C0803861F56D
:1019E0008091F4028093F1001092F1008EEF8093C9
:1019F000E8006C960FB6F894DEBF0FBECDBFDF9146
:101A0000CF91FF91EF91BF91AF919F918F917F9176
:101A10006F915F914F913F912F911F910F91FF9087
:101A2000EF90DF90CF900F900FBE0F901F90189502
:101A30009EEF9093E800C7CF1092F100D5CF913080
:101A400059F48111D3CF4130510581F68091F402D0
:101A50008D7F8093F402CACF933049F48111C6CFB1
:101A60004130510519F68091F4028260F2CF953031
:101A700041F48091E80080FFFCCF20682093E300D0
:101A8000B5CF963009F0A9C00B8D1C8D22E01092C5
:101A9000E9001092F2021092F102F2122EC010929E
:101AA000F0021092EF020E9474051F8299E0998360
:101AB000FA8291E09E8390EA98879AEF9987209125
:101AC000F1023091F202275F3F4F3C832B838D83DD
:101AD0001092E9001092F2021092F1021093F002BB
:101AE0000093EF0249E050E0BE016F5F7F4F80E05E
:101AF0000E944E050E94740579CF1093F002009366
:101B0000EF020E948B04DC0112960D911C910115CD
:101B1000110509F451C1D801ED91FC910480F581C2
:101B2000E02DBE016B5E7F4FC8010995009709F05B
:101B30003EC1F80100851185EACFF3E0FF120EC027
:101B40008F89882309F440C0823061F440E867E05F
:101B500089E197E00E942C0F811148CF81E28093A8
:101B6000EB0047CF813029F440E86BE08DE097E04F
:101B7000F1CF833099F70E948B04DC011296ED902F
:101B8000FC908E010F5F1F4F6801E114F10479F0A2
:101B9000D701ED91FC910680F781E02DB801C701D6
:101BA0000995080F111DF701E084F184EECFD801EB
:101BB0001C92F60101900020E9F73197BF016C19E2
:101BC0007D0940E0C601C6CF67EF76E0FB01449196
:101BD00050E080E80E944E0509CF973009F4BECF4F
:101BE000983021F481E08093F10000CF993009F022
:101BF000FDCE837009F0B2CFE5E4F1E081E031E0A1
:101C000096E32191222371F08093E9003093EB0059
:101C1000DF0111972C912093EC009093ED008F5FE2
:101C2000873079F78EE78093EA001092EA008F8977
:101C300080930403DBCE8B8D9C8D1092E900109273
:101C4000F2021092F1029093F0028093EF02898DDC
:101C5000811192C08E899D89913A49F4813209F0AF
:101C60007DCF47E050E060E171E080E0B3CF91329A
:101C700009F074CF833269F48F89988DB0E0A0E0C9
:101C800080930C0190930D01A0930E01B0930F016E
:101C9000ADCE803269F48091E80082FFFCCF67E02E
:101CA00080E191E00E94A5058BEF8093E8009ECE35
:101CB000823209F09BCE8F8980931701EEEFFFE708
:101CC000859194918B3F9C4D51F1E0E0F8E080913B
:101CD000100190911101A0911201B0911301803B6C
:101CE0009440A105B105F1F48091170180FD1AC05F
:101CF000EE3F8AE0F80789F587E797E791838083CD
:101D0000809160008093F30288E19BE00FB6F89425
:101D1000A895809360000FBE9093600067CEEEEFB1
:101D2000FAE0D5CF808191818737974709F05ECE61
:101D3000A895809160008861809360008091F30293
:101D400080936000EE3F2AE0F20789F08091FE0A5E
:101D50009091FF0A9183808349CE8081918187375A
:101D6000980751F29093FF0A8093FE0AC5CF109214
:101D7000FF0A1092FE0A3ACE0E948B04DC011296F2
:101D80000D911C910115110509F4E8CED801ED91D2
:101D9000FC910190F081E02DBE016B5E7F4FC80188
:101DA0000995811123CEF80100851185EBCF181616
:101DB00019060CF41BCED2CEF1E0FF12BECE6BEFB3
:101DC00076E004CF1F920F920FB60F9211242F933B
:101DD0003F938F939F93AF93BF938091E70290912E
:101DE000E802A091E902B091EA023091E60223E014
:101DF000230F2D3758F50196A11DB11D2093E60242
:101E00008093E7029093E802A093E902B093EA027C
:101E10008091EB029091EC02A091ED02B091EE0264
:101E20000196A11DB11D8093EB029093EC02A0934B
:101E3000ED02B093EE02BF91AF919F918F913F91D0
:101E40002F910F900FBE0F901F90189526E8230F2B
:101E50000296A11DB11DD2CFEF92FF920F931F9357
:101E6000CF93DF93F82E192FE62E042F81E0860FF3
:101E7000880F0E94200583E00E942005CF2DD12FDE
:101E8000EC0EFD2EF11CCE15DF05B9F007FF13C0D7
:101E9000FE0184910E942005182F80E00E942005F9
:101EA000812321968111EFCFDF91CF911F910F9167
:101EB000FF90EF9008958881EDCF81E0F5CFEF920C
:101EC000FF920F931F93CF93DF938C017B01CB0184
:101ED0000E9459088CE891E00E944C08E80110E04B
:101EE00000E00E151F053CF4899199910E94590854
:101EF0000F5F1F4FF6CF8DE691E0DF91CF911F91DD
:101F00000F91FF90EF900C944C08E5E0F7E01382FE
:101F1000128288EE93E0A0E0B0E084839583A683EC
:101F2000B7838FE491E0918380838FEF9FEF958754
:101F30008487E5E5F7E01382128281E691E09183E0
:101F400080830895CF93DF93CDB7DEB7C457D1090F
:101F50000FB6F894DEBF0FBECDBF789484B5826013
:101F600084BD84B5816084BD85B5826085BD85B53D
:101F7000816085BD80916E00816080936E001092BB
:101F80008100809181008260809381008091810036
:101F900081608093810080918000816080938000C7
:101FA0008091910082608093910080919100816086
:101FB0008093910080919000816080939000809147
:101FC000C10084608093C1008091C10082608093D1
:101FD000C1008091C10081608093C1008091C300E5
:101FE00081608093C3008091C00082608093C000B4
:101FF0008091C20081608093C20080917A008460E9
:1020000080937A0080917A00826080937A00809138
:102010007A00816080937A0080917A008068809352
:102020007A00109204031092F4021092F60280914A
:10203000D70081608093D70080EA8093D80089B56B
:10204000806189BD89B5826089BD09B400FEFDCF7C
:1020500061E070E080E090E00E94D7058091D800B8
:102060008F7C80618093D8008091E000807F809396
:10207000E0008091E1008E7E8093E1008DE080930E
:10208000E200559A209A81EC80937C0085B1806FA4
:1020900085B984B1877E84B984B1876E84B95E9A2C
:1020A0005F988AB1806D8AB9769A6E9881B3806F95
:1020B00081BB899880B38D7080BB80E58CBD81E049
:1020C0008DBD85E090E00E94BE065F9A85E090E0BD
:1020D0000E94BE065E985C98E8EAF6E085EB96E022
:1020E00024912EBD00000DB407FEFDCF31968E1752
:1020F0009F07B1F75C9A81E8809364008091650046
:102100008160809365000E94EB060E94C30687FFF2
:1021100015C05C9885EA8EBD00000DB407FEFDCFAA
:102120005C9A2E982F982D988091640080628093FD
:10213000640081E083BF889513BEFCCF0E94C30674
:1021400082FF48C02D980E94C30684788438E1F449
:102150000E94BC0688EC90E00E94BE062F9882E0A8
:1021600090E00E94DE198F3F29F06FEF82E090E04F
:102170000E94E61984EF91E00E94BE062F9A0E9409
:10218000C30684788438D9F30E94C30684718431ED
:10219000E1F40E94BC0688EC90E00E94BE062E98F6
:1021A00082E090E00E94DE19882329F060E082E05E
:1021B00090E00E94E61984EF91E00E94BE062E9AFC
:1021C0000E94C30684718431D9F388EC90E00E94A8
:1021D000BE06B4CF0E94BC0682E090E00E940B0BCA
:1021E000882309F470C03E9A3F9A81E090E00E94F3
:1021F0000B0B81FF12C0082F0470502E82FD2E9809
:1022000001EF1FEF68E0E62EF12C0E94C30686FF67
:102210005DC02E9A2F9A0E94BC0682E390E00E9435
:10222000BE060E94C3068111F8CF0E94CB0680E152
:1022300080930001809164008E7F80936400809180
:102240007A00806480937A0080917A0086FDFCCFCA
:1022500000917800109179000E94B205AB01BC0199
:10226000C801B0E0A0E0DC01992788278C019D011E
:10227000040F151F261F371FC901B80120916400E4
:10228000216020936400611571058105910511F0AD
:102290000E94D5198FB7F8944091E7025091E80257
:1022A0006091E9027091EA028FBF809192018823C8
:1022B00009F4DCC01092920180E090E0892B51F388
:1022C0000E940000E7CF3E983F988FCF552029F01D
:1022D0000430110511F42E9A2F9881E00E944104D8
:1022E000980117FF04C022273327201B310B2770CA
:1022F0003327C80117FD079653E0959587955A95A2
:10230000E1F717FF05C00197A701421B530B9A0184
:10231000BC017695762F6627779567956B5F7C4F26
:10232000B0E0A0E03701621A730A8E3F5FEF9507B5
:1023300009F44CC050E040E0FD01E850FA4F5F0165
:102340004B01F0E88F0E911C8F3F9807D9F0F501F3
:10235000E40FF51F44906B01C40ED51EE42DF0E090
:10236000022E02C0EE0FFF1F0A94E2F76D96FFAF38
:10237000EEAF6D97F60144886C96FFAD6C974F2ACF
:10238000F601448A21153105D9F0F501E40FF51F56
:1023900044906401C40ED51EE42DF0E0062C02C06A
:1023A000F595E7950A94E2F76D96FFAFEEAF6D975E
:1023B000F60144886C96FFAD6C974F2AF601448A6B
:1023C0004F5F5F4F4835510509F0BECF0196A85ABF
:1023D000BF4F60587F4FA03BB10509F0A6CF0E94C8
:1023E000EB068FE090E00E94BE060F5F1F4F0931A1
:1023F000110509F00ACF552011F02F9A2D9880E988
:1024000091E00E94BE060E94BC0681E090E00E941E
:102410000B0B80FF02CF8AE090E00E940B0B9FEF36
:10242000980F9E3F08F0F9CE22E330E03093AF02E0
:102430002093AE0228E330E03093AD022093AC024B
:102440000BE010E0682F85E597E00E948707C80140
:102450000E940B0B0F5F1F4F0131110599F70E946E
:10246000EB0688EE93E00E94BE06D7CE80919301E2
:10247000142F181B812F90910001191748F48F5FBA
:10248000891708F019CF81E083BF889513BE14CF58
:1024900011E01093920140939301809190019091EB
:1024A0009101019690939101809390018091B102E6
:1024B0008093B0020E94C3068093B10280E10E9423
:1024C000E006882329F080910B01812780930B017E
:1024D0008091E502882309F474C00E94CB068091A4
:1024E000B2029091B30201969093B3028093B2022C
:1024F00004E911E0D12CC12C20910101309102019D
:10250000A090B202B090B3028091070190910801AF
:10251000C816D9060CF04AC0D8011C966D907C9064
:102520001D9714968D909C9015971296ED90FC90A7
:10253000F90137FD3196F595E795D8011A964D9139
:102540005C914E195F094A9DC0014B9D900D5A9DAB
:10255000900D11248E0F9F1FB9010E94F21DE60EEF
:10256000F71ED8011796FC92EE9216976818790814
:102570006A9CC0016B9C900D7A9C900D11248E0F6B
:102580009F1FB9010E94F21D680D791DF801718726
:10259000608740815181C7010E9489080E94EB0633
:1025A000FFEFCF1ADF0A025F1F4FA6CF2A153B05A8
:1025B0000CF082CE1092E5021092B3021092B20299
:1025C0007BCE88E00E94E006882309F4B8C200911F
:1025D000070110910801C0900901D0900A01E09014
:1025E000BB02F090BC02A8016DEB72E088E191E0C3
:1025F0002EEFC2162FEFD20609F42CC30E94EA0771
:102600008091B8029091B90201969093B90280939B
:10261000B802C7010196B8010E94F21D98012F5F10
:102620003F4F3093080120930701F801EE0FFF1F81
:10263000E85EFE4F3297801791073CF40150110974
:102640002081318133832283F5CF880F991FFC01CC
:10265000E85EFE4FD182C08280910B01882309F48D
:1026600070C10091070110910801E8E18E2EE1E0B0
:102670009E2EF40190E080E0801791070CF061C17C
:10268000219131912F3F3F4F11F00196F5CFE8E1B5
:10269000F1E0D12CC12C81919191C016D10631F07D
:1026A000019631F08FEFC81AD80AF5CF0196E9F6F6
:1026B000F601EE0FFF1FE85EFE4F808191810196CB
:1026C00009F064C0033011050CF460C01801E1E0AA
:1026D0002E1A3108C114D10421F01601F1E02F1A8D
:1026E000310896012F5F3F4F6B963FAF2EAF6B9730
:1026F0002017310724F06B961FAE1EAE6B97D101E9
:10270000AA0FBB1FA85EBE4F6B96EEADFFAD6B97D9
:10271000EE0FFF1FE85EFE4F2D913C91808191816D
:10272000F12CE12C2817390799F5C801820D931D6A
:102730000197B8010E94F21D9C01FC01EE0FFF1FE2
:10274000E85EFE4F0190F081E02D6B968EAD9FAD5F
:102750006B970196B8010E94F21DDC01AA0FBB1F06
:10276000A85EBE4F4D915C91E417F50789F4319650
:1027700079F00E151F0509F443C05FEFE51AF50A5D
:102780006B969FAF8EAF6B971901CFCFF12CE12CD9
:10279000F101EE0FFF1F6B968EAD9FAD6B9782150B
:1027A0009305BCF5E85EFE4FDE01999670E060E0AF
:1027B000C101860F971F8017910724F1FB01EE0FCF
:1027C000FF1FA9E2B0E0AC0FBD1FEA0FFB1FA8E19D
:1027D000B1E090E080E02D913D91219331930196FD
:1027E0006B962EAD3FAD6B9728173907A4F76B9604
:1027F0002EAD3FAD6B972F5F3F4F260F371F21C088
:102800007801C6CF819191918D939D936F5F7F4F9A
:10281000CFCFC101E85EFE4FDE0199962191319143
:102820002D933D933FEF231A330A6B964EAD5FAD68
:102830006B974215530594F79A01281B390B2F5FAC
:102840003F4FC90195958795B9010E94F21DFC0182
:10285000EE0FFF1FA9E2B0E0AC0FBD1FEA0FFB1F98
:10286000B901615071098617970734F422813381C9
:10287000219331930196F7CF9E012F5A3F4F50E09D
:1028800040E0CE0189960E940D0B2091B602309156
:10289000B702820F931F9093B7028093B60263969C
:1028A0006EAC7FAC6397B12CA12C30E020E0EC0C37
:1028B000FD1CC7010197B8010E94F21DFC012C15F7
:1028C0003D053CF0C701B8010E94F21D28173907E9
:1028D0009CF0D501AA0FBB1F41E050E04C0F5D1FDB
:1028E0004A0F5B1FD4018D919C91DA018D939C93CB
:1028F000A5014F5F5F4F5A01E217F30771F4D5014D
:10290000AA0FBB1F81E090E08C0F9D1FA80FB91F7D
:102910006D927C92D50111965D012F5F3F4FB2E021
:102920008B0E911C0217130751F6A50168E171E0A7
:10293000CE0101960E94EA07B0920801A092070119
:1029400090CEADB6BEB62091B8023091B902C901A1
:1029500068E270E00E94F21D892B49F48091050124
:102960009091060101969093060180930501C9019B
:1029700066E970E00E94F21D892B49F48091030101
:10298000909104010196909304018093030180913A
:10299000050190910601C0900301D09004012C0123
:1029A000092E000C660877089C012C0D3D1D82172E
:1029B0009307ACF40D2C000CEE08FF08C114D104F1
:1029C000E104F10441F00E948619A70196010E94DA
:1029D000F4196B017C014C0C5D1C6E1C7F1C509229
:1029E0000A01409209010E94861929E030E040E086
:1029F00050E00E94F419672B682B692B51F48FEF7C
:102A00009FEF90930A01809309011092B5021092F2
:102A1000B402E0900701F0900801C701880F991FE8
:102A2000EDB7FEB7E81BF90B0FB6F894FEBF0FBE6B
:102A3000EDBF0DB71EB70F5F1F4F68014091050135
:102A400050910601A8E1B1E090E080E0512C412CCA
:102A50008E159F05BCF42D913D912417350784F404
:102A6000B9016E5F7F4F6230710550F0F201EE0FD9
:102A7000FF1FEC0DFD1D318320831FEF411A510A0A
:102A80000196E6CF60E070E0CB011E141F0444F411
:102A90000E9486199701FF0C440B550B0E94F419F4
:102AA000052C000C660877086415750586059705E2
:102AB000C4F4411451046104710439F00E94861970
:102AC000A30192010E94F4192B018201000F111F32
:102AD0000C0D1D1DD8018D919C9190930A0180933E
:102AE00009018091B4029091B502069754F08FEFDE
:102AF0009FEF90930A01809309011092B502109202
:102B0000B4028091B8029091B90264E170E00E9431
:102B1000F21D892B31F48EEF9FEF90930A01809381
:102B200009018091B4029091B50201969093B5028B
:102B30008093B4020FB6F894BEBE0FBEADBE84E063
:102B40000E94E006882361F08091BA02882341F058
:102B50008FEF9FEF90930A01809309011092BA02C0
:102B600080E20E94E006009107011091080188238D
:102B700069F08091BB029091BC02181619060CF006
:102B800092C001979093BC028093BB0280E40E94A4
:102B9000E006882381F08091BB029091BC029801ED
:102BA00021503109821793070CF07FC00196909352
:102BB000BC028093BB02013111050CF4B4C00E9429
:102BC000CB068FE691E00E944C088091B80290916C
:102BD000B9020E9459088BE791E00E944C088DE6EB
:102BE00091E00E944C0882E891E00E944C0880E04D
:102BF00092E00E940B0B682F70E090E080E04AE0CA
:102C00000E94FE070E94EB068091B1028093B00201
:102C10000E94C3068093B10288E00E94E006182F4C
:102C200084E00E94E006111102C0882369F320911C
:102C3000070130910801A8E1B1E0EDEBF2E090E08E
:102C400080E082179307B4F51D921D9211921192A4
:102C50000196F7CF0E94EA07F701EE0FFF1FE85E2B
:102C6000FE4F8081918190930A0180930901C701F1
:102C7000B8010E94F21DFC01EE0FFF1FE85EFE4F3F
:102C8000015011098017910734F422813381219377
:102C900031930196F7CF109308010093070181E06B
:102CA0008093BA024CCFC8016CCF1092BC02109234
:102CB000BB0281CF81E090E09093190180931801CD
:102CC000909308018093070121E020930B0110925B
:102CD000B5021092B4021092B9021092B80210928A
:102CE000B7021092B602909306018093050124E08A
:102CF00030E0309304012093030190930A01809304
:102D000009011092BC021092BB021092B302109201
:102D1000B2028CE390E09093020180930101109243
:102D2000BA021092E5020E94CB0698E1C92E91E00A
:102D3000D92EF12CE12C8091070190910801E81621
:102D4000F90604F5F601A190B1906F01B7010F2CBF
:102D5000000C880B990B0E94EA1B8E010F5F1F4F1E
:102D60009E01275D3F4F48E150E00E947009698154
:102D70007A81A50189A59AA50E948908FFEFEF1A1B
:102D8000FF0AD9CF4091090150910A0160E270E039
:102D900080E490E00E94890840900701509008016B
:102DA000AE014B5A5F4FBE01695A7F4FC2010E946C
:102DB000BC036D969FAF8EAF6D97712C612C019700
:102DC000E1969FAF8EAFE197E1960EAD1FADE19713
:102DD000601671060CF0CFC169968EAD9FAD6997F4
:102DE000860D971DB2010E94F21DBC01990F880B40
:102DF000990B0E94EA1B8E010F5A1F4F9E012D5AFC
:102E00003F4F4EE050E00E94700969968EAD9FAD35
:102E10006997860D971D0196B2010E94F21DBC01B3
:102E2000990F880B990B0E94EA1B005511099E010E
:102E3000275D3F4F4EE050E00E94700965966EADF1
:102E40007FAD659760547109072E000C880B990BB4
:102E50000E94EA1B6B017C0163966EAD7FAD6397A8
:102E600060527109072E000C880B990B0E94EA1B17
:102E7000A70196010E94D71A162F072FF82EE92EC8
:102E800069A57AA560547109072E000C880B990B6F
:102E90000E94EA1B4B015C0169817A8160527109D1
:102EA000072E000C880B990B0E94EA1BA5019401C8
:102EB0000E94D71A4B015C0120E030E0A901612F8C
:102EC000702F8F2D9E2D0E94361B87FF0EC02BED7D
:102ED0003FE049EC50E4612F702F8F2D9E2D0E9412
:102EE000581A162F072FF82EE92E20E030E0A901FE
:102EF000C501B4010E94361B87FF0AC02BED3FE0DD
:102F000049EC50E4C501B4010E94581A4B015C0120
:102F1000A5019401612F702F8F2D9E2D0E94361BCD
:102F2000212F302F4F2D5E2D87FFDCC0C501B4014E
:102F30000E94571A6E966FAF6E976F967FAF6F971E
:102F4000A0968FAFA097A1969FAFA197A5019401DE
:102F50006BED7FE089EC90E40E94571A212F302F0F
:102F60004F2D5E2D0E94581AA2966FAFA297A3967E
:102F70007FAFA3974C01A2962FADA297A3963FAD2A
:102F8000A397AC016E966FAD6E976F967FAD6F97FE
:102F9000A0968FADA097A1969FADA1970E94361BDA
:102FA00087FFBFC06E962FAD6E97A4962FAFA497E4
:102FB0006F963FAD6F97A5963FAFA597A0964FAD83
:102FC000A097A6964FAFA697A1965FADA197A7969B
:102FD0005FAFA7978AE097EDA3E2BDE3AB968CAF16
:102FE0009DAFAEAFBFAFAB97A12EB02ECF2CDE2CD6
:102FF000A2962FADA297A3963FADA397A4016E967C
:103000006FAD6E976F967FAD6F97A0968FADA097BF
:10301000A1969FADA1970E94361BA4962FADA497B1
:10302000A5963FADA597A6964FADA697A7965FAD7F
:10303000A797612F702F87FF91C08F2D9E2D0E9423
:10304000581A9501A6010E94581D87FD90C0B50130
:10305000C6010E943B1BAF966CAF7DAF8EAF9FAF9A
:10306000AF97B501C6010E94D21D20E030E040E6D6
:1030700051E40E94651D20E030E040E052E40E94EF
:10308000581A0E94B21BE5966CAF7DAF8EAF9FAF12
:10309000E59720E030E040E651E4AF966CAD7DADC1
:1030A0008EAD9FADAF970E94651D20E030E040E8F7
:1030B00052E40E94581A0E94B21BCB0141E0E396F1
:1030C0006EAD7FADE3970E94EE06AB962CAD3DADA5
:1030D0004EAD5FADAB97B501C6010E94581A5B01BA
:1030E0006C0186CF6BED7FE089EC90E40E94571A6B
:1030F000A50194010E94581A6E966FAF6E976F9655
:103100007FAF6F97A0968FAFA097A1969FAFA19723
:10311000A5019401612F702F8F2D9E2D0E94571AAB
:1031200023CFA2969FADA297A4969FAFA497A396F4
:10313000AFADA397A596AFAFA597A6968FAEA6976E
:10314000A7969FAEA7972AE037ED43E25DEBAB96DB
:103150002CAF3DAF4EAF5FAFAB9746CF8F2D9E2DBF
:103160000E94571A9B01AC01B501C6016CCF3FEF1D
:10317000631A730A29CE6D964EAD5FAD6D974230DE
:10318000510509F052C052E04516510409F054C0EF
:1031900069966EAD7FAD69976F5F7F4F072E000C0C
:1031A000880B990B0E94EA1B20E030E040E05FE3CF
:1031B0000E94581A8E010F5A1F4F9E012D5A3F4FE1
:1031C0004EE050E00E9470096396EEACFFAC63974E
:1031D00065960EAD1FAD6597B7016250710945E068
:1031E000C8010E940C07B701C8010E94320783E0A2
:1031F00090E09093AF028093AE029093AD028093E3
:10320000AC028091B8029091B9020E945908809155
:10321000090190910A01029641F560E070E0CB014E
:103220000E94E3090E94EB0647C86D968EAD9FADE4
:103230006D9718161906DCF66D966EAD7FAD6D971D
:103240007595679569968EAD9FAD6997680F791FE3
:10325000072E000C880B990B0E94EA1B20E030E03F
:1032600040E05FE30E94571AA5CF60E070E080E085
:103270009FE3D6CF8F929F92AF92BF92CF92DF9271
:10328000EF92FF92CF93DF93EC01688179818A817D
:103290009B81611571058105910521F464E279ED49
:1032A0008BE597E02DE133EF41E050E00E94F41907
:1032B00049015A019B01AC01A7EAB1E40E94131A2B
:1032C0006B017C01ACEEB4EFA50194010E94211AC0
:1032D000C60ED71EE81EF91EF7FE06C081E0C81A0A
:1032E000D108E10880E8F80AC882D982EA82FB8224
:1032F000C701B6019F77DF91CF91FF90EF90DF90EC
:10330000CF90BF90AF909F908F9008958F929F9293
:10331000AF92BF92CF92DF92EF92FF926091400105
:1033200070914101809142019091430161157105B5
:103330008105910521F464E279ED8BE597E02DE1BB
:1033400033EF41E050E00E94F41949015A019B011A
:10335000AC01A7EAB1E40E94131A6B017C01ACEE48
:10336000B4EFA50194010E94211AC60ED71EE81ED3
:10337000F91EF7FE06C081E0C81AD108E10880E80E
:10338000F80AC0924001D0924101E0924201F092CD
:103390004301C701B6019F77FF90EF90DF90CF9078
:1033A000BF90AF909F908F9008956093400170936D
:1033B000410180934201909343010895F999FECF12
:1033C00092BD81BDF89A992780B50895262FF99965
:1033D000FECF1FBA92BD81BD20BD0FB6F894FA9AF8
:1033E000F99A0FBE01960895052E97FB1EF40094DE
:1033F0000E940B1A57FD07D00E94261A07FC03D023
:103400004EF40C940B1A50954095309521953F4FF2
:103410004F4F5F4F089590958095709561957F4FC0
:103420008F4F9F4F08950E94481AA59F900DB49FFB
:10343000900DA49F800D911D11240895B7FF0C9449
:10344000131A0E94131A821B930B0895A1E21A2EDD
:10345000AA1BBB1BFD010DC0AA1FBB1FEE1FFF1F38
:10346000A217B307E407F50720F0A21BB30BE40B88
:10347000F50B661F771F881F991F1A9469F76095CF
:103480007095809590959B01AC01BD01CF01089589
:10349000A29FB001B39FC001A39F700D811D112495
:1034A000911DB29F700D811D1124911D08955058DA
:1034B000BB27AA270E946F1A0C94F21C0E94B91C09
:1034C00038F00E94C01C20F039F49F3F19F426F414
:1034D0000C948F1C0EF4E095E7FB0C94601CE92F14
:1034E0000E94171D58F3BA176207730784079507E0
:1034F00020F079F4A6F50C94511D0EF4E0950B2EF6
:10350000BA2FA02D0B01B90190010C01CA01A00135
:103510001124FF27591B99F0593F50F4503E68F190
:103520001A16F040A22F232F342F4427585FF3CFD1
:10353000469537952795A795F0405395C9F77EF4A2
:103540001F16BA0B620B730B840BBAF09150A1F0EB
:10355000FF0FBB1F661F771F881FC2F70EC0BA0F71
:10356000621F731F841F48F4879577956795B795F9
:10357000F7959E3F08F0B0CF9395880F08F09927F4
:10358000EE0F9795879508950E94B91C60F080E82A
:1035900091E009F49EEF0E94C01C28F040E851E041
:1035A00071F45EEF0CC00C948F1C0C94511DE92F2C
:1035B000E0780E94171D40F3092E052AB1F3261763
:1035C00037074807590738F00E2E07F8E02569F04D
:1035D000E025E0640AC0EF6307F8009407FADB0116
:1035E000B9019D01DC01CA01AD01EF930E94571B97
:1035F0000E94F21C0E94071B5F91552339F02BEDAE
:103600003FE049E450FD49EC0C94581A0895DF93CB
:10361000DD27B92FBF7740E85FE316161706480786
:103620005B0718F4D92F0E945D1D9F938F937F93A2
:103630006F930E94DA1DECEAF0E00E94921C0E9457
:10364000F21C2F913F914F915F910E94781DDD23D5
:1036500051F09058A2EA2AED3FE049EC5FE3D078C0
:103660005D270E946F1ADF910C94F21C0E943C1C93
:1036700008F481E008950E94C91CE3950C94031D91
:103680000E94541B0C94F21C0E94C01C58F00E9413
:10369000B91C40F029F45F3F29F00C94601C5111D3
:1036A0000C94521D0C948F1C0E94171D68F39923D3
:1036B000B1F3552391F3951B550BBB27AA2762172E
:1036C0007307840738F09F5F5F4F220F331F441F3B
:1036D000AA1FA9F335D00E2E3AF0E0E832D091506F
:1036E0005040E695001CCAF72BD0FE2F29D0660F5C
:1036F000771F881FBB1F261737074807AB07B0E89F
:1037000009F0BB0B802DBF01FF2793585F4F3AF0A4
:103710009E3F510578F00C94601C0C94521D5F3F45
:10372000E4F3983ED4F3869577956795B795F7952A
:103730009F5FC9F7880F911D9695879597F9089512
:10374000E1E0660F771F881FBB1F621773078407AE
:10375000BA0720F0621B730B840BBA0BEE1F88F7BD
:10376000E09508950E94B91B6894B1110C94521D04
:1037700008950E941F1D88F09F5798F0B92F992730
:10378000B751B0F0E1F0660F771F881F991F1AF04C
:10379000BA95C9F714C0B13091F00E94511DB1E043
:1037A00008950C94511D672F782F8827B85F39F042
:1037B000B93FCCF3869577956795B395D9F73EF4E5
:1037C00090958095709561957F4F8F4F9F4F08958D
:1037D000E89409C097FB3EF49095809570956195AB
:1037E0007F4F8F4F9F4F9923A9F0F92F96E9BB2761
:1037F0009395F695879577956795B795F111F8CFDD
:10380000FAF4BB0F11F460FF1BC06F5F7F4F8F4F47
:103810009F4F16C0882311F096E911C0772321F03D
:103820009EE8872F762F05C0662371F096E8862FD5
:1038300070E060E02AF09A95660F771F881FDAF72C
:10384000880F9695879597F908950E94391D90F0F5
:103850009F3748F4911116F00C94521D60E070E00F
:1038600080E89FEB089526F41B16611D711D811DD4
:103870000C94661C0C94811C990F0008550FAA0B20
:10388000E0E8FEEF16161706E807F907C0F0121673
:103890001306E407F50798F0621B730B840B950B76
:1038A00039F40A2661F0232B242B252B21F40895CB
:1038B0000A2609F4A140A6958FEF811D811D089568
:1038C00097F99F6780E870E060E00895882371F4BD
:1038D000772321F09850872B762F07C0662311F4A9
:1038E00099270DC09051862B70E060E02AF09A95E0
:1038F000660F771F881FDAF7880F9695879597F9D7
:1039000008959F3F31F0915020F487957795679502
:10391000B795880F911D9695879597F908959FEF14
:1039200080EC0895DF93CF931F930F93FF92EF9254
:10393000DF927B018C01689406C0DA2EEF010E94B1
:10394000781DFE01E894A5912591359145915591F9
:10395000A6F3EF010E946F1AFE019701A801DA9405
:1039600069F7DF90EF90FF900F911F91CF91DF915A
:10397000089500240A9416161706180609060895D5
:1039800000240A94121613061406050608950C94D2
:103990008F1C0E941F1DD8F3E894E0E0BB279F57BF
:1039A000F0F02AED3FE049EC06C0EE0FBB0F661FBA
:1039B000771F881F28F0B23A62077307840728F040
:1039C000B25A620B730B840BE3959A9572F78038A9
:1039D00030F49A95BB0F661F771F881FD2F7904867
:1039E0000C94831C092E0394000C11F4882352F0CC
:1039F000BB0F40F4BF2B11F460FF04C06F5F7F4F1B
:103A00008F4F9F4F0895EF93E0FF07C0A2EA2AED82
:103A10003FE049EC5FEB0E946F1A0E94F21C0F908E
:103A2000039401FC9058E9EDF0E00C94DE1D57FD85
:103A30009058440F551F59F05F3F71F04795880F1C
:103A400097FB991F61F09F3F79F0879508951216B3
:103A500013061406551FF2CF4695F1DF08C016165F
:103A600017061806991FF1CF869571056105089410
:103A700008950E941F1DA0F0BEE7B91788F4BB2768
:103A80009F3860F41616B11D672F782F8827985F2E
:103A9000F7CF869577956795B11D93959639C8F3BD
:103AA0000895E894BB2766277727CB0197F90895F7
:103AB0000E943C1C08F48FEF08959B01AC0160E06C
:103AC00070E080E89FE30C94401B0E94781D0C94EA
:103AD000F21C0E94B91C38F00E94C01C20F09523F3
:103AE00011F00C94601C0C948F1C11240C94521D2A
:103AF0000E94171D70F3959FC1F3950F50E0551F5D
:103B0000629FF001729FBB27F00DB11D639FAA2732
:103B1000F00DB11DAA1F649F6627B00DA11D661F81
:103B2000829F2227B00DA11D621F739FB00DA11DA2
:103B3000621F839FA00D611D221F749F3327A00D5C
:103B4000611D231F849F600D211D822F762F6A2FF8
:103B500011249F5750409AF0F1F088234AF0EE0F5D
:103B6000FF1FBB1F661F771F881F91505040A9F78A
:103B70009E3F510580F00C94601C0C94521D5F3FD9
:103B8000E4F3983ED4F3869577956795B795F795C6
:103B9000E7959F5FC1F7FE2B880F911D969587953E
:103BA00097F908959F930E94C91C0F9007FCEE5F40
:103BB0000C94031D9B01AC010C94651D9F938F9386
:103BC0007F936F93FF93EF939B01AC010E94651D60
:103BD000EF91FF910E94921C2F913F914F915F9125
:103BE0000C94651D97FB072E16F4009407D077FD03
:103BF00009D00E94061E07FC05D03EF490958195E1
:103C00009F4F0895709561957F4F0895AA1BBB1B28
:103C100051E107C0AA1FBB1FA617B70710F0A61BCC
:103C2000B70B881F991F5A95A9F780959095BC01ED
:103C3000CD010895EE0FFF1F0590F491E02D09943A
:043C4000F894FFCF26
:103C4400103C00040001000100010001FFFFFFFF20
:103C540000E100000000000001000000000000007E
:103C64000000000000000000000000000000000050
:103C74000000000000000000000000000000000040
:103C84000100000000C18081000000000000009FCE
:103C9400040A06C004B5040605C404E204000000D6
:103CA4000087078F06FB07FA072B002D000A00592F
:103CB4006F75206C61737465642000207475726E76
:103CC4007300486967682053636F72653A20000087
:00000001FF
