:100000000C9492030C94BA030C94BA030C94BA03A4
:100010000C94BA030C94BA030C94BA030C94BA036C
:100020000C94BA030C94BA030C94410E0C94B00EC9
:100030000C94BA030C94BA030C94BA030C94BA034C
:100040000C94BA030C94BA030C94BA030C94BA033C
:100050000C94BA030C94BA030C94BA030C94E210F7
:100060000C94BA030C94BA030C94BA030C94BA031C
:100070000C94BA030C94BA030C94BA030C94BA030C
:100080000C94BA030C94BA030C94BA030C94BA03FC
:100090000C94BA030C94BA030C94BA030C94BA03EC
:1000A0000C94BA030C94BA030C94BA03084AD73BD5
:1000B0003BCE016E84BCBFFDC12F3D6C74319ABD37
:1000C00056833DDA3D00C77F11BED9E4BB4C3E915B
:1000D0006BAAAABE000000803F05A84CCDB2D44E4A
:1000E000B93836A9020C50B9918688083CA6AAAA4C
:1000F0002ABE000000803F0000000000003E5B4F71
:100100005B3E3E6B4F6B3E1C3E7C3E1C183C7E3C77
:10011000181C577D571C1C5E7F5E1C00183C180085
:10012000FFE7C3E7FF0018241800FFE7DBE7FF3015
:10013000483A060E2629792926407F050507407F83
:1001400005253F5A3CE73C5A7F3E1C1C08081C1CF6
:100150003E7F14227F22145F5F005F5F06097F01EC
:100160007F006689956A606060606094A2FFA294D7
:1001700008047E040810207E201008082A1C0808A5
:100180001C2A08081E101010100C1E0C1E0C3038F3
:100190003E3830060E3E0E06000000000000005FF4
:1001A00000000007000700147F147F14242A7F2A10
:1001B00012231308646236495620500008070300D2
:1001C000001C2241000041221C002A1C7F1C2A081E
:1001D000083E080800807030000808080808000081
:1001E00060600020100804023E5149453E00427FF5
:1001F000400072494949462141494D331814127F44
:100200001027454545393C4A4949314121110907E3
:100210003649494936464949291E00001400000064
:100220004034000000081422411414141414004136
:1002300022140802015909063E415D594E7C1211F3
:10024000127C7F494949363E414141227F4141412B
:100250003E7F494949417F090909013E41415173A6
:100260007F0808087F00417F41002040413F017F17
:10027000081422417F404040407F021C027F7F04DF
:1002800008107F3E4141413E7F090909063E415128
:10029000215E7F09192946264949493203017F0118
:1002A000033F4040403F1F2040201F3F4038403F19
:1002B000631408146303047804036159494D43002F
:1002C0007F4141410204081020004141417F040266
:1002D00001020440404040400003070800205454FD
:1002E00078407F28444438384444442838444428DB
:1002F0007F385454541800087E090218A4A49C782E
:100300007F0804047800447D40002040403D007F89
:100310001028440000417F40007C047804787C0869
:100320000404783844444438FC182424181824243D
:1003300018FC7C08040408485454542404043F4422
:10034000243C4040207C1C2040201C3C4030403C51
:1003500044281028444C9090907C4464544C4400B1
:100360000836410000007700000041360800020115
:100370000204023C2623263C1EA1A161123A404001
:10038000207A38545455592155557941215454787F
:1003900041215554784020545579400C1E52721218
:1003A00039555555593954545459395554545800A0
:1003B00000457C410002457D420001457C40F0291A
:1003C0002429F0F0282528F07C5455450020545469
:1003D0007C547C0A097F49324949493232484848AD
:1003E00032324A4848303A4141217A3A42402078F4
:1003F000009DA0A07D39444444393D4040403D3CEF
:1004000024FF2424487E4943662B2FFC2F2BFF0911
:1004100029F620C0887E0903205454794100004405
:100420007D413048484A32384040227A007A0A0AF0
:10043000727D0D19317D2629292F28262929292663
:1004400030484D4020380808080808080808382FA8
:1004500010C8ACBA2F102834FA00007B0000081432
:100460002A142222142A14089500220095AA005565
:1004700000AAAA55AA55AA000000FF00101010FFFC
:1004800000141414FF001010FF00FF1010F010F003
:10049000141414FC001414F700FF0000FF00FF14F4
:1004A00014F404FC141417101F10101F101F141440
:1004B000141F00101010F0000000001F101010108A
:1004C0001F10101010F010000000FF10101010107E
:1004D00010101010FF10000000FF140000FF00FFBC
:1004E00000001F10170000FC04F414141710171458
:1004F00014F404F40000FF00F7141414141414147A
:10050000F700F7141414171410101F101F141414EC
:10051000F4141010F010F000001F101F0000001F56
:1005200014000000FC140000F010F01010FF10FF89
:10053000141414FF141010101F00000000F010FF1E
:10054000FFFFFFFFF0F0F0F0F0FFFFFF0000000002
:1005500000FFFF0F0F0F0F0F38444438447C2A2A46
:100560003E147E02020606027E027E026355494167
:10057000633844443C04407E201E2006027E020272
:1005800099A5E7A5991C2A492A1C4C7201724C3086
:100590004A4D4D303048784830BC625A463D3E495D
:1005A0004949007E0101017E2A2A2A2A2A44445F01
:1005B000444440514A444040444A51400000FF01F5
:1005C00003E080FF000008086B6B08361236243603
:1005D000060F090F06000018180000001010003068
:1005E00040FF0101001F01011E00191D1712003CF0
:1005F0003C3C3C0000000000F0F89C8E8783878E16
:100600009CF8F00000FEFF0303030303070EFCF851
:100610000000FEFF0303030303070EFCF80000FFC6
:10062000FF00000000000000FFFF0000FEFF8383CA
:10063000838383C7EE7C380000F8FC0E07030303B6
:10064000070EFCF800003F7FE0C08080C0E07F3FE5
:10065000FFFF01010101010101FFFF0000FFFF0C8D
:100660000C0C0C1C3E77E3C100007FFFC0C0C0C073
:10067000C0E0703F1F00001F3F70E0C0C0C0E070CE
:100680003F1F00007FFFC1C1C1C1C1E3773E1C0015
:10069000001F3F70E0C0C0C0E0703F1F00000000BE
:1006A0000001FFFF01000000D5F08D14A1C881CF2B
:1006B000D9F1AF2000080B0002020200000904007B
:1006C00000010202000005240010010524010101BF
:1006D00004240206052406000107058103100040DA
:1006E00009040100020A00000007050202400000A0
:1006F000070583024000000403090412010002EF11
:10070000020140412336800001010203014172646D
:1007100075696E6F204C4C430041726475626F794D
:100720000000851111241FBECFEFDAE0DEBFCDBF80
:1007300011E0A0E0B1E0ECEDFCE302C005900D9209
:10074000AA39B107D9F727E0AAE9B1E001C01D92A3
:10075000AA3BB207E1F713E0C2E9D3E004C0219756
:10076000FE010E94661EC139D107C9F70E94A2117D
:100770000C946C1E0C940000E8E1F1E030E020E005
:10078000261737074CF441915191DC014D935D934D
:10079000CD012F5F3F4FF4CF08952F923F924F929C
:1007A0005F926F927F928F929F92AF92BF92CF9201
:1007B000DF92EF92FF920F931F93CF93DF93EC01A1
:1007C0002B013A01DA011D921C92FB011182108269
:1007D00030E020E0F12CE12C2C173D070CF04EC04E
:1007E0006901F2E0CF0ED11CE2E0F0E0CE17DF07A6
:1007F0000CF441C01F013594279410E000E056012D
:1008000081E0A81AB108C801820F931FBE010E949F
:100810003E1EDC01AA0FBB1FA85EBE4F8D909C90B0
:10082000C501801B910BBE010E943E1EDC01AA0F78
:10083000BB1FA85EBE4F8D919C9188169906B1F49E
:100840008920809499F00F5F1F4F20163106D9F64A
:10085000EE16FF065CF4D2012D933C93C501BE0158
:100860000E943E1ED3018D939C937F013296B2E08D
:10087000CB0ED11CBBCF2F5F3F4FAECFC701DF9157
:10088000CF911F910F91FF90EF90DF90CF90BF908D
:10089000AF909F908F907F906F905F904F903F9020
:1008A0002F900895E6E6F3E0A0E0B8E000800EBCEB
:1008B0008111012C1197A0FDFDCF0192B9F70DB464
:1008C0000895FC0180916503882311F13FB7F894E6
:1008D00082E08093E9002091F200822F90E01816C8
:1008E000190614F481E090E0882339F0289844E652
:1008F000409364034091F1004083222339F020911A
:10090000F200211103C02BE62093E8003FBF0895B9
:100910008FEF9FEF08952FB7F89483E08093E9005D
:100920009091E800892F807295FF04C09091F200A9
:1009300080E4891B2FBF089580915C0381110DC055
:1009400082E08093580384E08093590310925B0304
:1009500010925A0381E080935C0388E593E0089548
:10096000CF93DF931F92CDB7DEB76983DC01ED91A2
:10097000FC910280F381E02D41E050E0BE016F5F09
:100980007F4F09950F90DF91CF91089583E0809379
:10099000E9008091F200882319F08AE38093E8004F
:1009A00008950E948B0490E00895CF93DF931F92E7
:1009B000CDB7DEB7FC018485958597FD08C02FEF84
:1009C0003FEF358724870F90DF91CF910895CE01B7
:1009D00001960E946104019719F4898190E0F3CF98
:1009E0008FEF9FEFF0CF0F931F93CF93DF931F9263
:1009F000CDB7DEB78C01FC018485958597FF0BC0D0
:100A0000CE0101960E946104019771F4898190E002
:100A1000F80195878487F801848595850F90DF918B
:100A2000CF911F910F9108958FEF9FEFF1CFFC01B0
:100A30008485958597FD0BC09FB7F89482E08093DD
:100A4000E9008091F2009FBF90E0019608959FB762
:100A5000F89482E08093E9008091F2009FBF90E0DB
:100A600008954091520350915303209150033091C7
:100A7000510342175307B4F49091E8009570E1F3E5
:100A80009091E80092FD19C08093F100809152038B
:100A90009091530301968F739927892B19F48EEF48
:100AA0008093E800809152039091530301969093B4
:100AB00053038093520381E0089580E00895DF920C
:100AC000EF92FF920F931F93CF93DF93D82E8A015B
:100AD000EB017B01E40EF51ECE15DF0559F0D7FEC4
:100AE00012C0FE0184910E94310521968111F4CF3C
:100AF0000FEF1FEFC801DF91CF911F910F91FF9072
:100B0000EF90DF9008958881EECF0F931F93CF93DE
:100B1000DF931F92CDB7DEB782E0898342E450E0D5
:100B200065EB76E080E80E945F050E949C04DC0192
:100B300012960D911C910115110589F0D801ED91C6
:100B4000FC910280F381E02DBE016F5F7F4FC801F1
:100B5000099597FD04C0F80100851185ECCF8981C6
:100B60000F90DF91CF911F910F910895615030F058
:100B70002091F100FC0120830196F8CF289884E6AB
:100B8000809364030895AF92BF92CF92DF92EF9269
:100B9000FF920F931F93CF93DF936C017B018B0127
:100BA000040F151FEB015E01AE18BF08C017D10777
:100BB00059F06991D601ED91FC910190F081E02D01
:100BC000C6010995892B79F7C501DF91CF911F9156
:100BD0000F91FF90EF90DF90CF90BF90AF9008956E
:100BE0002D9A08958FB18095807F669B88601C9BAD
:100BF0008460089580E0E6E6F3E081118FEF002441
:100C000081938193819381930394D1F7109215037B
:100C100010921403109217031092160308959091E6
:100C20001803982329F490911903982381E009F47B
:100C300080E0089580E00C94520480389105B8F467
:100C400060347105A0F420E191E061FD94E060FD65
:100C5000990F62FD9295687F269FD0011124A80FFD
:100C6000AA59BC4F8C9140FF03C0892B8C930895E7
:100C700090958923FBCFEF92FF920F931F93CF9311
:100C8000DF937C018B01040F111DEB0177FF02C084
:100C9000D0E0C0E0C8010134110514F080E490E018
:100CA000C817D9073CF441E0BE01C7010E941D06E8
:100CB0002196F0CFDF91CF911F910F91FF90EF9090
:100CC00008958F929F92AF92BF92CF92DF92EF9250
:100CD000FF920F931F93CF93DF93EC018B017B0166
:100CE00082E0E81AF1085E018FEFA81AB80A45E021
:100CF000B701C5010E943B06015011094E0182E077
:100D0000880E911C43E0B801C4010E943B066E01AD
:100D100081E0C81AD10845E0B701C6010E943B0630
:100D2000229743E0B801CE010E943B0643E0B801A0
:100D3000C4010E943B0645E0B701C5010E943B0685
:100D400043E0B801CE010E943B0645E0B701C60171
:100D5000DF91CF911F910F91FF90EF90DF90CF9097
:100D6000BF90AF909F908F900C943B068F929F9274
:100D7000AF92BF92CF92DF92EF92FF920F931F93A9
:100D8000CF93DF936D3089F0C0901403D09015039A
:100D90006A30D1F4109217031092160388E0C80E3F
:100DA000D11CD0921503C092140381E090E0DF9132
:100DB000CF911F910F91FF90EF90DF90CF90BF9058
:100DC000AF909F908F900895009116031091170394
:100DD000E5E06E9FE0011124C850DF4F4801F12C7F
:100DE000F5E0E12CFF1629F0CE010196FE01E4901A
:100DF000EC01B12CA12C4E2D4170B6016A0D7B1D6A
:100E0000C4010E941D06E694FFEFAF1ABF0A88E0F6
:100E1000A816B10481F7F394EFEF8E1A9E0AF6E05C
:100E2000FF12DECF0A5F1F4F1093170300931603C4
:100E3000BCCF3FB7F8948091F0019091F101A0915F
:100E4000F201B091F30126B5A89B05C02F3F19F020
:100E50000196A11DB11D3FBFBA2FA92F982F88273A
:100E6000BC01CD01620F711D811D911D42E0660F15
:100E7000771F881F991F4A95D1F708958F929F92E7
:100E8000AF92BF92CF92DF92EF92FF926B017C0103
:100E90000E9419074B015C01C114D104E104F10463
:100EA000B9F00E941907681979098A099B09683EF7
:100EB00073408105910580F321E0C21AD108E10851
:100EC000F10888EE880E83E0981EA11CB11CE4CFC7
:100ED000FF90EF90DF90CF90BF90AF909F908F905A
:100EE00008958F929F92AF92BF92CF92DF92EF922E
:100EF000FF920F931F93CF93DF936C017B018A01C5
:100F000080911701882309F45CC0809165038823D0
:100F100009F457C08091570380FF05C08091E0001D
:100F200082608093E000E801B12C8AEFA82E93E064
:100F3000892E2AE3922E209711F4BB20D9F10E942A
:100F40008B0481110AC0AA94AA20D9F161E070E053
:100F500080E090E00E943E07EECF8C171D0611F056
:100F60000CF08C2F9FB7F8948092E9002091E80054
:100F700025FD02C09FBFDFCF282F30E0C21BD30B5F
:100F8000F701815020F041914093F100FACFE20E39
:100F9000F31EBB2021F09092E800B12CEBCF8091A2
:100FA000E80085FDE7CF9092E800BB24B39420973A
:100FB00009F3F3CF5D9884E680935603101611066B
:100FC0003CF081E090E0F6019383828310E000E042
:100FD000C801DF91CF911F910F91FF90EF90DF90AB
:100FE000CF90BF90AF909F908F900895BC0190E0FC
:100FF00080E00C943E07E8E1F1E023E130E0329735
:10100000821793073CF42150310946A157A151A7FB
:1010100040A7F5CF880F991FFC01E85EFE4F718352
:1010200060838091070190910801019690930801D7
:10103000809307010895CF93DF93FC01EB01CA0170
:10104000688179810E943E1E9C01220F331FE20FAE
:10105000F31F28813981215031098217930734F415
:1010600022813381219331930196F3CF39832883F1
:10107000DF91CF910895089590E080E008958F92D8
:101080009F92AF92BF920F931F93CF93DF93CDB7F1
:10109000DEB7A1970FB6F894DEBF0FBECDBF19A281
:1010A000423008F44AE08E010F5D1F4F842E912CD0
:1010B000B12CA12CA50194010E94721AE62FB9014E
:1010C000CA01EA3044F5E05DD801EE938D01232B8F
:1010D000242B252B79F790E080E0109769F0FD0133
:1010E00001900020E9F73197AF014A1B5B0BBD016E
:1010F00086EB97E00E94C305A1960FB6F894DEBF79
:101100000FBECDBFDF91CF911F910F91BF90AF90D8
:101110009F908F900895E95CD7CFFC01019000204B
:10112000E9F73197AF01481B590BBC0186EB97E0FB
:101130000C94C305CF92DF92EF92FF92CF93DF938F
:101140006C01990FEE08FF08F7FE19C06DE286EBFF
:1011500097E00E94B606EC0166277727CB016C1951
:101160007D098E099F094AE00E943F088C0F9D1F50
:10117000DF91CF91FF90EF90DF90CF9008954AE0FC
:10118000C701B601DF91CF91FF90EF90DF90CF9034
:101190000C943F082F923F924F925F926F927F92F2
:1011A0008F929F92AF92BF92CF92DF92EF92FF9277
:1011B0000F931F93CF93DF9300D000D000D0CDB713
:1011C000DEB78C017E836D833A016B5F7F4F41E018
:1011D0000E941D066D817E816550710941E0C80144
:1011E0000E941D0641E06D817E81C80105960E9426
:1011F0001D0641E06D817E81C80105970E941D0694
:1012000081E090E09A838983D12CC12C85E0E82E7F
:10121000F12C86EF9FEF9C838B839CEFA92EBB2440
:10122000BA949FEFC91AD90A89819A8102969A8342
:101230008983A80EB91E2601400E511E41E08D8003
:101240009E808E0C9F1CB401C2010E941D061801D5
:101250002C183D0841E0B401C1010E941D0641E087
:101260008D809E808E189F08B401C2010E941D06C9
:1012700041E0B401C1010E941D068D809E808C0C4E
:101280009D1C41E0B40128014E0C5F1CC2010E946C
:101290001D0641E0B40118012E183F08C1010E944B
:1012A0001D068D809E808C189D0841E0B401C2010E
:1012B0000E941D0641E0B401C1010E941D06CE142A
:1012C000DF04B4F1C80102979093170380931603CB
:1012D0008D819E81039790931503809314039FEF54
:1012E0006916790691F58BE691E00E948D086D8173
:1012F0007E816C5F7F4F41E0C801039626960FB652
:10130000F894DEBF0FBECDBFDF91CF911F910F913B
:10131000FF90EF90DF90CF90BF90AF909F908F9015
:101320007F906F905F904F903F902F900C941D0690
:10133000B7FC77CF91E0E91AF1088B819C81029686
:101340009C838B83A80EB91E6CCF8EEF68168FEF2F
:10135000780619F48DE691E0C8CFC3010E949A087F
:10136000C6CF2F923F924F925F926F927F928F9251
:101370009F92AF92BF92CF92DF92EF92FF920F9324
:101380001F93CF93DF936B017C01EA0119016091F8
:10139000070170910801072E000C880B990B0E9421
:1013A000361C9B01AC016BED7FE089EC90E40E9460
:1013B0008C1BA70196010E94B11D6B017C010E944C
:1013C000871B2B013C01BE01DD0F880B990B0E948E
:1013D000361C4B015C01AC019B01C301B2010E94B0
:1013E000B11D20E030E040E852E40E94A41A0E94BF
:1013F000FE1BF10171836083C701B6010E941E1EAE
:101400009B01AC01C501B4010E94B11D20E030E098
:1014100040E052E40E94A41A0E94FE1BF80171836E
:101420006083DF91CF911F910F91FF90EF90DF903C
:10143000CF90BF90AF909F908F907F906F905F9074
:101440004F903F902F9008952F923F924F925F922E
:101450006F927F928F929F92AF92BF92CF92DF92C4
:10146000EF92FF920F931F93CF93DF93CDB7DEB729
:1014700028970FB6F894DEBF0FBECDBF6B017C017D
:101480006091070170910801072E000C880B990BE1
:101490000E94361C9B01AC016BED7FE089EC90E46F
:1014A0000E948C1B4B015C0160912303709124030B
:1014B000072E000C880B990B0E94361CA501940185
:1014C0000E94B11D2B013C01A7019601C501B40189
:1014D0000E94B11D9B01AC01C301B2010E94A41A7C
:1014E0004B015C010E941E1E2B013C0120E030E0FC
:1014F00040EC51E40E94B11D20E030E040E052E4B5
:101500000E94A41A0E94FE1B6B011B01C501B401BD
:101510000E94871B4B015C0120E030E040EC51E46D
:101520000E94B11D20E030E040E852E40E94A41A7D
:101530000E94FE1B6B837C838D839E830B811C81A9
:1015400020E030E040E251E4C301B2010E94B11D4D
:1015500020E030E040E052E40E94A41A0E94FE1B0A
:101560002B0178876F8320E030E040E251E4C50131
:10157000B4010E94B11D20E030E040E852E40E9436
:10158000A41A0E94FE1B5B019601241935093A83B7
:10159000298337FF05C03195219531093A83298385
:1015A0008B809C80861A970A97FE03C09194819441
:1015B000910829813A818216930634F486012B80A2
:1015C0003C80520178876F830A151B055CF49F816C
:1015D000888538862F82292E382E9A2D8B2D5801FA
:1015E000092F182F28014A185B0831018F8198852F
:1015F000681A790A77FE03C07194619471086201D8
:1016000057FE03C09FEFC91AD90AD594C7942F81FA
:1016100038858FEF221533050CF481E0E82E880F12
:10162000FF080A151B05FCF089819A8141E08816A4
:101630009906ACF4B5018F8198850E941D06C618E5
:10164000D708D7FE08C02F8138852E0D3F1D38875B
:101650002F83C40CD51C3FEFA31AB30AE2CF6F81CE
:101660007885C501EACF28960FB6F894DEBF0FBE85
:10167000CDBFDF91CF911F910F91FF90EF90DF9041
:10168000CF90BF90AF909F908F907F906F905F9022
:101690004F903F902F9008950C942A1A2F923F92CA
:1016A0004F925F926F927F928F929F92AF92BF9272
:1016B000CF92DF92EF92FF920F931F93CF93DF931E
:1016C000CDB7DEB72C970FB6F894DEBF0FBECDBFF7
:1016D0009C838B837C876B874A0189011A821982DC
:1016E0002B8520FD18C12B843C8437FE03C03FEFBF
:1016F000231A330A35942794C10181509048FC0184
:10170000EE0FFF1FFE83ED836B807C806E0E7F1ECD
:10171000F301A080B18082819381A816B90609F0F7
:10172000FAC02B853C85223031050CF4F4C03FEF24
:10173000831A930AB401092C000C880B990B0E94A0
:10174000361C20E030E040E05FE30E94B11D20E065
:1017500030E040E85FE30E94A41A6B017C0181E065
:101760008816910409F071C0EB85FC85329789F5E4
:10177000B5016F5F7F4FF80171836083072E000C06
:10178000880B990B0E94361CA70196010E94B11D7F
:101790000E94711C0E94FE1B89819A81860F971FEF
:1017A0002C960FB6F894DEBF0FBECDBFDF91CF9160
:1017B0001F910F91FF90EF90DF90CF90BF90AF906F
:1017C0009F908F907F906F905F904F903F902F9061
:1017D0000895F801B182A082F3012FEF221A320A94
:1017E0008B859C85821593052CF08481958181934E
:1017F0009193F3CFF801608171816F5F7F4F7183A7
:101800006083072E000C880B990B0E94361CA701E1
:1018100096010E94B11D0E94711C6B017C016B85B9
:101820007C8562507109980141E050E08B819C8178
:101830000E944E0BBC01990F880B990B0E94361C1D
:10184000A70196010E94A41AA5CFF80160807180BB
:101850002301FFEF4F1A5F0AB201052C000C880B21
:10186000990B0E94361CA70196010E94B11D0E948F
:10187000711C0E94FE1B6F83788789879A876F810E
:101880007885A614B704BCF1B501661977096F5FB6
:101890007F4F072E000C880B990B0E94361C2B01E2
:1018A0003C01A7019601C701B6010E94A41A9B0141
:1018B000AC01C301B2010E94B11D0E94FE1B2F8129
:1018C0003885620F731FC5010296F80191838083EA
:1018D000EB81FC812D813E81E20FF31F3FEF231A44
:1018E000330A8B859C85821593054CF08481958104
:1018F00081939193F3CFF80151824082E9CFEB8538
:10190000FC853297FC87EB8729813A81260F371FA8
:101910003A832983E5CE70E060E03ECF2F923F927C
:101920004F925F926F927F928F929F92AF92BF92EF
:10193000CF92DF92EF92FF920F931F93CF93DF939B
:1019400000D0CDB7DEB774EC272E71E0372E209192
:10195000070130910801E8E1F1E0DF0190E080E06B
:10196000821793070CF078C14D915D914F3F5F4F07
:1019700011F00196F5CFD12CC12C81919191C21615
:10198000D30631F0019631F06FEFC61AD60AF5CFC3
:10199000019609F764E170E08CE991E00E94BC03D4
:1019A000809107019091080190939B0180939A0187
:1019B0004601712C612C20919A0130919B012330BA
:1019C00031050CF475C0C401B9010E943E1E5C01D2
:1019D0004C017901F1E0EF1AF1081816190624F408
:1019E000750141E0E41AF10885010F5F1F4F0217EE
:1019F000130714F010E000E0D701AA0FBB1FA45694
:101A0000BE4FF801EE0FFF1FE456FE4F2D913C91A3
:101A1000808191812817390709F04AC062E0660E7B
:101A2000711CAE14BF040CF0E2C00A151B050CF0CB
:101A3000F9C0A7016AE971E08CE991E00E941B08F6
:101A4000A8016AE971E08CE991E00E941B08450158
:101A500081E0881A9108AFCFA8016AE971E08CE9AA
:101A600091E00E941B08A701F0C00A151B050CF0AD
:101A7000A2CF0E151F059CF4A7016AE971E08CE95D
:101A800091E00E941B08A8016AE971E08CE991E0ED
:101A90000E941B084501F2E08F1A91088CCFA80123
:101AA0006AE971E08CE991E00E941B08A701ECCF84
:101AB000A60167E071E088E191E00E941B081092A6
:101AC000ED011092EC01C601880F991F9C012A5E5E
:101AD0003E4F790175946794260146185708C4143F
:101AE000D50409F457C031E0C31AD108F701808149
:101AF00091812AEEA22E21E0B22EF501329122919F
:101B00005F01338322832E163F06B9F79093C501F8
:101B10008093C4016090EC017090ED0183010F5F30
:101B20001F4F1093ED010093EC01A60167E071E0F7
:101B300088E191E00E941B080431110500F5F701CE
:101B40002081318183E190E0F2E0AF1AB1080817FB
:101B500019073CF40197F50146A157A151A740A7E9
:101B6000F3CF000F111FF801EC53FE4F3183208398
:101B7000F2E06F0E711C7092ED016092EC01A60113
:101B800067E071E088E191E00E941B0822E0E21A20
:101B9000F108A5CF6091EC017091ED019E012F5FDE
:101BA0003F4F50E040E084EC91E00E944E0B2091CA
:101BB0001C0330911D03820F931F90931D0380938C
:101BC0001C038091070190910801892B39F46981E8
:101BD0007A8190E080E00E94FB07B9CEC4010197B2
:101BE0008431910508F0B3CE69817A81F4CFEA148B
:101BF000FB040CF0E0CEA016B1060CF036CFA80125
:101C00006AE971E08CE991E00E941B08A7016AE98A
:101C100071E08CE991E00E941B084501E1E08E1A19
:101C20009108C9CEEA14FB0434F3A016B1060CF0F7
:101C3000C2CE0E151F050CF00FCFA7016AE971E0A7
:101C40008CE991E00E941B08A8016AE971E08CE927
:101C500091E00E941B08AFCE0F900F90DF91CF91C3
:101C60001F910F91FF90EF90DF90CF90BF90AF90BA
:101C70009F908F907F906F905F904F903F902F90AC
:101C800008951F920F920FB60F9211248F939F9376
:101C90008091E1009091E100937F9093E10083FFB8
:101CA0000FC01092E90091E09093EB001092EC00CD
:101CB00092E39093ED001092650398E09093F0000A
:101CC00082FF22C093E09093E9009091F200992363
:101CD00019F09AE39093E80090915603992341F00C
:101CE00090915603915090935603911101C05D9AC3
:101CF00090916403992341F09091640391509093E3
:101D00006403911101C0289A84FF18C08091E200F9
:101D10008E7E81608093E2008091E1008F7E8093CF
:101D2000E100809157038E7E8061809357039F91DD
:101D30008F910F900FBE0F901F90189580FFF7CFD7
:101D40008091E2008E7E80618093E2008091E100CC
:101D50008E7E8093E100809157038E7E8160E5CF77
:101D60001F920F920FB60F921124CF92DF92EF9233
:101D7000FF920F931F932F933F934F935F936F9314
:101D80007F938F939F93AF93BF93EF93FF93CF93E3
:101D9000DF93CDB7DEB76C97DEBFCDBF1092E90001
:101DA0008091E80083FF25C068E0CE0145960E943F
:101DB000B60582EF8093E8008D8987FF39C0909146
:101DC000E80090FFFCCF982F907609F034C19E89EF
:101DD0004F89588D2F89F88C911131C0803861F569
:101DE000809155038093F1001092F1008EEF809363
:101DF000E8006C960FB6F894DEBF0FBECDBFDF9142
:101E0000CF91FF91EF91BF91AF919F918F917F9172
:101E10006F915F914F913F912F911F910F91FF9083
:101E2000EF90DF90CF900F900FBE0F901F901895FE
:101E30009EEF9093E800C7CF1092F100D5CF91307C
:101E400059F48111D3CF4130510581F6809155036A
:101E50008D7F80935503CACF933049F48111C6CF4B
:101E60004130510519F6809155038260F2CF9530CB
:101E700041F48091E80080FFFCCF20682093E300CC
:101E8000B5CF963009F0A9C00B8D1C8D22E01092C1
:101E9000E9001092530310925203F2122EC01092D6
:101EA0005103109250030E9485051F8299E0998387
:101EB000FA8291E09E8390EA98879AEF9987209121
:101EC000520330915303275F3F4F3C832B838D8315
:101ED0001092E90010925303109252031093510391
:101EE0000093500349E050E0BE016F5F7F4F80E0F8
:101EF0000E945F050E94850579CF109351030093DE
:101F000050030E949C04DC0112960D911C91011556
:101F1000110509F451C1D801ED91FC910480F581BE
:101F2000E02DBE016B5E7F4FC8010995009709F057
:101F30003EC1F80100851185EACFF3E0FF120EC023
:101F40008F89882309F440C0823061F440E867E05B
:101F500089E197E00E942C11811148CF81E28093A2
:101F6000EB0047CF813029F440E86BE08DE097E04B
:101F7000F1CF833099F70E949C04DC011296ED901A
:101F8000FC908E010F5F1F4F6801E114F10479F09E
:101F9000D701ED91FC910680F781E02DB801C701D2
:101FA0000995080F111DF701E084F184EECFD801E7
:101FB0001C92F60101900020E9F73197BF016C19DE
:101FC0007D0940E0C601C6CF67EF76E0FB01449192
:101FD00050E080E80E945F0509CF973009F4BECF3A
:101FE000983021F481E08093F10000CF993009F01E
:101FF000FDCE837009F0B2CFE5E4F1E081E031E09D
:1020000096E32191222371F08093E9003093EB0055
:10201000DF0111972C912093EC009093ED008F5FDE
:10202000873079F78EE78093EA001092EA008F8973
:1020300080936503DBCE8B8D9C8D1092E90010920E
:102040005303109252039093510380935003898D50
:10205000811192C08E899D89913A49F4813209F0AB
:102060007DCF47E050E060E171E080E0B3CF913296
:1020700009F074CF833269F48F89988DB0E0A0E0C5
:1020800080930C0190930D01A0930E01B0930F016A
:10209000ADCE803269F48091E80082FFFCCF67E02A
:1020A00080E191E00E94B6058BEF8093E8009ECE20
:1020B000823209F09BCE8F8980931701EEEFFFE704
:1020C000859194918B3F9C4D51F1E0E0F8E0809137
:1020D000100190911101A0911201B0911301803B68
:1020E0009440A105B105F1F48091170180FD1AC05B
:1020F000EE3F8AE0F80789F587E797E791838083C9
:10210000809160008093540388E19BE00FB6F894BF
:10211000A895809360000FBE9093600067CEEEEFAD
:10212000FAE0D5CF808191818737974709F05ECE5D
:10213000A89580916000886180936000809154032D
:1021400080936000EE3F2AE0F20789F08091FE0A5A
:102150009091FF0A9183808349CE80819181873756
:10216000980751F29093FF0A8093FE0AC5CF109210
:10217000FF0A1092FE0A3ACE0E949C04DC011296DD
:102180000D911C910115110509F4E8CED801ED91CE
:10219000FC910190F081E02DBE016B5E7F4FC80184
:1021A0000995811123CEF80100851185EBCF181612
:1021B00019060CF41BCED2CEF1E0FF12BECE6BEFAF
:1021C00076E004CF0F920FB68F939F93EF93FF9318
:1021D0008091EF018D5F8D3708F08D578093EF016F
:1021E000E4EFF1E080818E4F808391819F4F918356
:1021F00082818F4F828383818F4F8383E0EFF1E071
:1022000080818F5F808381818F4F818382818F4F17
:10221000828383818F4F83838FB18F6066991C9BEC
:1022200088278F3681F48091EE01981B963068F0F4
:10223000E0E0F8E087E78083818388E180936000B5
:10224000F0936000FFCF9093EE01FF91EF919F918B
:102250008F910FBE0F901895EF92FF920F931F93DF
:10226000CF93DF93F82E192FE62E042F81E0860FEF
:10227000880F0E94310583E00E943105CF2DD12FB8
:10228000EC0EFD2EF11CCE15DF05B9F007FF13C0D3
:10229000FE0184910E943105182F80E00E943105D3
:1022A000812321968111EFCFDF91CF911F910F9163
:1022B000FF90EF9008958881EDCF81E0F5CFEF9208
:1022C000FF920F931F93CF93DF937C010E949A0894
:1022D00087E991E00E948D0808E111E0D0E0C0E0BC
:1022E000CE15DF0544F4F801819191918F010E9490
:1022F0009A082196F5CF89E691E0DF91CF911F9161
:102300000F91FF90EF900C948D08E6E6F7E01382B2
:10231000128288EE93E0A0E0B0E084839583A683E8
:10232000B7838FE491E0918380838FEF9FEF958750
:102330008487E6EBF7E01382128281E691E09183D5
:1023400080830895CF93DF93CDB7DEB7A2970FB602
:10235000F894DEBF0FBECDBF789484B5826084BD93
:1023600084B5816084BD85B5826085BD85B5816099
:1023700085BD80916E00816080936E001092810017
:1023800080918100826080938100809181008160D2
:102390008093810080918000816080938000809193
:1023A0009100826080939100809191008160809380
:1023B0009100809190008160809390008091C10095
:1023C00084608093C1008091C10082608093C100CD
:1023D0008091C10081608093C1008091C3008160C1
:1023E0008093C3008091C00082608093C000809180
:1023F000C20081608093C20080917A0084608093E3
:102400007A0080917A00826080937A0080917A00CD
:10241000816080937A0080917A00806880937A004E
:102420001092650310925503109257038091D700C4
:1024300081608093D70080EA8093D80089B580615D
:1024400089BD89B5826089BD09B400FEFDCF61E018
:1024500070E080E090E00E943E078091D8008F7C81
:1024600080618093D8008091E000807F8093E000BD
:102470008091E1008E7E8093E1008DE08093E20008
:10248000559A209A81EC80937C0085B1806F85B944
:1024900084B1877E84B984B1876E84B95E9A5F986F
:1024A0008AB1806D8AB9769A6E9881B3806F81BB4C
:1024B000899880B38D7080BB80E58CBD81E08DBD37
:1024C00085E090E00E94F6075F9A85E090E00E9428
:1024D000F6075E985C98E8EAF6E084918EBD00000D
:1024E0000DB407FEFDCF319606E0E53BF007A9F7F6
:1024F0005C9A81E88093640080916500816080939C
:1025000065000E941A060E94F20587FF15C05C98BC
:1025100085EA8EBD00000DB407FEFDCF5C9A2E98B3
:102520002F982D988091640080628093640081E0F0
:1025300083BF889513BEFCCF0E94F20582FF48C07E
:102540002D980E94F20584788438E1F40E94F00509
:1025500088EC90E00E94F6072F9882E090E00E94BD
:102560002A1A8F3F29F06FEF82E090E00E94321A22
:1025700084EF91E00E94F6072F9A0E94F20584787A
:102580008438D9F30E94F20584718431E1F40E9409
:10259000F00588EC90E00E94F6072E9882E090E02B
:1025A0000E942A1A882329F060E082E090E00E94CD
:1025B000321A84EF91E00E94F6072E9A0E94F205EB
:1025C00084718431D9F388EC90E00E94F607B4CF8F
:1025D0000E94F00582E090E00E944C0B882309F4F1
:1025E00070C03E9A3F9A81E090E00E944C0B81FFC0
:1025F00012C0182F1470512E82FD2E9801EF1FEF7C
:1026000068E0E62EF12C0E94F20586FF5DC02E9A4E
:102610002F9A0E94F00582E390E00E94F6070E9444
:10262000F2058111F8CF0E94FA0588EE809300012F
:10263000809164008E7F8093640080917A00806432
:1026400080937A0080917A0086FDFCCF009178001B
:10265000109179000E941907AB01BC01C801B0E0DC
:10266000A0E0DC01992788278C019D01040F151F2C
:10267000261F371FC901B8012091640021602093F3
:102680006400611571058105910511F00E94211A00
:102690008FB7F8944091F4015091F5016091F601E3
:1026A0007091F7018FBF8091FA01882309F4CAC0A5
:1026B0001092FA0180E090E0892B51F30E94000013
:1026C000E7CF3E983F988FCF552029F00430110571
:1026D00011F42E9A2F9881E00E945204980117FF5E
:1026E00004C022273327201B310B27703327C80152
:1026F00017FD079653E0959587955A95E1F717FFD3
:1027000005C00197A701421B530B9A01BC017695A6
:10271000762F6627779567956A597C4FB0E0A0E0E1
:102720003701621A730A8E3F5FEF950709F43AC0CA
:1027300050E040E0FD01E850FA4F5F014B01F0E846
:102740008F0E911C8F3F980791F0F501E40FF51F54
:10275000E4916B01C40ED51EF0E01F01022E01C0F2
:10276000220C0A94EAF7F60144882428248A2115C9
:10277000310599F0F501E40FF51FE4916401C40EF1
:10278000D51EF0E01F01062C02C0359427940A9450
:10279000E2F7F60144882428248A4F5F5F4F4835CA
:1027A000510581F60196A85ABF4F60587F4FA03B54
:1027B000B10509F0B8CF0E941A068FE090E00E94A0
:1027C000F6070F5F1F4F0931110509F01CCF552087
:1027D00011F02F9A2D9880E991E00E94F6070E944F
:1027E000F00581E090E00E944C0B80FF14CF8AE05E
:1027F00090E00E944C0B9FEF980F9E3F08F00BCF8C
:1028000022E330E0309317032093160328E330E0EF
:1028100030931503209314030BE010E0682F86EB30
:1028200097E00E94B606C8010E944C0B0F5F1F4F35
:102830000131110599F70E941A0688EE93E00E9473
:10284000F607E9CE8091FB01142F181B812F909180
:102850000001191748F48F5F891708F02BCF81E02A
:1028600083BF889513BE26CF11E01093FA014093E1
:10287000FB018091F8019091F90101969093F90183
:102880008093F80180911903809318030E94F20548
:102890008093190380E10E940F06882329F080911C
:1028A0000B01812780930B0120904E0330904F0342
:1028B00021E02216310489F50E94FA058091070172
:1028C000909108010E945F1189E691E00E948D08B5
:1028D0008FE691E00E948D08AE014F5F5F4FBE0111
:1028E0006D5F7F4F80910701909108010E94CD0399
:1028F0000E949A0889E691E00E948D088B819C8154
:102900000E949A0888E991E00E948D0889819A8145
:102910000E949A080E941A06FFCF32E02316310463
:1029200099F40E94FA0580910701909108010E9494
:102930005F110E948E0C80910701909108010E9406
:102940005F110E941A06FFCF2114310409F0B2CEA4
:1029500080914D03882309F472C00E94FA0580918A
:102960001A0390911B03019690931B0380931A0303
:102970000CEF11E02091010130910201C0901A0387
:10298000D0901B0380910701909108012816390609
:102990000CF04AC0D8011C96AD90BC901D971496BF
:1029A0008D909C9015971296ED90FC90F90137FD53
:1029B0003196F595E795D8011A964D915C914E198F
:1029C0005F094C9DC0014D9D900D5C9D900D1124A3
:1029D0008E0F9F1FB9010E943E1EE60EF71ED80102
:1029E0001796FC92EE921697A818B908AC9CC001F5
:1029F000AD9C900DBC9C900D11248E0F9F1FB901B2
:102A00000E943E1E680D791DF80171876087408124
:102A10005181C7010E94CA080E941A06FFEF2F1AAF
:102A20003F0A025F1F4FA6CF2C153D050CF042CE8A
:102A300010924D0310921B0310921A033BCE88E0B4
:102A40000E940F06882309F42DC16091070170913F
:102A50000801C0900901D0900A0100912303109150
:102A6000240385E293E02EEFC2162FEFD20609F47D
:102A7000A6C10E94BC036091070170910801E0901B
:102A80002003F09021033FEFE31AF30AF0922103B1
:102A9000E0922003C80101960E943E1E84319105F8
:102AA00018F4B6010E94FB0780910B0181110E946E
:102AB0008E0CADB6BEB6C70168E270E00E943E1E45
:102AC000892B49F48091050190910601019690931C
:102AD000060180930501C70166E970E00E943E1E71
:102AE000892B49F480910301909104010196909300
:102AF0000401809303018091050190910601C0902B
:102B00000301D09004012C01092E000C66087708FF
:102B10009C012C0D3D1D82179307ACF40D2C000C6D
:102B2000EE08FF08C114D104E104F10441F00E9451
:102B3000D219A70196010E94401A6B017C014C0C2E
:102B40005D1C6E1C7F1C50920A01409209010E947C
:102B5000D21929E030E040E050E00E94401A672B93
:102B6000682B692B51F48FEF9FEF90930A018093AC
:102B7000090110921F0310921E03E0900701F090CC
:102B80000801C701880F991F4DB75EB7481B590B45
:102B90000FB6F8945EBF0FBE4DBF8DB79EB70196BE
:102BA0006C014091050150910601A8E1B1E090E06F
:102BB00080E0512C412C8E159F05BCF42D913D9148
:102BC0002417350784F4B9016E5F7F4F62307105B9
:102BD00050F0F201EE0FFF1FEC0DFD1D318320833D
:102BE000EFEF4E1A5E0A0196E6CF60E070E0CB018F
:102BF0001E141F0444F40E94D2199701FF0C440BC9
:102C0000550B0E94401A052C000C660877086415C5
:102C1000750586059705C4F44114510461047104D7
:102C200039F00E94D219A30192010E94401A2B018F
:102C30008201000F111F0C0D1D1DD8018D919C915B
:102C400090930A018093090180911E0390911F03C4
:102C5000069754F08FEF9FEF90930A01809309013C
:102C600010921F0310921E03809120039091210364
:102C700064E170E00E943E1E892B31F48EEF9FEFDD
:102C800090930A018093090180911E0390911F0384
:102C9000019690931F0380931E030FB6F894BEBE57
:102CA0000FBEADBE84E00E940F06882369F08091BC
:102CB0002203882309F4B0C08FEF9FEF90930A019D
:102CC000809309011092220380E20E940F06009176
:102CD000070110910801882369F0809123039091E6
:102CE0002403181619060CF09EC001979093240334
:102CF0008093230380E40E940F06882381F0809153
:102D000023039091240398012150310982179307DE
:102D10000CF08BC001969093240380932303013120
:102D200011050CF4C0C00E94FA058AE791E00E94E8
:102D30008D0880912003909121030E949A0886E8D3
:102D400091E00E948D0889E691E00E948D088DE84F
:102D500091E00E948D0880E092E00E944C0B682F69
:102D600070E090E080E04AE00E943F080E941A066E
:102D700080911903809318030E94F2058093190330
:102D800088E00E940F06182F84E00E940F061111A0
:102D900002C0882369F32091070130910801A8E15E
:102DA000B1E0E5E2F3E090E080E0821793070CF0F9
:102DB00041C01D921D92119211920196F6CF0E9470
:102DC000BC032091070130910801F801EE0FFF1FAD
:102DD000E85EFE4F8081918190930A018093090102
:102DE000C801B9010E943E1EFC01EE0FFF1FE85E04
:102DF000FE4F215031098217930734F442815381E9
:102E0000419351930196F7CF309308012093070126
:102E100081E08093220346CF82E090E090934F03BD
:102E200080934E0351CFC80160CF109224031092BB
:102E3000230375CF81E090E09093190180931801EE
:102E4000909308018093070121E020930B011092D9
:102E50001F0310921E031092210310922003109260
:102E60001D0310921C03909306018093050124E03A
:102E700030E0309304012093030190930A01809382
:102E80000901109224031092230310921B03109245
:102E90001A038CE390E09093020180930101109259
:102EA000220310924D030E94FA0598E1C92E91E089
:102EB000D92EF12CE12C8091070190910801E816A0
:102EC000F90604F5F601A190B1906F01B7010F2C3E
:102ED000000C880B990B0E94361C8E010F5F1F4F50
:102EE0009E012D5F3F4F48E150E00E94B10969818A
:102EF0007A81A5018B819C810E94CA08FFEFEF1A9D
:102F0000FF0AD9CF4091090150910A0160E270E0B7
:102F100080E490E00E94CA08AE01475F5F4FBE01A7
:102F2000655F7F4F80910701909108010E94CD035A
:102F30003C018C01015011091E8F0D8F2D8D3E8D8E
:102F4000221633060CF073C18B859C85820D931D70
:102F500060910701709108010E943E1EBC01990F0B
:102F6000880B990B0E94361C8E010B5F1F4F9E0130
:102F7000295F3F4F4EE050E00E94B1098B859C8550
:102F8000820D931D019660910701709108010E94C6
:102F90003E1EBC01990F880B990B0E94361C0450F1
:102FA00011099E012D5F3F4F4EE050E00E94B10994
:102FB0006F81788560547109072E000C880B990B7E
:102FC0000E94361C6B017C016D817E81605271090B
:102FD000072E000C880B990B0E94361CA701960146
:102FE0000E94231B162F072FF82EE92E6B817C8160
:102FF00060547109072E000C880B990B0E94361C37
:103000004B015C0169817A8160527109072E000CC5
:10301000880B990B0E94361CA50194010E94231B6A
:103020004B015C0120E030E0A901612F702F8F2D52
:103030009E2D0E94821B87FF0EC02BED3FE049ECC6
:1030400050E4612F702F8F2D9E2D0E94A41A162FF1
:10305000072FF82EE92E20E030E0A901C501B401C8
:103060000E94821B87FF0AC02BED3FE049EC50E431
:10307000C501B4010E94A41A4B015C01A501940191
:10308000612F702F8F2D9E2D0E94821B212F302F9C
:103090004F2D5E2D87FF92C0C501B4010E94A31A77
:1030A000562E472E8D879E87A50194016BED7FE0FC
:1030B00089EC90E40E94A31A212F302F4F2D5E2D12
:1030C0000E94A41A6F87788B4C012F853889AC0138
:1030D000652D742D8D859E850E94821B87FF85C07E
:1030E000598A4A8A3D853B8B4E854C8B8AE097ED09
:1030F000A3E2BDE38D8B9E8BAF8BB88FA12EB02E3C
:10310000CF2CDE2C2F853889A401652D742D8D855B
:103110009E850E94821B87FF77C0212F302F4F2D65
:103120005E2D69897A898B899C890E94A41A9501F0
:10313000A6010E94A41D87FD76C0B501C6010E94AC
:10314000871B698F7A8F8B8F9C8FB501C6010E9478
:103150001E1E20E030E040E651E40E94B11D20E058
:1031600030E040E052E40E94A41A0E94FE1B6F8FE0
:1031700078A389A39AA320E030E040E651E4698D6A
:103180007A8D8B8D9C8D0E94B11D20E030E040E84F
:1031900052E40E94A41A0E94FE1BCB0141E06F8DF5
:1031A00078A10E941D062D893E894F89588DB50151
:1031B000C6010E94A41A5B016C01A4CF6BED7FE0F5
:1031C00089EC90E40E94A31AA50194010E94A41A1C
:1031D000562E472E8D879E87A5019401612F702F53
:1031E0008F2D9E2D0E94A31A6DCF9F85998BA88944
:1031F000AA8B8B8A9C8A2AE037ED43E25DEB2D8B0C
:103200003E8B4F8B588F7ACF29893A894B895C89BD
:10321000612F702F8F2D9E2D0E94A31A9B01AC0150
:10322000B501C60186CF3FEF231A330A87CE42E0AD
:103230006416710409F04EC0809107019091080155
:10324000029709F04AC06B857C856F5F7F4F072E20
:10325000000C880B990B0E94361C20E030E040E007
:103260005FE30E94A41A8E010B5F1F4F9E01295F2E
:103270003F4F4EE050E00E94B109ED80FE800F818B
:103280001885B7016250710945E0C8010E943B06EC
:10329000B701C8010E94610683E090E09093170394
:1032A0008093160390931503809314038091200359
:1032B000909121030E949A088091090190910A013E
:1032C0000296F9F460E070E0CB010E94240A0E94AB
:1032D0001A06F0C916141704FCF6B3017595679524
:1032E0008B859C85680F791F072E000C880B990B26
:1032F0000E94361C20E030E040E05FE30E94A31A09
:10330000B2CF60E070E080E09FE3DFCF8F929F92CA
:10331000AF92BF92CF92DF92EF92FF92CF93DF9363
:10332000EC01688179818A819B8161157105810534
:10333000910521F464E279ED8BE597E02DE133EF1F
:1033400041E050E00E94401A49015A019B01AC0142
:10335000A7EAB1E40E945F1A6B017C01ACEEB4EF06
:10336000A50194010E946D1AC60ED71EE81EF91E13
:10337000F7FE06C081E0C81AD108E10880E8F80A23
:10338000C882D982EA82FB82C701B6019F77DF91AA
:10339000CF91FF90EF90DF90CF90BF90AF909F9034
:1033A0008F9008958F929F92AF92BF92CF92DF92AB
:1033B000EF92FF9260914001709141018091420132
:1033C00090914301611571058105910521F464E235
:1033D00079ED8BE597E02DE133EF41E050E00E947D
:1033E000401A49015A019B01AC01A7EAB1E40E94CD
:1033F0005F1A6B017C01ACEEB4EFA50194010E9451
:103400006D1AC60ED71EE81EF91EF7FE06C081E033
:10341000C81AD108E10880E8F80AC0924001D092A9
:103420004101E0924201F0924301C701B6019F774A
:10343000FF90EF90DF90CF90BF90AF909F908F90D4
:1034400008956093400170934101809342019093ED
:1034500043010895F999FECF92BD81BDF89A99274D
:1034600080B50895262FF999FECF1FBA92BD81BD70
:1034700020BD0FB6F894FA9AF99A0FBE01960895F6
:10348000052E97FB1EF400940E94571A57FD07D093
:103490000E94721A07FC03D04EF40C94571A5095F0
:1034A0004095309521953F4F4F4F5F4F0895909530
:1034B0008095709561957F4F8F4F9F4F08950E9423
:1034C000941AA59F900DB49F900DA49F800D911DFF
:1034D00011240895B7FF0C945F1A0E945F1A821B93
:1034E000930B0895A1E21A2EAA1BBB1BFD010DC070
:1034F000AA1FBB1FEE1FFF1FA217B307E407F507A4
:1035000020F0A21BB30BE40BF50B661F771F881F7F
:10351000991F1A9469F760957095809590959B0115
:10352000AC01BD01CF010895A29FB001B39FC001BE
:10353000A39F700D811D1124911DB29F700D811DDF
:103540001124911D08955058BB27AA270E94BB1A29
:103550000C943E1D0E94051D38F00E940C1D20F0A9
:1035600039F49F3F19F426F40C94DB1C0EF4E0951B
:10357000E7FB0C94AC1CE92F0E94631D58F3BA17AB
:10358000620773078407950720F079F4A6F50C9479
:103590009D1D0EF4E0950B2EBA2FA02D0B01B90145
:1035A00090010C01CA01A0011124FF27591B99F0B9
:1035B000593F50F4503E68F11A16F040A22F232FC5
:1035C000342F4427585FF3CF469537952795A79515
:1035D000F0405395C9F77EF41F16BA0B620B730BBC
:1035E000840BBAF09150A1F0FF0FBB1F661F771F2D
:1035F000881FC2F70EC0BA0F621F731F841F48F4E2
:10360000879577956795B795F7959E3F08F0B0CF6A
:103610009395880F08F09927EE0F97958795089551
:103620000E94051D60F080E891E009F49EEF0E9481
:103630000C1D28F040E851E071F45EEF0CC00C94D2
:10364000DB1C0C949D1DE92FE0780E94631D40F364
:10365000092E052AB1F3261737074807590738F00E
:103660000E2E07F8E02569F0E025E0640AC0EF635C
:1036700007F8009407FADB01B9019D01DC01CA01DA
:10368000AD01EF930E94A31B0E943E1D0E94531B9D
:103690005F91552339F02BED3FE049E450FD49ECB3
:1036A0000C94A41A0895DF93DD27B92FBF7740E863
:1036B0005FE31616170648075B0718F4D92F0E9418
:1036C000A91D9F938F937F936F930E94261EECEA10
:1036D000F0E00E94DE1C0E943E1D2F913F914F9111
:1036E0005F910E94C41DDD2351F09058A2EA2AED9B
:1036F0003FE049EC5FE3D0785D270E94BB1ADF9181
:103700000C943E1D0E94881C08F481E008950E94DC
:10371000151DE3950C944F1D0E94A01B0C943E1D9B
:103720000E940C1D58F00E94051D40F029F45F3FD7
:1037300029F00C94AC1C51110C949E1D0C94DB1CB4
:103740000E94631D68F39923B1F3552391F3951BF0
:10375000550BBB27AA2762177307840738F09F5FB2
:103760005F4F220F331F441FAA1FA9F335D00E2E1F
:103770003AF0E0E832D091505040E695001CCAF78C
:103780002BD0FE2F29D0660F771F881FBB1F26174F
:1037900037074807AB07B0E809F0BB0B802DBF0126
:1037A000FF2793585F4F3AF09E3F510578F00C94F5
:1037B000AC1C0C949E1D5F3FE4F3983ED4F38695B9
:1037C00077956795B795F7959F5FC9F7880F911D16
:1037D0009695879597F90895E1E0660F771F881F02
:1037E000BB1F621773078407BA0720F0621B730BB5
:1037F000840BBA0BEE1F88F7E09508950E94051C14
:103800006894B1110C949E1D08950E946B1D88F060
:103810009F5798F0B92F9927B751B0F0E1F0660F94
:10382000771F881F991F1AF0BA95C9F714C0B130D5
:1038300091F00E949D1DB1E008950C949D1D672F8D
:10384000782F8827B85F39F0B93FCCF38695779504
:103850006795B395D9F73EF49095809570956195ED
:103860007F4F8F4F9F4F0895E89409C097FB3EF418
:1038700090958095709561957F4F8F4F9F4F9923BD
:10388000A9F0F92F96E9BB279395F695879577953B
:103890006795B795F111F8CFFAF4BB0F11F460FFFB
:1038A0001BC06F5F7F4F8F4F9F4F16C0882311F053
:1038B00096E911C0772321F09EE8872F762F05C067
:1038C000662371F096E8862F70E060E02AF09A9502
:1038D000660F771F881FDAF7880F9695879597F9F7
:1038E00008950E94851D90F09F3748F4911116F0BD
:1038F0000C949E1D60E070E080E89FEB089526F434
:103900001B16611D711D811D0C94B21C0C94CD1CE5
:10391000990F0008550FAA0BE0E8FEEF16161706E0
:10392000E807F907C0F012161306E407F50798F048
:10393000621B730B840B950B39F40A2661F0232B61
:10394000242B252B21F408950A2609F4A140A695DD
:103950008FEF811D811D089597F99F6780E870E0C2
:1039600060E00895882371F4772321F09850872B25
:10397000762F07C0662311F499270DC09051862B2E
:1039800070E060E02AF09A95660F771F881FDAF7DB
:10399000880F9695879597F908959F3F31F091503C
:1039A00020F4879577956795B795880F911D969523
:1039B000879597F908959FEF80EC0895DF93CF9353
:1039C0001F930F93FF92EF92DF927B018C0168941B
:1039D00006C0DA2EEF010E94C41DFE01E894A591F5
:1039E0002591359145915591A6F3EF010E94BB1A9F
:1039F000FE019701A801DA9469F7DF90EF90FF903C
:103A00000F911F91CF91DF91089500240A9416160B
:103A1000170618060906089500240A9412161306BC
:103A20001406050608950C94DB1C0E946B1DD8F348
:103A3000E894E0E0BB279F57F0F02AED3FE049EC27
:103A400006C0EE0FBB0F661F771F881F28F0B23A23
:103A500062077307840728F0B25A620B730B840B5A
:103A6000E3959A9572F7803830F49A95BB0F661FEC
:103A7000771F881FD2F790480C94CF1C092E03940F
:103A8000000C11F4882352F0BB0F40F4BF2B11F44B
:103A900060FF04C06F5F7F4F8F4F9F4F0895EF937C
:103AA000E0FF07C0A2EA2AED3FE049EC5FEB0E948D
:103AB000BB1A0E943E1D0F90039401FC9058E9ED43
:103AC000F0E00C942A1E57FD9058440F551F59F0F2
:103AD0005F3F71F04795880F97FB991F61F09F3FFB
:103AE00079F087950895121613061406551FF2CF24
:103AF0004695F1DF08C0161617061806991FF1CF74
:103B0000869571056105089408950E946B1DA0F0CB
:103B1000BEE7B91788F4BB279F3860F41616B11DAD
:103B2000672F782F8827985FF7CF869577956795C9
:103B3000B11D93959639C8F30895E894BB2766277D
:103B40007727CB0197F908950E94881C08F48FEF1E
:103B500008959B01AC0160E070E080E89FE30C9465
:103B60008C1B0E94C41D0C943E1D0E94051D38F044
:103B70000E940C1D20F0952311F00C94AC1C0C94A9
:103B8000DB1C11240C949E1D0E94631D70F3959FF5
:103B9000C1F3950F50E0551F629FF001729FBB2744
:103BA000F00DB11D639FAA27F00DB11DAA1F649FE0
:103BB0006627B00DA11D661F829F2227B00DA11D93
:103BC000621F739FB00DA11D621F839FA00D611D19
:103BD000221F749F3327A00D611D231F849F600D3A
:103BE000211D822F762F6A2F11249F5750409AF063
:103BF000F1F088234AF0EE0FFF1FBB1F661F771FEF
:103C0000881F91505040A9F79E3F510580F00C94B9
:103C1000AC1C0C949E1D5F3FE4F3983ED4F3869554
:103C200077956795B795F795E7959F5FC1F7FE2B59
:103C3000880F911D9695879597F908959F930E94F7
:103C4000151D0F9007FCEE5F0C944F1D9B01AC01FE
:103C50000C94B11D9F938F937F936F93FF93EF937A
:103C60009B01AC010E94B11DEF91FF910E94DE1CEF
:103C70002F913F914F915F910C94B11D97FB072EAF
:103C800016F4009407D077FD09D00E94521E07FC5D
:103C900005D03EF4909581959F4F0895709561955C
:103CA0007F4F0895AA1BBB1B51E107C0AA1FBB1F72
:103CB000A617B70710F0A61BB70B881F991F5A95B8
:103CC000A9F780959095BC01CD010895EE0FFF1FD7
:0C3CD0000590F491E02D0994F894FFCFCA
:103CDC00103C00040001000900FFFF01FFFFFFFF83
:103CEC0000E10000000000000400020002000200DD
:103CFC00020004000200FFFF0200000000000000B0
:103D0C0000000000000000000000000000000000A7
:103D1C000100000000C1808100000000000000B024
:103D2C00047107D104C6041705D504F30400000080
:103D3C0000B606C3053C083B080A002B002D0053B7
:103D4C00796D6D657472793A2000596F75206C61CC
:103D5C00737465642000207475726E730048696713
:0A3D6C00682053636F72653A20006F
:00000001FF
