:100000000C947B030C94A3030C94A3030C94A30300
:100010000C94A3030C94A3030C94A3030C94A303C8
:100020000C94A3030C94A3030C94D1060C944007E6
:100030000C94A3030C94A3030C94A3030C94A303A8
:100040000C94A3030C94A3030C94A3030C94A30398
:100050000C94A3030C94A3030C94A3030C947209B3
:100060000C94A3030C94A3030C94A3030C94A30378
:100070000C94A3030C94A3030C94A3030C94A30368
:100080000C94A3030C94A3030C94A3030C94A30358
:100090000C94A3030C94A3030C94A3030C94A30348
:1000A0000C94A3030C94A3030C94A30305A84CCDB8
:1000B000B2D44EB93836A9020C50B9918688083CA2
:1000C000A6AAAA2ABE000000803F00000000003E51
:1000D0005B4F5B3E3E6B4F6B3E1C3E7C3E1C183CB8
:1000E0007E3C181C577D571C1C5E7F5E1C00183C14
:1000F0001800FFE7C3E7FF0018241800FFE7DBE75D
:10010000FF30483A060E2629792926407F05050743
:10011000407F05253F5A3CE73C5A7F3E1C1C08089F
:100120001C1C3E7F14227F22145F5F005F5F060964
:100130007F017F006689956A606060606094A2FFBD
:10014000A29408047E040810207E201008082A1CAF
:1001500008081C2A08081E101010100C1E0C1E0C7B
:1001600030383E3830060E3E0E060000000000001B
:10017000005F00000007000700147F147F14242A8A
:100180007F2A12231308646236495620500008075C
:100190000300001C2241000041221C002A1C7F1C7D
:1001A0002A08083E0808008070300008080808087F
:1001B000000060600020100804023E5149453E00E6
:1001C000427F400072494949462141494D33181444
:1001D000127F1027454545393C4A49493141211193
:1001E00009073649494936464949291E0000140085
:1001F00000004034000000081422411414141414A8
:10020000004122140802015909063E415D594E7C05
:100210001211127C7F494949363E414141227F41BA
:1002200041413E7F494949417F090909013E414118
:1002300051737F0808087F00417F41002040413F03
:10024000017F081422417F404040407F021C027F12
:100250007F0408107F3E4141413E7F090909063E67
:100260004151215E7F091929462649494932030136
:100270007F01033F4040403F1F2040201F3F403848
:10028000403F631408146303047804036159494D23
:1002900043007F4141410204081020004141417F59
:1002A00004020102044040404040000307080020CF
:1002B000545478407F2844443838444444283844CF
:1002C00044287F385454541800087E090218A4A406
:1002D0009C787F0804047800447D40002040403D25
:1002E000007F1028440000417F40007C047804789F
:1002F0007C080404783844444438FC182424181832
:10030000242418FC7C08040408485454542404048D
:100310003F44243C4040207C1C2040201C3C40307A
:10032000403C44281028444C9090907C4464544CA9
:100330004400083641000000770000004136080004
:1003400002010204023C2623263C1EA1A161123AAE
:100350004040207A385454555921555579412154FB
:10036000547841215554784020545579400C1E5200
:1003700072123955555559395454545939555454A4
:10038000580000457C410002457D420001457C400B
:10039000F0292429F0F0282528F07C545545002028
:1003A00054547C547C0A097F4932494949323248C5
:1003B000484832324A4848303A4141217A3A42402C
:1003C0002078009DA0A07D39444444393D40404000
:1003D0003D3C24FF2424487E4943662B2FFC2F2BD1
:1003E000FF0929F620C0887E090320545479410072
:1003F00000447D413048484A32384040227A007AF1
:100400000A0A727D0D19317D2629292F28262929CE
:10041000292630484D4020380808080808080808F0
:10042000382F10C8ACBA2F102834FA00007B000017
:1004300008142A142222142A14089500220095AACE
:10044000005500AAAA55AA55AA000000FF001010E6
:1004500010FF00141414FF001010FF00FF1010F024
:1004600010F0141414FC001414F700FF0000FF0037
:10047000FF1414F404FC141417101F10101F101F85
:100480001414141F00101010F0000000001F1010B2
:1004900010101F10101010F010000000FF101010AE
:1004A000101010101010FF10000000FF140000FFCB
:1004B00000FF00001F10170000FC04F414141710B4
:1004C000171414F404F40000FF00F71414141414A7
:1004D0001414F700F7141414171410101F101F141D
:1004E0001414F4141010F010F000001F101F00007E
:1004F000001F14000000FC140000F010F01010FFAA
:1005000010FF141414FF141010101F00000000F04E
:1005100010FFFFFFFFFFF0F0F0F0F0FFFFFF000023
:10052000000000FFFF0F0F0F0F0F38444438447CCA
:100530002A2A3E147E02020606027E027E026355CD
:100540004941633844443C04407E201E2006027E1C
:10055000020299A5E7A5991C2A492A1C4C7201722E
:100560004C304A4D4D303048784830BC625A463D98
:100570003E494949007E0101017E2A2A2A2A2A444D
:10058000445F444440514A444040444A5140000082
:10059000FF0103E080FF000008086B6B083612368D
:1005A0002436060F090F060000181800000010106E
:1005B000003040FF0101001F01011E00191D17122C
:1005C000003C3C3C3C0000000000F0F89C8E87831F
:1005D000878E9CF8F00000FEFF0303030303070E61
:1005E000FCF80000FEFF0303030303070EFCF80002
:1005F00000FFFF00000000000000FFFF0000FEFF02
:100600008383838383C7EE7C380000F8FC0E0703E6
:100610000303070EFCF800003F7FE0C08080C0E0CD
:100620007F3FFFFF01010101010101FFFF0000FF0A
:10063000FF0C0C0C0C1C3E77E3C100007FFFC0C018
:10064000C0C0C0E0703F1F00001F3F70E0C0C0C0CE
:10065000E0703F1F00007FFFC1C1C1C1C1E3773E11
:100660001C00001F3F70E0C0C0C0E0703F1F0000D2
:1006700000000001FFFF01000000D5F08D14A1C8AB
:1006800081CFD9F1AF2000080B000202020000095F
:1006900004000001020200000524001001052401ED
:1006A0000101042402060524060001070581031048
:1006B000004009040100020A000000070502024090
:1006C0000000070583024000000403090412010032
:1006D00002EF020140412336800001010203014183
:1006E000726475696E6F204C4C4300417264756290
:1006F0006F790000EF0911241FBECFEFDAE0DEBFF3
:10070000CDBF11E0A0E0B1E0E4E5F1E202C0059068
:100710000D92A433B107D9F725E0A4E3B1E001C0FD
:100720001D92AF3AB207E1F713E0CBE7D3E004C084
:100730002197FE010E94A210CA37D107C9F70E9473
:100740000C0A0C94A8100C940000EBE5F1E0A0E07A
:10075000B8E000800EBC8111012C1197A0FDFDCFE7
:100760000192B9F70DB4089580E0EBE5F1E0811155
:100770008FEF002481938193819381930394D1F728
:100780000895FC0180915A01882311F13FB7F89434
:1007900082E08093E9002091F200822F90E0181609
:1007A000190614F481E090E0882339F0289844E693
:1007B000409359014091F1004083222339F0209168
:1007C000F200211103C02BE62093E8003FBF0895FB
:1007D0008FEF9FEF08952FB7F89483E08093E9009F
:1007E0009091E800892F807295FF04C09091F200EB
:1007F00080E4891B2FBF08958091510181110DC0A4
:1008000082E080934D0184E080934E01109250016C
:1008100010924F0181E0809351018DE491E00895A1
:10082000CF93DF931F92CDB7DEB76983DC01ED91E3
:10083000FC910280F381E02D41E050E0BE016F5F4A
:100840007F4F09950F90DF91CF91089583E08093BA
:10085000E9008091F200882319F08AE38093E80090
:1008600008950E94EB0390E00895CF93DF931F92C9
:10087000CDB7DEB7FC018485958597FD08C02FEFC5
:100880003FEF358724870F90DF91CF910895CE01F8
:1008900001960E94C103019719F4898190E0F3CF7A
:1008A0008FEF9FEFF0CF0F931F93CF93DF931F92A4
:1008B000CDB7DEB78C01FC018485958597FF0BC011
:1008C000CE0101960E94C103019771F4898190E0E5
:1008D000F80195878487F801848595850F90DF91CD
:1008E000CF911F910F9108958FEF9FEFF1CFFC01F2
:1008F0008485958597FD0BC09FB7F89482E080931F
:10090000E9008091F2009FBF90E0019608959FB7A3
:10091000F89482E08093E9008091F2009FBF90E01C
:10092000089540914701509148012091450130912F
:10093000460142175307B4F49091E8009570E1F333
:100940009091E80092FD19C08093F10080914701D9
:100950009091480101968F739927892B19F48EEF96
:100960008093E8008091470190914801019690930F
:1009700048018093470181E0089580E00895DF9267
:10098000EF92FF920F931F93CF93DF93D82E8A019C
:10099000EB017B01E40EF51ECE15DF0559F0D7FE05
:1009A00012C0FE0184910E94910421968111F4CF1E
:1009B0000FEF1FEFC801DF91CF911F910F91FF90B3
:1009C000EF90DF9008958881EECF0F931F93CF9320
:1009D000DF931F92CDB7DEB782E0898342E450E017
:1009E00067E876E080E80E94BF040E94FC03DC0117
:1009F00012960D911C910115110589F0D801ED9108
:100A0000FC910280F381E02DBE016F5F7F4FC80132
:100A1000099597FD04C0F80100851185ECCF898107
:100A20000F90DF91CF911F910F910895615030F099
:100A30002091F100FC0120830196F8CF289884E6EC
:100A40008093590108953FB7F894809141019091A6
:100A50004201A0914301B091440126B5A89B05C075
:100A60002F3F19F00196A11DB11D3FBFBA2FA92F2D
:100A7000982F8827BC01CD01620F711D811D911D2A
:100A800042E0660F771F881F991F4A95D1F7089596
:100A90008F929F92AF92BF92CF92DF92EF92FF928E
:100AA0006B017C010E9423054B015C01C114D10440
:100AB000E104F104B9F00E942305681979098A0953
:100AC0009B09683E73408105910580F321E0C21ABD
:100AD000D108E108F10888EE880E83E0981EA11C79
:100AE000B11CE4CFFF90EF90DF90CF90BF90AF901C
:100AF0009F908F9008958F929F92AF92BF92CF92C6
:100B0000DF92EF92FF920F931F93CF93DF936C01CD
:100B10007B018A0180910D01882309F45CC08091DA
:100B20005A01882309F457C080914C0180FF05C009
:100B30008091E00082608093E000E801B12C8AEFB0
:100B4000A82E93E0892E2AE3922E209711F4BB2041
:100B5000D9F10E94EB0381110AC0AA94AA20D9F10D
:100B600061E070E080E090E00E944805EECF8C17D5
:100B70001D0611F00CF08C2F9FB7F8948092E900BD
:100B80002091E80025FD02C09FBFDFCF282F30E075
:100B9000C21BD30BF701815020F041914093F1002B
:100BA000FACFE20EF31EBB2021F09092E800B12CA8
:100BB000EBCF8091E80085FDE7CF9092E800BB2461
:100BC000B394209709F3F3CF5D9884E680934B01AB
:100BD000101611063CF081E090E0F60193838283C9
:100BE00010E000E0C801DF91CF911F910F91FF90BD
:100BF000EF90DF90CF90BF90AF909F908F9008952F
:100C0000AF92BF92CF92DF92EF92FF920F931F931A
:100C1000CF93DF936C017B018B01040F151FEB0158
:100C20005E01AE18BF08C017D10759F06991D6010F
:100C3000ED91FC910190F081E02DC6010995892B81
:100C400079F7C501DF91CF911F910F91FF90EF9040
:100C5000DF90CF90BF90AF9008952D9A0895BC017A
:100C600090E080E00C9448058FB18095807F669B72
:100C700088601C9B8460089590913401982329F426
:100C800090913501982381E009F480E0089580E097
:100C90000C94A50380389105B8F460347105A0F474
:100CA00020E191E061FD94E060FD990F62FD929575
:100CB000687F269FD0011124A80FA55ABE4F8C91A2
:100CC00040FF03C0892B8C93089590958923FBCF17
:100CD0008F929F92AF92BF92CF92DF92EF92FF924C
:100CE0000F931F93CF93DF936D3089F0C09038013D
:100CF000D09039016A30D1F4109237011092360148
:100D000088E0C80ED11CD0923901C092380181E030
:100D100090E0DF91CF911F910F91FF90EF90DF90C6
:100D2000CF90BF90AF909F908F9008950091360123
:100D300010913701E5E06E9FE0011124C653DF4FAB
:100D40004801F12CF5E0E12CFF1629F0CE010196C7
:100D5000FE01E490EC01B12CA12C4E2D4170B601A6
:100D60006A0D7B1DC4010E944A06E694FFEFAF1A8C
:100D7000BF0A88E0A816B10481F7F394EFEF8E1A4A
:100D80009E0AF6E0FF12DECF0A5F1F4F1093370175
:100D900000933601BCCF089590E080E008950C9454
:100DA000E70D1F920F920FB60F9211248F939F930E
:100DB0008091E1009091E100937F9093E10083FFA7
:100DC0000FC01092E90091E09093EB001092EC00BC
:100DD00092E39093ED0010925A0198E09093F00006
:100DE00082FF22C093E09093E9009091F200992352
:100DF00019F09AE39093E80090914B01992341F008
:100E000090914B01915090934B01911101C05D9ACB
:100E100090915901992341F09091590191509093EB
:100E20005901911101C0289A84FF18C08091E200F5
:100E30008E7E81608093E2008091E1008F7E8093BE
:100E4000E10080914C018E7E806180934C019F91E6
:100E50008F910F900FBE0F901F90189580FFF7CFC6
:100E60008091E2008E7E80618093E2008091E100BB
:100E70008E7E8093E10080914C018E7E8160E5CF73
:100E80001F920F920FB60F921124CF92DF92EF9222
:100E9000FF920F931F932F933F934F935F936F9303
:100EA0007F938F939F93AF93BF93EF93FF93CF93D2
:100EB000DF93CDB7DEB76C97DEBFCDBF1092E900F0
:100EC0008091E80083FF25C068E0CE0145960E942E
:100ED000160582EF8093E8008D8987FF39C09091D5
:100EE000E80090FFFCCF982F907609F034C19E89DE
:100EF0004F89588D2F89F88C911131C0803861F558
:100F000080914A018093F1001092F1008EEF80935E
:100F1000E8006C960FB6F894DEBF0FBECDBFDF9130
:100F2000CF91FF91EF91BF91AF919F918F917F9161
:100F30006F915F914F913F912F911F910F91FF9072
:100F4000EF90DF90CF900F900FBE0F901F901895ED
:100F50009EEF9093E800C7CF1092F100D5CF91306B
:100F600059F48111D3CF4130510581F680914A0166
:100F70008D7F80934A01CACF933049F48111C6CF47
:100F80004130510519F680914A018260F2CF9530C7
:100F900041F48091E80080FFFCCF20682093E300BB
:100FA000B5CF963009F0A9C00B8D1C8D22E01092B0
:100FB000E9001092480110924701F2122EC01092DF
:100FC0004601109245010E94E5041F8299E0998331
:100FD000FA8291E09E8390EA98879AEF9987209110
:100FE000470130914801275F3F4F3C832B838D831E
:100FF0001092E900109248011092470110934601A7
:101000000093450149E050E0BE016F5F7F4F80E0F3
:101010000E94BF040E94E50479CF1093460100931B
:1010200045010E94FC03DC0112960D911C910115F3
:10103000110509F451C1D801ED91FC910480F581AD
:10104000E02DBE016B5E7F4FC8010995009709F046
:101050003EC1F80100851185EACFF3E0FF120EC012
:101060008F89882309F440C0823061F440E867E04A
:101070008BEE96E00E94BC09811148CF81E28093FB
:10108000EB0047CF813029F440E86BE08FED96E02C
:10109000F1CF833099F70E94FC03DC011296ED90AA
:1010A000FC908E010F5F1F4F6801E114F10479F08D
:1010B000D701ED91FC910680F781E02DB801C701C1
:1010C0000995080F111DF701E084F184EECFD801D6
:1010D0001C92F60101900020E9F73197BF016C19CD
:1010E0007D0940E0C601C6CF69EC76E0FB01449182
:1010F00050E080E80E94BF0409CF973009F4BECFCA
:10110000983021F481E08093F10000CF993009F00C
:10111000FDCE837009F0B2CFEFE0F1E081E031E085
:1011200096E32191222371F08093E9003093EB0044
:10113000DF0111972C912093EC009093ED008F5FCD
:10114000873079F78EE78093EA001092EA008F8962
:1011500080935A01DBCE8B8D9C8D1092E90010920A
:101160004801109247019093460180934501898D73
:10117000811192C08E899D89913A49F4813209F09A
:101180007DCF47E050E066E071E080E0B3CF913280
:1011900009F074CF833269F48F89988DB0E0A0E0B4
:1011A0008093020190930301A0930401B093050181
:1011B000ADCE803269F48091E80082FFFCCF67E019
:1011C00086E091E00E9416058BEF8093E8009ECEAA
:1011D000823209F09BCE8F8980930D01EEEFFFE7FD
:1011E000859194918B3F9C4D51F1E0E0F8E0809126
:1011F000060190910701A0910801B0910901803B7F
:101200009440A105B105F1F480910D0180FD1AC053
:10121000EE3F8AE0F80789F587E797E791838083B7
:10122000809160008093490188E19BE00FB6F894BB
:10123000A895809360000FBE9093600067CEEEEF9C
:10124000FAE0D5CF808191818737974709F05ECE4C
:10125000A895809160008861809360008091490129
:1012600080936000EE3F2AE0F20789F08091FE0A49
:101270009091FF0A9183808349CE80819181873745
:10128000980751F29093FF0A8093FE0AC5CF1092FF
:10129000FF0A1092FE0A3ACE0E94FC03DC0112966D
:1012A0000D911C910115110509F4E8CED801ED91BD
:1012B000FC910190F081E02DBE016B5E7F4FC80173
:1012C0000995811123CEF80100851185EBCF181601
:1012D00019060CF41BCED2CEF1E0FF12BECE6DEC9F
:1012E00076E004CF1F920F920FB60F9211242F9326
:1012F0003F938F939F93AF93BF9380913D019091C4
:101300003E01A0913F01B091400130913C0123E0AA
:10131000230F2D3758F50196A11DB11D20933C01D7
:1013200080933D0190933E01A0933F01B093400113
:101330008091410190914201A0914301B0914401FB
:101340000196A11DB11D8093410190934201A0938C
:101350004301B0934401BF91AF919F918F913F9111
:101360002F910F900FBE0F901F90189526E8230F16
:101370000296A11DB11DD2CFEF92FF920F931F9342
:10138000CF93DF93F82E192FE62E042F81E0860FDE
:10139000880F0E94910483E00E949104CF2DD12FE9
:1013A000EC0EFD2EF11CCE15DF05B9F007FF13C0C2
:1013B000FE0184910E949104182F80E00E94910404
:1013C000812321968111EFCFDF91CF911F910F9152
:1013D000FF90EF9008958881EDCF81E0F5CFEBE5A8
:1013E000F5E01382128288EE93E0A0E0B0E08483FF
:1013F0009583A683B78389E191E0918380838FEF02
:101400009FEF95878487EBEAF5E0138212828BE2E7
:1014100091E0918380830895789484B5826084BD3F
:1014200084B5816084BD85B5826085BD85B58160E8
:1014300085BD80916E00816080936E001092810066
:101440008091810082608093810080918100816021
:1014500080938100809180008160809380008091E2
:1014600091008260809391008091910081608093CF
:101470009100809190008160809390008091C100E4
:1014800084608093C1008091C10082608093C1001C
:101490008091C10081608093C1008091C300816010
:1014A0008093C3008091C00082608093C0008091CF
:1014B000C20081608093C20080917A008460809332
:1014C0007A0080917A00826080937A0080917A001D
:1014D000816080937A0080917A00806880937A009E
:1014E00010925A0110924A0110924C018091D7003B
:1014F00081608093D70080EA8093D80089B58061AD
:1015000089BD89B5826089BD09B400FEFDCF61E067
:1015100070E080E090E00E9448058091D8008F7CC8
:1015200080618093D8008091E000807F8093E0000C
:101530008091E1008E7E8093E1008DE08093E20057
:10154000559A209A81EC80937C0085B1806F85B993
:1015500084B1877E84B984B1876E84B95E9A5F98BE
:101560008AB1806D8AB9769A6E9881B3806F81BB9B
:10157000899880B38D7080BB80E58CBD81E08DBD86
:1015800085E090E00E942F065F9A85E090E00E943F
:101590002F065E985C98EAE7F6E087E896E02491EB
:1015A0002EBD00000DB407FEFDCF31968E179F07AC
:1015B000B1F75C9A81E88093640080916500816056
:1015C000809365000E9447060E94340687FF15C07D
:1015D0005C9885EA8EBD00000DB407FEFDCF5C9AD5
:1015E0002E982F982D9880916400806280936400DB
:1015F00081E083BF889513BEFCCF0E94340682FF32
:1016000048C02D980E94340684788438E1F40E9402
:101610002D0688EC90E00E942F062F9882E090E043
:101620000E94E70D8F3F29F06FEF82E090E00E946B
:10163000EF0D84EF91E00E942F062F9A0E9434064E
:1016400084788438D9F30E94340684718431E1F4BB
:101650000E942D0688EC90E00E942F062E9882E0D2
:1016600090E00E94E70D882329F060E082E090E09E
:101670000E94EF0D84EF91E00E942F062E9A0E94A7
:10168000340684718431D9F388EC90E00E942F06EF
:10169000B4CF0E942D0682E090E00E94CF068823FE
:1016A00009F4B8C13E9A3F9A81E090E00E94CF06CB
:1016B000282F2470722E81FF11C021112E98C1EFA6
:1016C000DFEF08E010E05CE6E52EF12C0E94340626
:1016D00086FFA3C12E9A2F9A0E942D0682E390E0E6
:1016E0000E942F060E9434068111F8CF0E94B40395
:1016F0001092390110923801109237011092360180
:1017000081E090E0909301018093000141E065E267
:1017100070E088E590E00E944A0641E06BE170E0ED
:1017200088E590E00E944A0641E060E270E08DE5C5
:1017300090E00E944A0641E060E270E083E590E0BC
:101740000E944A0610E000E044244394512CC5E076
:10175000D0E0E6EF6E2E77247A94FCEFEF2EFF2494
:10176000FA94A8E52A2E312C0F5F1F4F22E0420E7B
:10177000511CE40CF51C480148E5840E911C41E025
:101780006E0150E2C50ED11CB601C4010E944A068A
:101790005101A01AB10A41E0B601C5010E944A06F2
:1017A00041E050E2C52ED12CCC1ADD0AB601C401AD
:1017B0000E944A0641E0B601C5010E944A0668013E
:1017C00080E2C80ED11C41E0B6015E0198E5A90E89
:1017D000B11CC5010E944A0641E0B6016101CC1A64
:1017E000DD0AC6010E944A0660E2862E912C801A0C
:1017F000910A41E0B401C5010E944A0641E0B401EA
:10180000C6010E944A060C171D070CF4C4C10E94B1
:10181000470680913501809334010E9434068093FD
:10182000350188E00E943C06882349F08091000140
:10183000909101010196909301018093000180E253
:101840000E943C06C0910001D0910101882369F0FB
:1018500080913A0190913B01181619060CF0A4C131
:10186000019790933B0180933A0180E40E943C06EB
:10187000882381F080913A0190913B019E01215093
:101880003109821793070CF091C1019690933B01A7
:1018900080933A010E94B4031092390110923801EA
:1018A0001092370110923601BE01DD0F880B990BA3
:1018B0000E94190F9B01AC016BED7FE089EC90E475
:1018C0000E946F0E6B017C0160913A0170913B01A7
:1018D000072E000C880B990B0E94190FA701960187
:1018E0000E94E40F4B015C0120E030E040E05FE348
:1018F000C701B6010E94E40F9B01AC01C501B40110
:101900000E94FE0D6B017C010E94511020E030E02E
:1019100040EC51E40E94E40F20E030E040E052E46B
:101920000E94FE0D0E94E10E2B01EB01C701B601E2
:101930000E946A0E20E030E040EC51E40E94E40F87
:1019400020E030E040E852E40E94FE0D0E94E10EEB
:101950008B016201E0E2CE1AD108D7FE03C0D19418
:10196000C194D1084B01F0E48F1A910897FE03C08F
:1019700091948194910880E490E030E2E32EF12C80
:101980008C149D043CF0EB01820180E290E040E485
:10199000E42EF12CCE15DF0554F0302F212F8C01D1
:1019A000832F922F3C2F2D2FE701E32EF22E1701CC
:1019B0002C1A3D0A2C01401A510A57FE03C05194BB
:1019C00041945108310137FE03C02FEF621A720AA9
:1019D00075946794081719070CF0EDC081E0A82EE4
:1019E000880FBB08EC16FD060CF4E7C041E0BE0111
:1019F000C8018C149D0414F0B801CE010E944A065F
:101A00006418750877FE04C00A0D1B1D620C731C58
:101A10002196E8CF3E983F9847CE772029F0C430F2
:101A2000D10511F42E9A2F9881E00E94A5039E0102
:101A3000D7FF04C0222733272C1B3D0B27703327E9
:101A4000CE01D7FD079643E0959587954A95E1F736
:101A5000D7FF05C00197A801421B530B9A01BC0197
:101A60007695762F662777956795655A7E4FB0E015
:101A7000A0E02801421A530A8E3F5FEF950709F450
:101A80003CC048E550E0FD01EE5DF94F5F014B01C0
:101A9000F0E88F0E911C8F3F9807A1F0F501E41B31
:101AA000F50BE4916701C41AD50AC60ED71EF0E003
:101AB0001F01022E01C0220C0A94EAF7F601608091
:101AC0002628208221153105A9F0F501E41BF50B2C
:101AD000E4916701C41AD50AC80CD91CF0E01F01B3
:101AE000042C02C0359427940A94E2F7F601608032
:101AF000262820824150510971F60196A85ABF4FFD
:101B000060587F4FA03BB10509F0B6CF0E94470651
:101B10008FE090E00E942F062196C931D10509F08F
:101B2000D5CD772011F02F9A2D9880E991E00E9471
:101B30002F060E942D0681E090E00E94CF0680FFD4
:101B4000CDCD8AE090E00E94CF069FEF980F9E3F98
:101B500008F0C4CD22E330E0309337012093360102
:101B600028E330E03093390120933801CBE0D0E016
:101B7000682F8BEA95E00E946806CE010E94CF068E
:101B80002196C131D105A1F70E94470688EE93E066
:101B90000E942F06A3CDF7FCE7CD2197F2E06F0E50
:101BA000711CE60CF71CE0CDCE015ACE10923B0121
:101BB00010923A016FCE8FEF12CF0E94470640E09D
:101BC00050E0452B09F425CE0E94000022CEF99961
:101BD000FECF92BD81BDF89A992780B50895262F32
:101BE000F999FECF1FBA92BD81BD20BD0FB6F89402
:101BF000FA9AF99A0FBE019608955058BB27AA2762
:101C00000E94150E0C94960F0E945D0F38F00E94F2
:101C1000640F20F039F49F3F19F426F40C945A0F06
:101C20000EF4E095E7FB0C94540FE92F0E94BB0FD4
:101C300058F3BA17620773078407950720F079F401
:101C4000A6F50C94DD0F0EF4E0950B2EBA2FA02D07
:101C50000B01B90190010C01CA01A0011124FF2759
:101C6000591B99F0593F50F4503E68F11A16F04054
:101C7000A22F232F342F4427585FF3CF4695379553
:101C80002795A795F0405395C9F77EF41F16BA0B18
:101C9000620B730B840BBAF09150A1F0FF0FBB1FC6
:101CA000661F771F881FC2F70EC0BA0F621F731F0F
:101CB000841F48F4879577956795B795F7959E3F6C
:101CC00008F0B0CF9395880F08F09927EE0F9795FD
:101CD000879508950E946D0FE3950C94A70F0E94BD
:101CE000830E0C94960F0E94640F58F00E945D0FB3
:101CF00040F029F45F3F29F00C94540F51110C94DB
:101D0000DE0F0C945A0F0E94BB0F68F39923B1F3B6
:101D1000552391F3951B550BBB27AA276217730711
:101D2000840738F09F5F5F4F220F331F441FAA1FA5
:101D3000A9F335D00E2E3AF0E0E832D09150504061
:101D4000E695001CCAF72BD0FE2F29D0660F771F0F
:101D5000881FBB1F261737074807AB07B0E809F0F5
:101D6000BB0B802DBF01FF2793585F4F3AF09E3F7A
:101D7000510578F00C94540F0C94DE0F5F3FE4F3A0
:101D8000983ED4F3869577956795B795F7959F5FBD
:101D9000C9F7880F911D9695879597F90895E1E009
:101DA000660F771F881FBB1F621773078407BA0768
:101DB00020F0621B730B840BBA0BEE1F88F7E095C3
:101DC00008950E94E80E6894B1110C94DE0F0895F6
:101DD0000E94C30F88F09F5798F0B92F9927B751E9
:101DE000B0F0E1F0660F771F881F991F1AF0BA95BF
:101DF000C9F714C0B13091F00E94DD0FB1E0089531
:101E00000C94DD0F672F782F8827B85F39F0B93F22
:101E1000CCF3869577956795B395D9F73EF4909571
:101E20008095709561957F4F8F4F9F4F0895E894EF
:101E300009C097FB3EF490958095709561957F4F12
:101E40008F4F9F4F9923A9F0F92F96E9BB279395C0
:101E5000F695879577956795B795F111F8CFFAF4D0
:101E6000BB0F11F460FF1BC06F5F7F4F8F4F9F4F01
:101E700016C0882311F096E911C0772321F09EE85F
:101E8000872F762F05C0662371F096E8862F70E0C5
:101E900060E02AF09A95660F771F881FDAF7880F9F
:101EA0009695879597F9089597F99F6780E870E070
:101EB00060E008959FEF80EC089500240A941616C0
:101EC000170618060906089500240A941216130628
:101ED0001406050608950C945A0F0E94C30FD8F3F8
:101EE000E894E0E0BB279F57F0F02AED3FE049EC93
:101EF00006C0EE0FBB0F661F771F881F28F0B23A8F
:101F000062077307840728F0B25A620B730B840BC5
:101F1000E3959A9572F7803830F49A95BB0F661F57
:101F2000771F881FD2F790480C945B10092E0394FA
:101F3000000C11F4882352F0BB0F40F4BF2B11F4B6
:101F400060FF04C06F5F7F4F8F4F9F4F0895EF93E7
:101F5000E0FF07C0A2EA2AED3FE049EC5FEB0E94F8
:101F6000150E0E94960F0F90039401FC9058ECEA16
:101F7000F0E00C94671057FD9058440F551F59F02E
:101F80005F3F71F04795880F97FB991F61F09F3F66
:101F900079F087950895121613061406551FF2CF8F
:101FA0004695F1DF08C0161617061806991FF1CFDF
:101FB00086957105610508940895E894BB27662706
:101FC0007727CB0197F908950E94F70F0C94960F8D
:101FD0000E945D0F38F00E94640F20F0952311F0ED
:101FE0000C94540F0C945A0F11240C94DE0F0E9481
:101FF000BB0F70F3959FC1F3950F50E0551F629F83
:10200000F001729FBB27F00DB11D639FAA27F00D51
:10201000B11DAA1F649F6627B00DA11D661F829F78
:102020002227B00DA11D621F739FB00DA11D621F5D
:10203000839FA00D611D221F749F3327A00D611D7A
:10204000231F849F600D211D822F762F6A2F11245C
:102050009F5750409AF0F1F088234AF0EE0FFF1F8F
:10206000BB1F661F771F881F91505040A9F79E3FE6
:10207000510580F00C94540F0C94DE0F5F3FE4F395
:10208000983ED4F3869577956795B795F795E7953C
:102090009F5FC1F7FE2B880F911D9695879597F945
:1020A00008959F930E946D0F0F9007FCEE5F0C94B4
:1020B000A70F9F3F31F0915020F487957795679552
:1020C000B795880F911D9695879597F908959F93D9
:1020D0008F937F936F93FF93EF939B01AC010E94CB
:1020E000E40FEF91FF910E947B102F913F914F9150
:1020F0005F910C94E40FDF93CF931F930F93FF92A4
:10210000EF92DF927B018C01689406C0DA2EEF011A
:102110000E94F70FFE01E894A59125913591459114
:102120005591A6F3EF010E94150EFE019701A8013B
:10213000DA9469F7DF90EF90FF900F911F91CF91A4
:10214000DF910895EE0FFF1F0590F491E02D0994A3
:04215000F894FFCF31
:102154000100FFFFFFFF00E100000000000000C1DC
:1021640080810000000000000010047B053104267B
:10217400047704350453040000000068060006CC0C
:0421840006CB060080
:00000001FF
