:100000000C947B030C94A3030C94A3030C94A30300
:100010000C94A3030C94A3030C94A3030C94A303C8
:100020000C94A3030C94A3030C94C50A0C94340BF6
:100030000C94A3030C94A3030C94A3030C94A303A8
:100040000C94A3030C94A3030C94A3030C94A30398
:100050000C94A3030C94A3030C94A3030C94660DBB
:100060000C94A3030C94A3030C94A3030C94A30378
:100070000C94A3030C94A3030C94A3030C94A30368
:100080000C94A3030C94A3030C94A3030C94A30358
:100090000C94A3030C94A3030C94A3030C94A30348
:1000A0000C94A3030C94A3030C94A30305A84CCDB8
:1000B000B2D44EB93836A9020C50B9918688083CA2
:1000C000A6AAAA2ABE000000803F00000000003E51
:1000D0005B4F5B3E3E6B4F6B3E1C3E7C3E1C183CB8
:1000E0007E3C181C577D571C1C5E7F5E1C00183C14
:1000F0001800FFE7C3E7FF0018241800FFE7DBE75D
:10010000FF30483A060E2629792926407F05050743
:10011000407F05253F5A3CE73C5A7F3E1C1C08089F
:100120001C1C3E7F14227F22145F5F005F5F060964
:100130007F017F006689956A606060606094A2FFBD
:10014000A29408047E040810207E201008082A1CAF
:1001500008081C2A08081E101010100C1E0C1E0C7B
:1001600030383E3830060E3E0E060000000000001B
:10017000005F00000007000700147F147F14242A8A
:100180007F2A12231308646236495620500008075C
:100190000300001C2241000041221C002A1C7F1C7D
:1001A0002A08083E0808008070300008080808087F
:1001B000000060600020100804023E5149453E00E6
:1001C000427F400072494949462141494D33181444
:1001D000127F1027454545393C4A49493141211193
:1001E00009073649494936464949291E0000140085
:1001F00000004034000000081422411414141414A8
:10020000004122140802015909063E415D594E7C05
:100210001211127C7F494949363E414141227F41BA
:1002200041413E7F494949417F090909013E414118
:1002300051737F0808087F00417F41002040413F03
:10024000017F081422417F404040407F021C027F12
:100250007F0408107F3E4141413E7F090909063E67
:100260004151215E7F091929462649494932030136
:100270007F01033F4040403F1F2040201F3F403848
:10028000403F631408146303047804036159494D23
:1002900043007F4141410204081020004141417F59
:1002A00004020102044040404040000307080020CF
:1002B000545478407F2844443838444444283844CF
:1002C00044287F385454541800087E090218A4A406
:1002D0009C787F0804047800447D40002040403D25
:1002E000007F1028440000417F40007C047804789F
:1002F0007C080404783844444438FC182424181832
:10030000242418FC7C08040408485454542404048D
:100310003F44243C4040207C1C2040201C3C40307A
:10032000403C44281028444C9090907C4464544CA9
:100330004400083641000000770000004136080004
:1003400002010204023C2623263C1EA1A161123AAE
:100350004040207A385454555921555579412154FB
:10036000547841215554784020545579400C1E5200
:1003700072123955555559395454545939555454A4
:10038000580000457C410002457D420001457C400B
:10039000F0292429F0F0282528F07C545545002028
:1003A00054547C547C0A097F4932494949323248C5
:1003B000484832324A4848303A4141217A3A42402C
:1003C0002078009DA0A07D39444444393D40404000
:1003D0003D3C24FF2424487E4943662B2FFC2F2BD1
:1003E000FF0929F620C0887E090320545479410072
:1003F00000447D413048484A32384040227A007AF1
:100400000A0A727D0D19317D2629292F28262929CE
:10041000292630484D4020380808080808080808F0
:10042000382F10C8ACBA2F102834FA00007B000017
:1004300008142A142222142A14089500220095AACE
:10044000005500AAAA55AA55AA000000FF001010E6
:1004500010FF00141414FF001010FF00FF1010F024
:1004600010F0141414FC001414F700FF0000FF0037
:10047000FF1414F404FC141417101F10101F101F85
:100480001414141F00101010F0000000001F1010B2
:1004900010101F10101010F010000000FF101010AE
:1004A000101010101010FF10000000FF140000FFCB
:1004B00000FF00001F10170000FC04F414141710B4
:1004C000171414F404F40000FF00F71414141414A7
:1004D0001414F700F7141414171410101F101F141D
:1004E0001414F4141010F010F000001F101F00007E
:1004F000001F14000000FC140000F010F01010FFAA
:1005000010FF141414FF141010101F00000000F04E
:1005100010FFFFFFFFFFF0F0F0F0F0FFFFFF000023
:10052000000000FFFF0F0F0F0F0F38444438447CCA
:100530002A2A3E147E02020606027E027E026355CD
:100540004941633844443C04407E201E2006027E1C
:10055000020299A5E7A5991C2A492A1C4C7201722E
:100560004C304A4D4D303048784830BC625A463D98
:100570003E494949007E0101017E2A2A2A2A2A444D
:10058000445F444440514A444040444A5140000082
:10059000FF0103E080FF000008086B6B083612368D
:1005A0002436060F090F060000181800000010106E
:1005B000003040FF0101001F01011E00191D17122C
:1005C000003C3C3C3C0000000000F0F89C8E87831F
:1005D000878E9CF8F00000FEFF0303030303070E61
:1005E000FCF80000FEFF0303030303070EFCF80002
:1005F00000FFFF00000000000000FFFF0000FEFF02
:100600008383838383C7EE7C380000F8FC0E0703E6
:100610000303070EFCF800003F7FE0C08080C0E0CD
:100620007F3FFFFF01010101010101FFFF0000FF0A
:10063000FF0C0C0C0C1C3E77E3C100007FFFC0C018
:10064000C0C0C0E0703F1F00001F3F70E0C0C0C0CE
:10065000E0703F1F00007FFFC1C1C1C1C1E3773E11
:100660001C00001F3F70E0C0C0C0E0703F1F0000D2
:1006700000000001FFFF01000000D5F08D14A1C8AB
:1006800081CFD9F1AF2000080B000202020000095F
:1006900004000001020200000524001001052401ED
:1006A0000101042402060524060001070581031048
:1006B000004009040100020A000000070502024090
:1006C0000000070583024000000403090412010032
:1006D00002EF020140412336800001010203014183
:1006E000726475696E6F204C4C4300417264756290
:1006F0006F790000E30D11241FBECFEFDAE0DEBFFB
:10070000CDBF11E0A0E0B1E0EAE6F2E302C005905F
:100710000D92AE38B107D9F727E0AEE8B1E001C0DD
:100720001D92A735B207E1F713E0CBE7D3E004C091
:100730002197FE010E942D19CA37D107C9F70E94DF
:10074000000E0C9433190C9400002F923F924F929C
:100750005F926F927F928F929F92AF92BF92CF9251
:10076000DF92EF92FF920F931F93CF93DF93EC01F1
:100770003B015A01DA011D921C92FB011182108289
:1007800030E020E0F12CE12C2C173D070CF04FC09D
:100790006901F2E0CF0ED11CE2E0F0E0CE17DF07F6
:1007A0000CF442C01F013594279410E000E046018C
:1007B00041E0841A9108C801820F931FBE010E9474
:1007C0000519880F991FDC01A85EBE4F2D01C401D9
:1007D000801B910BBE010E940519DC01AA0FBB1FF3
:1007E000AD01485E5E4FD2018D919C91DA014D9131
:1007F0005C918417950799F40F5F1F4F20163106FF
:10080000D1F6EE16FF065CF4D3012D933C93C401A0
:10081000BE010E940519D5018D939C937F013296EC
:10082000B2E0CB0ED11CBACF2F5F3F4FADCFC70187
:10083000DF91CF911F910F91FF90EF90DF90CF90BC
:10084000BF90AF909F908F907F906F905F904F90F0
:100850003F902F900895E3E0F3E0A0E0B8E000803F
:100860000EBC8111012C1197A0FDFDCF0192B9F7AB
:100870000DB40895FC0180910203882311F13FB764
:10088000F89482E08093E9002091F200822F90E0BA
:100890001816190614F481E090E0882339F028989E
:1008A00044E6409301034091F1004083222339F054
:1008B0002091F200211103C02BE62093E8003FBFF6
:1008C00008958FEF9FEF08952FB7F89483E08093FA
:1008D000E9009091E800892F807295FF04C0909103
:1008E000F20080E4891B2FBF08958091F9028111E5
:1008F0000DC082E08093F50284E08093F6021092AE
:10090000F8021092F70281E08093F90285EF92E0FD
:100910000895CF93DF931F92CDB7DEB76983DC01D3
:10092000ED91FC910280F381E02D41E050E0BE01A9
:100930006F5F7F4F09950F90DF91CF91089583E00E
:100940008093E9008091F200882319F08AE3809374
:10095000E80008950E94640490E00895CF93DF9327
:100960001F92CDB7DEB7FC018485958597FD08C041
:100970002FEF3FEF358724870F90DF91CF910895B8
:10098000CE0101960E943A04019719F4898190E002
:10099000F3CF8FEF9FEFF0CF0F931F93CF93DF93A2
:1009A0001F92CDB7DEB78C01FC018485958597FF3A
:1009B0000BC0CE0101960E943A04019771F489811F
:1009C00090E0F80195878487F801848595850F90DC
:1009D000DF91CF911F910F9108958FEF9FEFF1CF8E
:1009E000FC018485958597FD0BC09FB7F89482E044
:1009F0008093E9008091F2009FBF90E001960895F6
:100A00009FB7F89482E08093E9008091F2009FBF45
:100A100090E008954091EF025091F0022091ED0294
:100A20003091EE0242175307B4F49091E8009570AC
:100A3000E1F39091E80092FD19C08093F10080915C
:100A4000EF029091F00201968F739927892B19F488
:100A50008EEF8093E8008091EF029091F002019672
:100A60009093F0028093EF0281E0089580E0089572
:100A7000DF92EF92FF920F931F93CF93DF93D82EC5
:100A80008A01EB017B01E40EF51ECE15DF0559F05E
:100A9000D7FE12C0FE0184910E940A0521968111A1
:100AA000F4CF0FEF1FEFC801DF91CF911F910F918E
:100AB000FF90EF90DF9008958881EECF0F931F9302
:100AC000CF93DF931F92CDB7DEB782E0898342E4F4
:100AD00050E067E876E080E80E9438050E947504DF
:100AE000DC0112960D911C910115110589F0D801B8
:100AF000ED91FC910280F381E02DBE016F5F7F4F8D
:100B0000C801099597FD04C0F80100851185ECCF57
:100B100089810F90DF91CF911F910F9108956150BE
:100B200030F02091F100FC0120830196F8CF289845
:100B300084E68093010308953FB7F8948091E90219
:100B40009091EA02A091EB02B091EC0226B5A89B2D
:100B500005C02F3F19F00196A11DB11D3FBFBA2F4F
:100B6000A92F982F8827BC01CD01620F711D811D0F
:100B7000911D42E0660F771F881F991F4A95D1F794
:100B800008958F929F92AF92BF92CF92DF92EF9291
:100B9000FF926B017C010E949C054B015C01C1141A
:100BA000D104E104F104B9F00E949C0568197909A7
:100BB0008A099B09683E73408105910580F321E015
:100BC000C21AD108E108F10888EE880E83E0981E69
:100BD000A11CB11CE4CFFF90EF90DF90CF90BF90AD
:100BE000AF909F908F9008958F929F92AF92BF92F7
:100BF000CF92DF92EF92FF920F931F93CF93DF93E9
:100C00006C017B018A0180911701882309F45CC083
:100C100080910203882309F457C08091F40280FF79
:100C200005C08091E00082608093E000E801B12C73
:100C30008AEFA82E93E0892E2AE3922E209711F4B2
:100C4000BB20D9F10E94640481110AC0AA94AA2091
:100C5000D9F161E070E080E090E00E94C105EECF44
:100C60008C171D0611F00CF08C2F9FB7F894809212
:100C7000E9002091E80025FD02C09FBFDFCF282FAB
:100C800030E0C21BD30BF701815020F0419140931B
:100C9000F100FACFE20EF31EBB2021F09092E800A3
:100CA000B12CEBCF8091E80085FDE7CF9092E80072
:100CB000BB24B394209709F3F3CF5D9884E6809327
:100CC000F302101611063CF081E090E0F6019383E8
:100CD000828310E000E0C801DF91CF911F910F9156
:100CE000FF90EF90DF90CF90BF90AF909F908F904C
:100CF0000895AF92BF92CF92DF92EF92FF920F933F
:100D00001F93CF93DF936C017B018B01040F151FA1
:100D1000EB015E01AE18BF08C017D10759F0699109
:100D2000D601ED91FC910190F081E02DC60109956D
:100D3000892B79F7C501DF91CF911F910F91FF901A
:100D4000EF90DF90CF90BF90AF9008952D9A0895C7
:100D5000BC0190E080E00C94C1058FB18095807F4C
:100D6000669B88601C9B8460089580E0E3E0F3E06C
:100D700081118FEF00248193819381938193039458
:100D8000D1F71092AB021092AA021092AD0210920B
:100D9000AC0208959091AE02982329F49091AF028D
:100DA000982381E009F480E0089580E00C942B04FE
:100DB00080389105B8F460347105A0F420E191E029
:100DC00061FD94E060FD990F62FD9295687F269F1A
:100DD000D0011124A80FAD5FBC4F8C9140FF03C020
:100DE000892B8C93089590958923FBCF2F923F9266
:100DF0004F925F926F927F928F929F92AF92BF922B
:100E0000CF92DF92EF92FF920F931F93CF93DF93D6
:100E1000EC018B017A016901C61AD70AD7FE03C01B
:100E2000D194C194D10847018C1A9D0A97FE03C042
:100E30009194819491088C149D0454F49E2D8F2DCF
:100E40007901292F382F9C2F8D2FE801092F182F7A
:100E5000EC16FD0654F4902F812F8901292F382F8D
:100E60009C2F8D2FE701E92EF82E17012C1A3D0A31
:100E70002901401A510A57FE03C051944194510868
:100E8000310137FE03C08FEF681A780A75946794B2
:100E90008FEF021713070CF481E0A82E880FBB0810
:100EA000EC16FD06A4F041E0BE01C8018C149D04BF
:100EB00014F0B801CE010E94D8066418750877FEB8
:100EC00004C00A0D1B1D620C731C2196E9CFDF9133
:100ED000CF911F910F91FF90EF90DF90CF90BF9037
:100EE000AF909F908F907F906F905F904F903F90CA
:100EF0002F9008958F929F92AF92BF92CF92DF92E0
:100F0000EF92FF920F931F93CF93DF936D3089F091
:100F1000C090AA02D090AB026A30D1F41092AD0218
:100F20001092AC0288E0C80ED11CD092AB02C092E5
:100F3000AA0281E090E0DF91CF911F910F91FF9085
:100F4000EF90DF90CF90BF90AF909F908F900895DB
:100F50000091AC021091AD02E5E06E9FE00111241A
:100F6000C653DF4F4801F12CF5E0E12CFF1629F0C4
:100F7000CE010196FE01E490EC01B12CA12C4E2D86
:100F80004170B6016A0D7B1DC4010E94D806E6942B
:100F9000FFEFAF1ABF0A88E0A816B10481F7F394F7
:100FA000EFEF8E1A9E0AF6E0FF12DECF0A5F1F4FA8
:100FB0001093AD020093AC02BCCFFC01CB01209199
:100FC000070130910801B9010E940519AC01440FD5
:100FD000551FE40FF51F215031098217930734F490
:100FE00042815381419351930196F7CF3093080189
:100FF000209307010895089590E080E008958F926E
:101000009F92AF92BF920F931F93CF93DF93CDB771
:10101000DEB7A1970FB6F894DEBF0FBECDBF19A201
:10102000423008F44AE08E010F5D1F4F842E912C50
:10103000B12CA12CA50194010E942F16E62FB90115
:10104000CA01EA3044F5E05DD801EE938D01232B0F
:10105000242B252B79F790E080E0109769F0FD01B3
:1010600001900020E9F73197AF014A1B5B0BBD01EE
:1010700083E597E00E947906A1960FB6F894DEBF4B
:101080000FBECDBFDF91CF911F910F91BF90AF9059
:101090009F908F900895E95CD7CFFC0101900020CC
:1010A000E9F73197AF01481B590BBC0183E597E085
:1010B0000C947906CF92DF92EF92FF92CF93DF9359
:1010C0006C01990FEE08FF08F7FE19C06DE283E589
:1010D00097E00E947A07EC0166277727CB016C190D
:1010E0007D098E099F094AE00E94FF078C0F9D1F12
:1010F000DF91CF91FF90EF90DF90CF9008954AE07D
:10110000C701B601DF91CF91FF90EF90DF90CF90B4
:101110000C94FF072F923F924F925F926F927F92B3
:101120008F929F92AF92BF92CF92DF92EF92FF92F7
:101130000F931F93CF93DF9300D000D000D0CDB793
:10114000DEB78C017E836D833A016B5F7F4F41E098
:101150000E94D8066D817E816550710941E0C80109
:101160000E94D80641E06D817E81C80105960E94EB
:10117000D80641E06D817E81C80105970E94D8069E
:1011800081E090E09A838983D12CC12C85E0E82E00
:10119000F12C86EF9FEF9C838B839CEFA92EBB24C1
:1011A000BA949FEFC91AD90A89819A8102969A83C3
:1011B0008983A80EB91E2601400E511E41E08D8084
:1011C0009E808E0C9F1CB401C2010E94D80618019B
:1011D0002C183D0841E0B401C1010E94D80641E04D
:1011E0008D809E808E189F08B401C2010E94D8068F
:1011F00041E0B401C1010E94D8068D809E808C0C14
:101200009D1C41E0B40128014E0C5F1CC2010E94EC
:10121000D80641E0B40118012E183F08C1010E9410
:10122000D8068D809E808C189D0841E0B401C201D3
:101230000E94D80641E0B401C1010E94D806CE1434
:10124000DF04B4F1C80102979093AD028093AC0221
:101250008D819E8103979093AB028093AA029FEFAA
:101260006916790691F589E691E00E944D086D8135
:101270007E816C5F7F4F41E0C801039626960FB6D2
:10128000F894DEBF0FBECDBFDF91CF911F910F91BC
:10129000FF90EF90DF90CF90BF90AF909F908F9096
:1012A0007F906F905F904F903F902F900C94D80656
:1012B000B7FC77CF91E0E91AF1088B819C81029607
:1012C0009C838B83A80EB91E6CCF8EEF68168FEFB0
:1012D000780619F48BE691E0C8CFC3010E945A0842
:1012E000C6CFEF92FF920F931F93CF93DF938C01A2
:1012F0007B01CB010E945A0887E791E00E944D08CC
:10130000E80110E000E00E151F053CF48991999169
:101310000E945A080F5F1F4FF6CF8DE691E0DF91D4
:10132000CF911F910F91FF90EF900C944D082F9249
:101330003F924F925F926F927F928F929F92AF9265
:10134000BF92CF92DF92EF92FF920F931F93CF93B2
:10135000DF937C01EB018A01190160910701709113
:101360000801072E000C880B990B0E947C179B012B
:10137000AC016BED7FE089EC90E40E94D2164B014A
:101380005C01B701FF0C880B990B0E947C179B0135
:10139000AC01C501B4010E9447186B017C010E9499
:1013A000CD164B015C01BE01DD0F880B990B0E942D
:1013B0007C172B013C01AC019B01C501B4010E94CB
:1013C000471820E030E040E852E40E9461160E9495
:1013D0004417F80171836083C701B6010E94B418F5
:1013E0009B01AC01C301B2010E94471820E030E02C
:1013F00040E052E40E9461160E944417F10171839B
:101400006083DF91CF911F910F91FF90EF90DF905C
:10141000CF90BF90AF909F908F907F906F905F9094
:101420004F903F902F9008954F925F926F927F92CE
:101430008F929F92AF92BF92CF92DF92EF92FF92E4
:10144000CF93DF9300D000D0CDB7DEB76B017C0126
:101450006091070170910801072E000C880B990B11
:101460000E947C179B01AC016BED7FE089EC90E45E
:101470000E94D2164B015C016091B7027091B802D4
:10148000072E000C880B990B0E947C17A501940174
:101490000E9447182B013C01A7019601C501B40128
:1014A0000E9447189B01AC01C301B2010E94611662
:1014B0006B017C010E94B4184B015C01C701B601AD
:1014C0000E94CD166B017C0120E030E040EC51E43D
:1014D000C501B4010E94471820E030E040E052E42A
:1014E0000E9461160E9444172B0120E030E040EC7E
:1014F00051E4C701B6010E94471820E030E040E8FF
:1015000052E40E9461160E94441769837A838B8398
:101510009C8320E030E040E251E4C501B4010E9428
:10152000471820E030E040E052E40E9461160E943B
:1015300044174B0120E030E040E251E4C701B6011E
:101540000E94471820E030E040E852E40E94611613
:101550000E944417CB01920149815A81B4010F9036
:101560000F900F900F90DF91CF91FF90EF90DF9051
:10157000CF90BF90AF909F908F907F906F905F9033
:101580004F900C94F6060C94E7151F920F920FB62D
:101590000F9211248F939F938091E1009091E1002D
:1015A000937F9093E10083FF0FC01092E90091E0D8
:1015B0009093EB001092EC0092E39093ED00109268
:1015C000020398E09093F00082FF22C093E0909392
:1015D000E9009091F200992319F09AE39093E800C2
:1015E0009091F302992341F09091F30291509093DE
:1015F000F302911101C05D9A90910103992341F08A
:1016000090910103915090930103911101C0289A88
:1016100084FF18C08091E2008E7E81608093E2009A
:101620008091E1008F7E8093E1008091F4028E7EB4
:1016300080618093F4029F918F910F900FBE0F9065
:101640001F90189580FFF7CF8091E2008E7E806119
:101650008093E2008091E1008E7E8093E100809192
:10166000F4028E7E8160E5CF1F920F920FB60F922B
:101670001124CF92DF92EF92FF920F931F932F933B
:101680003F934F935F936F937F938F939F93AF930A
:10169000BF93EF93FF93CF93DF93CDB7DEB76C97F4
:1016A000DEBFCDBF1092E9008091E80083FF25C026
:1016B00068E0CE0145960E948F0582EF8093E80096
:1016C0008D8987FF39C09091E80090FFFCCF982F5B
:1016D000907609F034C19E894F89588D2F89F88CF6
:1016E000911131C0803861F58091F2028093F10050
:1016F0001092F1008EEF8093E8006C960FB6F8948C
:10170000DEBF0FBECDBFDF91CF91FF91EF91BF91B3
:10171000AF919F918F917F916F915F914F913F9189
:101720002F911F910F91FF90EF90DF90CF900F902E
:101730000FBE0F901F9018959EEF9093E800C7CFB3
:101740001092F100D5CF913059F48111D3CF4130AF
:10175000510581F68091F2028D7F8093F202CACF0B
:10176000933049F48111C6CF4130510519F680916B
:10177000F2028260F2CF953041F48091E80080FF60
:10178000FCCF20682093E300B5CF963009F0A9C0C4
:101790000B8D1C8D22E01092E9001092F002109245
:1017A000EF02F2122EC01092EE021092ED020E9491
:1017B0005E051F8299E09983FA8291E09E8390EA08
:1017C00098879AEF99872091EF023091F002275F76
:1017D0003F4F3C832B838D831092E9001092F002DF
:1017E0001092EF021093EE020093ED0249E050E0F8
:1017F000BE016F5F7F4F80E00E9438050E945E054A
:1018000079CF1093EE020093ED020E947504DC0183
:1018100012960D911C910115110509F451C1D801C1
:10182000ED91FC910480F581E02DBE016B5E7F4F50
:10183000C8010995009709F03EC1F801008511859E
:10184000EACFF3E0FF120EC08F89882309F440C06D
:10185000823061F440E867E08BEE96E00E94B00DC4
:10186000811148CF81E28093EB0047CF813029F48A
:1018700040E86BE08FED96E0F1CF833099F70E945E
:101880007504DC011296ED90FC908E010F5F1F4FE6
:101890006801E114F10479F0D701ED91FC91068023
:1018A000F781E02DB801C7010995080F111DF70157
:1018B000E084F184EECFD8011C92F6010190002063
:1018C000E9F73197BF016C197D0940E0C601C6CF29
:1018D00069EC76E0FB01449150E080E80E94380515
:1018E00009CF973009F4BECF983021F481E080937E
:1018F000F10000CF993009F0FDCE837009F0B2CF2E
:10190000E5E4F1E081E031E096E32191222371F0FA
:101910008093E9003093EB00DF0111972C91209325
:10192000EC009093ED008F5F873079F78EE780931E
:10193000EA001092EA008F8980930203DBCE8B8D40
:101940009C8D1092E9001092F0021092EF02909399
:10195000EE028093ED02898D811192C08E899D895E
:10196000913A49F4813209F07DCF47E050E060E1DF
:1019700071E080E0B3CF913209F074CF833269F423
:101980008F89988DB0E0A0E080930C0190930D01B9
:10199000A0930E01B0930F01ADCE803269F4809117
:1019A000E80082FFFCCF67E080E191E00E948F05B4
:1019B0008BEF8093E8009ECE823209F09BCE8F8918
:1019C00080931701EEEFFFE7859194918B3F9C4D3B
:1019D00051F1E0E0F8E08091100190911101A091A7
:1019E0001201B0911301803B9440A105B105F1F4BF
:1019F0008091170180FD1AC0EE3F8AE0F80789F553
:101A000087E797E791838083809160008093F1025C
:101A100088E19BE00FB6F894A895809360000FBE14
:101A20009093600067CEEEEFFAE0D5CF8081918190
:101A30008737974709F05ECEA8958091600088614E
:101A4000809360008091F10280936000EE3F2AE075
:101A5000F20789F08091FE0A9091FF0A91838083BA
:101A600049CE808191818737980751F29093FF0A80
:101A70008093FE0AC5CF1092FF0A1092FE0A3ACE5A
:101A80000E947504DC0112960D911C91011511053F
:101A900009F4E8CED801ED91FC910190F081E02DA0
:101AA000BE016B5E7F4FC8010995811123CEF801FD
:101AB00000851185EBCF181619060CF41BCED2CE7B
:101AC000F1E0FF12BECE6DEC76E004CF1F920F92D4
:101AD0000FB60F9211242F933F938F939F93AF9341
:101AE000BF938091E5029091E602A091E702B09148
:101AF000E8023091E40223E0230F2D3758F50196D8
:101B0000A11DB11D2093E4028093E5029093E602AB
:101B1000A093E702B093E8028091E9029091EA0273
:101B2000A091EB02B091EC020196A11DB11D809332
:101B3000E9029093EA02A093EB02B093EC02BF910A
:101B4000AF919F918F913F912F910F900FBE0F906A
:101B50001F90189526E8230F0296A11DB11DD2CF24
:101B6000EF92FF920F931F93CF93DF93F82E192FCD
:101B7000E62E042F81E0860F880F0E940A0583E07D
:101B80000E940A05CF2DD12FEC0EFD2EF11CCE1593
:101B9000DF05B9F007FF13C0FE0184910E940A051A
:101BA000182F80E00E940A05812321968111EFCF32
:101BB000DF91CF911F910F91FF90EF900895888151
:101BC000EDCF81E0F5CFE3E0F7E01382128288EEFB
:101BD00093E0A0E0B0E084839583A683B7838FE48D
:101BE00091E0918380838FEF9FEF95878487E3E572
:101BF000F7E01382128281E691E091838083089559
:101C0000CF93DF93CDB7DEB72E970FB6F894DEBF34
:101C10000FBECDBF789484B5826084BD84B58160E9
:101C200084BD85B5826085BD85B5816085BD8091A7
:101C30006E00816080936E0010928100809181001F
:101C40008260809381008091810081608093810017
:101C500080918000816080938000809191008260FB
:101C60008093910080919100816080939100809198
:101C700090008160809390008091C1008460809387
:101C8000C1008091C10082608093C1008091C10039
:101C900081608093C1008091C30081608093C30004
:101CA0008091C00082608093C0008091C2008160FA
:101CB0008093C20080917A00846080937A00809142
:101CC0007A00826080937A0080917A0081608093AC
:101CD0007A0080917A00806880937A0010920203E3
:101CE0001092F2021092F4028091D70081608093EA
:101CF000D70080EA8093D80089B5806189BD89B515
:101D0000826089BD09B400FEFDCF61E070E080E033
:101D100090E00E94C1058091D8008F7C8061809303
:101D2000D8008091E000807F8093E0008091E10006
:101D30008E7E8093E1008DE08093E200559A209A98
:101D400081EC80937C0085B1806F85B984B1877EFA
:101D500084B984B1876E84B95E9A5F988AB1806DC8
:101D60008AB9769A6E9881B3806F81BB899880B367
:101D70008D7080BB80E58CBD81E08DBD85E090E0FD
:101D80000E94A8065F9A85E090E00E94A8065E98EF
:101D90005C98EAE7F6E084918EBD00000DB407FE82
:101DA000FDCF319606E0E738F007A9F75C9A81E8A5
:101DB00080936400809165008160809365000E943B
:101DC000D5060E94AD0687FF15C05C9885EA8EBDDA
:101DD00000000DB407FEFDCF5C9A2E982F982D9829
:101DE0008091640080628093640081E083BF889565
:101DF00013BEFCCF0E94AD0682FF48C02D980E9402
:101E0000AD0684788438E1F40E94A60688EC90E060
:101E10000E94A8062F9882E090E00E94E7158F3F6D
:101E200029F06FEF82E090E00E94EF1584EF91E0DF
:101E30000E94A8062F9A0E94AD0684788438D9F3B0
:101E40000E94AD0684718431E1F40E94A60688ECFC
:101E500090E00E94A8062E9882E090E00E94E7158C
:101E6000882329F060E082E090E00E94EF1584EF83
:101E700091E00E94A8062E9A0E94AD0684718431DA
:101E8000D9F388EC90E00E94A806B4CF0E94A60681
:101E900082E090E00E94C30A882309F470C03E9A51
:101EA0003F9A81E090E00E94C30A182F1470512ECF
:101EB00081FF0FC011112E9801EF1FEFB8E0AB2E7C
:101EC000B12C0E94AD0686FF5DC02E9A2F9A0E940B
:101ED000A60682E390E00E94A8060E94AD0681114A
:101EE000F8CF0E94B50680E18093000180916400E4
:101EF0008E7F8093640080917A00806480937A0062
:101F000080917A0086FDFCCF0091780010917900D5
:101F10000E949C05AB01BC01C801B0E0A0E0DC015F
:101F2000992788278C019D01040F151F261F371F35
:101F3000C901B801209164002160209364006115FB
:101F400071058105910511F00E94DE158FB7F89497
:101F50004091E5025091E6026091E7027091E8023B
:101F60008FBF80919001882309F4CFC01092900117
:101F700080E090E0892B51F30E940000E7CF3E986B
:101F80003F988FCF552029F00430110511F42E9A77
:101F90002F9881E00E942B04980117FF04C022278C
:101FA0003327201B310B27703327C80117FD0796F5
:101FB000A3E095958795AA95E1F717FF05C00197CE
:101FC000A501421B530B9A01BC017695762F66271B
:101FD000779567956D5F7C4FB0E0A0E01501221A00
:101FE000330A8E3F5FEF950709F43FC07B0150E055
:101FF00040E0FD01E653FA4F4F013B01F0E86F0E60
:10200000711C8F3F980779F0F401E40FF51FE491FC
:10201000F0E06F01022E01C0CC0C0A94EAF7F70140
:10202000D488CD28C48A21153105B9F0F401E40F14
:10203000F51F44906301C40ED51EE42DF0E0022C80
:1020400002C0F595E7950A94E2F7FE87ED87F60161
:102050004488FD854F2AF601448A4F5F5F4FFFEFAA
:10206000EF1AFF0A4835510561F60196A85ABF4F8D
:1020700060587F4FA03BB10509F0B3CF0E94D50651
:102080008FE090E00E94A8060F5F1F4F09311105F5
:1020900009F017CF552011F02F9A2D9880E991E083
:1020A0000E94A8060E94A60681E090E00E94C30A52
:1020B00080FF0FCF8AE090E00E94C30A9FEF980F45
:1020C0009E3F08F006CF22E330E03093AD0220932C
:1020D000AC0228E330E03093AB022093AA020BE07D
:1020E00010E0682F83E597E00E947A07C8010E94FC
:1020F000C30A0F5F1F4F0131110599F70E94D506E2
:1021000088EE93E00E94A806E4CE80919101142FFE
:10211000181B812F90910001191748F48F5F8917C0
:1021200008F026CF81E083BF889513BE21CF11E050
:10213000109390014093910180918E0190918F01B5
:10214000019690938F0180938E018091AF028093CE
:10215000AE020E94AD068093AF0280E10E94CA06E3
:10216000882329F080910B01812780930B01209017
:10217000E2023090E30221E02216310499F50E9438
:10218000B506609107017091080188E191E00E9415
:1021900071098DE691E00E944D088FE691E00E9462
:1021A0004D08AE014F5F5F4FBE016D5F7F4F809165
:1021B0000701909108010E94A5030E945A088DE62C
:1021C00091E00E944D088B819C810E945A0888E70B
:1021D00091E00E944D0889819A810E945A080E94CC
:1021E000D506FFCF2114310409F0C2CE8091E1025F
:1021F000882309F472C00E94B5068091B0029091C4
:10220000B10201969093B1028093B00202E911E00D
:102210002091010130910201C090B002D090B10232
:102220008091070190910801281639060CF04AC0E8
:10223000D8011C96AD90BC901D9714968D909C90E3
:1022400015971296ED90FC90F90137FD3196F595B2
:10225000E795D8011A964D915C914E195F094C9DF6
:10226000C0014D9D900D5C9D900D11248E0F9F1F00
:10227000B9010E940519E60EF71ED8011796FC92C7
:10228000EE921697A818B908AC9CC001AD9C900DB1
:10229000BC9C900D11248E0F9F1FB9010E9405193F
:1022A000680D791DF8017187608740815181C701F0
:1022B0000E948A080E94D506FFEF2F1A3F0A025F8C
:1022C0001F4FA6CF2C153D050CF052CE1092E10207
:1022D0001092B1021092B0024BCE88E00E94CA0662
:1022E000882309F42BC22091070130910801009145
:1022F000090110910A010E3F4FEF140781F4A8E184
:10230000B1E0E9EBF2E090E080E0821793070CF097
:102310008EC24D915D91419351930196F6CF88E124
:1023200091E09E878D87A9EBB2E0AC0190E080E060
:102330008217930744F4FA0161917191AF016D9393
:102340007D930196F5CF8091B7029091B8020196E6
:102350004091B4025091B5024F5F5F4F5093B50268
:102360004093B402B9010E940519A9014F5F5F4F64
:102370005093080140930701D901AA0FBB1FA85E23
:10238000BE4F12978217930754F4215031094D9193
:102390005C91119713965C934E931297F2CF880F2E
:1023A000991FDC01A85EBE4F0D931C9380910B0119
:1023B000882309F4C4C0F12CE12C609107017091CD
:1023C0000801CB01880F991F880F991FE816F9069D
:1023D0000CF0B5C0C7010E9405198C01FC01EE0F7D
:1023E000FF1FE85EFE4F80819181019609F0A3C036
:1023F000E0910701F0910801E330F1050CF49BC076
:10240000680121E0C21AD108CF0101970115110519
:1024100021F0C601BF010E940519880F991FAC0168
:10242000485E5E4F4A01DA012D913C91C801019648
:10243000BF010E9405195C01880F991FAC01485E1D
:102440005E4F3A01DA018D919C912817390709F006
:1024500072C02F3F320709F46EC0C801BF010E944D
:102460000519FC01EE0FFF1FE85EFE4F8081918190
:102470008F3F980759F52F5F3F4F31832083D40159
:102480001D921C9229E030E0F30131832083011575
:10249000110531F561E070E088E191E00E94DD070F
:1024A00060910701709108016150710988E191E024
:1024B0000E94DD076091070170910801633071058A
:1024C000D4F188E191E00E94710992CF82179307BD
:1024D0001CF42E5F3F4FD1CF019691838083CFCFE5
:1024E000B50188E191E00E94DD07609107017091DC
:1024F0000801C6010617170719F4C8010297B801A9
:102500000E940519BC0188E191E00E94DD076091FD
:10251000070170910801633071056CF088E191E06A
:102520000E9471096091070170910801C6010E9423
:1025300005198C015DCF3FEFE31AF30A3ECFADB62C
:10254000BEB62091B4023091B502C90168E270E0D4
:102550000E940519892B49F480910501909106018B
:1025600001969093060180930501C90166E970E028
:102570000E940519892B49F480910301909104016F
:10258000019690930401809303018091050190913D
:102590000601C0900301D09004012C01092E000C0B
:1025A000660877089C012C0D3D1D82179307ACF43B
:1025B0000D2C000CEE08FF08C114D104E104F10455
:1025C00041F00E948F15A70196010E94FD156B0135
:1025D0007C014C0C5D1C6E1C7F1C50920A014092C9
:1025E00009010E948F1529E030E040E050E00E9490
:1025F000FD15672B682B692B51F48FEF9FEF90939C
:102600000A01809309011092B3021092B202E09085
:102610000701F0900801C701880F991F4DB75EB7F9
:10262000481B590B0FB6F8945EBF0FBE4DBF8DB758
:102630009EB701966C01409105015091060190E012
:1026400080E0512C412C8E159F05DCF4AD85BE85B4
:102650002D913D91BE87AD872417350784F4B901CC
:102660006E5F7F4F6230710550F0F201EE0FFF1F79
:10267000EC0DFD1D31832083BFEF4B1A5B0A0196E1
:10268000E2CF60E070E0CB011E141F0444F40E940E
:102690008F159701FF0C440B550B0E94FD15052C5F
:1026A000000C660877086415750586059705C4F45F
:1026B000411451046104710439F00E948F15A30183
:1026C00092010E94FD152B018201000F111F0C0DBC
:1026D0001D1DF8018081918190930A018093090169
:1026E0008091B2029091B302069754F08FEF9FEF62
:1026F00090930A01809309011092B3021092B202E2
:102700008091B4029091B50264E170E00E940519D5
:10271000892B31F48EEF9FEF90930A01809309018A
:102720008091B2029091B30201969093B30280938C
:10273000B2020FB6F894BEBE0FBEADBE84E00E94DA
:10274000CA06882369F08091B602882309F486C0FE
:102750008FEF9FEF90930A01809309011092B602C8
:1027600080E20E94CA0600910701109108018823A7
:1027700069F08091B7029091B802181619060CF012
:1027800074C001979093B8028093B70280E40E94CE
:10279000CA06882381F08091B7029091B80298010F
:1027A00021503109821793070CF061C00196909374
:1027B000B8028093B702013111050CF492C00E9457
:1027C000B5068AE791E00E944D088091B40290918D
:1027D000B5020E945A0886E891E00E944D080E94C6
:1027E000D5068091AF028093AE020E94AD06809321
:1027F000AF0288E00E94CA06182F84E00E94CA0631
:10280000111102C0882369F320910701309108015A
:10281000A8E1B1E0E9EBF2E090E080E082179307F5
:102820005CF51D921D92119211920196F7CF609165
:10283000B7027091B802FB01EE0FFF1FE85EFE4F7A
:102840008081918190930A018093090188E191E050
:102850000E94DD0781E08093B60270CF81E090E0B6
:102860009093E3028093E2027BCFC8018ACF10925B
:10287000B8021092B7029FCF81E090E090931901C7
:1028800080931801909308018093070121E0209321
:102890000B011092B3021092B2021092B502109284
:1028A000B402909306018093050124E030E0309358
:1028B00004012093030190930A018093090110926F
:1028C000B8021092B7021092B1021092B0028CE3DB
:1028D00090E090930201809301011092B602109251
:1028E000E1020E94B50688E1A82E81E0B82E10E032
:1028F00000E06091070170910801061717070CF0BE
:1029000052C0D5018D909D905D01072E000C880B63
:10291000990B0E947C179B01AC016BED7FE089EC69
:1029200090E40E94D2166B017C01B801012E000CCC
:10293000880B990B0E947C179B01AC01C701B60163
:102940000E9447186B017C010E94CD162B013C01AF
:10295000C701B6010E94B41820E030E040EC51E419
:102960000E94471820E030E040E052E40E946116E7
:102970000E9444176B0120E030E040EC51E4C301B9
:10298000B2010E94471820E030E040E852E40E9483
:1029900061160E944417CB01A401B6010E948A0867
:1029A0000F5F1F4FA6CF4091090150910A0160E2CD
:1029B00070E080E490E00E948A0800910701109185
:1029C0000801AE01475F5F4FBE01655F7F4FC801E1
:1029D0000E94A50301977C012E143F048CF58B8582
:1029E0009C85820D931DB8010E9405199E012B5FE5
:1029F0003F4FAE01495F5F4F68E170E00E94970969
:102A00008B859C85820D931D0196B8010E94051946
:102A10009E012F5F3F4FAE014D5F5F4F68E170E059
:102A20000E94970929813A814B815C816D817E8169
:102A30008F8198850E94F606BFEF2B1A3B0ACCCFF8
:102A400083E090E09093AD028093AC029093AB0250
:102A50008093AA028091B4029091B5020E945A0814
:102A60008091090190910A01029641F460E070E0C2
:102A7000CB010E94140A0E94D5067ACA60E070E079
:102A800080E09FE3F6CF8F929F92AF92BF92CF925A
:102A9000DF92EF92FF92CF93DF93EC01688179810F
:102AA0008A819B81611571058105910521F464E29C
:102AB00079ED8BE597E02DE133EF41E050E00E94A6
:102AC000FD1549015A019B01AC01A7EAB1E40E943E
:102AD0001C166B017C01ACEEB4EFA50194010E94C1
:102AE0002A16C60ED71EE81EF91EF7FE06C081E0A4
:102AF000C81AD108E10880E8F80AC882D982EA82B7
:102B0000FB82C701B6019F77DF91CF91FF90EF90D5
:102B1000DF90CF90BF90AF909F908F9008958F924D
:102B20009F92AF92BF92CF92DF92EF92FF9260910D
:102B300040017091410180914201909143016115E2
:102B400071058105910521F464E279ED8BE597E04B
:102B50002DE133EF41E050E00E94FD1549015A019B
:102B60009B01AC01A7EAB1E40E941C166B017C0139
:102B7000ACEEB4EFA50194010E942A16C60ED71E32
:102B8000E81EF91EF7FE06C081E0C81AD108E10868
:102B900080E8F80AC0924001D0924101E0924201DF
:102BA000F0924301C701B6019F77FF90EF90DF904D
:102BB000CF90BF90AF909F908F9008956093400109
:102BC0007093410180934201909343010895F999D4
:102BD000FECF92BD81BDF89A992780B50895262F22
:102BE000F999FECF1FBA92BD81BD20BD0FB6F894F2
:102BF000FA9AF99A0FBE01960895052E97FB1EF4D6
:102C000000940E94141657FD07D00E942F1607FC4F
:102C100003D04EF40C9414165095409530952195A0
:102C20003F4F4F4F5F4F08959095809570956195F8
:102C30007F4F8F4F9F4F08950E945116A59F900D73
:102C4000B49F900DA49F800D911D11240895B7FF8E
:102C50000C941C160E941C16821B930B0895A1E273
:102C60001A2EAA1BBB1BFD010DC0AA1FBB1FEE1F06
:102C7000FF1FA217B307E407F50720F0A21BB30B51
:102C8000E40BF50B661F771F881F991F1A9469F7CD
:102C900060957095809590959B01AC01BD01CF0129
:102CA0000895A29FB001B39FC001A39F700D811D25
:102CB0001124911DB29F700D811D1124911D089545
:102CC0005058BB27AA270E9478160C94F9170E9427
:102CD000C01738F00E94C71720F039F49F3F19F44D
:102CE00026F40C94BD170EF4E095E7FB0C94B7178F
:102CF000E92F0E941E1858F3BA176207730784075A
:102D0000950720F079F4A6F50C9440180EF4E095A0
:102D10000B2EBA2FA02D0B01B90190010C01CA0195
:102D2000A0011124FF27591B99F0593F50F4503E40
:102D300068F11A16F040A22F232F342F4427585F32
:102D4000F3CF469537952795A795F0405395C9F74A
:102D50007EF41F16BA0B620B730B840BBAF0915002
:102D6000A1F0FF0FBB1F661F771F881FC2F70EC0A1
:102D7000BA0F621F731F841F48F487957795679574
:102D8000B795F7959E3F08F0B0CF9395880F08F060
:102D90009927EE0F9795879508950E94D017E39590
:102DA0000C940A180E94E6160C94F9170E94C71793
:102DB00058F00E94C01740F029F45F3F29F00C94AE
:102DC000B71751110C9441180C94BD170E941E188E
:102DD00068F39923B1F3552391F3951B550BBB274A
:102DE000AA2762177307840738F09F5F5F4F220F8F
:102DF000331F441FAA1FA9F335D00E2E3AF0E0E886
:102E000032D091505040E695001CCAF72BD0FE2FCF
:102E100029D0660F771F881FBB1F26173707480763
:102E2000AB07B0E809F0BB0B802DBF01FF2793581B
:102E30005F4F3AF09E3F510578F00C94B7170C9411
:102E400041185F3FE4F3983ED4F3869577956795F4
:102E5000B795F7959F5FC9F7880F911D9695879550
:102E600097F90895E1E0660F771F881FBB1F62176F
:102E700073078407BA0720F0621B730B840BBA0B2D
:102E8000EE1F88F7E09508950E944B176894B111E2
:102E90000C94411808950E94261888F09F5798F0C6
:102EA000B92F9927B751B0F0E1F0660F771F881F4F
:102EB000991F1AF0BA95C9F714C0B13091F00E9469
:102EC0004018B1E008950C944018672F782F882798
:102ED000B85F39F0B93FCCF3869577956795B39590
:102EE000D9F73EF490958095709561957F4F8F4FFF
:102EF0009F4F0895E89409C097FB3EF49095809504
:102F0000709561957F4F8F4F9F4F9923A9F0F92FAF
:102F100096E9BB279395F695879577956795B7952D
:102F2000F111F8CFFAF4BB0F11F460FF1BC06F5F13
:102F30007F4F8F4F9F4F16C0882311F096E911C025
:102F4000772321F09EE8872F762F05C0662371F046
:102F500096E8862F70E060E02AF09A95660F771F5A
:102F6000881FDAF7880F9695879597F9089597F94E
:102F70009F6780E870E060E008959FEF80EC08951F
:102F800000240A9416161706180609060895002448
:102F90000A94121613061406050608950C94BD171C
:102FA0000E942618D8F3E894E0E0BB279F57F0F082
:102FB0002AED3FE049EC06C0EE0FBB0F661F771FFE
:102FC000881F28F0B23A62077307840728F0B25AC4
:102FD000620B730B840BE3959A9572F7803830F48B
:102FE0009A95BB0F661F771F881FD2F790480C94E5
:102FF000BE18092E0394000C11F4882352F0BB0F65
:1030000040F4BF2B11F460FF04C06F5F7F4F8F4F00
:103010009F4F0895EF93E0FF07C0A2EA2AED3FE03B
:1030200049EC5FEB0E9478160E94F9170F90039409
:1030300001FC9058ECEAF0E00C94CA1857FD905847
:10304000440F551F59F05F3F71F04795880F97FB6C
:10305000991F61F09F3F79F0879508951216130626
:103060001406551FF2CF4695F1DF08C01616170655
:103070001806991FF1CF869571056105089408958A
:10308000E894BB2766277727CB0197F908950E941C
:103090005A180C94F9170E94C01738F00E94C717ED
:1030A00020F0952311F00C94B7170C94BD17112440
:1030B0000C9441180E941E1870F3959FC1F3950F50
:1030C00050E0551F629FF001729FBB27F00DB11DAC
:1030D000639FAA27F00DB11DAA1F649F6627B00D3C
:1030E000A11D661F829F2227B00DA11D621F739F25
:1030F000B00DA11D621F839FA00D611D221F749F33
:103100003327A00D611D231F849F600D211D822F79
:10311000762F6A2F11249F5750409AF0F1F08823A0
:103120004AF0EE0FFF1FBB1F661F771F881F9150CD
:103130005040A9F79E3F510580F00C94B7170C94AE
:1031400041185F3FE4F3983ED4F3869577956795F1
:10315000B795F795E7959F5FC1F7FE2B880F911DF7
:103160009695879597F908959F930E94D0170F9091
:1031700007FCEE5F0C940A189F3F31F0915020F449
:10318000879577956795B795880F911D9695879543
:1031900097F908959F938F937F936F93FF93EF9386
:1031A0009B01AC010E944718EF91FF910E94DE182D
:1031B0002F913F914F915F910C944718DF93CF93DC
:1031C0001F930F93FF92EF92DF927B018C01689423
:1031D00006C0DA2EEF010E945A18FE01E894A5916C
:1031E0002591359145915591A6F3EF010E947816EE
:1031F000FE019701A801DA9469F7DF90EF90FF9044
:103200000F911F91CF91DF91089597FB072E16F430
:10321000009407D077FD09D00E94191907FC05D04A
:103220003EF4909581959F4F0895709561957F4FDD
:103230000895AA1BBB1B51E107C0AA1FBB1FA617FD
:10324000B70710F0A61BB70B881F991F5A95A9F74F
:1032500080959095BC01CD010895EE0FFF1F05905C
:0A326000F491E02D0994F894FFCFDB
:10326A00103C00040001000100010001FFFFFFFF04
:10327A0000E1000000000000010000000000000062
:10328A000000000000000000000000000000000034
:10329A000000000000000000000000000000000024
:1032AA000100000000C180810000000000000089C8
:1032BA0004F405AA049F04F004AE04CC0400000040
:1032CA00007A077906FC07FB072B002D000A00533A
:1032DA00796D6D657472793A2000596F75206C6149
:0E32EA00737465642000207475726E730000AA
:00000001FF
