:100000000C9492030C94BA030C94BA030C94BA03A4
:100010000C94BA030C94BA030C94BA030C94BA036C
:100020000C94BA030C94BA030C94410B0C94B00BCF
:100030000C94BA030C94BA030C94BA030C94BA034C
:100040000C94BA030C94BA030C94BA030C94BA033C
:100050000C94BA030C94BA030C94BA030C94E20DFA
:100060000C94BA030C94BA030C94BA030C94BA031C
:100070000C94BA030C94BA030C94BA030C94BA030C
:100080000C94BA030C94BA030C94BA030C94BA03FC
:100090000C94BA030C94BA030C94BA030C94BA03EC
:1000A0000C94BA030C94BA030C94BA03084AD73BD5
:1000B0003BCE016E84BCBFFDC12F3D6C74319ABD37
:1000C00056833DDA3D00C77F11BED9E4BB4C3E915B
:1000D0006BAAAABE000000803F05A84CCDB2D44E4A
:1000E000B93836A9020C50B9918688083CA6AAAA4C
:1000F0002ABE000000803F0000000000003E5B4F71
:100100005B3E3E6B4F6B3E1C3E7C3E1C183C7E3C77
:10011000181C577D571C1C5E7F5E1C00183C180085
:10012000FFE7C3E7FF0018241800FFE7DBE7FF3015
:10013000483A060E2629792926407F050507407F83
:1001400005253F5A3CE73C5A7F3E1C1C08081C1CF6
:100150003E7F14227F22145F5F005F5F06097F01EC
:100160007F006689956A606060606094A2FFA294D7
:1001700008047E040810207E201008082A1C0808A5
:100180001C2A08081E101010100C1E0C1E0C3038F3
:100190003E3830060E3E0E06000000000000005FF4
:1001A00000000007000700147F147F14242A7F2A10
:1001B00012231308646236495620500008070300D2
:1001C000001C2241000041221C002A1C7F1C2A081E
:1001D000083E080800807030000808080808000081
:1001E00060600020100804023E5149453E00427FF5
:1001F000400072494949462141494D331814127F44
:100200001027454545393C4A4949314121110907E3
:100210003649494936464949291E00001400000064
:100220004034000000081422411414141414004136
:1002300022140802015909063E415D594E7C1211F3
:10024000127C7F494949363E414141227F4141412B
:100250003E7F494949417F090909013E41415173A6
:100260007F0808087F00417F41002040413F017F17
:10027000081422417F404040407F021C027F7F04DF
:1002800008107F3E4141413E7F090909063E415128
:10029000215E7F09192946264949493203017F0118
:1002A000033F4040403F1F2040201F3F4038403F19
:1002B000631408146303047804036159494D43002F
:1002C0007F4141410204081020004141417F040266
:1002D00001020440404040400003070800205454FD
:1002E00078407F28444438384444442838444428DB
:1002F0007F385454541800087E090218A4A49C782E
:100300007F0804047800447D40002040403D007F89
:100310001028440000417F40007C047804787C0869
:100320000404783844444438FC182424181824243D
:1003300018FC7C08040408485454542404043F4422
:10034000243C4040207C1C2040201C3C4030403C51
:1003500044281028444C9090907C4464544C4400B1
:100360000836410000007700000041360800020115
:100370000204023C2623263C1EA1A161123A404001
:10038000207A38545455592155557941215454787F
:1003900041215554784020545579400C1E52721218
:1003A00039555555593954545459395554545800A0
:1003B00000457C410002457D420001457C40F0291A
:1003C0002429F0F0282528F07C5455450020545469
:1003D0007C547C0A097F49324949493232484848AD
:1003E00032324A4848303A4141217A3A42402078F4
:1003F000009DA0A07D39444444393D4040403D3CEF
:1004000024FF2424487E4943662B2FFC2F2BFF0911
:1004100029F620C0887E0903205454794100004405
:100420007D413048484A32384040227A007A0A0AF0
:10043000727D0D19317D2629292F28262929292663
:1004400030484D4020380808080808080808382FA8
:1004500010C8ACBA2F102834FA00007B0000081432
:100460002A142222142A14089500220095AA005565
:1004700000AAAA55AA55AA000000FF00101010FFFC
:1004800000141414FF001010FF00FF1010F010F003
:10049000141414FC001414F700FF0000FF00FF14F4
:1004A00014F404FC141417101F10101F101F141440
:1004B000141F00101010F0000000001F101010108A
:1004C0001F10101010F010000000FF10101010107E
:1004D00010101010FF10000000FF140000FF00FFBC
:1004E00000001F10170000FC04F414141710171458
:1004F00014F404F40000FF00F7141414141414147A
:10050000F700F7141414171410101F101F141414EC
:10051000F4141010F010F000001F101F0000001F56
:1005200014000000FC140000F010F01010FF10FF89
:10053000141414FF141010101F00000000F010FF1E
:10054000FFFFFFFFF0F0F0F0F0FFFFFF0000000002
:1005500000FFFF0F0F0F0F0F38444438447C2A2A46
:100560003E147E02020606027E027E026355494167
:10057000633844443C04407E201E2006027E020272
:1005800099A5E7A5991C2A492A1C4C7201724C3086
:100590004A4D4D303048784830BC625A463D3E495D
:1005A0004949007E0101017E2A2A2A2A2A44445F01
:1005B000444440514A444040444A51400000FF01F5
:1005C00003E080FF000008086B6B08361236243603
:1005D000060F090F06000018180000001010003068
:1005E00040FF0101001F01011E00191D1712003CF0
:1005F0003C3C3C0000000000F0F89C8E8783878E16
:100600009CF8F00000FEFF0303030303070EFCF851
:100610000000FEFF0303030303070EFCF80000FFC6
:10062000FF00000000000000FFFF0000FEFF8383CA
:10063000838383C7EE7C380000F8FC0E07030303B6
:10064000070EFCF800003F7FE0C08080C0E07F3FE5
:10065000FFFF01010101010101FFFF0000FFFF0C8D
:100660000C0C0C1C3E77E3C100007FFFC0C0C0C073
:10067000C0E0703F1F00001F3F70E0C0C0C0E070CE
:100680003F1F00007FFFC1C1C1C1C1E3773E1C0015
:10069000001F3F70E0C0C0C0E0703F1F00000000BE
:1006A0000001FFFF01000000D5F08D14A1C881CF2B
:1006B000D9F1AF2000080B0002020200000904007B
:1006C00000010202000005240010010524010101BF
:1006D00004240206052406000107058103100040DA
:1006E00009040100020A00000007050202400000A0
:1006F000070583024000000403090412010002EF11
:10070000020140412336800001010203014172646D
:1007100075696E6F204C4C430041726475626F794D
:1007200000005F0E11241FBECFEFDAE0DEBFCDBFA9
:1007300011E0A0E0B1E0EEEDF6E302C005900D920D
:10074000A638B107D9F727E0A6E8B1E001C01D92AD
:10075000AE34B207E1F713E0C2E9D3E004C0219759
:10076000FE010E94671BC139D107C9F70E947C0EA8
:100770000C946D1B0C9400002F923F924F925F924D
:100780006F927F928F929F92AF92BF92CF92DF92A1
:10079000EF92FF920F931F93CF93DF93EC012B0106
:1007A0003A01DA011D921C92FB011182108230E0A5
:1007B00020E0F12CE12C2C173D070CF04EC0690114
:1007C000F2E0CF0ED11CE2E0F0E0CE17DF070CF430
:1007D00041C01F013594279410E000E0560181E0EC
:1007E000A81AB108C801820F931FBE010E943F1BC7
:1007F000DC01AA0FBB1FA85EBE4F8D909C90C50167
:10080000801B910BBE010E943F1BDC01AA0FBB1F86
:10081000A85EBE4F8D919C9188169906B1F48920EF
:10082000809499F00F5F1F4F20163106D9F6EE160F
:10083000FF065CF4D2012D933C93C501BE010E94DA
:100840003F1BD3018D939C937F013296B2E0CB0E78
:10085000D11CBBCF2F5F3F4FAECFC701DF91CF91F0
:100860001F910F91FF90EF90DF90CF90BF90AF90CE
:100870009F908F907F906F905F904F903F902F90C0
:100880000895EAEFF2E0A0E0B8E000800EBC81112C
:10089000012C1197A0FDFDCF0192B9F70DB4089579
:1008A000FC018091F902882311F13FB7F89482E0AE
:1008B0008093E9002091F200822F90E0181619062B
:1008C00014F481E090E0882339F0289844E64093BE
:1008D000F8024091F1004083222339F02091F20088
:1008E000211103C02BE62093E8003FBF08958FEF4E
:1008F0009FEF08952FB7F89483E08093E9009091DB
:10090000E800892F807295FF04C09091F20080E486
:10091000891B2FBF08958091F00281110DC082E0E4
:100920008093EC0284E08093ED021092EF0210922B
:10093000EE0281E08093F0028CEE92E00895CF9376
:10094000DF931F92CDB7DEB76983DC01ED91FC9197
:100950000280F381E02D41E050E0BE016F5F7F4FE8
:1009600009950F90DF91CF91089583E08093E9007E
:100970008091F200882319F08AE38093E8000895BB
:100980000E947A0490E00895CF93DF931F92CDB731
:10099000DEB7FC018485958597FD08C02FEF3FEFFA
:1009A000358724870F90DF91CF910895CE0101966E
:1009B0000E945004019719F4898190E0F3CF8FEFE2
:1009C0009FEFF0CF0F931F93CF93DF931F92CDB77D
:1009D000DEB78C01FC018485958597FF0BC0CE01A5
:1009E00001960E945004019771F4898190E0F8010A
:1009F00095878487F801848595850F90DF91CF9145
:100A00001F910F9108958FEF9FEFF1CFFC01848527
:100A1000958597FD0BC09FB7F89482E08093E9001D
:100A20008091F2009FBF90E0019608959FB7F894DF
:100A300082E08093E9008091F2009FBF90E00895EA
:100A40004091E6025091E7022091E4023091E502E4
:100A500042175307B4F49091E8009570E1F3909138
:100A6000E80092FD19C08093F1008091E602909118
:100A7000E70201968F739927892B19F48EEF8093E3
:100A8000E8008091E6029091E70201969093E702D8
:100A90008093E60281E0089580E00895DF92EF926E
:100AA000FF920F931F93CF93DF93D82E8A01EB0110
:100AB0007B01E40EF51ECE15DF0559F0D7FE12C0FE
:100AC000FE0184910E94200521968111F4CF0FEF41
:100AD0001FEFC801DF91CF911F910F91FF90EF9011
:100AE000DF9008958881EECF0F931F93CF93DF930C
:100AF0001F92CDB7DEB782E0898342E450E065EB18
:100B000076E080E80E944E050E948B04DC0112967C
:100B10000D911C910115110589F0D801ED91FC9101
:100B20000280F381E02DBE016F5F7F4FC801099500
:100B300097FD04C0F80100851185ECCF89810F90E5
:100B4000DF91CF911F910F910895615030F0209166
:100B5000F100FC0120830196F8CF289884E6809369
:100B6000F8020895AF92BF92CF92DF92EF92FF9278
:100B70000F931F93CF93DF936C017B018B01040FC5
:100B8000151FEB015E01AE18BF08C017D10759F061
:100B90006991D601ED91FC910190F081E02DC601A3
:100BA0000995892B79F7C501DF91CF911F910F919D
:100BB000FF90EF90DF90CF90BF90AF9008952D9A67
:100BC00008958FB18095807F669B88601C9B8460B0
:100BD000089580E0EAEFF2E081118FEF0024819325
:100BE0008193819381930394D1F71092AD02109277
:100BF000AC021092AF021092AE0208959091B00232
:100C0000982329F49091B102982381E009F480E0BF
:100C1000089580E00C94410480389105B8F4603464
:100C20007105A0F420E191E061FD94E060FD990F71
:100C300062FD9295687F269FD0011124A80FA650CF
:100C4000BD4F8C9140FF03C0892B8C9308959095E4
:100C50008923FBCFEF92FF920F931F93CF93DF93E4
:100C60007C018B01040F111DEB0177FF02C0D0E066
:100C7000C0E0C8010134110514F080E490E0C81709
:100C8000D9073CF441E0BE01C7010E940C06219641
:100C9000F0CFDF91CF911F910F91FF90EF900895CA
:100CA0008F929F92AF92BF92CF92DF92EF92FF927C
:100CB0000F931F93CF93DF93EC018B017B0182E0B5
:100CC000E81AF1085E018FEFA81AB80A45E0B701EB
:100CD000C5010E942A06015011094E0182E0880ECA
:100CE000911C43E0B801C4010E942A066E0181E014
:100CF000C81AD10845E0B701C6010E942A0622970A
:100D000043E0B801CE010E942A0643E0B801C401C5
:100D10000E942A0645E0B701C5010E942A0643E069
:100D2000B801CE010E942A0645E0B701C601DF9155
:100D3000CF911F910F91FF90EF90DF90CF90BF90D8
:100D4000AF909F908F900C942A068F929F92AF92B3
:100D5000BF92CF92DF92EF92FF920F931F93CF93A8
:100D6000DF936D3089F0C090AC02D090AD026A3054
:100D7000D1F41092AF021092AE0288E0C80ED11CDE
:100D8000D092AD02C092AC0281E090E0DF91CF91B1
:100D90001F910F91FF90EF90DF90CF90BF90AF9099
:100DA0009F908F9008950091AE021091AF02E5E000
:100DB0006E9FE0011124C850DF4F4801F12CF5E08F
:100DC000E12CFF1629F0CE010196FE01E490EC0122
:100DD000B12CA12C4E2D4170B6016A0D7B1DC401B2
:100DE0000E940C06E694FFEFAF1ABF0A88E0A8162F
:100DF000B10481F7F394EFEF8E1A9E0AF6E0FF122A
:100E0000DECF0A5F1F4F1093AF020093AE02BCCF3C
:100E10003FB7F8948091880190918901A0918A014F
:100E2000B0918B0126B5A89B05C02F3F19F0019604
:100E3000A11DB11D3FBFBA2FA92F982F8827BC0134
:100E4000CD01620F711D811D911D42E0660F771F5C
:100E5000881F991F4A95D1F708958F929F92AF925C
:100E6000BF92CF92DF92EF92FF926B017C010E94C2
:100E700008074B015C01C114D104E104F104B9F08D
:100E80000E940807681979098A099B09683E73401E
:100E90008105910580F321E0C21AD108E108F1082B
:100EA00088EE880E83E0981EA11CB11CE4CFFF9051
:100EB000EF90DF90CF90BF90AF909F908F9008956C
:100EC0008F929F92AF92BF92CF92DF92EF92FF925A
:100ED0000F931F93CF93DF936C017B018A01809165
:100EE0001701882309F45CC08091F902882309F472
:100EF00057C08091EB0280FF05C08091E0008260C6
:100F00008093E000E801B12C8AEFA82E93E0892EAF
:100F10002AE3922E209711F4BB20D9F10E947A0483
:100F200081110AC0AA94AA20D9F161E070E080E0A2
:100F300090E00E942D07EECF8C171D0611F00CF0EB
:100F40008C2F9FB7F8948092E9002091E80025FD4E
:100F500002C09FBFDFCF282F30E0C21BD30BF701A9
:100F6000815020F041914093F100FACFE20EF31E40
:100F7000BB2021F09092E800B12CEBCF8091E800EB
:100F800085FDE7CF9092E800BB24B394209709F346
:100F9000F3CF5D9884E68093EA02101611063CF0C8
:100FA00081E090E0F6019383828310E000E0C801C5
:100FB000DF91CF911F910F91FF90EF90DF90CF9035
:100FC000BF90AF909F908F900895BC0190E080E01B
:100FD0000C942D07FC01CB012091070130910801F1
:100FE000B9010E943F1BAC01440F551FE40FF51FD0
:100FF000215031098217930734F442815381419380
:1010000051930196F7CF309308012093070108957B
:10101000089590E080E008958F929F92AF92BF92E2
:101020000F931F93CF93DF93CDB7DEB7A1970FB682
:10103000F894DEBF0FBECDBF19A2423008F44AE0DB
:101040008E010F5D1F4F842E912CB12CA12CA50178
:1010500094010E94BD17E62FB901CA01EA3044F598
:10106000E05DD801EE938D01232B242B252B79F7FE
:1010700090E080E0109769F0FD0101900020E9F711
:101080003197AF014A1B5B0BBD018AE497E00E94D8
:10109000B205A1960FB6F894DEBF0FBECDBFDF91AB
:1010A000CF911F910F91BF90AF909F908F90089517
:1010B000E95CD7CFFC0101900020E9F73197AF013F
:1010C000481B590BBC018AE497E00C94B205CF92FF
:1010D000DF92EF92FF92CF93DF936C01990FEE08AE
:1010E000FF08F7FE19C06DE28AE497E00E94A506AA
:1010F000EC0166277727CB016C197D098E099F09C2
:101100004AE00E940C088C0F9D1FDF91CF91FF9049
:10111000EF90DF90CF9008954AE0C701B601DF91CC
:10112000CF91FF90EF90DF90CF900C940C082F920E
:101130003F924F925F926F927F928F929F92AF9267
:10114000BF92CF92DF92EF92FF920F931F93CF93B4
:10115000DF9300D000D000D0CDB7DEB78C017E8306
:101160006D833A016B5F7F4F41E00E940C066D81F9
:101170007E816550710941E0C8010E940C0641E082
:101180006D817E81C80105960E940C0641E06D814B
:101190007E81C80105970E940C0681E090E09A8349
:1011A0008983D12CC12C85E0E82EF12C86EF9FEFAE
:1011B0009C838B839CEFA92EBB24BA949FEFC91A02
:1011C000D90A89819A8102969A838983A80EB91EC9
:1011D0002601400E511E41E08D809E808E0C9F1C8A
:1011E000B401C2010E940C0618012C183D0841E010
:1011F000B401C1010E940C0641E08D809E808E18D2
:101200009F08B401C2010E940C0641E0B401C10173
:101210000E940C068D809E808C0C9D1C41E0B401C8
:1012200028014E0C5F1CC2010E940C0641E0B40173
:1012300018012E183F08C1010E940C068D809E8067
:101240008C189D0841E0B401C2010E940C0641E0E7
:10125000B401C1010E940C06CE14DF04B4F1C80130
:1012600002979093AF028093AE028D819E81039787
:101270009093AD028093AC029FEF6916790691F5C9
:1012800089E691E00E945A086D817E816C5F7F4FF4
:1012900041E0C801039626960FB6F894DEBF0FBE54
:1012A000CDBFDF91CF911F910F91FF90EF90DF9015
:1012B000CF90BF90AF909F908F907F906F905F90F6
:1012C0004F903F902F900C940C06B7FC77CF91E095
:1012D000E91AF1088B819C8102969C838B83A80E6E
:1012E000B91E6CCF8EEF68168FEF780619F48BE677
:1012F00091E0C8CFC3010E946708C6CFEF92FF926A
:101300000F931F93CF93DF938C017B01CB010E943E
:1013100067088DE691E00E945A08E80110E000E0BD
:101320000E151F053CF4899199910E9467080F5F83
:101330001F4FF6CF80E791E0DF91CF911F910F9182
:10134000FF90EF900C945A082F923F924F925F9229
:101350006F927F928F929F92AF92BF92CF92DF92C5
:10136000EF92FF920F931F93CF93DF936B017C015A
:10137000EA0119016091070170910801072E000C24
:10138000880B990B0E9481199B01AC016BED7FE0EA
:1013900089EC90E40E94D718A70196010E94A41A34
:1013A0006B017C010E94D2182B013C01BE01DD0FB4
:1013B000880B990B0E9481194B015C01AC019B01C8
:1013C000C301B2010E94A41A20E030E040E852E4D8
:1013D0000E94EF170E944919F10171836083C701D0
:1013E000B6010E94111B9B01AC01C501B4010E9412
:1013F000A41A20E030E040E052E40E94EF170E947F
:101400004919F80171836083DF91CF911F910F918A
:10141000FF90EF90DF90CF90BF90AF909F908F9014
:101420007F906F905F904F903F902F9008952F92F4
:101430003F924F925F926F927F928F929F92AF9264
:10144000BF92CF92DF92EF92FF920F931F93CF93B1
:10145000DF93CDB7DEB728970FB6F894DEBF0FBE87
:10146000CDBF6B017C016091070170910801072ECF
:10147000000C880B990B0E9481199B01AC016BED4C
:101480007FE089EC90E40E94D7184B015C016091E9
:10149000B9027091BA02072E000C880B990B0E94BA
:1014A0008119A50194010E94A41A2B013C01A701F6
:1014B0009601C501B4010E94A41A9B01AC01C301AD
:1014C000B2010E94EF174B015C010E94111B2B011E
:1014D0003C0120E030E040EC51E40E94A41A20E0FE
:1014E00030E040E052E40E94EF170E9449196B017E
:1014F0001B01C501B4010E94D2184B015C0120E020
:1015000030E040EC51E40E94A41A20E030E040E8D2
:1015100052E40E94EF170E9449196B837C838D83EC
:101520009E830B811C8120E030E040E251E4C30146
:10153000B2010E94A41A20E030E040E052E40E9490
:10154000EF170E9449192B0178876F8320E030E064
:1015500040E251E4C501B4010E94A41A20E030E049
:1015600040E852E40E94EF170E9449195B0196017E
:10157000241935093A83298337FF05C03195219510
:1015800031093A8329838B809C80861A970A97FEBB
:1015900003C091948194910829813A81821693061F
:1015A00034F486012B803C80520178876F830A15C2
:1015B0001B055CF49F81888538862F82292E382E62
:1015C0009A2D8B2D5801092F182F28014A185B08D6
:1015D00031018F819885681A790A77FE03C071946A
:1015E00061947108620157FE03C09FEFC91AD90ABE
:1015F000D594C7942F8138858FEF221533050CF4CD
:1016000081E0E82E880FFF080A151B05FCF0898190
:101610009A8141E088169906ACF4B5018F819885CE
:101620000E940C06C618D708D7FE08C02F8138853F
:101630002E0D3F1D38872F83C40CD51C3FEFA31AF6
:10164000B30AE2CF6F817885C501EACF28960FB63D
:10165000F894DEBF0FBECDBFDF91CF911F910F91E8
:10166000FF90EF90DF90CF90BF90AF909F908F90C2
:101670007F906F905F904F903F902F9008950C94C3
:1016800075171F920F920FB60F9211248F939F938D
:101690008091E1009091E100937F9093E10083FFBE
:1016A0000FC01092E90091E09093EB001092EC00D3
:1016B00092E39093ED001092F90298E09093F0007D
:1016C00082FF22C093E09093E9009091F200992369
:1016D00019F09AE39093E8009091EA02992341F07F
:1016E0009091EA0291509093EA02911101C05D9AA3
:1016F0009091F802992341F09091F80291509093C3
:10170000F802911101C0289A84FF18C08091E2006C
:101710008E7E81608093E2008091E1008F7E8093D5
:10172000E1008091EB028E7E80618093EB029F91BD
:101730008F910F900FBE0F901F90189580FFF7CFDD
:101740008091E2008E7E80618093E2008091E100D2
:101750008E7E8093E1008091EB028E7E8160E5CFEA
:101760001F920F920FB60F921124CF92DF92EF9239
:10177000FF920F931F932F933F934F935F936F931A
:101780007F938F939F93AF93BF93EF93FF93CF93E9
:10179000DF93CDB7DEB76C97DEBFCDBF1092E90007
:1017A0008091E80083FF25C068E0CE0145960E9445
:1017B000A50582EF8093E8008D8987FF39C090915D
:1017C000E80090FFFCCF982F907609F034C19E89F5
:1017D0004F89588D2F89F88C911131C0803861F56F
:1017E0008091E9028093F1001092F1008EEF8093D6
:1017F000E8006C960FB6F894DEBF0FBECDBFDF9148
:10180000CF91FF91EF91BF91AF919F918F917F9178
:101810006F915F914F913F912F911F910F91FF9089
:10182000EF90DF90CF900F900FBE0F901F90189504
:101830009EEF9093E800C7CF1092F100D5CF913082
:1018400059F48111D3CF4130510581F68091E902DD
:101850008D7F8093E902CACF933049F48111C6CFBE
:101860004130510519F68091E9028260F2CF95303E
:1018700041F48091E80080FFFCCF20682093E300D2
:10188000B5CF963009F0A9C00B8D1C8D22E01092C7
:10189000E9001092E7021092E602F2122EC01092B6
:1018A000E5021092E4020E9474051F8299E0998378
:1018B000FA8291E09E8390EA98879AEF9987209127
:1018C000E6023091E702275F3F4F3C832B838D83F5
:1018D0001092E9001092E7021092E6021093E502DE
:1018E0000093E40249E050E0BE016F5F7F4F80E06B
:1018F0000E944E050E94740579CF1093E502009373
:10190000E4020E948B04DC0112960D911C910115DA
:10191000110509F451C1D801ED91FC910480F581C4
:10192000E02DBE016B5E7F4FC8010995009709F05D
:101930003EC1F80100851185EACFF3E0FF120EC029
:101940008F89882309F440C0823061F440E867E061
:1019500089E197E00E942C0E811148CF81E28093AB
:10196000EB0047CF813029F440E86BE08DE097E051
:10197000F1CF833099F70E948B04DC011296ED9031
:10198000FC908E010F5F1F4F6801E114F10479F0A4
:10199000D701ED91FC910680F781E02DB801C701D8
:1019A0000995080F111DF701E084F184EECFD801ED
:1019B0001C92F60101900020E9F73197BF016C19E4
:1019C0007D0940E0C601C6CF67EF76E0FB01449198
:1019D00050E080E80E944E0509CF973009F4BECF51
:1019E000983021F481E08093F10000CF993009F024
:1019F000FDCE837009F0B2CFE5E4F1E081E031E0A3
:101A000096E32191222371F08093E9003093EB005B
:101A1000DF0111972C912093EC009093ED008F5FE4
:101A2000873079F78EE78093EA001092EA008F8979
:101A30008093F902DBCE8B8D9C8D1092E900109281
:101A4000E7021092E6029093E5028093E402898D0A
:101A5000811192C08E899D89913A49F4813209F0B1
:101A60007DCF47E050E060E171E080E0B3CF91329C
:101A700009F074CF833269F48F89988DB0E0A0E0CB
:101A800080930C0190930D01A0930E01B0930F0170
:101A9000ADCE803269F48091E80082FFFCCF67E030
:101AA00080E191E00E94A5058BEF8093E8009ECE37
:101AB000823209F09BCE8F8980931701EEEFFFE70A
:101AC000859194918B3F9C4D51F1E0E0F8E080913D
:101AD000100190911101A0911201B0911301803B6E
:101AE0009440A105B105F1F48091170180FD1AC061
:101AF000EE3F8AE0F80789F587E797E791838083CF
:101B0000809160008093E80288E19BE00FB6F89432
:101B1000A895809360000FBE9093600067CEEEEFB3
:101B2000FAE0D5CF808191818737974709F05ECE63
:101B3000A895809160008861809360008091E802A0
:101B400080936000EE3F2AE0F20789F08091FE0A60
:101B50009091FF0A9183808349CE8081918187375C
:101B6000980751F29093FF0A8093FE0AC5CF109216
:101B7000FF0A1092FE0A3ACE0E948B04DC011296F4
:101B80000D911C910115110509F4E8CED801ED91D4
:101B9000FC910190F081E02DBE016B5E7F4FC8018A
:101BA0000995811123CEF80100851185EBCF181618
:101BB00019060CF41BCED2CEF1E0FF12BECE6BEFB5
:101BC00076E004CF0F920FB68F939F93EF93FF931E
:101BD000809187018D5F8D3708F08D578093870145
:101BE000ECE8F1E080818E4F808391819F4F91835B
:101BF00082818F4F828383818F4F8383E8E8F1E076
:101C000080818F5F808381818F4F818382818F4F1D
:101C1000828383818F4F83838FB18F6066991C9BF2
:101C200088278F3681F480918601981B963068F062
:101C3000E0E0F8E087E78083818388E180936000BB
:101C4000F0936000FFCF90938601FF91EF919F91F9
:101C50008F910FBE0F901895EF92FF920F931F93E5
:101C6000CF93DF93F82E192FE62E042F81E0860FF5
:101C7000880F0E94200583E00E942005CF2DD12FE0
:101C8000EC0EFD2EF11CCE15DF05B9F007FF13C0D9
:101C9000FE0184910E942005182F80E00E942005FB
:101CA000812321968111EFCFDF91CF911F910F9169
:101CB000FF90EF9008958881EDCF81E0F5CFEAEFB6
:101CC000F6E01382128288EE93E0A0E0B0E0848315
:101CD0009583A683B7838FE491E0918380838FEF10
:101CE0009FEF95878487EAE4F7E01382128281E60A
:101CF00091E0918380830895CF93DF93CDB7DEB7D2
:101D0000A4970FB6F894DEBF0FBECDBF789484B50C
:101D1000826084BD84B5816084BD85B5826085BDE7
:101D200085B5816085BD80916E00816080936E0075
:101D30001092810080918100826080938100809167
:101D40008100816080938100809180008160809318
:101D50008000809191008260809391008091910039
:101D600081608093910080919000816080939000C9
:101D70008091C10084608093C1008091C100826025
:101D80008093C1008091C10081608093C1008091E7
:101D9000C30081608093C3008091C0008260809303
:101DA000C0008091C20081608093C20080917A005F
:101DB000846080937A0080917A00826080937A00B8
:101DC00080917A00816080937A0080917A008068A7
:101DD00080937A001092F9021092E9021092EB02BD
:101DE0008091D70081608093D70080EA8093D800EB
:101DF00089B5806189BD89B5826089BD09B400FE5D
:101E0000FDCF61E070E080E090E00E942D078091BE
:101E1000D8008F7C80618093D8008091E000807F23
:101E20008093E0008091E1008E7E8093E1008DE060
:101E30008093E200559A209A81EC80937C0085B1D2
:101E4000806F85B984B1877E84B984B1876E84B987
:101E50005E9A5F988AB1806D8AB9769A6E9881B3DE
:101E6000806F81BB899880B38D7080BB80E58CBD0D
:101E700081E08DBD85E090E00E94E5075F9A85E0F6
:101E800090E00E94E5075E985C98E8EAF6E085EB52
:101E900096E024912EBD00000DB407FEFDCF3196D3
:101EA0008E179F07B1F75C9A81E880936400809158
:101EB00065008160809365000E9409060E94E1052B
:101EC00087FF15C05C9885EA8EBD00000DB407FE43
:101ED000FDCF5C9A2E982F982D9880916400806297
:101EE0008093640081E083BF889513BEFCCF0E947D
:101EF000E10582FF48C02D980E94E105847884386E
:101F0000E1F40E94DF0588EC90E00E94E5072F983D
:101F100082E090E00E9475178F3F29F06FEF82E01A
:101F200090E00E947D1784EF91E00E94E5072F9AD0
:101F30000E94E10584788438D9F30E94E105847118
:101F40008431E1F40E94DF0588EC90E00E94E5070F
:101F50002E9882E090E00E947517882329F060E0B7
:101F600082E090E00E947D1784EF91E00E94E507F7
:101F70002E9A0E94E10584718431D9F388EC90E0B7
:101F80000E94E507B4CF0E94DF0582E090E00E9446
:101F90003F0B882309F470C03E9A3F9A81E090E09D
:101FA0000E943F0B082F0470702E81FF0FC001119B
:101FB0002E9801EF1FEF68E0E62EF12C0E94E1055C
:101FC00086FF5DC02E9A2F9A0E94DF0582E390E083
:101FD0000E94E5070E94E1058111F8CF0E94E90502
:101FE00080E180930001809164008E7F8093640083
:101FF00080917A00806480937A0080917A0086FDD7
:10200000FCCF00917800109179000E940807AB0185
:10201000BC01C801B0E0A0E0DC01992788278C0151
:102020009D01040F151F261F371FC901B8012091FC
:10203000640021602093640061157105810591059C
:1020400011F00E946C178FB7F89440918C01509159
:102050008D0160918E0170918F018FBF80919201EF
:10206000882309F4CAC01092920180E090E0892B85
:1020700051F30E940000E7CF3E983F988FCF772022
:1020800029F00430110511F42E9A2F9881E00E9456
:102090004104980117FF04C022273327201B310B6E
:1020A00027703327C80117FD079653E0959587954C
:1020B0005A95E1F717FF05C00197A701421B530B83
:1020C0009A01BC017695762F6627779567956650BD
:1020D0007D4FB0E0A0E02701421A530A8E3F5FEF28
:1020E000950709F43AC050E040E0FD01E850FA4F8E
:1020F0005F014B01F0E88F0E911C8F3F980791F024
:10210000F501E40FF51FE4916B01C40ED51EF0E05C
:102110001F01022E01C0220C0A94EAF7F60164881E
:102120002628248A2115310599F0F501E40FF51FC1
:10213000E4916401C40ED51EF0E01F01042C02C01E
:10214000359427940A94E2F7F60164882628248AB5
:102150004F5F5F4F4835510581F60196A85ABF4F32
:1021600060587F4FA03BB10509F0B8CF0E94090627
:102170008FE090E00E94E5070F5F1F4F09311105C6
:1021800009F01CCF772011F02F9A2D9880E991E06B
:102190000E94E5070E94DF0581E090E00E943F0B6E
:1021A00080FF14CF8AE090E00E943F0B9FEF980FD2
:1021B0009E3F08F00BCF22E330E03093AF02209334
:1021C000AE0228E330E03093AD022093AC020BE086
:1021D00010E0682F8AE497E00E94A506C8010E94DB
:1021E0003F0B0F5F1F4F0131110599F70E94090640
:1021F00088EE93E00E94E507E9CE80919301142FC9
:10220000181B812F90910001191748F48F5F8917CF
:1022100008F02BCF81E083BF889513BE26CF11E055
:1022200010939201409393018091900190919101BC
:10223000019690939101809390018091B1028093D7
:10224000B0020E94E1058093B10280E10E94FE0588
:10225000882329F080910B01812780930B018091C5
:10226000E302882309F474C00E94E9058091B20258
:102270009091B30201969093B3028093B20204E965
:1022800011E0D12CC12C2091010130910201A090CC
:10229000B202B090B3028091070190910801C81674
:1022A000D9060CF04AC0D8011C966D907C901D9701
:1022B00014968D909C9015971296ED90FC90F901D4
:1022C00037FD3196F595E795D8011A964D915C91B9
:1022D0004E195F094A9DC0014B9D900D5A9D900D6E
:1022E00011248E0F9F1FB9010E943F1BE60EF71E9F
:1022F000D8011796FC92EE921697681879086A9C96
:10230000C0016B9C900D7A9C900D11248E0F9F1F25
:10231000B9010E943F1B680D791DF8017187608724
:1023200040815181C7010E9497080E940906FFEF72
:10233000CF1ADF0A025F1F4FA6CF2A153B050CF00C
:1023400094CE1092E3021092B3021092B2028DCE9C
:1023500088E00E94FE05882309F42AC22091070123
:10236000309108010091090110910A010E3F4FEFD1
:10237000140781F4A8E1B1E0EBEBF2E090E080E03B
:10238000821793070CF08CC24D915D91419351934C
:102390000196F6CFF8E14F2EF1E05F2EABEBB2E005
:1023A000A20190E080E08217930744F4FA01619162
:1023B0007191AF016D937D930196F5CF8091B90234
:1023C0009091BA0201964091B6025091B7024F5FC8
:1023D0005F4F5093B7024093B602B9010E943F1B72
:1023E000A9014F5F5F4F5093080140930701D90146
:1023F000AA0FBB1FA85EBE4F12978217930754F413
:10240000215031094D915C91119713965C934E9335
:102410001297F2CF880F991FDC01A85EBE4F0D9373
:102420001C9380910B01882309F4C5C0F12CE12C89
:102430006AE0362E6091070170910801369EC00156
:10244000379E900D1124E816F9060CF0B4C0C701B0
:102450000E943F1B8C01FC01EE0FFF1FE85EFE4F48
:1024600080819181019609F0A2C0A0900701B090EF
:10247000080123E0A216B1040CF499C0680131E010
:10248000C31AD108C50101970115110521F0C60134
:10249000B5010E943F1B880F991FFC01E85EFE4FAB
:1024A00020813181C8010196B5010E943F1B4C017A
:1024B000880F991FAC01485E5E4F3A01DA018D9199
:1024C0009C912817390709F072C02F3F320709F491
:1024D0006EC0C801B5010E943F1BDC01AA0FBB1FE3
:1024E000A85EBE4F8D919C9111978F3F980751F533
:1024F0002F5F3F4F2D933C9311821082E9E0F0E073
:10250000D301ED93FC930115110531F561E070E005
:1025100088E191E00E94EA0760910701709108014B
:102520006150710988E191E00E94EA07609107011A
:102530007091080163307105D4F188E191E00E9447
:102540007E0993CF821793071CF42E5F3F4FD2CFA3
:1025500001968D939C93D0CFB40188E191E00E94C5
:10256000EA076091070170910801C6010617170775
:1025700019F4C8010297B8010E943F1BBC0188E111
:1025800091E00E94EA0760910701709108016330B1
:1025900071056CF088E191E00E947E09609107016D
:1025A00070910801C6010E943F1B8C015ECFFFEFB6
:1025B000EF1AFF0A3FCFADB6BEB62091B6023091FA
:1025C000B702C90168E270E00E943F1B892B49F401
:1025D00080910501909106010196909306018093E8
:1025E0000501C90166E970E00E943F1B892B49F48F
:1025F00080910301909104010196909304018093CE
:1026000003018091050190910601C0900301D090D3
:1026100004013C01092E000C880899089C012C0D2E
:102620003D1D82179307ACF40D2C000CEE08FF083B
:10263000C114D104E104F10441F00E941D17A70167
:1026400096010E948B176B017C016C0C7D1C8E1C0B
:102650009F1C70920A01609209010E941D1729E0D7
:1026600030E040E050E00E948B17672B682B692B0D
:1026700051F48FEF9FEF90930A018093090110921C
:10268000B5021092B402E0900701F0900801C70172
:10269000880F991F0DB71EB7081B190B0FB6F894BA
:1026A0001EBF0FBE0DBF2DB73EB72F5F3F4F690155
:1026B000409105015091060190E080E010E000E0BB
:1026C0008E159F05C4F4D2012D913D912D01241743
:1026D00035077CF4B9016E5F7F4F6230710548F0B9
:1026E000F801EE0FFF1FEC0DFD1D318320830F5FFE
:1026F0001F4F0196E5CF60E070E0CB011E141F0470
:1027000044F40E941D179701FF0C440B550B0E94C7
:102710008B172801110F6608770864157505860563
:102720009705C4F4411451046104710439F00E9406
:102730001D17A30192010E948B172B018201000F2C
:10274000111F0C0D1D1DF8018081918190930A01CC
:10275000809309018091B4029091B502069754F0DC
:102760008FEF9FEF90930A01809309011092B502B9
:102770001092B4028091B6029091B70264E170E0C9
:102780000E943F1B892B31F48EEF9FEF90930A013B
:10279000809309018091B4029091B50201969093C3
:1027A000B5028093B4020FB6F894BEBE0FBEADBEA4
:1027B00084E00E94FE05882361F08091B80288239E
:1027C00041F08FEF9FEF90930A01809309011092DF
:1027D000B80280E20E94FE050091070110910801F5
:1027E000882369F08091B9029091BA0218161906EF
:1027F0000CF06DC001979093BA028093B90280E407
:102800000E94FE05882381F08091B9029091BA025E
:10281000980121503109821793070CF05AC0019694
:102820009093BA028093B902013111050CF48BC068
:102830000E94E90582E791E00E945A088091B60261
:102840009091B7020E9467088EE791E00E945A08B3
:102850000E9409068091B1028093B0020E94E105B6
:102860008093B10288E00E94FE05182F84E00E9448
:10287000FE05111102C0882369F3209107013091F0
:102880000801A8E1B1E0EBEBF2E090E080E0821714
:10289000930724F51D921D92119211920196F7CF84
:1028A0006091B9027091BA02FB01EE0FFF1FE85E62
:1028B000FE4F8081918190930A018093090188E104
:1028C00091E00E94EA0781E08093B80271CFC801CD
:1028D00091CF1092BA021092B902A6CF81E090E097
:1028E0009093190180931801909308018093070138
:1028F00021E020930B011092B5021092B4021092C5
:10290000B7021092B602909306018093050124E06D
:1029100030E0309304012093030190930A018093E7
:1029200009011092BA021092B9021092B3021092E9
:10293000B2028CE390E09093020180930101109227
:10294000B8021092E3020E94E90598E1C92E91E0D5
:10295000D92EF12CE12C8091070190910801E81605
:10296000F90604F5D601AD90BD906D01B7010F2CAD
:10297000000C880B990B0E9481198E010F5F1F4F6D
:102980009E012D5F3F4F48E150E00E94A4096981FC
:102990007A81A5018B819C810E949708BFEFEB1A79
:1029A000FB0AD9CF4091090150910A0160E270E021
:1029B00080E490E00E949708409007015090080141
:1029C000AE01475F5F4FBE01655F7F4FC2010E944E
:1029D000BC039E878D87712C612C019798A38F8FE4
:1029E000EF8DF8A16E167F060CF06AC18B859C8571
:1029F000860D971DB2010E943F1BBC01990F880BE9
:102A0000990B0E9481198E010B5F1F4F9E01295F58
:102A10003F4F4EE050E00E94A4098B859C85860DB7
:102A2000971D0196B2010E943F1BBC01990F880BB4
:102A3000990B0E948119045011099E012D5F3F4F8F
:102A40004EE050E00E94A4096F81788560547109BE
:102A5000072E000C880B990B0E9481196B017C01D9
:102A60006D817E8160527109072E000C880B990BD5
:102A70000E948119A70196010E946E18162F072F38
:102A8000F82EE92E6B817C8160547109072E000CB1
:102A9000880B990B0E9481194B015C0169817A8135
:102AA00060527109072E000C880B990B0E94811946
:102AB000A50194010E946E184B015C0120E030E0FA
:102AC000A901612F702F8F2D9E2D0E94CD1887FF99
:102AD0000EC02BED3FE049EC50E4612F702F8F2D9D
:102AE0009E2D0E94EF17162F072FF82EE92E20E0BB
:102AF00030E0A901C501B4010E94CD1887FF0AC0CA
:102B00002BED3FE049EC50E4C501B4010E94EF1702
:102B10004B015C01A5019401612F702F8F2D9E2D1B
:102B20000E94CD18212F302F4F2D5E2D87FF91C091
:102B3000C501B4010E94EE176F87788B898B9A8B41
:102B4000A50194016BED7FE089EC90E40E94EE1703
:102B5000212F302F4F2D5E2D0E94EF171B014C01AE
:102B60009B01AC016F85788989899A890E94CD186B
:102B700087FF86C0FF85FB8B28892C8B39893D8B8D
:102B80004A894E8B8AE097EDA3E2BDE38F8B988F45
:102B9000A98FBA8FA12EB02ECF2CDE2C9101A401CB
:102BA0006F85788989899A890E94CD1887FF75C0B9
:102BB000212F302F4F2D5E2D6B897C898D899E8929
:102BC0000E94EF179501A6010E94971A87FD74C015
:102BD000B501C6010E94D2186B8F7C8F8D8F9E8F9E
:102BE000B501C6010E94111B20E030E040E651E42F
:102BF0000E94A41A20E030E040E052E40E94EF1767
:102C00000E94491969A37AA38BA39CA320E030E01A
:102C100040E651E46B8D7C8D8D8D9E8D0E94A41AB3
:102C200020E030E040E852E40E94EF170E9449198A
:102C3000CB0141E069A17AA10E940C062F89388D51
:102C4000498D5A8DB501C6010E94EF175B016C01D9
:102C5000A5CF6BED7FE089EC90E40E94EE17A50113
:102C600094010E94EF176F87788B898B9A8BA5014F
:102C70009401612F702F8F2D9E2D0E94EE176ECF25
:102C80002B8A3C8A8D8A9E8A2AE037ED43E25DEBEF
:102C90002F8B388F498F5A8F7DCF2B893C894D8957
:102CA0005E89612F702F8F2D9E2D0E94EE179B0144
:102CB000AC01B501C60188CF3FEF631A730A90CE0D
:102CC0004D855E854230510509F04CC052E04516F5
:102CD000510409F04CC06B857C856F5F7F4F072ED8
:102CE000000C880B990B0E94811920E030E040E035
:102CF0005FE30E94EF178E010B5F1F4F9E01295F5C
:102D00003F4F4EE050E00E94A409ED80FE800F810D
:102D10001885B7016250710945E0C8010E942A0672
:102D2000B701C8010E94500683E090E09093AF0283
:102D30008093AE029093AD028093AC028091B60274
:102D40009091B7020E9467088091090190910A0151
:102D5000029611F560E070E0CB010E94170A0E9414
:102D6000090683C98D859E8518161906ECF66D85B2
:102D70007E85759567958B859C85680F791F072ED5
:102D8000000C880B990B0E94811920E030E040E094
:102D90005FE30E94EE17AFCF60E070E080E09FE35A
:102DA000DCCF8F929F92AF92BF92CF92DF92EF9241
:102DB000FF92CF93DF93EC01688179818A819B81B7
:102DC000611571058105910521F464E279ED8BE5CA
:102DD00097E02DE133EF41E050E00E948B1749016D
:102DE0005A019B01AC01A7EAB1E40E94AA176B014A
:102DF0007C01ACEEB4EFA50194010E94B817C60E99
:102E0000D71EE81EF91EF7FE06C081E0C81AD108D9
:102E1000E10880E8F80AC882D982EA82FB82C70109
:102E2000B6019F77DF91CF91FF90EF90DF90CF9029
:102E3000BF90AF909F908F9008958F929F92AF9286
:102E4000BF92CF92DF92EF92FF926091400170911A
:102E50004101809142019091430161157105810505
:102E6000910521F464E279ED8BE597E02DE133EFF4
:102E700041E050E00E948B1749015A019B01AC01CF
:102E8000A7EAB1E40E94AA176B017C01ACEEB4EF93
:102E9000A50194010E94B817C60ED71EE81EF91EA0
:102EA000F7FE06C081E0C81AD108E10880E8F80AF8
:102EB000C0924001D0924101E0924201F092430160
:102EC000C701B6019F77FF90EF90DF90CF90BF9042
:102ED000AF909F908F90089560934001709341014F
:102EE00080934201909343010895F999FECF92BDDA
:102EF00081BDF89A992780B50895262FF999FECFBC
:102F00001FBA92BD81BD20BD0FB6F894FA9AF99A06
:102F10000FBE01960895052E97FB1EF400940E94A3
:102F2000A21757FD07D00E94BD1707FC03D04EF42F
:102F30000C94A21750954095309521953F4F4F4FD7
:102F40005F4F089590958095709561957F4F8F4F55
:102F50009F4F08950E94DF17A59F900DB49F900D7D
:102F6000A49F800D911D11240895B7FF0C94AA17FA
:102F70000E94AA17821B930B0895A1E21A2EAA1B86
:102F8000BB1BFD010DC0AA1FBB1FEE1FFF1FA21719
:102F9000B307E407F50720F0A21BB30BE40BF50B16
:102FA000661F771F881F991F1A9469F7609570959F
:102FB000809590959B01AC01BD01CF010895A29F22
:102FC000B001B39FC001A39F700D811D1124911DFD
:102FD000B29F700D811D1124911D08955058BB277B
:102FE000AA270E9406180C94491A0E94101A38F059
:102FF0000E94171A20F039F49F3F19F426F40C941C
:10300000E6190EF4E095E7FB0C94E019E92F0E9415
:103010006E1A58F3BA17620773078407950720F0F2
:1030200079F4A6F50C94901A0EF4E0950B2EBA2FB5
:10303000A02D0B01B90190010C01CA01A0011124BE
:10304000FF27591B99F0593F50F4503E68F11A166A
:10305000F040A22F232F342F4427585FF3CF4695FB
:1030600037952795A795F0405395C9F77EF41F161D
:10307000BA0B620B730B840BBAF09150A1F0FF0FE7
:10308000BB1F661F771F881FC2F70EC0BA0F621FD3
:10309000731F841F48F4879577956795B795F795C3
:1030A0009E3F08F0B0CF9395880F08F09927EE0F58
:1030B0009795879508950E94101A60F080E891E036
:1030C00009F49EEF0E94171A28F040E851E071F4CD
:1030D0005EEF0CC00C94E6190C94901AE92FE0787E
:1030E0000E946E1A40F3092E052AB1F326173707FE
:1030F0004807590738F00E2E07F8E02569F0E0255B
:10310000E0640AC0EF6307F8009407FADB01B90135
:103110009D01DC01CA01AD01EF930E94EE180E94EF
:10312000491A0E949E185F91552339F02BED3FE01C
:1031300049E450FD49EC0C94EF170895DF93DD2727
:10314000B92FBF7740E85FE31616170648075B07FD
:1031500018F4D92F0E949C1A9F938F937F936F939B
:103160000E94191BECEAF0E00E94E9190E94491A3A
:103170002F913F914F915F910E94B71ADD2351F03B
:103180009058A2EA2AED3FE049EC5FE3D0785D2752
:103190000E940618DF910C94491A0E94BC1908F489
:1031A00081E008950E94201AE3950C945A1A0E9417
:1031B000EB180C94491A0E94171A58F00E94101A22
:1031C00040F029F45F3F29F00C94E01951110C9460
:1031D000911A0C94E6190E946E1A68F39923B1F3C0
:1031E000552391F3951B550BBB27AA27621773072D
:1031F000840738F09F5F5F4F220F331F441FAA1FC1
:10320000A9F335D00E2E3AF0E0E832D0915050407C
:10321000E695001CCAF72BD0FE2F29D0660F771F2A
:10322000881FBB1F261737074807AB07B0E809F010
:10323000BB0B802DBF01FF2793585F4F3AF09E3F95
:10324000510578F00C94E0190C94911A5F3FE4F367
:10325000983ED4F3869577956795B795F7959F5FD8
:10326000C9F7880F911D9695879597F90895E1E024
:10327000660F771F881FBB1F621773078407BA0783
:1032800020F0621B730B840BBA0BEE1F88F7E095DE
:1032900008950E9450196894B1110C94911A0895E0
:1032A0000E94761A88F09F5798F0B92F9927B75146
:1032B000B0F0E1F0660F771F881F991F1AF0BA95DA
:1032C000C9F714C0B13091F00E94901AB1E008958E
:1032D0000C94901A672F782F8827B85F39F0B93F80
:1032E000CCF3869577956795B395D9F73EF490958D
:1032F0008095709561957F4F8F4F9F4F0895E8940B
:1033000009C097FB3EF490958095709561957F4F2D
:103310008F4F9F4F9923A9F0F92F96E9BB279395DB
:10332000F695879577956795B795F111F8CFFAF4EB
:10333000BB0F11F460FF1BC06F5F7F4F8F4F9F4F1C
:1033400016C0882311F096E911C0772321F09EE87A
:10335000872F762F05C0662371F096E8862F70E0E0
:1033600060E02AF09A95660F771F881FDAF7880FBA
:103370009695879597F90895990F0008550FAA0B10
:10338000E0E8FEEF16161706E807F907C0F0121678
:103390001306E407F50798F0621B730B840B950B7B
:1033A00039F40A2661F0232B242B252B21F40895D0
:1033B0000A2609F4A140A6958FEF811D811D08956D
:1033C00097F99F6780E870E060E008959FEF80ECD8
:1033D0000895DF93CF931F930F93FF92EF92DF92A5
:1033E0007B018C01689406C0DA2EEF010E94B71AA7
:1033F000FE01E894A5912591359145915591A6F34B
:10340000EF010E940618FE019701A801DA9469F7FE
:10341000DF90EF90FF900F911F91CF91DF91089572
:1034200000240A94161617061806090608950024A3
:103430000A94121613061406050608950C94E6194C
:103440000E94761AD8F3E894E0E0BB279F57F0F08B
:103450002AED3FE049EC06C0EE0FBB0F661F771F59
:10346000881F28F0B23A62077307840728F0B25A1F
:10347000620B730B840BE3959A9572F7803830F4E6
:103480009A95BB0F661F771F881FD2F790480C9440
:103490001F1B092E0394000C11F4882352F0BB0F5C
:1034A00040F4BF2B11F460FF04C06F5F7F4F8F4F5C
:1034B0009F4F0895EF93E0FF07C0A2EA2AED3FE097
:1034C00049EC5FEB0E9406180E94491A0F90039482
:1034D00001FC9058E9EDF0E00C942B1B57FD90583F
:1034E000440F551F59F05F3F71F04795880F97FBC8
:1034F000991F61F09F3F79F0879508951216130682
:103500001406551FF2CF4695F1DF08C016161706B0
:103510001806991FF1CF86957105610508940895E5
:10352000E894BB2766277727CB0197F908950E9477
:10353000BC1908F48FEF08959B01AC0160E070E0C6
:1035400080E89FE30C94D7180E94B71A0C94491A8C
:103550000E94101A38F00E94171A20F0952311F0DB
:103560000C94E0190C94E61911240C94911A0E9401
:103570006E1A70F3959FC1F3950F50E0551F629F2F
:10358000F001729FBB27F00DB11D639FAA27F00DBC
:10359000B11DAA1F649F6627B00DA11D661F829FE3
:1035A0002227B00DA11D621F739FB00DA11D621FC8
:1035B000839FA00D611D221F749F3327A00D611DE5
:1035C000231F849F600D211D822F762F6A2F1124C7
:1035D0009F5750409AF0F1F088234AF0EE0FFF1FFA
:1035E000BB1F661F771F881F91505040A9F79E3F51
:1035F000510580F00C94E0190C94911A5F3FE4F3AC
:10360000983ED4F3869577956795B795F795E795A6
:103610009F5FC1F7FE2B880F911D9695879597F9AF
:1036200008959F930E94201A0F9007FCEE5F0C9460
:103630005A1A9B01AC010C94A41A9F3F31F091508F
:1036400020F4879577956795B795880F911D969586
:10365000879597F908959F938F937F936F93FF9327
:10366000EF939B01AC010E94A41AEF91FF910E947D
:10367000E9192F913F914F915F910C94A41A97FBF8
:10368000072E16F4009407D077FD09D00E94531B33
:1036900007FC05D03EF4909581959F4F0895709555
:1036A00061957F4F0895AA1BBB1B51E107C0AA1F5C
:1036B000BB1FA617B70710F0A61BB70B881F991FD3
:1036C0005A95A9F780959095BC01CD010895EE0F0C
:0E36D000FF1F0590F491E02D0994F894FFCFB0
:1036DE00103C00040001000100010001FFFFFFFF8C
:1036EE0000E10000000000000100000000000000EA
:1036FE0000000000000000000000000000000000BC
:10370E0000000000000000000000000000000000AB
:10371E000100000000C18081000000000000009F39
:10372E00046007C004B5040605C404E204000000EA
:10373E0000A506B205090808082B002D003A200046
:10374E000A00596F75206C617374656420002074D3
:06375E0075726E7300009D
:00000001FF
