:100000000C946C030C9494030C9494030C9494033C
:100010000C9494030C9494030C9494030C94940304
:100020000C9494030C9494030C940E070C947D0789
:100030000C9494030C9494030C9494030C949403E4
:100040000C9494030C9494030C9494030C949403D4
:100050000C9494030C9494030C9494030C94AF09A3
:100060000C9494030C9494030C9494030C949403B4
:100070000C9494030C9494030C9494030C949403A4
:100080000C9494030C9494030C9494030C94940394
:100090000C9494030C9494030C9494030C94940384
:1000A0000C9494030C9494030C94940300000000AB
:1000B000003E5B4F5B3E3E6B4F6B3E1C3E7C3E1CEE
:1000C000183C7E3C181C577D571C1C5E7F5E1C0034
:1000D000183C1800FFE7C3E7FF0018241800FFE7EB
:1000E000DBE7FF30483A060E2629792926407F05AE
:1000F0000507407F05253F5A3CE73C5A7F3E1C1CC4
:1001000008081C1C3E7F14227F22145F5F005F5F83
:1001100006097F017F006689956A6060606060946F
:10012000A2FFA29408047E040810207E2010080874
:100130002A1C08081C2A08081E101010100C1E0C7F
:100140001E0C30383E3830060E3E0E060000000011
:100150000000005F00000007000700147F147F14F8
:10016000242A7F2A1223130864623649562050003D
:1001700008070300001C2241000041221C002A1C29
:100180007F1C2A08083E0808008070300008080814
:100190000808000060600020100804023E51494534
:1001A0003E00427F400072494949462141494D3352
:1001B0001814127F1027454545393C4A49493141B9
:1001C000211109073649494936464949291E000087
:1001D00014000000403400000008142241141414DC
:1001E0001414004122140802015909063E415D59C8
:1001F0004E7C1211127C7F494949363E41414122D1
:100200007F4141413E7F494949417F090909013EFA
:10021000414151737F0808087F00417F4100204021
:10022000413F017F081422417F404040407F021C33
:10023000027F7F0408107F3E4141413E7F0909094A
:10024000063E4151215E7F09192946264949493216
:1002500003017F01033F4040403F1F2040201F3FDC
:100260004038403F63140814630304780403615961
:10027000494D43007F4141410204081020004141A3
:10028000417F04020102044040404040000307084F
:100290000020545478407F2844443838444444284B
:1002A000384444287F385454541800087E090218F2
:1002B000A4A49C787F0804047800447D400020407A
:1002C000403D007F1028440000417F40007C0478BE
:1002D00004787C080404783844444438FC18242406
:1002E0001818242418FC7C08040408485454542486
:1002F00004043F44243C4040207C1C2040201C3C03
:100300004030403C44281028444C9090907C4464F9
:10031000544C44000836410000007700000041368C
:10032000080002010204023C2623263C1EA1A16112
:10033000123A4040207A3854545559215555794144
:100340002154547841215554784020545579400C1B
:100350001E527212395555555939545454593955FC
:100360005454580000457C410002457D420001453F
:100370007C40F0292429F0F0282528F07C545545AC
:10038000002054547C547C0A097F4932494949323F
:100390003248484832324A4848303A4141217A3A54
:1003A00042402078009DA0A07D39444444393D401E
:1003B00040403D3C24FF2424487E4943662B2FFCCB
:1003C0002F2BFF0929F620C0887E09032054547979
:1003D000410000447D413048484A32384040227A4A
:1003E000007A0A0A727D0D19317D2629292F2826C7
:1003F0002929292630484D402038080808080808CF
:100400000808382F10C8ACBA2F102834FA00007B27
:10041000000008142A142222142A1408950022002D
:1004200095AA005500AAAA55AA55AA000000FF00E7
:10043000101010FF00141414FF001010FF00FF1024
:1004400010F010F0141414FC001414F700FF000056
:10045000FF00FF1414F404FC141417101F10101FD5
:10046000101F1414141F00101010F0000000001FC3
:10047000101010101F10101010F010000000FF10CE
:100480001010101010101010FF10000000FF1400CA
:1004900000FF00FF00001F10170000FC04F41414FC
:1004A0001710171414F404F40000FF00F7141414C8
:1004B00014141414F700F7141414171410101F1048
:1004C0001F141414F4141010F010F000001F101F6B
:1004D0000000001F14000000FC140000F010F010D9
:1004E00010FF10FF141414FF141010101F00000050
:1004F00000F010FFFFFFFFFFF0F0F0F0F0FFFFFF54
:100500000000000000FFFF0F0F0F0F0F38444438AA
:10051000447C2A2A3E147E02020606027E027E02E5
:1005200063554941633844443C04407E201E200604
:10053000027E020299A5E7A5991C2A492A1C4C7241
:1005400001724C304A4D4D303048784830BC625AC8
:10055000463D3E494949007E0101017E2A2A2A2A58
:100560002A44445F444440514A444040444A514034
:100570000000FF0103E080FF000008086B6B0836F5
:1005800012362436060F090F060000181800000066
:100590001010003040FF0101001F01011E00191D55
:1005A0001712003C3C3C3C0000000000F0F89C8E20
:1005B0008783878E9CF8F00000FEFF03030303038C
:1005C000070EFCF80000FEFF0303030303070EFC05
:1005D000F80000FFFF00000000000000FFFF000027
:1005E000FEFF8383838383C7EE7C380000F8FC0E14
:1005F00007030303070EFCF800003F7FE0C0808084
:10060000C0E07F3FFFFF01010101010101FFFF0089
:1006100000FFFF0C0C0C0C1C3E77E3C100007FFFB9
:10062000C0C0C0C0C0E0703F1F00001F3F70E0C0EE
:10063000C0C0E0703F1F00007FFFC1C1C1C1C1E366
:10064000773E1C00001F3F70E0C0C0C0E0703F1F3D
:10065000000000000001FFFF01000000D5F08D1434
:10066000A1C881CFD9F1AF2000080B00020202001F
:100670000009040000010202000005240010010529
:100680002401010104240206052406000107058156
:100690000310004009040100020A000000070502DF
:1006A0000240000007058302400000040309041211
:1006B000010002EF020140412336800001010203E4
:1006C0000141726475696E6F204C4C430041726445
:1006D00075626F7900002C0A11241FBECFEFDAE09B
:1006E000DEBFCDBF11E0A0E0B1E0ECE8FCE102C06C
:1006F00005900D92AE39B107D9F726E0AEE9B1E029
:1007000001C01D92A931B207E1F713E0CCE6D3E0B6
:1007100004C02197FE010E94190DCB36D107C9F7FD
:100720000E94490A0C94440E0C940000E1ECF1E0A4
:10073000A0E0B8E000800EBC8111012C1197A0FD53
:10074000FDCF0192B9F70DB40895FC018091C0016D
:10075000882311F13FB7F89482E08093E90020915B
:10076000F200822F90E01816190614F481E090E050
:10077000882339F0289844E64093BF014091F10066
:100780004083222339F02091F200211103C02BE68F
:100790002093E8003FBF08958FEF9FEF08952FB794
:1007A000F89483E08093E9009091E800892F8072AB
:1007B00095FF04C09091F20080E4891B2FBF08953B
:1007C0008091B70181110DC082E08093B30184E074
:1007D0008093B4011092B6011092B50181E080932C
:1007E000B70183EB91E00895CF93DF931F92CDB7CC
:1007F000DEB76983DC01ED91FC910280F381E02D8D
:1008000041E050E0BE016F5F7F4F09950F90DF918F
:10081000CF91089583E08093E9008091F2008823CE
:1008200019F08AE38093E80008950E94CF0390E0D6
:100830000895CF93DF931F92CDB7DEB7FC01848577
:10084000958597FD08C02FEF3FEF358724870F90E0
:10085000DF91CF910895CE0101960E94A5030197E3
:1008600019F4898190E0F3CF8FEF9FEFF0CF0F93D2
:100870001F93CF93DF931F92CDB7DEB78C01FC019E
:100880008485958597FF0BC0CE0101960E94A50334
:10089000019771F4898190E0F80195878487F801C8
:1008A000848595850F90DF91CF911F910F910895C9
:1008B0008FEF9FEFF1CFFC018485958597FD0BC0ED
:1008C0009FB7F89482E08093E9008091F2009FBF87
:1008D00090E0019608959FB7F89482E08093E90034
:1008E0008091F2009FBF90E008954091AD0150913A
:1008F000AE012091AB013091AC0142175307B4F423
:100900009091E8009570E1F39091E80092FD19C094
:100910008093F1008091AD019091AE0101968F73AB
:100920009927892B19F48EEF8093E8008091AD010F
:100930009091AE0101969093AE018093AD0181E05C
:10094000089580E00895DF92EF92FF920F931F9336
:10095000CF93DF93D82E8A01EB017B01E40EF51EC5
:10096000CE15DF0559F0D7FE12C0FE0184910E941A
:10097000750421968111F4CF0FEF1FEFC801DF91AD
:10098000CF911F910F91FF90EF90DF900895888194
:10099000EECF0F931F93CF93DF931F92CDB7DEB7A8
:1009A00082E0898342E450E069E676E080E80E94D4
:1009B000A3040E94E003DC0112960D911C91011525
:1009C000110589F0D801ED91FC910280F381E02DB1
:1009D000BE016F5F7F4FC801099597FD04C0F80104
:1009E00000851185ECCF89810F90DF91CF911F9108
:1009F0000F910895615030F02091F100FC012083A7
:100A00000196F8CF289884E68093BF0108953FB7F8
:100A1000F8948091A7019091A801A091A901B091AB
:100A2000AA0126B5A89B05C02F3F19F00196A11D6C
:100A3000B11D3FBFBA2FA92F982F8827BC01CD0128
:100A4000620F711D811D911D42E0660F771F881F87
:100A5000991F4A95D1F708958F929F92AF92BF92B6
:100A6000CF92DF92EF92FF926B017C010E9407050B
:100A70004B015C01C114D104E104F104B9F00E94FE
:100A80000705681979098A099B09683E7340810541
:100A9000910580F321E0C21AD108E108F10888EE3F
:100AA000880E83E0981EA11CB11CE4CFFF90EF904C
:100AB000DF90CF90BF90AF909F908F9008958F92CE
:100AC0009F92AF92BF92CF92DF92EF92FF920F93DD
:100AD0001F93CF93DF936C017B018A0180910B01FF
:100AE000882309F45CC08091C001882309F457C0B1
:100AF0008091B20180FF05C08091E0008260809308
:100B0000E000E801B12C8AEFA82E93E0892E2AE3B9
:100B1000922E209711F4BB20D9F10E94CF038111AE
:100B20000AC0AA94AA20D9F161E070E080E090E0C8
:100B30000E942C05EECF8C171D0611F00CF08C2FA7
:100B40009FB7F8948092E9002091E80025FD02C04B
:100B50009FBFDFCF282F30E0C21BD30BF70181509E
:100B600020F041914093F100FACFE20EF31EBB203A
:100B700021F09092E800B12CEBCF8091E80085FD48
:100B8000E7CF9092E800BB24B394209709F3F3CF0A
:100B90005D9884E68093B101101611063CF081E067
:100BA00090E0F6019383828310E000E0C801DF91BA
:100BB000CF911F910F91FF90EF90DF90CF90BF905A
:100BC000AF909F908F900895AF92BF92CF92DF9297
:100BD000EF92FF920F931F93CF93DF936C017B01F2
:100BE0008B01040F151FEB015E01AE18BF08C01783
:100BF000D10759F06991D601ED91FC910190F081F6
:100C0000E02DC6010995892B79F7C501DF91CF91B8
:100C10001F910F91FF90EF90DF90CF90BF90AF901A
:100C200008952D9A0895BC0190E080E00C942C0565
:100C30008FB18095807F669B88601C9B846008953F
:100C4000AF92BF92CF92DF92EF92FF920F931F93DA
:100C5000CF93DF936D3079F0C091A001D091A101C5
:100C60006A30B1F410929F0110929E012896D093A1
:100C7000A101C093A00181E090E0DF91CF911F918D
:100C80000F91FF90EF90DF90CF90BF90AF900895BD
:100C900040919E0150919F0185E0689FF0011124D1
:100CA000E455FF4F9A01C12C80E1E82EA5E070E0E9
:100CB000CA1621F0CF0101967491FC0110E000E00A
:100CC000B72FB170DB2E20383105D0F4CE01800F64
:100CD000911F80349105A0F461E081FD64E080FD06
:100CE000660F82FD6295887FE89ED0011124A20FD5
:100CF000F62EAF53BE4F8C91DD20A9F0862B8C933E
:100D000076950F5F1F4F08301105D1F6C3942F5F02
:100D10003F4F86E0C812CACF4A5F5F4F50939F0192
:100D200040939E01A8CFF0948F21E9CF80E00C94EE
:100D30009603089590E080E008958F929F92AF927D
:100D4000BF920F931F93CF93DF93CDB7DEB7A197D9
:100D50000FB6F894DEBF0FBECDBF19A2423008F423
:100D60004AE08E010F5D1F4F842E912CB12CA12CD7
:100D7000A50194010E94F70CE62FB901CA01EA30DF
:100D800044F5E05DD801EE938D01232B242B252B18
:100D900079F790E080E0109769F0FD010190002064
:100DA000E9F73197AF014A1B5B0BBD0181E196E08A
:100DB0000E94E405A1960FB6F894DEBF0FBECDBF2A
:100DC000DF91CF911F910F91BF90AF909F908F9027
:100DD0000895E95CD7CFCF92DF92EF92FF92CF9345
:100DE000DF936B017C016DE281E196E00E942006B9
:100DF000EC0166277727CB016C197D098E099F09C5
:100E00004AE00E949D068C0F9D1FDF91CF91FF90BD
:100E1000EF90DF90CF9008950C94E10C1F920F9209
:100E20000FB60F9211248F939F938091E1009091C0
:100E3000E100937F9093E10083FF0FC01092E900DF
:100E400091E09093EB001092EC0092E39093ED0010
:100E50001092C00198E09093F00082FF22C093E0CE
:100E60009093E9009091F200992319F09AE39093FE
:100E7000E8009091B101992341F09091B101915016
:100E80009093B101911101C05D9A9091BF01992396
:100E900041F09091BF0191509093BF01911101C019
:100EA000289A84FF18C08091E2008E7E8160809332
:100EB000E2008091E1008F7E8093E1008091B20199
:100EC0008E7E80618093B2019F918F910F900FBEB3
:100ED0000F901F90189580FFF7CF8091E2008E7ED3
:100EE00080618093E2008091E1008E7E8093E1003A
:100EF0008091B2018E7E8160E5CF1F920F920FB676
:100F00000F921124CF92DF92EF92FF920F931F93D3
:100F10002F933F934F935F936F937F938F939F9301
:100F2000AF93BF93EF93FF93CF93DF93CDB7DEB72C
:100F30006C97DEBFCDBF1092E9008091E80083FF7F
:100F400025C068E0CE0145960E94FA0482EF8093A6
:100F5000E8008D8987FF39C09091E80090FFFCCFB1
:100F6000982F907609F034C19E894F89588D2F892A
:100F7000F88C911131C0803861F58091B001809377
:100F8000F1001092F1008EEF8093E8006C960FB69E
:100F9000F894DEBF0FBECDBFDF91CF91FF91EF91EF
:100FA000BF91AF919F918F917F916F915F914F9181
:100FB0003F912F911F910F91FF90EF90DF90CF9075
:100FC0000F900FBE0F901F9018959EEF9093E80022
:100FD000C7CF1092F100D5CF913059F48111D3CF02
:100FE0004130510581F68091B0018D7F8093B00131
:100FF000CACF933049F48111C6CF4130510519F65B
:101000008091B0018260F2CF953041F48091E80088
:1010100080FFFCCF20682093E300B5CF963009F025
:10102000A9C00B8D1C8D22E01092E9001092AE0138
:101030001092AD01F2122EC01092AC011092AB01D1
:101040000E94C9041F8299E09983FA8291E09E83ED
:1010500090EA98879AEF99872091AD013091AE017F
:10106000275F3F4F3C832B838D831092E9001092C2
:10107000AE011092AD011093AC010093AB0149E0B9
:1010800050E0BE016F5F7F4F80E00E94A3040E948A
:10109000C90479CF1093AC010093AB010E94E00327
:1010A000DC0112960D911C910115110509F451C135
:1010B000D801ED91FC910480F581E02DBE016B5EBD
:1010C0007F4FC8010995009709F03EC1F8010085DE
:1010D0001185EACFF3E0FF120EC08F89882309F44F
:1010E00040C0823061F440E867E08DEC96E00E94F9
:1010F000F909811148CF81E28093EB0047CF81301D
:1011000029F440E86BE081EC96E0F1CF833099F769
:101110000E94E003DC011296ED90FC908E010F5FBF
:101120001F4F6801E114F10479F0D701ED91FC91B2
:101130000680F781E02DB801C7010995080F111D40
:10114000F701E084F184EECFD8011C92F601019002
:101150000020E9F73197BF016C197D0940E0C60115
:10116000C6CF6BEA76E0FB01449150E080E80E9434
:10117000A30409CF973009F4BECF983021F481E061
:101180008093F10000CF993009F0FDCE837009F013
:10119000B2CFE7E7F1E081E031E096E3219122234D
:1011A00071F08093E9003093EB00DF0111972C91EF
:1011B0002093EC009093ED008F5F873079F78EE7F6
:1011C0008093EA001092EA008F898093C001DBCE01
:1011D0008B8D9C8D1092E9001092AE011092AD01A2
:1011E0009093AC018093AB01898D811192C08E895F
:1011F0009D89913A49F4813209F07DCF47E050E072
:1012000064E071E080E0B3CF913209F074CF8332B3
:1012100069F48F89988DB0E0A0E0809300019093ED
:101220000101A0930201B0930301ADCE803269F4B5
:101230008091E80082FFFCCF67E084E091E00E94AB
:10124000FA048BEF8093E8009ECE823209F09BCEA9
:101250008F8980930B01EEEFFFE7859194918B3F8F
:101260009C4D51F1E0E0F8E080910401909105017E
:10127000A0910601B0910701803B9440A105B10502
:10128000F1F480910B0180FD1AC0EE3F8AE0F8076F
:1012900089F587E797E79183808380916000809349
:1012A000AF0188E19BE00FB6F894A89580936000A9
:1012B0000FBE9093600067CEEEEFFAE0D5CF80814D
:1012C00091818737974709F05ECEA895809160009D
:1012D0008861809360008091AF0180936000EE3F51
:1012E0002AE0F20789F08091FE0A9091FF0A91832B
:1012F000808349CE808191818737980751F29093FE
:10130000FF0A8093FE0AC5CF1092FF0A1092FE0AD0
:101310003ACE0E94E003DC0112960D911C9101155A
:10132000110509F4E8CED801ED91FC910190F0810E
:10133000E02DBE016B5E7F4FC8010995811123CE60
:10134000F80100851185EBCF181619060CF41BCE99
:10135000D2CEF1E0FF12BECE6FEA76E004CF1F924C
:101360000F920FB60F9211242F933F938F939F9359
:10137000AF93BF938091A3019091A401A091A50187
:10138000B091A6013091A20123E0230F2D3758F52B
:101390000196A11DB11D2093A2018093A3019093FA
:1013A000A401A093A501B093A6018091A7019091FB
:1013B000A801A091A901B091AA010196A11DB11D9A
:1013C0008093A7019093A801A093A901B093AA01CB
:1013D000BF91AF919F918F913F912F910F900FBE31
:1013E0000F901F90189526E8230F0296A11DB11D9E
:1013F000D2CFEF92FF920F931F93CF93DF93F82EEC
:10140000192FE62E042F81E0860F880F0E947504A5
:1014100083E00E947504CF2DD12FEC0EFD2EF11C20
:10142000CE15DF05B9F007FF13C0FE0184910E94BD
:101430007504182F80E00E94750481232196811184
:10144000EFCFDF91CF911F910F91FF90EF90089513
:101450008881EDCF81E0F5CFE1ECF5E013821282D7
:1014600088EE93E0A0E0B0E084839583A683B78301
:1014700081E891E0918380838FEF9FEF9587848748
:10148000E1E1F6E01382128283E991E091838083A7
:101490000895789484B5826084BD84B5816084BDEC
:1014A00085B5826085BD85B5816085BD80916E0002
:1014B000816080936E001092810080918100826033
:1014C0008093810080918100816080938100809170
:1014D0008000816080938000809191008260809381
:1014E00091008091910081608093910080919000A3
:1014F0008160809390008091C10084608093C100DE
:101500008091C10082608093C1008091C1008160A0
:101510008093C1008091C30081608093C30080915B
:10152000C00082608093C0008091C200816080937F
:10153000C20080917A00846080937A0080917A0062
:10154000826080937A0080917A00816080937A0033
:1015500080917A00806880937A001092C001109286
:10156000B0011092B2018091D70081608093D700C2
:1015700080EA8093D80089B5806189BD89B5826091
:1015800089BD09B400FEFDCF61E070E080E090E02D
:101590000E942C058091D8008F7C80618093D800B8
:1015A0008091E000807F8093E0008091E1008E7E5A
:1015B0008093E1008DE08093E200559A209A81ECBF
:1015C00080937C0085B1806F85B984B1877E84B9B2
:1015D00084B1876E84B95E9A5F988AB1806D8AB94A
:1015E000769A6E9881B3806F81BB899880B38D7035
:1015F00080BB80E58CBD81E08DBD85E090E00E94E0
:1016000013065F9A85E090E00E9413065E985C984E
:10161000ECE5F6E089E696E024912EBD00000DB4DD
:1016200007FEFDCF31968E179F07B1F75C9A81E8D0
:1016300080936400809165008160809365000E94C2
:1016400096060E94180687FF15C05C9885EA8EBD35
:1016500000000DB407FEFDCF5C9A2E982F982D98B0
:101660008091640080628093640081E083BF8895EC
:1016700013BEFCCF0E94180682FF48C02D980E941E
:10168000180684788438E1F40E94110688EC90E012
:101690000E9413062F9882E090E00E94E10C8F3F99
:1016A00029F06FEF82E090E00E94E90C84EF91E076
:1016B0000E9413062F9A0E94180684788438D9F362
:1016C0000E94180684718431E1F40E94110688ECAE
:1016D00090E00E9413062E9882E090E00E94E10CB8
:1016E000882329F060E082E090E00E94E90C84EF1A
:1016F00091E00E9413062E9A0E941806847184318C
:10170000D9F388EC90E00E941306B4CF0E94110632
:1017100082E090E00E940C07882309F48AC03E9A78
:101720003F9A81E090E00E940C07482F4470942E6D
:1017300081FF10C041112E98C1EFDFEF08E010E0EB
:1017400078E5872E0E94180686FF76C02E9A2F9A7B
:101750000E94110682E390E00E9413060E94180680
:101760008111F8CFE1ECF1E081118FEF002481933A
:101770008193819381930394D1F71092A1011092E8
:10178000A00110929F0110929E0186E090E00E94BD
:101790001F0DEC0181E090E099838883DB83CA838D
:1017A000DD83CC8304E111E0F801E190F1908F0139
:1017B00086E090E00E941F0DFC01F182E082D3835D
:1017C000C283AC81BD81B583A48313969C938E9311
:1017D00012979D838C83F1E00C311F0729F74AE0B3
:1017E00065E070E080E090E00E949D0641E050E0FE
:1017F0006BE971E081E196E00E94E4050AE010E007
:1018000068817981072E000C880B990B97FFD5C052
:101810000E94EB060C80DD81C02D0150110981F77B
:101820000E949606C0E0D0E02097F1F30E940000ED
:10183000FBCF3E983F9875CF992029F0C430D10551
:1018400011F42E9A2F9881E00E9496039E01D7FFF3
:1018500004C0222733272C1B3D0B27703327CE01D2
:10186000D7FD079663E0959587956A95E1F7D7FFD1
:1018700005C00197F801E21BF30B9F01BC017695AF
:10188000762F6627779567956F537E4FF12CE12C65
:101890003801621A730A8E3FFFEF9F0709F43DC0BB
:1018A0008E9CD0018F9CB00D112450E040E0A455D7
:1018B000BA4F5B01E0E8AE0EB11C8F3F980791F084
:1018C000FD01E40FF51FE4916B01C40ED51EF0E09D
:1018D0002F01022E01C0440C0A94EAF7F601548845
:1018E0004528448A2115310599F0FD01E40FF51FC3
:1018F000E4916501C40ED51EF0E02F01062C02C054
:10190000559447940A94E2F7F60154884528448A8E
:101910004F5F5F4F4835510581F6019660587F4F04
:10192000EA94EF2809F045C00E9496068FE090E007
:101930000E9413062196C931D10509F003CF9920E1
:1019400011F02F9A2D9880E991E00E9413060E94D1
:10195000110681E090E00E940C0780FFFBCE8AE038
:1019600090E00E940C079FEF980F9E3F08F0F2CE88
:1019700022E330E030939F0120939E0128E330E082
:101980003093A1012093A001CBE0D0E0682F81E14A
:1019900096E00E942006CE010E940C072196C131DC
:1019A000D105A1F70E94960688EE93E00E941306E7
:1019B000D1CEEE24E394F12C6ECF4AE00E949D0636
:1019C00029CFF999FECF92BD81BDF89A992780B5AC
:1019D0000895262FF999FECF1FBA92BD81BD20BD73
:1019E0000FB6F894FA9AF99A0FBE01960895A1E2FB
:1019F0001A2EAA1BBB1BFD010DC0AA1FBB1FEE1F89
:101A0000FF1FA217B307E407F50720F0A21BB30BD3
:101A1000E40BF50B661F771F881F991F1A9469F74F
:101A200060957095809590959B01AC01BD01CF01AB
:101A30000895EE0FFF1F0590F491E02D09940F9388
:101A40001F93CF93DF938230910510F482E090E0F2
:101A5000E0911706F091180630E020E0B0E0A0E039
:101A6000309799F42115310509F44AC0281B390B28
:101A700024303105D8F58A819B816115710589F182
:101A8000FB0193838283FE0111C040815181028159
:101A9000138148175907E0F04817590799F4109730
:101AA00061F012960C93129713961C933296CF0105
:101AB000DF91CF911F910F91089500931706109316
:101AC0001806F4CF2115310551F04217530738F0AD
:101AD000A901DB019A01BD01DF01F801C1CFEF01CE
:101AE000F9CF9093180680931706CDCFFE01E20F31
:101AF000F31F819391932250310939832883D7CFE3
:101B00002091150630911606232B41F420910E01E9
:101B100030910F01309316062093150620910C0189
:101B200030910D012115310541F42DB73EB740919B
:101B3000100150911101241B350BE0911506F09115
:101B40001606E217F307A0F42E1B3F0B28173907E0
:101B500078F0AC014E5F5F4F2417350748F04E0F09
:101B60005F1F5093160640931506819391939FCF64
:101B7000F0E0E0E09CCFCF93DF930097E9F0FC0129
:101B8000329713821282A0911706B0911806ED01C8
:101B900030E020E01097A1F420813181820F931F63
:101BA00020911506309116062817390709F061C0F3
:101BB000F0931606E0931506DF91CF910895EA01A0
:101BC000CE17DF07E8F54A815B819E01411551057B
:101BD000B1F7E901FB83EA8349915991C40FD51FFD
:101BE000EC17FD0761F4808191810296840F951FA7
:101BF000E90199838883828193819B838A83F0E0C2
:101C0000E0E012968D919C9113970097B9F52D9174
:101C10003C911197CD010296820F931F20911506DA
:101C2000309116062817390739F6309751F510927A
:101C3000180610921706B0931606A0931506BCCF8F
:101C4000D383C28340815181840F951FC817D90760
:101C500061F44E5F5F4F88819981480F591F51830E
:101C600040838A819B81938382832115310509F00A
:101C7000B0CFF0931806E09317069ECFFD01DC016C
:0C1C8000C0CF13821282D7CFF894FFCFA0
:101C8C00FFFFFFFF00E1000000000000000019064C
:101C9C00800001000200FFFF0200010000000000B4
:101CAC000000000000000000000000000000000028
:101CBC000000000000000000000000000000000018
:101CCC000000000000000000000000000000000008
:101CDC0000000000000000000000000000000000F8
:101CEC0000000000000000000000000000000000E8
:101CFC0000000000000000C1808100000000000016
:101D0C0000F4035F0515040A045B0419043704008E
:0E1D1C000000002006E4059A0699063A000031
:00000001FF
