:100000000C947B030C94A3030C94A3030C94A30300
:100010000C94A3030C94A3030C94A3030C94A303C8
:100020000C94A3030C94A3030C94DE0A0C944D0BC4
:100030000C94A3030C94A3030C94A3030C94A303A8
:100040000C94A3030C94A3030C94A3030C94A30398
:100050000C94A3030C94A3030C94A3030C947F0DA2
:100060000C94A3030C94A3030C94A3030C94A30378
:100070000C94A3030C94A3030C94A3030C94A30368
:100080000C94A3030C94A3030C94A3030C94A30358
:100090000C94A3030C94A3030C94A3030C94A30348
:1000A0000C94A3030C94A3030C94A30305A84CCDB8
:1000B000B2D44EB93836A9020C50B9918688083CA2
:1000C000A6AAAA2ABE000000803F00000000003E51
:1000D0005B4F5B3E3E6B4F6B3E1C3E7C3E1C183CB8
:1000E0007E3C181C577D571C1C5E7F5E1C00183C14
:1000F0001800FFE7C3E7FF0018241800FFE7DBE75D
:10010000FF30483A060E2629792926407F05050743
:10011000407F05253F5A3CE73C5A7F3E1C1C08089F
:100120001C1C3E7F14227F22145F5F005F5F060964
:100130007F017F006689956A606060606094A2FFBD
:10014000A29408047E040810207E201008082A1CAF
:1001500008081C2A08081E101010100C1E0C1E0C7B
:1001600030383E3830060E3E0E060000000000001B
:10017000005F00000007000700147F147F14242A8A
:100180007F2A12231308646236495620500008075C
:100190000300001C2241000041221C002A1C7F1C7D
:1001A0002A08083E0808008070300008080808087F
:1001B000000060600020100804023E5149453E00E6
:1001C000427F400072494949462141494D33181444
:1001D000127F1027454545393C4A49493141211193
:1001E00009073649494936464949291E0000140085
:1001F00000004034000000081422411414141414A8
:10020000004122140802015909063E415D594E7C05
:100210001211127C7F494949363E414141227F41BA
:1002200041413E7F494949417F090909013E414118
:1002300051737F0808087F00417F41002040413F03
:10024000017F081422417F404040407F021C027F12
:100250007F0408107F3E4141413E7F090909063E67
:100260004151215E7F091929462649494932030136
:100270007F01033F4040403F1F2040201F3F403848
:10028000403F631408146303047804036159494D23
:1002900043007F4141410204081020004141417F59
:1002A00004020102044040404040000307080020CF
:1002B000545478407F2844443838444444283844CF
:1002C00044287F385454541800087E090218A4A406
:1002D0009C787F0804047800447D40002040403D25
:1002E000007F1028440000417F40007C047804789F
:1002F0007C080404783844444438FC182424181832
:10030000242418FC7C08040408485454542404048D
:100310003F44243C4040207C1C2040201C3C40307A
:10032000403C44281028444C9090907C4464544CA9
:100330004400083641000000770000004136080004
:1003400002010204023C2623263C1EA1A161123AAE
:100350004040207A385454555921555579412154FB
:10036000547841215554784020545579400C1E5200
:1003700072123955555559395454545939555454A4
:10038000580000457C410002457D420001457C400B
:10039000F0292429F0F0282528F07C545545002028
:1003A00054547C547C0A097F4932494949323248C5
:1003B000484832324A4848303A4141217A3A42402C
:1003C0002078009DA0A07D39444444393D40404000
:1003D0003D3C24FF2424487E4943662B2FFC2F2BD1
:1003E000FF0929F620C0887E090320545479410072
:1003F00000447D413048484A32384040227A007AF1
:100400000A0A727D0D19317D2629292F28262929CE
:10041000292630484D4020380808080808080808F0
:10042000382F10C8ACBA2F102834FA00007B000017
:1004300008142A142222142A14089500220095AACE
:10044000005500AAAA55AA55AA000000FF001010E6
:1004500010FF00141414FF001010FF00FF1010F024
:1004600010F0141414FC001414F700FF0000FF0037
:10047000FF1414F404FC141417101F10101F101F85
:100480001414141F00101010F0000000001F1010B2
:1004900010101F10101010F010000000FF101010AE
:1004A000101010101010FF10000000FF140000FFCB
:1004B00000FF00001F10170000FC04F414141710B4
:1004C000171414F404F40000FF00F71414141414A7
:1004D0001414F700F7141414171410101F101F141D
:1004E0001414F4141010F010F000001F101F00007E
:1004F000001F14000000FC140000F010F01010FFAA
:1005000010FF141414FF141010101F00000000F04E
:1005100010FFFFFFFFFFF0F0F0F0F0FFFFFF000023
:10052000000000FFFF0F0F0F0F0F38444438447CCA
:100530002A2A3E147E02020606027E027E026355CD
:100540004941633844443C04407E201E2006027E1C
:10055000020299A5E7A5991C2A492A1C4C7201722E
:100560004C304A4D4D303048784830BC625A463D98
:100570003E494949007E0101017E2A2A2A2A2A444D
:10058000445F444440514A444040444A5140000082
:10059000FF0103E080FF000008086B6B083612368D
:1005A0002436060F090F060000181800000010106E
:1005B000003040FF0101001F01011E00191D17122C
:1005C000003C3C3C3C0000000000F0F89C8E87831F
:1005D000878E9CF8F00000FEFF0303030303070E61
:1005E000FCF80000FEFF0303030303070EFCF80002
:1005F00000FFFF00000000000000FFFF0000FEFF02
:100600008383838383C7EE7C380000F8FC0E0703E6
:100610000303070EFCF800003F7FE0C08080C0E0CD
:100620007F3FFFFF01010101010101FFFF0000FF0A
:10063000FF0C0C0C0C1C3E77E3C100007FFFC0C018
:10064000C0C0C0E0703F1F00001F3F70E0C0C0C0CE
:10065000E0703F1F00007FFFC1C1C1C1C1E3773E11
:100660001C00001F3F70E0C0C0C0E0703F1F0000D2
:1006700000000001FFFF01000000D5F08D14A1C8AB
:1006800081CFD9F1AF2000080B000202020000095F
:1006900004000001020200000524001001052401ED
:1006A0000101042402060524060001070581031048
:1006B000004009040100020A000000070502024090
:1006C0000000070583024000000403090412010032
:1006D00002EF020140412336800001010203014183
:1006E000726475696E6F204C4C4300417264756290
:1006F0006F790000FC0D11241FBECFEFDAE0DEBFE2
:10070000CDBF11E0A0E0B1E0EAEEFEE202C005904C
:100710000D92A23CB107D9F727E0A2ECB1E001C0ED
:100720001D92A73CB207E1F713E0CBE7D3E004C08A
:100730002197FE010E946D17CA37D107C9F70E94A1
:10074000190E0C9473170C940000E3E7F3E0A0E09B
:10075000B8E000800EBC8111012C1197A0FDFDCFE7
:100760000192B9F70DB40895FC01809172038823BA
:1007700011F13FB7F89482E08093E9002091F200F4
:10078000822F90E01816190614F481E090E0882377
:1007900039F0289844E6409371034091F10040837A
:1007A000222339F02091F200211103C02BE620937F
:1007B000E8003FBF08958FEF9FEF08952FB7F8949B
:1007C00083E08093E9009091E800892F807295FF83
:1007D00004C09091F20080E4891B2FBF089580919E
:1007E000690381110DC082E08093650384E08093EA
:1007F0006603109268031092670381E08093690397
:1008000085E693E00895CF93DF931F92CDB7DEB7CF
:100810006983DC01ED91FC910280F381E02D41E0E0
:1008200050E0BE016F5F7F4F09950F90DF91CF9130
:10083000089583E08093E9008091F200882319F005
:100840008AE38093E80008950E94DE0390E0089513
:10085000CF93DF931F92CDB7DEB7FC0184859585DA
:1008600097FD08C02FEF3FEF358724870F90DF916A
:10087000CF910895CE0101960E94B403019719F417
:10088000898190E0F3CF8FEF9FEFF0CF0F931F930D
:10089000CF93DF931F92CDB7DEB78C01FC01848527
:1008A000958597FF0BC0CE0101960E94B403019776
:1008B00071F4898190E0F80195878487F801848537
:1008C00095850F90DF91CF911F910F9108958FEF34
:1008D0009FEFF1CFFC018485958597FD0BC09FB7F5
:1008E000F89482E08093E9008091F2009FBF90E04D
:1008F000019608959FB7F89482E08093E900809173
:10090000F2009FBF90E0089540915F035091600313
:1009100020915D0330915E0342175307B4F4909128
:10092000E8009570E1F39091E80092FD19C0809382
:10093000F10080915F039091600301968F73992776
:10094000892B19F48EEF8093E80080915F039091DA
:10095000600301969093600380935F0381E00895A4
:1009600080E00895DF92EF92FF920F931F93CF9351
:10097000DF93D82E8A01EB017B01E40EF51ECE1524
:10098000DF0559F0D7FE12C0FE0184910E94840455
:1009900021968111F4CF0FEF1FEFC801DF91CF91A6
:1009A0001F910F91FF90EF90DF9008958881EECF17
:1009B0000F931F93CF93DF931F92CDB7DEB782E0E3
:1009C000898342E450E067E876E080E80E94B20460
:1009D0000E94EF03DC0112960D911C910115110587
:1009E00089F0D801ED91FC910280F381E02DBE01E8
:1009F0006F5F7F4FC801099597FD04C0F80100851E
:100A00001185ECCF89810F90DF91CF911F910F91CC
:100A10000895615030F02091F100FC01208301968F
:100A2000F8CF289884E68093710308953FB7F8942F
:100A30008091590390915A03A0915B03B0915C039C
:100A400026B5A89B05C02F3F19F00196A11DB11D29
:100A50003FBFBA2FA92F982F8827BC01CD01620F65
:100A6000711D811D911D42E0660F771F881F991F20
:100A70004A95D1F708958F929F92AF92BF92CF92ED
:100A8000DF92EF92FF926B017C010E9416054B01F1
:100A90005C01C114D104E104F104B9F00E9416050F
:100AA000681979098A099B09683E73408105910597
:100AB00080F321E0C21AD108E108F10888EE880E1F
:100AC00083E0981EA11CB11CE4CFFF90EF90DF9053
:100AD000CF90BF90AF909F908F9008958F929F92EC
:100AE000AF92BF92CF92DF92EF92FF920F931F933C
:100AF000CF93DF936C017B018A01809113018823DE
:100B000009F45CC080917203882309F457C0809176
:100B1000640380FF05C08091E00082608093E00064
:100B2000E801B12C8AEFA82E93E0892E2AE3922EB9
:100B3000209711F4BB20D9F10E94DE0381110AC075
:100B4000AA94AA20D9F161E070E080E090E00E94D0
:100B50003B05EECF8C171D0611F00CF08C2F9FB7C4
:100B6000F8948092E9002091E80025FD02C09FBF23
:100B7000DFCF282F30E0C21BD30BF701815020F0CC
:100B800041914093F100FACFE20EF31EBB2021F019
:100B90009092E800B12CEBCF8091E80085FDE7CF83
:100BA0009092E800BB24B394209709F3F3CF5D98AB
:100BB00084E680936303101611063CF081E090E018
:100BC000F6019383828310E000E0C801DF91CF91AA
:100BD0001F910F91FF90EF90DF90CF90BF90AF905B
:100BE0009F908F900895AF92BF92CF92DF92EF9235
:100BF000FF920F931F93CF93DF936C017B018B01C7
:100C0000040F151FEB015E01AE18BF08C017D10716
:100C100059F06991D601ED91FC910190F081E02DA0
:100C2000C6010995892B79F7C501DF91CF911F91F5
:100C30000F91FF90EF90DF90CF90BF90AF9008950D
:100C40002D9A0895BC0190E080E00C943B058FB193
:100C50008095807F669B88601C9B8460089580E0FF
:100C6000E3E7F3E081118FEF002481938193819377
:100C700081930394D1F71092E3021092E202109252
:100C8000E5021092E40208959091C601982329F498
:100C90009091C701982381E009F480E0089580E0F5
:100CA0000C94A50380389105B8F460347105A0F464
:100CB00020E191E061FD94E060FD990F62FD929565
:100CC000687F269FD0011124A80FAD58BC4F8C918E
:100CD00040FF03C0892B8C93089590958923FBCF07
:100CE0008F929F92AF92BF92CF92DF92EF92FF923C
:100CF0000F931F93CF93DF936D3089F0C090E20282
:100D0000D090E3026A30D1F41092E5021092E4022E
:100D100088E0C80ED11CD092E302C092E20281E0CA
:100D200090E0DF91CF911F910F91FF90EF90DF90B6
:100D3000CF90BF90AF909F908F9008950091E40264
:100D40001091E502E5E06E9FE0011124C653DF4FEC
:100D50004801F12CF5E0E12CFF1629F0CE010196B7
:100D6000FE01E490EC01B12CA12C4E2D4170B60196
:100D70006A0D7B1DC4010E945206E694FFEFAF1A74
:100D8000BF0A88E0A816B10481F7F394EFEF8E1A3A
:100D90009E0AF6E0FF12DECF0A5F1F4F1093E502B6
:100DA0000093E402BCCFFC01CB012091780130918B
:100DB0007901B9010E944517AC01440F551FE40F9A
:100DC000F51F215031098217930734F44281538172
:100DD000419351930196F7CF309379012093780195
:100DE0000895089590E080E00895FC0101900020AE
:100DF000E9F73197AF01481B590BBC0183EC97E031
:100E00000C94F3050C94F5068F929F92AF92BF92CB
:100E1000CF92DF92EF92FF920F931F93CF93DF93C6
:100E2000CDB7DEB7A1970FB6F894DEBF0FBECDBF2A
:100E30006C01990FEE08FF08F7FE41C06DE283ECEC
:100E400097E00E9470068C0122273327A9012C19F4
:100E50003D094E095F0919A2CE0181967C019AE0F5
:100E6000892E912CA12CB12CCA01B901A5019401A4
:100E70000E946F14605DF70162937F0121153105B7
:100E80004105510589F790E080E0309719F0CF01D6
:100E90000E94F506800F911FA1960FB6F894DEBF51
:100EA0000FBECDBFDF91CF911F910F91FF90EF90BB
:100EB000DF90CF90BF90AF909F908F900895A70143
:100EC000960119A28E010F5D1F4F8AE0C82ED12C0A
:100ED000E12CF12CCA01B901A70196010E946F14FF
:100EE000605DF80162938F012115310541055105BF
:100EF00089F790E080E0309779F2CF010E94F50603
:100F0000CBCF2F923F924F925F926F927F928F92B0
:100F10009F92AF92BF92CF92DF92EF92FF920F9388
:100F20001F93CF93DF9300D000D000D0CDB7DEB7B2
:100F30008C017E836D833A016B5F7F4F41E00E949D
:100F400052066D817E816550710941E0C8010E94A1
:100F5000520641E06D817E81C80105960E945206CD
:100F600041E06D817E81C80105970E94520681E0B3
:100F700090E09A838983D12CC12C85E0E82EF12C56
:100F800086EF9FEF9C838B839CEFA92EBB24BA94A2
:100F90009FEFC91AD90A89819A8102969A83898317
:100FA000A80EB91E2601400E511E41E08D809E8084
:100FB0008E0C9F1CB401C2010E94520618012C180D
:100FC0003D0841E0B401C1010E94520641E08D801C
:100FD0009E808E189F08B401C2010E94520641E013
:100FE000B401C1010E9452068D809E808C0C9D1C14
:100FF00041E0B40128014E0C5F1CC2010E94520660
:1010000041E0B40118012E183F08C1010E945206A8
:101010008D809E808C189D0841E0B401C2010E9421
:10102000520641E0B401C1010E945206CE14DF0411
:10103000B4F1C80102979093E5028093E4028D8198
:101040009E8103979093E3028093E2029FEF6916DB
:10105000790691F583EA91E00E9402076D817E8115
:101060006C5F7F4F41E0C801039626960FB6F89457
:10107000DEBF0FBECDBFDF91CF911F910F91FF90CB
:10108000EF90DF90CF90BF90AF909F908F907F9028
:101090006F905F904F903F902F900C945206B7FC4A
:1010A00077CF91E0E91AF1088B819C8102969C83AD
:1010B0008B83A80EB91E6CCF8EEF68168FEF780663
:1010C00019F485EA91E0C8CFC3010E940407C6CF96
:1010D000EF92FF920F931F93CF93DF938C01E090D9
:1010E0007801F0907901C7010E94040788EA91E035
:1010F0000E940207E80110E000E00E151F053CF415
:10110000899199910E9404070F5F1F4FF6CF88EBDA
:1011100091E0DF91CF911F910F91FF90EF900C9490
:1011200002072F923F924F925F926F927F928F921F
:101130009F92AF92BF92CF92DF92EF92FF920F9366
:101140001F93CF93DF93F12CE12CF9E02F2E312C5C
:101150006091780170917901CB01880F991F880FF8
:10116000991FE816F9060CF0ECC0C7010E9445175C
:10117000EC01FC01EE0FFF1FEC5EFE4F80819181C0
:10118000019609F0DAC0209178013091790123307D
:1011900031050CF4D2C06E0141E0C41AD1084901F6
:1011A00051E0851A9108209729F0C601B9010E94E3
:1011B00045174C01C401880F991FFC01EC5EFE4FDE
:1011C0002F01008111815E01FFEFAF1ABF0AC50137
:1011D000B9010E944517FC01EE0FFF1FEC5EFE4FA8
:1011E0006080718087EA91E00E9402078BEA91E0BB
:1011F0000E940207C4010E9404078EEA91E00E9447
:1012000002076091780170917901C5010E9445172C
:101210000E94040782EB91E00E9402078BEA91E0B2
:101220000E940207C8010E9404078EEA91E00E9412
:101230000207C3010E94040787EB91E00E94F506B4
:101240000615170509F079C02091780130917901D0
:101250000F3F100709F471C0CE01B9010E94451774
:10126000FC01EE0FFF1FEC5EFE4F808191818F3FEE
:10127000980779F50F5F1F4F11830083F2011182E8
:101280001082C501B9010E944517FC01EE0FFF1F36
:10129000EC5EFE4F31822082209729F561E070E0FC
:1012A00084E191E00E94D306609178017091790108
:1012B0006150710984E191E00E94D3068091780128
:1012C000909179010397CCF184E191E00E94680844
:1012D0005ACF801791071CF40E5F1F4FCDCF019698
:1012E00091838083CBCFBC0184E191E00E94D3063F
:1012F0006091780170917901C601C617D70719F47A
:10130000CE010297BE010E944517BC0184E191E025
:101310000E94D306809178019091790103976CF037
:1013200084E191E00E9468086091780170917901F0
:10133000C6010E944517EC0126CFFFEFEF1AFF0A06
:1013400007CFDF91CF911F910F91FF90EF90DF902A
:10135000CF90BF90AF909F908F907F906F905F9055
:101360004F903F902F9008952F923F924F925F920F
:101370006F927F928F929F92AF92BF92CF92DF92A5
:10138000EF92FF920F931F93CF93DF93CDB7DEB70A
:1013900028970FB6F894DEBF0FBECDBF6B017C015E
:1013A0006091780170917901072E000C880B990BE0
:1013B0000E94BC159B01AC016BED7FE089EC90E4D1
:1013C0000E9412154B015C016091EB027091EC02DE
:1013D000072E000C880B990B0E94BC15A5019401E7
:1013E0000E9487162B013C01A7019601C501B4019B
:1013F0000E9487169B01AC01C301B2010E94A11497
:101400004B015C010E94F4162B013C0120E030E00E
:1014100040EC51E40E94871620E030E040E052E4C6
:101420000E94A1140E9484156B011B01C501B40127
:101430000E940D154B015C0120E030E040EC51E4CE
:101440000E94871620E030E040E852E40E94A11498
:101450000E9484156B837C838D839E830B811C810A
:1014600020E030E040E251E4C301B2010E9487165F
:1014700020E030E040E052E40E94A1140E94841574
:101480002B0178876F8320E030E040E251E4C50112
:10149000B4010E94871620E030E040E852E40E9448
:1014A000A1140E9484155B019601241935093A8321
:1014B000298337FF05C03195219531093A83298366
:1014C0008B809C80861A970A97FE03C09194819422
:1014D000910829813A818216930634F486012B8083
:1014E0003C80520178876F830A151B055CF49F814D
:1014F000888538862F82292E382E9A2D8B2D5801DB
:10150000092F182F28014A185B0831018F8198850F
:10151000681A790A77FE03C07194619471086201B8
:1015200057FE03C09FEFC91AD90AD594C7942F81DB
:1015300038858FEF221533050CF481E0E82E880FF3
:10154000FF080A151B05FCF089819A8141E0881685
:101550009906ACF4B5018F8198850E945206C61891
:10156000D708D7FE08C02F8138852E0D3F1D38873C
:101570002F83C40CD51C3FEFA31AB30AE2CF6F81AF
:101580007885C501EACF28960FB6F894DEBF0FBE66
:10159000CDBFDF91CF911F910F91FF90EF90DF9022
:1015A000CF90BF90AF909F908F907F906F905F9003
:1015B0004F903F902F9008950C9427141F920F92F4
:1015C0000FB60F9211248F939F938091E100909119
:1015D000E100937F9093E10083FF0FC01092E90038
:1015E00091E09093EB001092EC0092E39093ED0069
:1015F0001092720398E09093F00082FF22C093E073
:101600009093E9009091F200992319F09AE3909356
:10161000E80090916303992341F090916303915006
:1016200090936303911101C05D9A90917103992386
:1016300041F090917103915090937103911101C009
:10164000289A84FF18C08091E2008E7E816080938A
:10165000E2008091E1008F7E8093E100809164033D
:101660008E7E8061809364039F918F910F900FBE57
:101670000F901F90189580FFF7CF8091E2008E7E2B
:1016800080618093E2008091E1008E7E8093E10092
:10169000809164038E7E8160E5CF1F920F920FB61A
:1016A0000F921124CF92DF92EF92FF920F931F932C
:1016B0002F933F934F935F936F937F938F939F935A
:1016C000AF93BF93EF93FF93CF93DF93CDB7DEB785
:1016D0006C97DEBFCDBF1092E9008091E80083FFD8
:1016E00025C068E0CE0145960E94090582EF8093EF
:1016F000E8008D8987FF39C09091E80090FFFCCF0A
:10170000982F907609F034C19E894F89588D2F8982
:10171000F88C911131C0803861F58091620380931B
:10172000F1001092F1008EEF8093E8006C960FB6F6
:10173000F894DEBF0FBECDBFDF91CF91FF91EF9147
:10174000BF91AF919F918F917F916F915F914F91D9
:101750003F912F911F910F91FF90EF90DF90CF90CD
:101760000F900FBE0F901F9018959EEF9093E8007A
:10177000C7CF1092F100D5CF913059F48111D3CF5A
:101780004130510581F6809162038D7F8093620321
:10179000CACF933049F48111C6CF4130510519F6B3
:1017A000809162038260F2CF953041F48091E8002D
:1017B00080FFFCCF20682093E300B5CF963009F07E
:1017C000A9C00B8D1C8D22E01092E90010926003DD
:1017D00010925F03F2122EC010925E0310925D030E
:1017E0000E94D8041F8299E09983FA8291E09E8337
:1017F00090EA98879AEF998720915F033091600370
:10180000275F3F4F3C832B838D831092E90010921A
:10181000600310925F0310935E0300935D0349E041
:1018200050E0BE016F5F7F4F80E00E94B2040E94D3
:10183000D80479CF10935E0300935D030E94EF03F9
:10184000DC0112960D911C910115110509F451C18D
:10185000D801ED91FC910480F581E02DBE016B5E15
:101860007F4FC8010995009709F03EC1F801008536
:101870001185EACFF3E0FF120EC08F89882309F4A7
:1018800040C0823061F440E867E08BEE96E00E9451
:10189000C90D811148CF81E28093EB0047CF8130A1
:1018A00029F440E86BE08FED96E0F1CF833099F7B3
:1018B0000E94EF03DC011296ED90FC908E010F5F09
:1018C0001F4F6801E114F10479F0D701ED91FC910B
:1018D0000680F781E02DB801C7010995080F111D99
:1018E000F701E084F184EECFD8011C92F60101905B
:1018F0000020E9F73197BF016C197D0940E0C6016E
:10190000C6CF69EC76E0FB01449150E080E80E948C
:10191000B20409CF973009F4BECF983021F481E0AA
:101920008093F10000CF993009F0FDCE837009F06B
:10193000B2CFEFE7F1E081E031E096E3219122239D
:1019400071F08093E9003093EB00DF0111972C9147
:101950002093EC009093ED008F5F873079F78EE74E
:101960008093EA001092EA008F8980937203DBCEA5
:101970008B8D9C8D1092E9001092600310925F0392
:1019800090935E0380935D03898D811192C08E894F
:101990009D89913A49F4813209F07DCF47E050E0CA
:1019A0006CE071E080E0B3CF913209F074CF833204
:1019B00069F48F89988DB0E0A0E08093080190933E
:1019C0000901A0930A01B0930B01ADCE803269F4F6
:1019D0008091E80082FFFCCF67E08CE091E00E94FC
:1019E00009058BEF8093E8009ECE823209F09BCEF2
:1019F0008F8980931301EEEFFFE7859194918B3FE0
:101A00009C4D51F1E0E0F8E080910C0190910D01C6
:101A1000A0910E01B0910F01803B9440A105B1054A
:101A2000F1F48091130180FD1AC0EE3F8AE0F807BF
:101A300089F587E797E791838083809160008093A1
:101A4000610388E19BE00FB6F894A895809360004D
:101A50000FBE9093600067CEEEEFFAE0D5CF8081A5
:101A600091818737974709F05ECEA89580916000F5
:101A70008861809360008091610380936000EE3FF5
:101A80002AE0F20789F08091FE0A9091FF0A918383
:101A9000808349CE808191818737980751F2909356
:101AA000FF0A8093FE0AC5CF1092FF0A1092FE0A29
:101AB0003ACE0E94EF03DC0112960D911C910115A4
:101AC000110509F4E8CED801ED91FC910190F08167
:101AD000E02DBE016B5E7F4FC8010995811123CEB9
:101AE000F80100851185EBCF181619060CF41BCEF2
:101AF000D2CEF1E0FF12BECE6DEC76E004CF1F92A5
:101B00000F920FB60F9211242F933F938F939F93B1
:101B1000AF93BF938091550390915603A0915703C3
:101B2000B09158033091540323E0230F2D3758F51B
:101B30000196A11DB11D20935403809355039093EA
:101B40005603A0935703B093580380915903909183
:101B50005A03A0915B03B0915C030196A11DB11DD6
:101B60008093590390935A03A0935B03B0935C0353
:101B7000BF91AF919F918F913F912F910F900FBE89
:101B80000F901F90189526E8230F0296A11DB11DF6
:101B9000D2CFEF92FF920F931F93CF93DF93F82E44
:101BA000192FE62E042F81E0860F880F0E948404EF
:101BB00083E00E948404CF2DD12FEC0EFD2EF11C6A
:101BC000CE15DF05B9F007FF13C0FE0184910E9416
:101BD0008404182F80E00E948404812321968111BF
:101BE000EFCFDF91CF911F910F91FF90EF9008956C
:101BF0008881EDCF81E0F5CFE3E7F7E01382128231
:101C000088EE93E0A0E0B0E084839583A683B78359
:101C100089E891E0918380838FEF9FEF9587848798
:101C2000E3ECF7E0138212828BE991E091838083E9
:101C30000895CF93DF9300D000D0CDB7DEB778946E
:101C400084B5826084BD84B5816084BD85B58260C1
:101C500085BD85B5816085BD80916E008160809372
:101C60006E001092810080918100826080938100DB
:101C700080918100816080938100809180008160EB
:101C80008093800080919100826080939100809188
:101C90009100816080939100809190008160809399
:101CA00090008091C10084608093C1008091C10048
:101CB00082608093C1008091C10081608093C100E7
:101CC0008091C30081608093C3008091C0008260D6
:101CD0008093C0008091C20081608093C200809197
:101CE0007A00846080937A0080917A008260809389
:101CF0007A0080917A00816080937A0080917A00E6
:101D0000806880937A00109272031092620310929E
:101D100064038091D70081608093D70080EA80932C
:101D2000D80089B5806189BD89B5826089BD09B453
:101D300000FEFDCF61E070E080E090E00E943B0596
:101D40008091D8008F7C80618093D8008091E000E2
:101D5000807F8093E0008091E1008E7E8093E1009F
:101D60008DE08093E200559A209A81EC80937C006C
:101D700085B1806F85B984B1877E84B984B1876E5F
:101D800084B95E9A5F988AB1806D8AB9769A6E98A6
:101D900081B3806F81BB899880B38D7080BB80E5F3
:101DA0008CBD81E08DBD85E090E00E9422065F9AA7
:101DB00085E090E00E9422065E985C98EAE7F6E0F3
:101DC00087E896E024912EBD00000DB407FEFDCFFC
:101DD00031968E179F07B1F75C9A81E88093640073
:101DE000809165008160809365000E944F060E948B
:101DF000270687FF15C05C9885EA8EBD00000DB4EC
:101E000007FEFDCF5C9A2E982F982D988091640044
:101E100080628093640081E083BF889513BEFCCF0D
:101E20000E94270682FF48C02D980E9427068478CA
:101E30008438E1F40E94200688EC90E00E9422069B
:101E40002F9882E090E00E9427148F3F29F06FEFD7
:101E500082E090E00E942F1484EF91E00E9422061D
:101E60002F9A0E94270684788438D9F30E94270687
:101E700084718431E1F40E94200688EC90E00E9495
:101E800022062E9882E090E00E942714882329F0F1
:101E900060E082E090E00E942F1484EF91E00E94C5
:101EA00022062E9A0E94270684718431D9F388EC89
:101EB00090E00E942206B4CF0E94200682E090E0CB
:101EC0000E94DC0A882309F443C03E9A3F9A81E0CD
:101ED00090E00E94DC0A282F2470522E81FF0FC050
:101EE00021112E9801EF1FEF68E0A62EB12C0E9461
:101EF000270686FF30C02E9A2F9A0E94200682E382
:101F000090E00E9422060E9427068111F8CF0E94CD
:101F10002F0680E18093000122242A94322C8FB76F
:101F2000F894409155035091560360915703709176
:101F300058038FBF8091C401882309F4CFC0109249
:101F4000C40120E030E0232B51F30E940000E7CFD2
:101F50003E983F98BCCF552029F00430110511F46C
:101F60002E9A2F9881E00E94A503980117FF04C0C4
:101F700022273327201B310B27703327C80117FD79
:101F8000079653E0959587955A95E1F717FF05C099
:101F90000197A501421B530B9A01BC017695762F40
:101FA0006627779567956D587C4FB0E0A0E01501E6
:101FB000221A330A8E3F5FEF950709F43FC07B0179
:101FC00050E040E0FD01E653FA4F4F013B01F0E8DD
:101FD0006F0E711C8F3F980779F0F401E40FF51F25
:101FE000E491F0E06F01022E01C0CC0C0A94EAF7F4
:101FF000F701D488CD28C48A21153105B9F0F40140
:10200000E40FF51F44906301C40ED51EE42DF0E0EB
:10201000022C02C0F595E7950A94E2F7FA83E9836A
:10202000F6014488F9814F2AF601448A4F5F5F4FD9
:10203000FFEFEF1AFF0A4835510561F60196A85ADD
:10204000BF4F60587F4FA03BB10509F0B3CF0E944E
:102050004F068FE090E00E9422060F5F1F4F09316C
:10206000110509F044CF552011F02F9A2D9880E9E1
:1020700091E00E9422060E94200681E090E00E94EA
:10208000DC0A80FF3CCF8AE090E00E94DC0A9FEFF0
:10209000980F9E3F08F033CF22E330E03093E50203
:1020A0002093E40228E330E03093E3022093E2023D
:1020B0000BE010E0682F83EC97E00E947006C801E7
:1020C0000E94DC0A0F5F1F4F0131110599F70E9432
:1020D0004F0688EE93E00E94220611CF8091C50141
:1020E000242F281B822F90910001291748F48F5F1D
:1020F000891708F026CF31E033BF889513BE21CF72
:1021000081E08093C4014093C5018091C201909108
:10211000C30101969093C3018093C2018091C701CE
:102120008093C6010E9427068093C70180E10E9428
:102130004406882331F08091070191E0892780933C
:102140000701E0905203F0905303A1E0EA16F10476
:10215000A9F40E942F0684E191E00E9468080E9481
:102160004F060E9491088AEB91E00E94020784E1E9
:1021700091E00E9468080E944F06FFCFE114F1042D
:1021800009F0DFCE80915103882309F468C00E94D2
:102190002F068091E0029091E10201969093E10276
:1021A0008093E00208EC11E0E091E002F091E1029E
:1021B0008091780190917901E816F9060CF045C0FC
:1021C000D8011C96CD90DC901D9714968D909C9014
:1021D000159712962D913C9113971A964D915C91FB
:1021E000421B530B4E9FC0014F9F900D5E9F900D61
:1021F00011244E966CE370E00E944517260F371F9E
:10220000D80117963C932E931697C818D908CE9EDE
:10221000C001CF9E900DDE9E900D11244E966CE372
:1022200070E00E944517680D791DF801718760877D
:1022300040815181C9010E9481070E944F06FFEF32
:10224000EF1AFF0A025F1F4FAFCFFD970CF479CE54
:10225000109251031092E1021092E00272CE88E0D7
:102260000E944406882309F463C1209178013091CB
:10227000790100910501109106010E3F4FEF1407FF
:1022800081F4A4E1B1E0EDEEF2E090E080E08217AD
:1022900093070CF0E6C14D915D91419351930196E6
:1022A000F6CF84E191E09A838983EDEEF2E0DC01E0
:1022B00090E080E08217930734F44D915D91419353
:1022C00051930196F7CF8091EB029091EC02019629
:1022D0004091E8025091E9024F5F5F4F5093E9024D
:1022E0004093E802B9010E944517A9014F5F5F4F73
:1022F0005093790140937801F901EE0FFF1FEC5ED6
:10230000FE4F3297821793073CF4215031094081E8
:10231000518153834283F5CF880F991FFC01EC5EF6
:10232000FE4F118300838091070181110E94910863
:10233000ADB7BEB7BC83AB832091E8023091E90210
:10234000C90168E270E00E944517892B49F4809129
:10235000030190910401019690930401809303017D
:10236000C90166E970E00E944517892B49F4809104
:102370000101909102010196909302018093010165
:10238000809103019091040140900101509002015D
:102390004C01092E000CAA08BB08AC01440D551DC8
:1023A00084179507ACF4052C000C660877084114D7
:1023B00051046104710441F00E94CF13A301920102
:1023C0000E943D142B013C01840C951CA61CB71CDB
:1023D00090920601809205010E94CF1329E030E01F
:1023E00040E050E00E943D14672B682B692B41F4BC
:1023F00030920601209205011092E7021092E60247
:10240000C0907801D0907901C601880F991FEDB76F
:10241000FEB7E81BF90B0FB6F894FEBF0FBEEDBF79
:102420002DB73EB72F5F3F4F4901409103015091B7
:10243000040190E080E0B12CA12C8C159D05DCF40A
:10244000A981BA812D913D91BA83A98324173507BB
:1024500084F4B9016E5F7F4F6230710550F0F50171
:10246000EE0FFF1FE80DF91D31832083BFEFAB1A7C
:10247000BB0A0196E2CF60E070E0CB011C141D04A2
:1024800044F40E94CF139601DD0C440B550B0E94BF
:102490003D140B2C000CCC08DD086A157B058C055F
:1024A0009D05C4F4A114B104C104D10439F00E9403
:1024B000CF13A60195010E943D145B018501000F19
:1024C000111F080D191DF80180819181909306015B
:1024D000809305018091E6029091E702069744F00F
:1024E00030920601209205011092E7021092E60256
:1024F0008091E8029091E90264E170E00E94451742
:10250000892B31F42EEF3FEF309306012093050124
:102510008091E6029091E70201969093E702809302
:10252000E6024B815C810FB6F8945EBF0FBE4DBFD3
:1025300084E00E944406882359F08091EA028823AF
:1025400009F4A6C030920601209205011092EA0219
:1025500080E20E944406009178011091790188235D
:1025600069F08091EB029091EC02181619060CF0BC
:1025700096C001979093EC028093EB0280E40E9456
:102580004406882379F08091EB029091EC0201508F
:102590001109801791070CF084C001969093EC020A
:1025A0008093EB020E942F0604E111E06091780114
:1025B00070917901E616F7060CF078C0D801CD903D
:1025C000DD908D01072E000C880B990B0E94BC1525
:1025D0009B01AC016BED7FE089EC90E40E94121549
:1025E0002B013C01B7010F2C000C880B990B0E94AA
:1025F000BC159B01AC01C301B2010E9487162B01DF
:102600003C010E940D154B015C01C301B2010E9407
:10261000F41620E030E040EC51E40E94871620E000
:1026200030E040E052E40E94A1140E9484152B0186
:1026300020E030E040EC51E4C501B4010E9487166F
:1026400020E030E040E852E40E94A1140E9484158A
:10265000CB01A601B2010E948107BFEFEB1AFB0A72
:10266000A5CF6091EB027091EC02FB01EE0FFF1F12
:10267000EC5EFE4F8081918190930601809305016D
:1026800084E191E00E94D30651E05093EA0250CFDA
:1026900081E090E0909353038093520359CFC80197
:1026A00068CF1092EC021092EB027CCF40910501B2
:1026B0005091060160E270E080E490E00E948107A2
:1026C000E3E0F0E0F093E502E093E402F093E3024C
:1026D000E093E2028091E8029091E9020E940407EF
:1026E0008091050190910601029641F460E070E04E
:1026F000CB010E94B4090E944F0623CC60E070E039
:1027000080E09FE3F6CF8F929F92AF92BF92CF92DD
:10271000DF92EF92FF92CF93DF93EC016881798192
:102720008A819B81611571058105910521F464E21F
:1027300079ED8BE597E02DE133EF41E050E00E9429
:102740003D1449015A019B01AC01A7EAB1E40E9482
:102750005C146B017C01ACEEB4EFA50194010E9406
:102760006A14C60ED71EE81EF91EF7FE06C081E0E9
:10277000C81AD108E10880E8F80AC882D982EA823A
:10278000FB82C701B6019F77DF91CF91FF90EF9059
:10279000DF90CF90BF90AF909F908F9008958F92D1
:1027A0009F92AF92BF92CF92DF92EF92FF92609191
:1027B0007A0170917B0180917C0190917D0161157E
:1027C00071058105910521F464E279ED8BE597E0CF
:1027D0002DE133EF41E050E00E943D1449015A01E0
:1027E0009B01AC01A7EAB1E40E945C146B017C017F
:1027F000ACEEB4EFA50194010E946A14C60ED71E78
:10280000E81EF91EF7FE06C081E0C81AD108E108EB
:1028100080E8F80AC0927A01D0927B01E0927C01B4
:10282000F0927D01C701B6019F77FF90EF90DF9096
:10283000CF90BF90AF909F908F90089560937A0152
:1028400070937B0180937C0190937D010895F999A9
:10285000FECF92BD81BDF89A992780B50895262FA5
:10286000F999FECF1FBA92BD81BD20BD0FB6F89475
:10287000FA9AF99A0FBE01960895052E97FB1EF459
:1028800000940E94541457FD07D00E946F1407FC57
:1028900003D04EF40C9454145095409530952195E6
:1028A0003F4F4F4F5F4F089590958095709561957C
:1028B0007F4F8F4F9F4F08950E949114A59F900DB9
:1028C000B49F900DA49F800D911D11240895B7FF12
:1028D0000C945C140E945C14821B930B0895A1E27B
:1028E0001A2EAA1BBB1BFD010DC0AA1FBB1FEE1F8A
:1028F000FF1FA217B307E407F50720F0A21BB30BD5
:10290000E40BF50B661F771F881F991F1A9469F750
:1029100060957095809590959B01AC01BD01CF01AC
:102920000895A29FB001B39FC001A39F700D811DA8
:102930001124911DB29F700D811D1124911D0895C8
:102940005058BB27AA270E94B8140C9439160E942D
:10295000001638F00E94071620F039F49F3F19F452
:1029600026F40C94FD150EF4E095E7FB0C94F71596
:10297000E92F0E945E1658F3BA176207730784079F
:10298000950720F079F4A6F50C9480160EF4E095E6
:102990000B2EBA2FA02D0B01B90190010C01CA0119
:1029A000A0011124FF27591B99F0593F50F4503EC4
:1029B00068F11A16F040A22F232F342F4427585FB6
:1029C000F3CF469537952795A795F0405395C9F7CE
:1029D0007EF41F16BA0B620B730B840BBAF0915086
:1029E000A1F0FF0FBB1F661F771F881FC2F70EC025
:1029F000BA0F621F731F841F48F4879577956795F8
:102A0000B795F7959E3F08F0B0CF9395880F08F0E3
:102A10009927EE0F9795879508950E941016E395D4
:102A20000C944A160E9426150C9439160E9407161B
:102A300058F00E94001640F029F45F3F29F00C94F2
:102A4000F71551110C9481160C94FD150E945E1619
:102A500068F39923B1F3552391F3951B550BBB27CD
:102A6000AA2762177307840738F09F5F5F4F220F12
:102A7000331F441FAA1FA9F335D00E2E3AF0E0E809
:102A800032D091505040E695001CCAF72BD0FE2F53
:102A900029D0660F771F881FBB1F261737074807E7
:102AA000AB07B0E809F0BB0B802DBF01FF2793589F
:102AB0005F4F3AF09E3F510578F00C94F7150C9457
:102AC00081165F3FE4F3983ED4F38695779567953A
:102AD000B795F7959F5FC9F7880F911D96958795D4
:102AE00097F90895E1E0660F771F881FBB1F6217F3
:102AF00073078407BA0720F0621B730B840BBA0BB1
:102B0000EE1F88F7E09508950E948B156894B11127
:102B10000C94811608950E94661688F09F5798F0CD
:102B2000B92F9927B751B0F0E1F0660F771F881FD2
:102B3000991F1AF0BA95C9F714C0B13091F00E94EC
:102B40008016B1E008950C948016672F782F88279F
:102B5000B85F39F0B93FCCF3869577956795B39513
:102B6000D9F73EF490958095709561957F4F8F4F82
:102B70009F4F0895E89409C097FB3EF49095809587
:102B8000709561957F4F8F4F9F4F9923A9F0F92F33
:102B900096E9BB279395F695879577956795B795B1
:102BA000F111F8CFFAF4BB0F11F460FF1BC06F5F97
:102BB0007F4F8F4F9F4F16C0882311F096E911C0A9
:102BC000772321F09EE8872F762F05C0662371F0CA
:102BD00096E8862F70E060E02AF09A95660F771FDE
:102BE000881FDAF7880F9695879597F9089597F9D2
:102BF0009F6780E870E060E008959FEF80EC0895A3
:102C000000240A94161617061806090608950024CB
:102C10000A94121613061406050608950C94FD1561
:102C20000E946616D8F3E894E0E0BB279F57F0F0C7
:102C30002AED3FE049EC06C0EE0FBB0F661F771F81
:102C4000881F28F0B23A62077307840728F0B25A47
:102C5000620B730B840BE3959A9572F7803830F40E
:102C60009A95BB0F661F771F881FD2F790480C9468
:102C7000FE16092E0394000C11F4882352F0BB0FAA
:102C800040F4BF2B11F460FF04C06F5F7F4F8F4F84
:102C90009F4F0895EF93E0FF07C0A2EA2AED3FE0BF
:102CA00049EC5FEB0E94B8140E9439160F90039410
:102CB00001FC9058ECEAF0E00C940A1757FD90588C
:102CC000440F551F59F05F3F71F04795880F97FBF0
:102CD000991F61F09F3F79F08795089512161306AA
:102CE0001406551FF2CF4695F1DF08C016161706D9
:102CF0001806991FF1CF869571056105089408950E
:102D0000E894BB2766277727CB0197F908950E949F
:102D10009A160C9439160E94001638F00E94071675
:102D200020F0952311F00C94F7150C94FD15112447
:102D30000C9481160E945E1670F3959FC1F3950F57
:102D400050E0551F629FF001729FBB27F00DB11D2F
:102D5000639FAA27F00DB11DAA1F649F6627B00DBF
:102D6000A11D661F829F2227B00DA11D621F739FA8
:102D7000B00DA11D621F839FA00D611D221F749FB6
:102D80003327A00D611D231F849F600D211D822FFD
:102D9000762F6A2F11249F5750409AF0F1F0882324
:102DA0004AF0EE0FFF1FBB1F661F771F881F915051
:102DB0005040A9F79E3F510580F00C94F7150C94F4
:102DC00081165F3FE4F3983ED4F386957795679537
:102DD000B795F795E7959F5FC1F7FE2B880F911D7B
:102DE0009695879597F908959F930E9410160F90D6
:102DF00007FCEE5F0C944A169F3F31F0915020F48F
:102E0000879577956795B795880F911D96958795C6
:102E100097F908959F938F937F936F93FF93EF9309
:102E20009B01AC010E948716EF91FF910E941E1733
:102E30002F913F914F915F910C948716DF93CF9321
:102E40001F930F93FF92EF92DF927B018C016894A6
:102E500006C0DA2EEF010E949A16FE01E894A591B1
:102E60002591359145915591A6F3EF010E94B81433
:102E7000FE019701A801DA9469F7DF90EF90FF90C7
:102E80000F911F91CF91DF91089597FB072E16F4B4
:102E9000009407D077FD09D00E94591707FC05D090
:102EA0003EF4909581959F4F0895709561957F4F61
:102EB0000895AA1BBB1B51E107C0AA1FBB1FA61781
:102EC000B70710F0A61BB70B881F991F5A95A9F7D3
:102ED00080959095BC01CD010895EE0FFF1F0590E0
:0A2EE000F491E02D0994F894FFCF5F
:102EEA001004000100010001FFFFFFFF00E10000E4
:102EFA0000000000010000000000000000000000C7
:102F0A0000000000000000000000000000000000B7
:102F1A0000000000000000000000000000000000A7
:102F2A000000000000000000000000000000000097
:102F3A000000000000000000000000000000000087
:102F4A000000000000000000000000000000000077
:102F5A00000000000000000001000100000000C1A4
:102F6A0080810000000000000003046E052404199B
:102F7A00046A0428044604000000007006F305F2FF
:102F8A0006F1062B002D00493A20004C3A00205247
:102F9A003A0020563A20000D0A0046696E616C20FC
:022FAA000A001B
:00000001FF
