:100000000C947B030C94A3030C94A3030C94A30300
:100010000C94A3030C94A3030C94A3030C94A303C8
:100020000C94A3030C94A3030C94D40A0C94430BD8
:100030000C94A3030C94A3030C94A3030C94A303A8
:100040000C94A3030C94A3030C94A3030C94A30398
:100050000C94A3030C94A3030C94A3030C94750DAC
:100060000C94A3030C94A3030C94A3030C94A30378
:100070000C94A3030C94A3030C94A3030C94A30368
:100080000C94A3030C94A3030C94A3030C94A30358
:100090000C94A3030C94A3030C94A3030C94A30348
:1000A0000C94A3030C94A3030C94A30305A84CCDB8
:1000B000B2D44EB93836A9020C50B9918688083CA2
:1000C000A6AAAA2ABE000000803F00000000003E51
:1000D0005B4F5B3E3E6B4F6B3E1C3E7C3E1C183CB8
:1000E0007E3C181C577D571C1C5E7F5E1C00183C14
:1000F0001800FFE7C3E7FF0018241800FFE7DBE75D
:10010000FF30483A060E2629792926407F05050743
:10011000407F05253F5A3CE73C5A7F3E1C1C08089F
:100120001C1C3E7F14227F22145F5F005F5F060964
:100130007F017F006689956A606060606094A2FFBD
:10014000A29408047E040810207E201008082A1CAF
:1001500008081C2A08081E101010100C1E0C1E0C7B
:1001600030383E3830060E3E0E060000000000001B
:10017000005F00000007000700147F147F14242A8A
:100180007F2A12231308646236495620500008075C
:100190000300001C2241000041221C002A1C7F1C7D
:1001A0002A08083E0808008070300008080808087F
:1001B000000060600020100804023E5149453E00E6
:1001C000427F400072494949462141494D33181444
:1001D000127F1027454545393C4A49493141211193
:1001E00009073649494936464949291E0000140085
:1001F00000004034000000081422411414141414A8
:10020000004122140802015909063E415D594E7C05
:100210001211127C7F494949363E414141227F41BA
:1002200041413E7F494949417F090909013E414118
:1002300051737F0808087F00417F41002040413F03
:10024000017F081422417F404040407F021C027F12
:100250007F0408107F3E4141413E7F090909063E67
:100260004151215E7F091929462649494932030136
:100270007F01033F4040403F1F2040201F3F403848
:10028000403F631408146303047804036159494D23
:1002900043007F4141410204081020004141417F59
:1002A00004020102044040404040000307080020CF
:1002B000545478407F2844443838444444283844CF
:1002C00044287F385454541800087E090218A4A406
:1002D0009C787F0804047800447D40002040403D25
:1002E000007F1028440000417F40007C047804789F
:1002F0007C080404783844444438FC182424181832
:10030000242418FC7C08040408485454542404048D
:100310003F44243C4040207C1C2040201C3C40307A
:10032000403C44281028444C9090907C4464544CA9
:100330004400083641000000770000004136080004
:1003400002010204023C2623263C1EA1A161123AAE
:100350004040207A385454555921555579412154FB
:10036000547841215554784020545579400C1E5200
:1003700072123955555559395454545939555454A4
:10038000580000457C410002457D420001457C400B
:10039000F0292429F0F0282528F07C545545002028
:1003A00054547C547C0A097F4932494949323248C5
:1003B000484832324A4848303A4141217A3A42402C
:1003C0002078009DA0A07D39444444393D40404000
:1003D0003D3C24FF2424487E4943662B2FFC2F2BD1
:1003E000FF0929F620C0887E090320545479410072
:1003F00000447D413048484A32384040227A007AF1
:100400000A0A727D0D19317D2629292F28262929CE
:10041000292630484D4020380808080808080808F0
:10042000382F10C8ACBA2F102834FA00007B000017
:1004300008142A142222142A14089500220095AACE
:10044000005500AAAA55AA55AA000000FF001010E6
:1004500010FF00141414FF001010FF00FF1010F024
:1004600010F0141414FC001414F700FF0000FF0037
:10047000FF1414F404FC141417101F10101F101F85
:100480001414141F00101010F0000000001F1010B2
:1004900010101F10101010F010000000FF101010AE
:1004A000101010101010FF10000000FF140000FFCB
:1004B00000FF00001F10170000FC04F414141710B4
:1004C000171414F404F40000FF00F71414141414A7
:1004D0001414F700F7141414171410101F101F141D
:1004E0001414F4141010F010F000001F101F00007E
:1004F000001F14000000FC140000F010F01010FFAA
:1005000010FF141414FF141010101F00000000F04E
:1005100010FFFFFFFFFFF0F0F0F0F0FFFFFF000023
:10052000000000FFFF0F0F0F0F0F38444438447CCA
:100530002A2A3E147E02020606027E027E026355CD
:100540004941633844443C04407E201E2006027E1C
:10055000020299A5E7A5991C2A492A1C4C7201722E
:100560004C304A4D4D303048784830BC625A463D98
:100570003E494949007E0101017E2A2A2A2A2A444D
:10058000445F444440514A444040444A5140000082
:10059000FF0103E080FF000008086B6B083612368D
:1005A0002436060F090F060000181800000010106E
:1005B000003040FF0101001F01011E00191D17122C
:1005C000003C3C3C3C0000000000F0F89C8E87831F
:1005D000878E9CF8F00000FEFF0303030303070E61
:1005E000FCF80000FEFF0303030303070EFCF80002
:1005F00000FFFF00000000000000FFFF0000FEFF02
:100600008383838383C7EE7C380000F8FC0E0703E6
:100610000303070EFCF800003F7FE0C08080C0E0CD
:100620007F3FFFFF01010101010101FFFF0000FF0A
:10063000FF0C0C0C0C1C3E77E3C100007FFFC0C018
:10064000C0C0C0E0703F1F00001F3F70E0C0C0C0CE
:10065000E0703F1F00007FFFC1C1C1C1C1E3773E11
:100660001C00001F3F70E0C0C0C0E0703F1F0000D2
:1006700000000001FFFF01000000D5F08D14A1C8AB
:1006800081CFD9F1AF2000080B000202020000095F
:1006900004000001020200000524001001052401ED
:1006A0000101042402060524060001070581031048
:1006B000004009040100020A000000070502024090
:1006C0000000070583024000000403090412010032
:1006D00002EF020140412336800001010203014183
:1006E000726475696E6F204C4C4300417264756290
:1006F0006F790000F20D11241FBECFEFDAE0DEBFEC
:10070000CDBF11E0A0E0B1E0EAECFEE202C005904E
:100710000D92AC3CB107D9F726E0ACECB1E001C0DA
:100720001D92A63BB207E1F713E0CBE7D3E004C08C
:100730002197FE010E945D17CA37D107C9F70E94B1
:100740000F0E0C9463170C940000E2E6F2E0A0E0B8
:10075000B8E000800EBC8111012C1197A0FDFDCFE7
:100760000192B9F70DB40895FC01809161028823CC
:1007700011F13FB7F89482E08093E9002091F200F4
:10078000822F90E01816190614F481E090E0882377
:1007900039F0289844E6409360024091F10040838C
:1007A000222339F02091F200211103C02BE620937F
:1007B000E8003FBF08958FEF9FEF08952FB7F8949B
:1007C00083E08093E9009091E800892F807295FF83
:1007D00004C09091F20080E4891B2FBF089580919E
:1007E000580281110DC082E08093540284E080930E
:1007F0005502109257021092560281E080935802DF
:1008000084E592E00895CF93DF931F92CDB7DEB7D2
:100810006983DC01ED91FC910280F381E02D41E0E0
:1008200050E0BE016F5F7F4F09950F90DF91CF9130
:10083000089583E08093E9008091F200882319F005
:100840008AE38093E80008950E94DE0390E0089513
:10085000CF93DF931F92CDB7DEB7FC0184859585DA
:1008600097FD08C02FEF3FEF358724870F90DF916A
:10087000CF910895CE0101960E94B403019719F417
:10088000898190E0F3CF8FEF9FEFF0CF0F931F930D
:10089000CF93DF931F92CDB7DEB78C01FC01848527
:1008A000958597FF0BC0CE0101960E94B403019776
:1008B00071F4898190E0F80195878487F801848537
:1008C00095850F90DF91CF911F910F9108958FEF34
:1008D0009FEFF1CFFC018485958597FD0BC09FB7F5
:1008E000F89482E08093E9008091F2009FBF90E04D
:1008F000019608959FB7F89482E08093E900809173
:10090000F2009FBF90E0089540914E0250914F0237
:1009100020914C0230914D0242175307B4F490914C
:10092000E8009570E1F39091E80092FD19C0809382
:10093000F10080914E0290914F0201968F7399279A
:10094000892B19F48EEF8093E80080914E029091EC
:100950004F02019690934F0280934E0281E00895DA
:1009600080E00895DF92EF92FF920F931F93CF9351
:10097000DF93D82E8A01EB017B01E40EF51ECE1524
:10098000DF0559F0D7FE12C0FE0184910E94840455
:1009900021968111F4CF0FEF1FEFC801DF91CF91A6
:1009A0001F910F91FF90EF90DF9008958881EECF17
:1009B0000F931F93CF93DF931F92CDB7DEB782E0E3
:1009C000898342E450E067E876E080E80E94B20460
:1009D0000E94EF03DC0112960D911C910115110587
:1009E00089F0D801ED91FC910280F381E02DBE01E8
:1009F0006F5F7F4FC801099597FD04C0F80100851E
:100A00001185ECCF89810F90DF91CF911F910F91CC
:100A10000895615030F02091F100FC01208301968F
:100A2000F8CF289884E68093600208953FB7F89441
:100A30008091480290914902A0914A02B0914B02E4
:100A400026B5A89B05C02F3F19F00196A11DB11D29
:100A50003FBFBA2FA92F982F8827BC01CD01620F65
:100A6000711D811D911D42E0660F771F881F991F20
:100A70004A95D1F708958F929F92AF92BF92CF92ED
:100A8000DF92EF92FF926B017C010E9416054B01F1
:100A90005C01C114D104E104F104B9F00E9416050F
:100AA000681979098A099B09683E73408105910597
:100AB00080F321E0C21AD108E108F10888EE880E1F
:100AC00083E0981EA11CB11CE4CFFF90EF90DF9053
:100AD000CF90BF90AF909F908F9008958F929F92EC
:100AE000AF92BF92CF92DF92EF92FF920F931F933C
:100AF000CF93DF936C017B018A01809113018823DE
:100B000009F45CC080916102882309F457C0809188
:100B1000530280FF05C08091E00082608093E00076
:100B2000E801B12C8AEFA82E93E0892E2AE3922EB9
:100B3000209711F4BB20D9F10E94DE0381110AC075
:100B4000AA94AA20D9F161E070E080E090E00E94D0
:100B50003B05EECF8C171D0611F00CF08C2F9FB7C4
:100B6000F8948092E9002091E80025FD02C09FBF23
:100B7000DFCF282F30E0C21BD30BF701815020F0CC
:100B800041914093F100FACFE20EF31EBB2021F019
:100B90009092E800B12CEBCF8091E80085FDE7CF83
:100BA0009092E800BB24B394209709F3F3CF5D98AB
:100BB00084E680935202101611063CF081E090E02A
:100BC000F6019383828310E000E0C801DF91CF91AA
:100BD0001F910F91FF90EF90DF90CF90BF90AF905B
:100BE0009F908F900895AF92BF92CF92DF92EF9235
:100BF000FF920F931F93CF93DF936C017B018B01C7
:100C0000040F151FEB015E01AE18BF08C017D10716
:100C100059F06991D601ED91FC910190F081E02DA0
:100C2000C6010995892B79F7C501DF91CF911F91F5
:100C30000F91FF90EF90DF90CF90BF90AF9008950D
:100C40002D9A0895BC0190E080E00C943B058FB193
:100C50008095807F669B88601C9B8460089580E0FF
:100C6000E2E6F2E081118FEF00248193819381937A
:100C700081930394D1F71092CD011092CC01109280
:100C8000CF011092CE0108959091D401982329F4B8
:100C90009091D501982381E009F480E0089580E0E7
:100CA0000C94A50380389105B8F460347105A0F464
:100CB00020E191E061FD94E060FD990F62FD929565
:100CC000687F269FD0011124A80FAE59BD4F8C918B
:100CD00040FF03C0892B8C93089590958923FBCF07
:100CE0008F929F92AF92BF92CF92DF92EF92FF923C
:100CF0000F931F93CF93DF936D3089F0C090CC0199
:100D0000D090CD016A30D1F41092CF011092CE0173
:100D100088E0C80ED11CD092CD01C092CC0181E0F8
:100D200090E0DF91CF911F910F91FF90EF90DF90B6
:100D3000CF90BF90AF909F908F9008950091CE017B
:100D40001091CF01E5E06E9FE0011124C653DF4F03
:100D50004801F12CF5E0E12CFF1629F0CE010196B7
:100D6000FE01E490EC01B12CA12C4E2D4170B60196
:100D70006A0D7B1DC4010E945206E694FFEFAF1A74
:100D8000BF0A88E0A816B10481F7F394EFEF8E1A3A
:100D90009E0AF6E0FF12DECF0A5F1F4F1093CF01CD
:100DA0000093CE01BCCFFC01CB01209178013091A2
:100DB0007901B9010E943517AC01440F551FE40FAA
:100DC000F51F215031098217930734F44281538172
:100DD000419351930196F7CF309379012093780195
:100DE0000895089590E080E00895FC0101900020AE
:100DF000E9F73197AF01481B590BBC0182EB96E034
:100E00000C94F3058F929F92AF92BF920F931F9312
:100E1000CF93DF93CDB7DEB7A1970FB6F894DEBFBF
:100E20000FBECDBF19A2423008F44AE08E010F5D1B
:100E30001F4F842E912CB12CA12CA50194010E944E
:100E40002C14E62FB901CA01EA30F4F4E05DD801B0
:100E5000EE938D01232B242B252B79F790E080E056
:100E6000109719F0CD010E94F506A1960FB6F894DF
:100E7000DEBF0FBECDBFDF91CF911F910F91BF900D
:100E8000AF909F908F900895E95CE1CF0C94F506A8
:100E9000CF92DF92EF92FF92CF93DF936C01990F85
:100EA000EE08FF08F7FE19C06DE282EB96E00E94A3
:100EB0007006EC0166277727CB016C197D098E0936
:100EC0009F094AE00E9402078C0F9D1FDF91CF917E
:100ED000FF90EF90DF90CF9008954AE0C701B601F0
:100EE000DF91CF91FF90EF90DF90CF900C940207AD
:100EF0002F923F924F925F926F927F928F929F922A
:100F0000AF92BF92CF92DF92EF92FF920F931F9317
:100F1000CF93DF9300D000D000D0CDB7DEB78C01E7
:100F20007E836D835C834B836B5F7F4F41E00E94C8
:100F300052066D817E816550710941E0C8010E94B1
:100F4000520641E06D817E81C80105960E945206DD
:100F500041E06D817E81C80105970E94520681E0C3
:100F600090E09A838983D12CC12C85E0E82EF12C66
:100F700096EF292E33243A942CEFA22EBB24BA9458
:100F80009FEFC91AD90A89819A8102969A83898327
:100F9000A80EB91E3601600E711E41E08D809E8044
:100FA0008E0C9F1CB401C3010E94520628014C18EC
:100FB0005D0841E0B401C2010E94520641E08D800B
:100FC0009E808E189F08B401C3010E94520641E022
:100FD000B401C2010E9452068D809E808C0C9D1C23
:100FE00041E0B40138016E0C7F1CC3010E9452061F
:100FF00041E0B40128014E185F08C2010E94520668
:101000008D809E808C189D0841E0B401C3010E9430
:10101000520641E0B401C2010E945206CE14DF0420
:101020004CF1025011091093CF010093CE018D8134
:101030009E8103979093CD018093CC018B819C81FD
:1010400026960FB6F894DEBF0FBECDBFDF91CF91CD
:101050001F910F91FF90EF90DF90CF90BF90AF90D6
:101060009F908F907F906F905F904F903F902F90C8
:101070000C944807B7FC84CF91E0E91AF10882E0AC
:10108000280E311CA20CB31C7BCFEF92FF920F9362
:101090001F93CF93DF938C01E0907801F09079015A
:1010A000C7010E94480784EA91E00E944607E801D0
:1010B00010E000E00E151F053CF4899199910E9403
:1010C00048070F5F1F4FF6CF84EB91E0DF91CF9180
:1010D0001F910F91FF90EF900C9446072F923F9233
:1010E0004F925F926F927F928F929F92AF92BF9238
:1010F000CF92DF92EF92FF920F931F93CF93DF93E4
:10110000F12CE12CF9E02F2E312C609178017091B7
:101110007901CB01880F991F880F991FE816F906EE
:101120000CF0ECC0C7010E943517EC01FC01EE0F7A
:10113000FF1FEC5EFE4F80819181019609F0DAC0BD
:101140002091780130917901233031050CF4D2C01F
:101150006E0141E0C41AD108490151E0851A910895
:10116000209729F0C601B9010E9435174C01C4012E
:10117000880F991FFC01EC5EFE4F2F010081118149
:101180005E01FFEFAF1ABF0AC501B9010E94351712
:10119000FC01EE0FFF1FEC5EFE4F6080718083EA62
:1011A00091E00E94460787EA91E00E944607C40149
:1011B0000E9448078AEA91E00E9446076091780100
:1011C00070917901C5010E9435170E9448078EEA87
:1011D00091E00E94460787EA91E00E944607C80115
:1011E0000E9448078AEA91E00E944607C3010E94D4
:1011F000480783EB91E00E94F5060615170509F0F4
:1012000079C020917801309179010F3F100709F4DE
:1012100071C0CE01B9010E943517FC01EE0FFF1F0E
:10122000EC5EFE4F808191818F3F980779F50F5FCB
:101230001F4F11830083F20111821082C501B90191
:101240000E943517FC01EE0FFF1FEC5EFE4F31824E
:101250002082209729F561E070E084E191E00E940E
:10126000D30660917801709179016150710984E130
:1012700091E00E94D30680917801909179010397C3
:10128000CCF184E191E00E9445085ACF8017910784
:101290001CF40E5F1F4FCDCF019691838083CBCF7F
:1012A000BC0184E191E00E94D306609178017091C5
:1012B0007901C601C617D70719F4CE010297BE01FE
:1012C0000E943517BC0184E191E00E94D306809111
:1012D00078019091790103976CF084E191E00E948C
:1012E00045086091780170917901C6010E94351717
:1012F000EC0126CFFFEFEF1AFF0A07CFDF91CF9166
:101300001F910F91FF90EF90DF90CF90BF90AF9023
:101310009F908F907F906F905F904F903F902F9015
:1013200008952F923F924F925F926F927F928F9289
:101330009F92AF92BF92CF92DF92EF92FF920F9364
:101340001F93CF93DF93CDB7DEB728970FB6F894EE
:10135000DEBF0FBECDBF78876F831A013A83298322
:10136000FE82ED82BC01990F880B990B0E947E15BD
:101370009B01AC016BED7FE089EC90E40E94D414FA
:101380004B015C01AC019B010E94E716882309F424
:1013900077C086EB91E00E94F50683EB91E00E9416
:1013A000F50620E030E0A901C501B4010E947216E3
:1013B0004B015C010E94CF142B013C0129813A8131
:1013C000B901330F880B990B0E947E156B017C01CC
:1013D000EF81F885BF01FF0F880B990B0E947E15E6
:1013E00069837A838B839C83A7019601C301B20131
:1013F0000E9472169B01AC0169817A818B819C816C
:101400000E945E140E944615F80171836083C50135
:10141000B4010E94DF164B015C01B101330C880B53
:10142000990B0E947E152B013C01A5019401C70177
:10143000B6010E9472169B01AC01C301B2010E9469
:101440005E140E944615ED81FE81718360832896AB
:101450000FB6F894DEBF0FBECDBFDF91CF911F91C5
:101460000F91FF90EF90DF90CF90BF90AF909F9043
:101470008F907F906F905F904F903F902F90089546
:1014800024013501E89477F82FEF3FEF4FE75FE74E
:10149000C301B2010E94E71681110DC02FEF3FEF8B
:1014A0004FE75FE7C301B2010E94CA1418161CF48B
:1014B0008AEB91E070CF2FEF3FEF4FE75FE4C5017C
:1014C000B4010E946D1618161CF48EEB91E063CFE8
:1014D0002FEF3FEF4FE75FECC501B4010E94CA1444
:1014E00087FDF3CF20E030E0A901C501B4010E94DF
:1014F000CA1487FF54C06DE282EB96E00E9470062A
:10150000C501B40190582AE037ED43EA5BE30E943D
:101510005E146B017C010E944D152B013C010E9461
:101520007C159B01AC01C701B6010E945D146B01E3
:101530007C014AE0C301B2010E9402076EE282EB25
:1015400096E00E94700620E030E040E251E4C701DE
:10155000B6010E9472166B017C010E944D152B0191
:10156000712C612C4AE0C301B2010E940207C30141
:10157000B2010E947C159B01AC01C701B6010E941B
:101580005D1420E030E040E251E40E9472160E94B7
:101590004D1590E080E04AE00E940207FECEC501B2
:1015A000B401B1CF0C94E4131F920F920FB60F92B7
:1015B00011248F939F938091E1009091E100937F9C
:1015C0009093E10083FF0FC01092E90091E09093A7
:1015D000EB001092EC0092E39093ED001092610208
:1015E00098E09093F00082FF22C093E09093E9008E
:1015F0009091F200992319F09AE39093E80090916A
:101600005202992341F090915202915090935202CC
:10161000911101C05D9A90916002992341F09091DF
:101620006002915090936002911101C0289A84FF4A
:1016300018C08091E2008E7E81608093E2008091EC
:10164000E1008F7E8093E100809153028E7E806165
:10165000809353029F918F910F900FBE0F901F9018
:10166000189580FFF7CF8091E2008E7E8061809395
:10167000E2008091E1008E7E8093E1008091530230
:101680008E7E8160E5CF1F920F920FB60F921124CC
:10169000CF92DF92EF92FF920F931F932F933F937E
:1016A0004F935F936F937F938F939F93AF93BF936A
:1016B000EF93FF93CF93DF93CDB7DEB76C97DEBF89
:1016C000CDBF1092E9008091E80083FF25C068E05B
:1016D000CE0145960E94090582EF8093E8008D892E
:1016E00087FF39C09091E80090FFFCCF982F90764B
:1016F00009F034C19E894F89588D2F89F88C91113A
:1017000031C0803861F5809151028093F1001092D0
:10171000F1008EEF8093E8006C960FB6F894DEBF70
:101720000FBECDBFDF91CF91FF91EF91BF91AF91F0
:101730009F918F917F916F915F914F913F912F91E9
:101740001F910F91FF90EF90DF90CF900F900FBE01
:101750000F901F9018959EEF9093E800C7CF1092BE
:10176000F100D5CF913059F48111D3CF41305105DB
:1017700081F6809151028D7F80935102CACF9330C0
:1017800049F48111C6CF4130510519F680915102BB
:101790008260F2CF953041F48091E80080FFFCCF69
:1017A00020682093E300B5CF963009F0A9C00B8DD7
:1017B0001C8D22E01092E90010924F0210924E020E
:1017C000F2122EC010924D0210924C020E94D804C8
:1017D0001F8299E09983FA8291E09E8390EA98872C
:1017E0009AEF998720914E0230914F02275F3F4F29
:1017F0003C832B838D831092E90010924F0210924C
:101800004E0210934D0200934C0249E050E0BE019D
:101810006F5F7F4F80E00E94B2040E94D80479CFAE
:1018200010934D0200934C020E94EF03DC011296CC
:101830000D911C910115110509F451C1D801ED91CB
:10184000FC910480F581E02DBE016B5E7F4FC801E5
:101850000995009709F03EC1F80100851185EACF8E
:10186000F3E0FF120EC08F89882309F440C0823054
:1018700061F440E867E08BEE96E00E94BF0D8111B5
:1018800048CF81E28093EB0047CF813029F440E8D4
:101890006BE08FED96E0F1CF833099F70E94EF0374
:1018A000DC011296ED90FC908E010F5F1F4F6801D6
:1018B000E114F10479F0D701ED91FC910680F781F4
:1018C000E02DB801C7010995080F111DF701E0844B
:1018D000F184EECFD8011C92F60101900020E9F7C7
:1018E0003197BF016C197D0940E0C601C6CF69EC94
:1018F00076E0FB01449150E080E80E94B20409CFF9
:10190000973009F4BECF983021F481E08093F10044
:1019100000CF993009F0FDCE837009F0B2CFEFE728
:10192000F1E081E031E096E32191222371F0809390
:10193000E9003093EB00DF0111972C912093EC002C
:101940009093ED008F5F873079F78EE78093EA0000
:101950001092EA008F8980936102DBCE8B8D9C8D83
:101960001092E90010924F0210924E0290934D0295
:1019700080934C02898D811192C08E899D89913A04
:1019800049F4813209F07DCF47E050E06CE071E02E
:1019900080E0B3CF913209F074CF833269F48F893C
:1019A000988DB0E0A0E08093080190930901A09386
:1019B0000A01B0930B01ADCE803269F48091E8004A
:1019C00082FFFCCF67E08CE091E00E9409058BEF7D
:1019D0008093E8009ECE823209F09BCE8F8980935F
:1019E0001301EEEFFFE7859194918B3F9C4D51F1F0
:1019F000E0E0F8E080910C0190910D01A0910E01C2
:101A0000B0910F01803B9440A105B105F1F48091A4
:101A1000130180FD1AC0EE3F8AE0F80789F587E7D9
:101A200097E791838083809160008093500288E1E2
:101A30009BE00FB6F894A895809360000FBE90933A
:101A4000600067CEEEEFFAE0D5CF808191818737D5
:101A5000974709F05ECEA8958091600088618093D9
:101A600060008091500280936000EE3F2AE0F20710
:101A700089F08091FE0A9091FF0A9183808349CE7C
:101A8000808191818737980751F29093FF0A809364
:101A9000FE0AC5CF1092FF0A1092FE0A3ACE0E94AB
:101AA000EF03DC0112960D911C910115110509F44B
:101AB000E8CED801ED91FC910190F081E02DBE01BE
:101AC0006B5E7F4FC8010995811123CEF801008517
:101AD0001185EBCF181619060CF41BCED2CEF1E00F
:101AE000FF12BECE6DEC76E004CF1F920F920FB6C0
:101AF0000F9211242F933F938F939F93AF93BF9394
:101B00008091440290914502A0914602B091470213
:101B10003091430223E0230F2D3758F50196A11D84
:101B2000B11D209343028093440290934502A093F9
:101B30004602B09347028091480290914902A091D9
:101B40004A02B0914B020196A11DB11D809348023B
:101B500090934902A0934A02B0934B02BF91AF9178
:101B60009F918F913F912F910F900FBE0F901F90DB
:101B7000189526E8230F0296A11DB11DD2CFEF9232
:101B8000FF920F931F93CF93DF93F82E192FE62E1A
:101B9000042F81E0860F880F0E94840483E00E9456
:101BA0008404CF2DD12FEC0EFD2EF11CCE15DF05B8
:101BB000B9F007FF13C0FE0184910E948404182F1E
:101BC00080E00E948404812321968111EFCFDF9170
:101BD000CF911F910F91FF90EF9008958881EDCFE5
:101BE00081E0F5CFE2E6F6E01382128288EE93E020
:101BF000A0E0B0E084839583A683B78389E891E071
:101C0000918380838FEF9FEF95878487E2EBF6E0E7
:101C1000138212828BE991E0918380830895CF93A0
:101C2000DF93CDB7DEB72A970FB6F894DEBF0FBEAD
:101C3000CDBF789484B5826084BD84B5816084BD55
:101C400085B5826085BD85B5816085BD80916E005A
:101C5000816080936E00109281008091810082608B
:101C600080938100809181008160809381008091C8
:101C700080008160809380008091910082608093D9
:101C800091008091910081608093910080919000FB
:101C90008160809390008091C10084608093C10036
:101CA0008091C10082608093C1008091C1008160F9
:101CB0008093C1008091C30081608093C3008091B4
:101CC000C00082608093C0008091C20081608093D8
:101CD000C20080917A00846080937A0080917A00BB
:101CE000826080937A0080917A00816080937A008C
:101CF00080917A00806880937A001092610210923D
:101D00005102109253028091D70081608093D700D6
:101D100080EA8093D80089B5806189BD89B58260E9
:101D200089BD09B400FEFDCF61E070E080E090E085
:101D30000E943B058091D8008F7C80618093D80001
:101D40008091E000807F8093E0008091E1008E7EB2
:101D50008093E1008DE08093E200559A209A81EC17
:101D600080937C0085B1806F85B984B1877E84B90A
:101D700084B1876E84B95E9A5F988AB1806D8AB9A2
:101D8000769A6E9881B3806F81BB899880B38D708D
:101D900080BB80E58CBD81E08DBD85E090E00E9438
:101DA00022065F9A85E090E00E9422065E985C9889
:101DB000EAE7F6E087E896E024912EBD00000DB436
:101DC00007FEFDCF31968E179F07B1F75C9A81E829
:101DD00080936400809165008160809365000E941B
:101DE0004F060E94270687FF15C05C9885EA8EBDC6
:101DF00000000DB407FEFDCF5C9A2E982F982D9809
:101E00008091640080628093640081E083BF889544
:101E100013BEFCCF0E94270682FF48C02D980E9467
:101E2000270684788438E1F40E94200688EC90E04C
:101E30000E9422062F9882E090E00E94E4138F3FD8
:101E400029F06FEF82E090E00E94EC1384EF91E0C4
:101E50000E9422062F9A0E94270684788438D9F39C
:101E60000E94270684718431E1F40E94200688ECE8
:101E700090E00E9422062E9882E090E00E94E413F7
:101E8000882329F060E082E090E00E94EC1384EF68
:101E900091E00E9422062E9A0E94270684718431C6
:101EA000D9F388EC90E00E942206B4CF0E9420066D
:101EB00082E090E00E94D20A882309F440C03E9A52
:101EC0003F9A81E090E00E94D20A282F2470522E7F
:101ED00081FF0FC021112E9801EF1FEFA8E0AA2E5D
:101EE000B12C0E94270686FF2DC02E9A2F9A0E94A1
:101EF000200682E390E00E9422060E9427068111BC
:101F0000F8CF0E942F0680E1809300018FB7F894EC
:101F100040914402509145026091460270914702FF
:101F20008FBF8091D201882309F4CFC01092D201D3
:101F3000E0E0F0E0EF2B51F30E940000E7CF3E9885
:101F40003F98BFCF552029F00430110511F42E9A87
:101F50002F9881E00E94A503980117FF04C0222753
:101F60003327201B310B27703327C80117FD079635
:101F7000F3E095958795FA95E1F717FF05C001976E
:101F8000A501421B530B9A01AC015695542F4427CF
:101F9000579547954E595D4FB0E0A0E01501221AC4
:101FA000330A8E3F6FEF960709F43FC07A0170E065
:101FB00060E0FD01E653FA4F4F013A01F0E86F0E81
:101FC000711C8F3F980779F0F401E60FF71FE49139
:101FD000F0E06F01022E01C0CC0C0A94EAF7F70181
:101FE000D488CD28C48A21153105B9F0F401E60F53
:101FF000F71F44906301C60ED71EE42DF0E0022CBB
:1020000002C0F595E7950A94E2F7FA87E987F601A9
:102010004488F9854F2AF601448A6F5F7F4FFFEFAE
:10202000EF1AFF0A6835710561F60196A85ABF4F8D
:1020300040585F4FA03BB10509F0B3CF0E944F0657
:102040008FE090E00E9422060F5F1F4F09311105BB
:1020500009F047CF552011F02F9A2D9880E991E093
:102060000E9422060E94200681E090E00E94D20A8F
:1020700080FF3FCF8AE090E00E94D20A9FEF980F46
:102080009E3F08F036CF22E330E03093CF0120931B
:10209000CE0128E330E03093CD012093CC010BE05A
:1020A00010E0682F82EB96E00E947006C8010E9443
:1020B000D20A0F5F1F4F0131110599F70E944F0699
:1020C00088EE93E00E94220614CF8091D301242F42
:1020D000281B822F90910001291748F48F5F8917E0
:1020E00008F026CF31E033BF889513BE21CF81E0C1
:1020F0008093D2014093D3018091D0019091D1017E
:1021000001969093D1018093D0018091D501809365
:10211000D4010E9427068093D50180E10E944406E5
:10212000882331F08091070191E08927809307018E
:1021300084E00E944406882331F0E1E0F0E0F0936F
:102140004202E093410200914102109142020130AB
:102150001105A9F40E942F0684E191E00E94450830
:102160000E944F060E946E0882EC91E00E94460792
:1021700084E191E00E9445080E944F06FFCF0115BF
:10218000110509F0D5CE80914002882309F44DC095
:102190000E942F068091DA019091DB0197FDC8CE55
:1021A00080917801909179019E012B5F3F4F7901D9
:1021B0008E01095F1F4F28E130E040E250E060E40B
:1021C00070E001970E949109AE014F5F5F4F7A0165
:1021D0000450110928E130E040E250E060E470E092
:1021E00080917801909179010E9491098F81988561
:1021F0000E9448078AEC91E00E9446078D819E81EB
:102200000E94480783EB91E00E94F5068B819C8138
:102210000E9448078AEC91E00E94460789819A81D2
:102220000E9448070E944F06FFCF88E00E944406A4
:10223000882309F4C3C02091780130917901A4E189
:10224000B1E0ECEDF1E090E080E08217930734F428
:102250004D915D91419351930196F7CFE090050127
:10226000F09006018091DA019091DB010196409196
:10227000D8015091D9014F5F5F4F5093D9014093DE
:10228000D801B9010E943517A9014F5F5F4F5093E4
:10229000790140937801F901EE0FFF1FEC5EFE4FCC
:1022A0003297821793073CF42150310940815181C4
:1022B00053834283F5CF880F991FFC01EC5EFE4FDC
:1022C000F182E0828091070181110E946E08809165
:1022D000D8019091D90168E270E00E943517892BEE
:1022E00099F48091010190910201209103013091B4
:1022F00004012F5F3F4F30930401209303010196A7
:102300009093020180930101809103019091040157
:10231000C0900101D09002014C01092E000CAA08C6
:10232000BB089C012C0D3D1D82179307ACF40D2CAE
:10233000000CEE08FF08C114D104E104F10441F0DF
:102340000E948C13A70196010E94FA136B017C0175
:102350008C0C9D1CAE1CBF1C909206018092050146
:102360000E948C1324E030E040E050E00E94FA1319
:10237000672B682B692B31F48FEF9FEF9093060149
:10238000809305018091D6019091D701059754F073
:10239000EFEFFFEFF0930601E09305011092D701F4
:1023A0001092D6018091D6019091D7010196909319
:1023B000D7018093D601F1E0F093400280E20E94C1
:1023C0004406E0907801F0907901882369F08091CB
:1023D000DA019091DB01181619060CF07AC001970A
:1023E0009093DB018093DA0180E40E944406882305
:1023F00081F08091DA019091DB0121E0E21AF1088D
:102400008E159F050CF067C001969093DB018093B9
:10241000DA010E942F0654E1E52E51E0F52E60917D
:10242000780170917901061717070CF059C0F70170
:10243000C190D1907F01072E000C880B990B0E9450
:102440007E159B01AC016BED7FE089EC90E40E946E
:10245000D4144B015C01B801012E000C880B990BC0
:102460000E947E159B01AC01C501B4010E94721649
:102470004B015C010E94CF142B013C01C501B4014A
:102480000E94DF1620E030E040EC51E40E9472161A
:1024900020E030E040E052E40E945E140E944615C5
:1024A0004B0120E030E040EC51E4C301B2010E9456
:1024B000721620E030E040E852E40E945E140E9470
:1024C0004615CB01A601B4010E9478070F5F1F4F8C
:1024D000A6CFC70184CF1092DB011092DA0199CF09
:1024E000409105015091060160E270E080E490E0C7
:1024F0000E947807609178017091790161157105EA
:1025000009F4BBC0072E000C880B990B0E947E15A6
:102510009B01AC016BED7FE089EC90E40E94D41448
:102520006B017C016091DA017091DB01072E000CD8
:10253000880B990B0E947E15A70196010E947216C6
:102540004B015C0120E030E040E05FE3C701B601F1
:102550000E9472169B01AC01C501B4010E945E1479
:102560006B017C010E94DF1620E030E040EC51E47A
:102570000E94721620E030E040E052E40E945E14B7
:102580000E9446154B018B01C701B6010E94CF1472
:1025900020E030E040EC51E40E94721620E030E090
:1025A00040E852E40E945E140E9446157B0114012B
:1025B000F0E22F1A310837FE03C03194219431081C
:1025C0003B0120E4621A710877FE03C071946194A4
:1025D000710880E490E030E2C32ED12C62147304C1
:1025E0003CF08B01740180E290E040E4C42ED12CD9
:1025F0000C151D0554F03E2D2F2D7C01832F922F9D
:10260000302F212F8601C32ED22E4601801A910A27
:102610002C014E185F0857FE03C051944194510895
:10262000540197FE03C03FEFA31AB30AB594A794D1
:10263000E816F90604F581E0482F880F550B5A87F4
:102640004987C016D106CCF041E0B801C701621439
:10265000730414F0B701C8010E945206A418B5080B
:10266000B7FE06C089859A85E80EF91EA80CB91C2C
:102670000F5F1F4FE6CF8FEFDFCF0E944F0658CC82
:102680008F929F92AF92BF92CF92DF92EF92FF9282
:10269000CF93DF93EC01688179818A819B816115F9
:1026A00071058105910521F464E279ED8BE597E0F0
:1026B0002DE133EF41E050E00E94FA1349015A0145
:1026C0009B01AC01A7EAB1E40E9419146B017C01E3
:1026D000ACEEB4EFA50194010E942714C60ED71EDC
:1026E000E81EF91EF7FE06C081E0C81AD108E1080D
:1026F00080E8F80AC882D982EA82FB82C701B60163
:102700009F77DF91CF91FF90EF90DF90CF90BF90B8
:10271000AF909F908F9008958F929F92AF92BF92AB
:10272000CF92DF92EF92FF9260917A0170917B01DC
:1027300080917C0190917D01611571058105910564
:1027400021F464E279ED8BE597E02DE133EF41E090
:1027500050E00E94FA1349015A019B01AC01A7EA1B
:10276000B1E40E9419146B017C01ACEEB4EFA50139
:1027700094010E942714C60ED71EE81EF91EF7FE0C
:1027800006C081E0C81AD108E10880E8F80AC092C2
:102790007A01D0927B01E0927C01F0927D01C70129
:1027A000B6019F77FF90EF90DF90CF90BF90AF90F2
:1027B0009F908F90089560937A0170937B0180932E
:1027C0007C0190937D010895F999FECF92BD81BD62
:1027D000F89A992780B50895262FF999FECF1FBA48
:1027E00092BD81BD20BD0FB6F894FA9AF99A0FBE3A
:1027F00001960895052E97FB1EF400940E94111473
:1028000057FD07D00E942C1407FC03D04EF40C9403
:10281000111450954095309521953F4F4F4F5F4F84
:10282000089590958095709561957F4F8F4F9F4F3C
:1028300008950E944E14A59F900DB49F900DA49FE3
:10284000800D911D11240895B7FF0C9419140E9456
:102850001914821B930B0895A1E21A2EAA1BBB1B0D
:10286000FD010DC0AA1FBB1FEE1FFF1FA217B3075C
:10287000E407F50720F0A21BB30BE40BF50B661F72
:10288000771F881F991F1A9469F760957095809536
:1028900090959B01AC01BD01CF010895A29FB001AD
:1028A000B39FC001A39F700D811D1124911DB29F84
:1028B000700D811D1124911D08955058BB27AA2722
:1028C0000E9475140C941F160E94E61538F00E94A1
:1028D000ED1520F039F49F3F19F426F40C94E3151C
:1028E0000EF4E095E7FB0C94DD15E92F0E944416E9
:1028F00058F3BA17620773078407950720F079F435
:10290000A6F50C9466160EF4E0950B2EBA2FA02DAA
:102910000B01B90190010C01CA01A0011124FF278C
:10292000591B99F0593F50F4503E68F11A16F04087
:10293000A22F232F342F4427585FF3CF4695379586
:102940002795A795F0405395C9F77EF41F16BA0B4B
:10295000620B730B840BBAF09150A1F0FF0FBB1FF9
:10296000661F771F881FC2F70EC0BA0F621F731F42
:10297000841F48F4879577956795B795F7959E3F9F
:1029800008F0B0CF9395880F08F09927EE0F979530
:10299000879508950E94B91508F481E008950E9472
:1029A000F615E3950C9430160E94E8140C941F164B
:1029B0000E94ED1558F00E94E61540F029F45F3FA3
:1029C00029F00C94DD1551110C9467160C94E31545
:1029D0000E94441668F39923B1F3552391F3951B94
:1029E000550BBB27AA2762177307840738F09F5F30
:1029F0005F4F220F331F441FAA1FA9F335D00E2E9D
:102A00003AF0E0E832D091505040E695001CCAF709
:102A10002BD0FE2F29D0660F771F881FBB1F2617CC
:102A200037074807AB07B0E809F0BB0B802DBF01A3
:102A3000FF2793585F4F3AF09E3F510578F00C9472
:102A4000DD150C9467165F3FE4F3983ED4F386954A
:102A500077956795B795F7959F5FC9F7880F911D93
:102A60009695879597F90895E1E0660F771F881F7F
:102A7000BB1F621773078407BA0720F0621B730B32
:102A8000840BBA0BEE1F88F7E09508950E944D1550
:102A90006894B1110C94671608950E944C1688F042
:102AA0009F5798F0B92F9927B751B0F0E1F0660F12
:102AB000771F881F991F1AF0BA95C9F714C0B13053
:102AC00091F00E946616B1E008950C946616672F87
:102AD000782F8827B85F39F0B93FCCF38695779582
:102AE0006795B395D9F73EF490958095709561956B
:102AF0007F4F8F4F9F4F0895E89409C097FB3EF496
:102B000090958095709561957F4F8F4F9F4F99233A
:102B1000A9F0F92F96E9BB279395F69587957795B8
:102B20006795B795F111F8CFFAF4BB0F11F460FF78
:102B30001BC06F5F7F4F8F4F9F4F16C0882311F0D0
:102B400096E911C0772321F09EE8872F762F05C0E4
:102B5000662371F096E8862F70E060E02AF09A957F
:102B6000660F771F881FDAF7880F9695879597F974
:102B70000895990F0008550FAA0BE0E8FEEF16160E
:102B80001706E807F907C0F012161306E407F50761
:102B900098F0621B730B840B950B39F40A2661F0D5
:102BA000232B242B252B21F408950A2609F4A14078
:102BB000A6958FEF811D811D089597F99F6780E885
:102BC00070E060E008959FEF80EC089500240A947F
:102BD0001616170618060906089500240A941216F8
:102BE00013061406050608950C94E3150E944C166E
:102BF000D8F3E894E0E0BB279F57F0F02AED3FE0E0
:102C000049EC06C0EE0FBB0F661F771F881F28F028
:102C1000B23A62077307840728F0B25A620B730B4B
:102C2000840BE3959A9572F7803830F49A95BB0F30
:102C3000661F771F881FD2F790480C94EE16092E56
:102C40000394000C11F4882352F0BB0F40F4BF2B07
:102C500011F460FF04C06F5F7F4F8F4F9F4F089547
:102C6000EF93E0FF07C0A2EA2AED3FE049EC5FEBFB
:102C70000E9475140E941F160F90039401FC905837
:102C8000ECEAF0E00C94FA1657FD9058440F551FEB
:102C900059F05F3F71F04795880F97FB991F61F0DE
:102CA0009F3F79F087950895121613061406551F55
:102CB000F2CF4695F1DF08C0161617061806991FC1
:102CC000F1CF86957105610508940895E894BB27B6
:102CD00066277727CB0197F908950E94B91508F464
:102CE0008FEF08950E9485160C941F160E94E6151A
:102CF00038F00E94ED1520F0952311F00C94DD15AD
:102D00000C94E31511240C9467160E94441670F37A
:102D1000959FC1F3950F50E0551F629FF001729F80
:102D2000BB27F00DB11D639FAA27F00DB11DAA1F8F
:102D3000649F6627B00DA11D661F829F2227B00DDC
:102D4000A11D621F739FB00DA11D621F839FA00D67
:102D5000611D221F749F3327A00D611D231F849FB7
:102D6000600D211D822F762F6A2F11249F5750400E
:102D70009AF0F1F088234AF0EE0FFF1FBB1F661F89
:102D8000771F881F91505040A9F79E3F510580F052
:102D90000C94DD150C9467165F3FE4F3983ED4F372
:102DA000869577956795B795F795E7959F5FC1F7F6
:102DB000FE2B880F911D9695879597F908959F93FF
:102DC0000E94F6150F9007FCEE5F0C9430160E94DF
:102DD000B915880B990B08959F3F31F0915020F45D
:102DE000879577956795B795880F911D96958795E7
:102DF00097F908959F938F937F936F93FF93EF932A
:102E00009B01AC010E947216EF91FF910E940E1778
:102E10002F913F914F915F910C947216DF93CF9356
:102E20001F930F93FF92EF92DF927B018C016894C6
:102E300006C0DA2EEF010E948516FE01E894A591E6
:102E40002591359145915591A6F3EF010E94751496
:102E5000FE019701A801DA9469F7DF90EF90FF90E7
:102E60000F911F91CF91DF91089597FB072E16F4D4
:102E7000009407D077FD09D00E94491707FC05D0C0
:102E80003EF4909581959F4F0895709561957F4F81
:102E90000895AA1BBB1B51E107C0AA1FBB1FA617A1
:102EA000B70710F0A61BB70B881F991F5A95A9F7F3
:102EB00080959095BC01CD010895EE0FFF1F059000
:0A2EC000F491E02D0994F894FFCF7F
:102ECA001003000100010001FFFFFFFF00E1000005
:102EDA0000000000010000000000000000000000E7
:102EEA0000000000000000000000000000000000D8
:102EFA0000000000000000000000000000000000C8
:102F0A0000000000000000000000000000000000B7
:102F1A0000000000000000000000000000000000A7
:102F2A000000000000000000000000000000000097
:102F3A00000000000000000001000100000000C1C4
:102F4A0080810000000000000003046E05240419BB
:102F5A00046A0428044604000000007006F305F21F
:102F6A0006F106493A20004C3A0020523A0020560F
:102F7A003A20000D0A006E616E00696E66006F7677
:0C2F8A00660046696E616C200A002C0095
:00000001FF
