:100000000C947B030C94A3030C94A3030C94A30300
:100010000C94A3030C94A3030C94A3030C94A303C8
:100020000C94A3030C94A3030C94C7090C94360AF4
:100030000C94A3030C94A3030C94A3030C94A303A8
:100040000C94A3030C94A3030C94A3030C94A30398
:100050000C94A3030C94A3030C94A3030C94680CBA
:100060000C94A3030C94A3030C94A3030C94A30378
:100070000C94A3030C94A3030C94A3030C94A30368
:100080000C94A3030C94A3030C94A3030C94A30358
:100090000C94A3030C94A3030C94A3030C94A30348
:1000A0000C94A3030C94A3030C94A30305A84CCDB8
:1000B000B2D44EB93836A9020C50B9918688083CA2
:1000C000A6AAAA2ABE000000803F00000000003E51
:1000D0005B4F5B3E3E6B4F6B3E1C3E7C3E1C183CB8
:1000E0007E3C181C577D571C1C5E7F5E1C00183C14
:1000F0001800FFE7C3E7FF0018241800FFE7DBE75D
:10010000FF30483A060E2629792926407F05050743
:10011000407F05253F5A3CE73C5A7F3E1C1C08089F
:100120001C1C3E7F14227F22145F5F005F5F060964
:100130007F017F006689956A606060606094A2FFBD
:10014000A29408047E040810207E201008082A1CAF
:1001500008081C2A08081E101010100C1E0C1E0C7B
:1001600030383E3830060E3E0E060000000000001B
:10017000005F00000007000700147F147F14242A8A
:100180007F2A12231308646236495620500008075C
:100190000300001C2241000041221C002A1C7F1C7D
:1001A0002A08083E0808008070300008080808087F
:1001B000000060600020100804023E5149453E00E6
:1001C000427F400072494949462141494D33181444
:1001D000127F1027454545393C4A49493141211193
:1001E00009073649494936464949291E0000140085
:1001F00000004034000000081422411414141414A8
:10020000004122140802015909063E415D594E7C05
:100210001211127C7F494949363E414141227F41BA
:1002200041413E7F494949417F090909013E414118
:1002300051737F0808087F00417F41002040413F03
:10024000017F081422417F404040407F021C027F12
:100250007F0408107F3E4141413E7F090909063E67
:100260004151215E7F091929462649494932030136
:100270007F01033F4040403F1F2040201F3F403848
:10028000403F631408146303047804036159494D23
:1002900043007F4141410204081020004141417F59
:1002A00004020102044040404040000307080020CF
:1002B000545478407F2844443838444444283844CF
:1002C00044287F385454541800087E090218A4A406
:1002D0009C787F0804047800447D40002040403D25
:1002E000007F1028440000417F40007C047804789F
:1002F0007C080404783844444438FC182424181832
:10030000242418FC7C08040408485454542404048D
:100310003F44243C4040207C1C2040201C3C40307A
:10032000403C44281028444C9090907C4464544CA9
:100330004400083641000000770000004136080004
:1003400002010204023C2623263C1EA1A161123AAE
:100350004040207A385454555921555579412154FB
:10036000547841215554784020545579400C1E5200
:1003700072123955555559395454545939555454A4
:10038000580000457C410002457D420001457C400B
:10039000F0292429F0F0282528F07C545545002028
:1003A00054547C547C0A097F4932494949323248C5
:1003B000484832324A4848303A4141217A3A42402C
:1003C0002078009DA0A07D39444444393D40404000
:1003D0003D3C24FF2424487E4943662B2FFC2F2BD1
:1003E000FF0929F620C0887E090320545479410072
:1003F00000447D413048484A32384040227A007AF1
:100400000A0A727D0D19317D2629292F28262929CE
:10041000292630484D4020380808080808080808F0
:10042000382F10C8ACBA2F102834FA00007B000017
:1004300008142A142222142A14089500220095AACE
:10044000005500AAAA55AA55AA000000FF001010E6
:1004500010FF00141414FF001010FF00FF1010F024
:1004600010F0141414FC001414F700FF0000FF0037
:10047000FF1414F404FC141417101F10101F101F85
:100480001414141F00101010F0000000001F1010B2
:1004900010101F10101010F010000000FF101010AE
:1004A000101010101010FF10000000FF140000FFCB
:1004B00000FF00001F10170000FC04F414141710B4
:1004C000171414F404F40000FF00F71414141414A7
:1004D0001414F700F7141414171410101F101F141D
:1004E0001414F4141010F010F000001F101F00007E
:1004F000001F14000000FC140000F010F01010FFAA
:1005000010FF141414FF141010101F00000000F04E
:1005100010FFFFFFFFFFF0F0F0F0F0FFFFFF000023
:10052000000000FFFF0F0F0F0F0F38444438447CCA
:100530002A2A3E147E02020606027E027E026355CD
:100540004941633844443C04407E201E2006027E1C
:10055000020299A5E7A5991C2A492A1C4C7201722E
:100560004C304A4D4D303048784830BC625A463D98
:100570003E494949007E0101017E2A2A2A2A2A444D
:10058000445F444440514A444040444A5140000082
:10059000FF0103E080FF000008086B6B083612368D
:1005A0002436060F090F060000181800000010106E
:1005B000003040FF0101001F01011E00191D17122C
:1005C000003C3C3C3C0000000000F0F89C8E87831F
:1005D000878E9CF8F00000FEFF0303030303070E61
:1005E000FCF80000FEFF0303030303070EFCF80002
:1005F00000FFFF00000000000000FFFF0000FEFF02
:100600008383838383C7EE7C380000F8FC0E0703E6
:100610000303070EFCF800003F7FE0C08080C0E0CD
:100620007F3FFFFF01010101010101FFFF0000FF0A
:10063000FF0C0C0C0C1C3E77E3C100007FFFC0C018
:10064000C0C0C0E0703F1F00001F3F70E0C0C0C0CE
:10065000E0703F1F00007FFFC1C1C1C1C1E3773E11
:100660001C00001F3F70E0C0C0C0E0703F1F0000D2
:1006700000000001FFFF01000000D5F08D14A1C8AB
:1006800081CFD9F1AF2000080B000202020000095F
:1006900004000001020200000524001001052401ED
:1006A0000101042402060524060001070581031048
:1006B000004009040100020A000000070502024090
:1006C0000000070583024000000403090412010032
:1006D00002EF020140412336800001010203014183
:1006E000726475696E6F204C4C4300417264756290
:1006F0006F790000E50C11241FBECFEFDAE0DEBFFA
:10070000CDBF12E0A0E0B1E0E6ECFEE202C0059051
:100710000D92AA32B107D9F726E0AAE2B2E001C0F1
:100720001D92A93AB207E1F713E0CBE7D3E004C08A
:100730002197FE010E945B17CA37D107C9F70E94B3
:10074000020D0C9461170C940000E5E5F2E0A0E0C6
:10075000B8E000800EBC8111012C1197A0FDFDCFE7
:100760000192B9F70DB40895FC01809154028823D9
:1007700011F13FB7F89482E08093E9002091F200F4
:10078000822F90E01816190614F481E090E0882377
:1007900039F0289844E6409353024091F100408399
:1007A000222339F02091F200211103C02BE620937F
:1007B000E8003FBF08958FEF9FEF08952FB7F8949B
:1007C00083E08093E9009091E800892F807295FF83
:1007D00004C09091F20080E4891B2FBF089580919E
:1007E0004B0281110DC082E08093470284E0809328
:1007F000480210924A021092490281E080934B0213
:1008000087E492E00895CF93DF931F92CDB7DEB7D0
:100810006983DC01ED91FC910280F381E02D41E0E0
:1008200050E0BE016F5F7F4F09950F90DF91CF9130
:10083000089583E08093E9008091F200882319F005
:100840008AE38093E80008950E94DE0390E0089513
:10085000CF93DF931F92CDB7DEB7FC0184859585DA
:1008600097FD08C02FEF3FEF358724870F90DF916A
:10087000CF910895CE0101960E94B403019719F417
:10088000898190E0F3CF8FEF9FEFF0CF0F931F930D
:10089000CF93DF931F92CDB7DEB78C01FC01848527
:1008A000958597FF0BC0CE0101960E94B403019776
:1008B00071F4898190E0F80195878487F801848537
:1008C00095850F90DF91CF911F910F9108958FEF34
:1008D0009FEFF1CFFC018485958597FD0BC09FB7F5
:1008E000F89482E08093E9008091F2009FBF90E04D
:1008F000019608959FB7F89482E08093E900809173
:10090000F2009FBF90E00895409141025091420251
:1009100020913F023091400242175307B4F4909166
:10092000E8009570E1F39091E80092FD19C0809382
:10093000F100809141029091420201968F739927B4
:10094000892B19F48EEF8093E800809141029091F9
:1009500042020196909342028093410281E0089501
:1009600080E00895DF92EF92FF920F931F93CF9351
:10097000DF93D82E8A01EB017B01E40EF51ECE1524
:10098000DF0559F0D7FE12C0FE0184910E94840455
:1009900021968111F4CF0FEF1FEFC801DF91CF91A6
:1009A0001F910F91FF90EF90DF9008958881EECF17
:1009B0000F931F93CF93DF931F92CDB7DEB782E0E3
:1009C000898342E450E067E876E080E80E94B20460
:1009D0000E94EF03DC0112960D911C910115110587
:1009E00089F0D801ED91FC910280F381E02DBE01E8
:1009F0006F5F7F4FC801099597FD04C0F80100851E
:100A00001185ECCF89810F90DF91CF911F910F91CC
:100A10000895615030F02091F100FC01208301968F
:100A2000F8CF289884E68093530208953FB7F8944E
:100A300080913B0290913C02A0913D02B0913E0218
:100A400026B5A89B05C02F3F19F00196A11DB11D29
:100A50003FBFBA2FA92F982F8827BC01CD01620F65
:100A6000711D811D911D42E0660F771F881F991F20
:100A70004A95D1F708958F929F92AF92BF92CF92ED
:100A8000DF92EF92FF926B017C010E9416054B01F1
:100A90005C01C114D104E104F104B9F00E9416050F
:100AA000681979098A099B09683E73408105910597
:100AB00080F321E0C21AD108E108F10888EE880E1F
:100AC00083E0981EA11CB11CE4CFFF90EF90DF9053
:100AD000CF90BF90AF909F908F9008958F929F92EC
:100AE000AF92BF92CF92DF92EF92FF920F931F933C
:100AF000CF93DF936C017B018A018091870188236A
:100B000009F45CC080915402882309F457C0809195
:100B1000460280FF05C08091E00082608093E00083
:100B2000E801B12C8AEFA82E93E0892E2AE3922EB9
:100B3000209711F4BB20D9F10E94DE0381110AC075
:100B4000AA94AA20D9F161E070E080E090E00E94D0
:100B50003B05EECF8C171D0611F00CF08C2F9FB7C4
:100B6000F8948092E9002091E80025FD02C09FBF23
:100B7000DFCF282F30E0C21BD30BF701815020F0CC
:100B800041914093F100FACFE20EF31EBB2021F019
:100B90009092E800B12CEBCF8091E80085FDE7CF83
:100BA0009092E800BB24B394209709F3F3CF5D98AB
:100BB00084E680934502101611063CF081E090E037
:100BC000F6019383828310E000E0C801DF91CF91AA
:100BD0001F910F91FF90EF90DF90CF90BF90AF905B
:100BE0009F908F900895AF92BF92CF92DF92EF9235
:100BF000FF920F931F93CF93DF936C017B018B01C7
:100C0000040F151FEB015E01AE18BF08C017D10716
:100C100059F06991D601ED91FC910190F081E02DA0
:100C2000C6010995892B79F7C501DF91CF911F91F5
:100C30000F91FF90EF90DF90CF90BF90AF9008950D
:100C40002D9A0895BC0190E080E00C943B058FB193
:100C50008095807F669B88601C9B8460089580E0FF
:100C6000E5E5F2E081118FEF002481938193819378
:100C700081930394D1F710922B0210922A021092C2
:100C80002D0210922C02089590913002982329F49D
:100C900090913102982381E009F480E0089580E08A
:100CA0000C94A50380389105B8F460347105A0F464
:100CB00020E191E061FD94E060FD990F62FD929565
:100CC000687F269FD0011124A80FAB5ABD4F8C918D
:100CD00040FF03C0892B8C93089590958923FBCF07
:100CE0008F929F92AF92BF92CF92DF92EF92FF923C
:100CF0000F931F93CF93DF936D3089F0C0902A023A
:100D0000D0902B026A30D1F410922D0210922C0256
:100D100088E0C80ED11CD0922B02C0922A0281E03A
:100D200090E0DF91CF911F910F91FF90EF90DF90B6
:100D3000CF90BF90AF909F908F90089500912C021C
:100D400010912D02E5E06E9FE0011124C653DF4FA4
:100D50004801F12CF5E0E12CFF1629F0CE010196B7
:100D6000FE01E490EC01B12CA12C4E2D4170B60196
:100D70006A0D7B1DC4010E945206E694FFEFAF1A74
:100D8000BF0A88E0A816B10481F7F394EFEF8E1A3A
:100D90009E0AF6E0FF12DECF0A5F1F4F10932D026E
:100DA00000932C02BCCFFC01CB01209114013091A7
:100DB0001501B9010E943317AC01440F551FE40F10
:100DC000F51F215031098217930734F44281538172
:100DD000419351930196F7CF30931501209314015D
:100DE0000895089590E080E00895FC0101900020AE
:100DF000E9F73197AF01481B590BBC0185EA96E032
:100E00000C94F3050C94F5068F929F92AF92BF92CB
:100E1000CF92DF92EF92FF920F931F93CF93DF93C6
:100E2000CDB7DEB7A1970FB6F894DEBF0FBECDBF2A
:100E30006C01990FEE08FF08F7FE41C06DE285EAEC
:100E400096E00E9470068C0122273327A9012C19F5
:100E50003D094E095F0919A2CE0181967C019AE0F5
:100E6000892E912CA12CB12CCA01B901A5019401A4
:100E70000E945D14605DF70162937F0121153105C9
:100E80004105510589F790E080E0309719F0CF01D6
:100E90000E94F506800F911FA1960FB6F894DEBF51
:100EA0000FBECDBFDF91CF911F910F91FF90EF90BB
:100EB000DF90CF90BF90AF909F908F900895A70143
:100EC000960119A28E010F5D1F4F8AE0C82ED12C0A
:100ED000E12CF12CCA01B901A70196010E945D1411
:100EE000605DF80162938F012115310541055105BF
:100EF00089F790E080E0309779F2CF010E94F50603
:100F0000CBCF2F923F924F925F926F927F928F92B0
:100F10009F92AF92BF92CF92DF92EF92FF920F9388
:100F20001F93CF93DF9300D000D000D0CDB7DEB7B2
:100F30008C017E836D835C834B836B5F7F4F41E0CD
:100F40000E9452066D817E816550710941E0C801A1
:100F50000E94520641E06D817E81C80105960E9483
:100F6000520641E06D817E81C80105970E945206BC
:100F700081E090E09A838983D12CC12C85E0E82E12
:100F8000F12C96EF292E33243A942CEFA22EBB2479
:100F9000BA949FEFC91AD90A89819A8102969A83D5
:100FA0008983A80EB91E3601600E711E41E08D8046
:100FB0009E808E0C9F1CB401C3010E945206280122
:100FC0004C185D0841E0B401C2010E94520641E0A4
:100FD0008D809E808E189F08B401C3010E94520626
:100FE00041E0B401C2010E9452068D809E808C0CAB
:100FF0009D1C41E0B40138016E0C7F1CC3010E94AE
:10100000520641E0B40128014E185F08C2010E9457
:1010100052068D809E808C189D0841E0B401C3016A
:101020000E94520641E0B401C2010E945206CE1451
:10103000DF044CF10250110910932D0200932C0291
:101040008D819E81039790932B0280932A028B813E
:101050009C8126960FB6F894DEBF0FBECDBFDF9100
:10106000CF911F910F91FF90EF90DF90CF90BF90A5
:10107000AF909F908F907F906F905F904F903F9038
:101080002F900C940407B7FC84CF91E0E91AF10883
:1010900082E0280E311CA20CB31C7BCFEF92FF9292
:1010A0000F931F93CF93DF938C017B01CB010E94A1
:1010B000040780E192E00E940207E80110E000E0EE
:1010C0000E151F053CF4899199910E9404070F5F4A
:1010D0001F4FF6CF8DE192E0DF91CF911F910F91DD
:1010E000FF90EF900C9402074F925F926F927F9265
:1010F0008F929F92AF92BF92CF92DF92EF92FF9228
:101100000F931F93CF93DF93EC01F12CE12CF9E0C7
:101110004F2E512C6091140170911501CB01880F55
:10112000991FE816F9060CF0CDC0C7010E943317CD
:101130008C01FC01EE0FFF1FEC0FFD1F80819181E0
:10114000019609F0BBC020911401309115012330A4
:1011500031050CF4B3C0580141E0A41AB108C5012F
:10116000B9010E943317FC01EE0FFF1FEC0FFD1FAA
:101170008080918068018FEFC81AD80AC601B90132
:101180000E943317FC01EE0FFF1FEC0FFD1F608064
:1011900071808FE092E00E94020783E192E00E945A
:1011A00002076091140170911501C5010E94331767
:1011B0000E94040786E192E00E94020760911401F8
:1011C00070911501C6010E9433170E9404078AE13D
:1011D00092E00E94020783E192E00E940207C401AC
:1011E0000E94040786E192E00E940207C3010E9468
:1011F00004078CE192E00E94F5068614970409F03A
:101200005DC02091140130911501C801B9010E94FF
:101210003317FC01EE0FFF1FEC0FFD1F8081918142
:101220008F3F980709F03FC08FEF881A980A918284
:101230008082C501B9010E943317FC01EE0FFF1F28
:10124000EC0FFD1F11821082C601B9010E943317F5
:10125000FC01EE0FFF1FEC0FFD1F51824082BC010D
:10126000CE010E94D30602501109609114017091C1
:101270001501C8010E943317BC01CE010E94D3069C
:10128000609114017091150163307105BCF0CE01BD
:101290000E944E086091140170911501C8010E94CE
:1012A00033178C0150CF8815990524F442E0840E41
:1012B000911CBDCF019691838083BBCF8FEFE81A3D
:1012C000F80A28CFDF91CF911F910F91FF90EF90F7
:1012D000DF90CF90BF90AF909F908F907F906F9056
:1012E0005F904F900895AF92BF92CF92DF92EF92AE
:1012F000FF920F931F93CF93DF93CDB7DEB7C45602
:10130000D1090FB6F894DEBF0FBECDBF8C015B01D3
:101310006A0179018FE192E00E940207F8018E01D3
:101320000F5F1F4FD80190E080E0219131912D9304
:101330003D930196C816D906C1F7C8010E947408EA
:10134000F50190E080E0D8014D915D918D012191F2
:10135000319142175307B9F40196E816F90699F747
:1013600081E0CC59DF4F0FB6F894DEBF0FBECDBF82
:10137000DF91CF911F910F91FF90EF90DF90CF9071
:10138000BF90AF90089580E0ECCF0C9415141F929D
:101390000F920FB60F9211248F939F938091E100CB
:1013A0009091E100937F9093E10083FF0FC0109232
:1013B000E90091E09093EB001092EC0092E390939F
:1013C000ED001092540298E09093F00082FF22C04A
:1013D00093E09093E9009091F200992319F09AE339
:1013E0009093E80090914502992341F09091450235
:1013F000915090934502911101C05D9A90915302D2
:10140000992341F09091530291509093530291117E
:1014100001C0289A84FF18C08091E2008E7E81600E
:101420008093E2008091E1008F7E8093E1008091C3
:1014300046028E7E8061809346029F918F910F902D
:101440000FBE0F901F90189580FFF7CF8091E2009C
:101450008E7E80618093E2008091E1008E7E809399
:10146000E100809146028E7E8160E5CF1F920F924F
:101470000FB60F921124CF92DF92EF92FF920F934B
:101480001F932F933F934F935F936F937F938F930C
:101490009F93AF93BF93EF93FF93CF93DF93CDB71A
:1014A000DEB76C97DEBFCDBF1092E9008091E800F7
:1014B00083FF25C068E0CE0145960E94090582EFB2
:1014C0008093E8008D8987FF39C09091E80090FFF4
:1014D000FCCF982F907609F034C19E894F89588DA2
:1014E0002F89F88C911131C0803861F580914402C8
:1014F0008093F1001092F1008EEF8093E8006C96DB
:101500000FB6F894DEBF0FBECDBFDF91CF91FF9134
:10151000EF91BF91AF919F918F917F916F915F916B
:101520004F913F912F911F910F91FF90EF90DF907E
:10153000CF900F900FBE0F901F9018959EEF909335
:10154000E800C7CF1092F100D5CF913059F4811146
:10155000D3CF4130510581F6809144028D7F809335
:101560004402CACF933049F48111C6CF41305105AE
:1015700019F6809144028260F2CF953041F4809157
:10158000E80080FFFCCF20682093E300B5CF9630C1
:1015900009F0A9C00B8D1C8D22E01092E900109279
:1015A000420210924102F2122EC01092400210929A
:1015B0003F020E94D8041F8299E09983FA8291E049
:1015C0009E8390EA98879AEF998720914102309103
:1015D0004202275F3F4F3C832B838D831092E900AB
:1015E00010924202109241021093400200933F0277
:1015F00049E050E0BE016F5F7F4F80E00E94B2047F
:101600000E94D80479CF1093400200933F020E94B9
:10161000EF03DC0112960D911C910115110509F4DF
:1016200051C1D801ED91FC910480F581E02DBE01FE
:101630006B5E7F4FC8010995009709F03EC1F80124
:1016400000851185EACFF3E0FF120EC08F89882351
:1016500009F440C0823061F440E867E08BEE96E028
:101660000E94B20C811148CF81E28093EB0047CFFA
:10167000813029F440E86BE08FED96E0F1CF8330C4
:1016800099F70E94EF03DC011296ED90FC908E0119
:101690000F5F1F4F6801E114F10479F0D701ED915C
:1016A000FC910680F781E02DB801C7010995080F6C
:1016B000111DF701E084F184EECFD8011C92F601F0
:1016C00001900020E9F73197BF016C197D0940E0D6
:1016D000C601C6CF69EC76E0FB01449150E080E89A
:1016E0000E94B20409CF973009F4BECF983021F49C
:1016F00081E08093F10000CF993009F0FDCE837036
:1017000009F0B2CFEBEEF1E081E031E096E3219118
:10171000222371F08093E9003093EB00DF011197F1
:101720002C912093EC009093ED008F5F873079F738
:101730008EE78093EA001092EA008F89809354022A
:10174000DBCE8B8D9C8D1092E9001092420210929C
:1017500041029093400280933F02898D811192C093
:101760008E899D89913A49F4813209F07DCF47E015
:1017700050E060E871E080E0B3CF913209F074CFBF
:10178000833269F48F89988DB0E0A0E080937C016A
:1017900090937D01A0937E01B0937F01ADCE803206
:1017A00069F48091E80082FFFCCF67E080E891E077
:1017B0000E9409058BEF8093E8009ECE823209F0EB
:1017C0009BCE8F8980938701EEEFFFE785919491FF
:1017D0008B3F9C4D51F1E0E0F8E0809180019091C9
:1017E0008101A0918201B0918301803B9440A105C9
:1017F000B105F1F48091870180FD1AC0EE3F8AE0C7
:10180000F80789F587E797E79183808380916000E7
:101810008093430288E19BE00FB6F894A8958093EB
:1018200060000FBE9093600067CEEEEFFAE0D5CF78
:10183000808191818737974709F05ECEA895809186
:101840006000886180936000809143028093600013
:10185000EE3F2AE0F20789F08091FE0A9091FF0A9C
:101860009183808349CE808191818737980751F297
:101870009093FF0A8093FE0AC5CF1092FF0A109240
:10188000FE0A3ACE0E94EF03DC0112960D911C91E4
:101890000115110509F4E8CED801ED91FC910190F4
:1018A000F081E02DBE016B5E7F4FC801099581116B
:1018B00023CEF80100851185EBCF181619060CF41C
:1018C0001BCED2CEF1E0FF12BECE6DEC76E004CF9F
:1018D0001F920F920FB60F9211242F933F938F9365
:1018E0009F93AF93BF938091370290913802A0915C
:1018F0003902B0913A023091360223E0230F2D379E
:1019000058F50196A11DB11D209336028093370230
:1019100090933802A0933902B0933A0280913B022F
:1019200090913C02A0913D02B0913E020196A11D12
:10193000B11D80933B0290933C02A0933D02B09373
:101940003E02BF91AF919F918F913F912F910F9048
:101950000FBE0F901F90189526E8230F0296A11D29
:10196000B11DD2CFEF92FF920F931F93CF93DF93CE
:10197000F82E192FE62E042F81E0860F880F0E9483
:10198000840483E00E948404CF2DD12FEC0EFD2E21
:10199000F11CCE15DF05B9F007FF13C0FE018491DD
:1019A0000E948404182F80E00E94840481232196E1
:1019B0008111EFCFDF91CF911F910F91FF90EF90A9
:1019C00008958881EDCF81E0F5CFE5E5F6E013825B
:1019D000128288EE93E0A0E0B0E084839583A68332
:1019E000B78385EF91E0918380838FEF9FEF958799
:1019F0008487E5EAF6E01382128287E092E0918321
:101A000080830895CF93DF93CDB7DEB7C25CD10951
:101A10000FB6F894DEBF0FBECDBF789484B5826058
:101A200084BD84B5816084BD85B5826085BD85B582
:101A3000816085BD80916E00816080936E00109200
:101A4000810080918100826080938100809181007B
:101A5000816080938100809180008160809380000C
:101A600080919100826080939100809191008160CB
:101A7000809391008091900081608093900080918C
:101A8000C10084608093C1008091C1008260809316
:101A9000C1008091C10081608093C1008091C3002A
:101AA00081608093C3008091C00082608093C000F9
:101AB0008091C20081608093C20080917A0084602E
:101AC00080937A0080917A00826080937A0080917E
:101AD0007A00816080937A0080917A008068809398
:101AE0007A001092540210924402109246028091A1
:101AF000D70081608093D70080EA8093D80089B5B1
:101B0000806189BD89B5826089BD09B400FEFDCFC1
:101B100061E070E080E090E00E943B058091D80099
:101B20008F7C80618093D8008091E000807F8093DB
:101B3000E0008091E1008E7E8093E1008DE0809353
:101B4000E200559A209A81EC80937C0085B1806FE9
:101B500085B984B1877E84B984B1876E84B95E9A71
:101B60005F988AB1806D8AB9769A6E9881B3806FDA
:101B700081BB899880B38D7080BB80E58CBD81E08E
:101B80008DBD85E090E00E9422065F9A85E090E09E
:101B90000E9422065E985C98EAE7F6E087E896E005
:101BA00024912EBD00000DB407FEFDCF31968E1797
:101BB0009F07B1F75C9A81E880936400809165008B
:101BC0008160809365000E944F060E94270687FF70
:101BD00015C05C9885EA8EBD00000DB407FEFDCFF0
:101BE0005C9A2E982F982D98809164008062809343
:101BF000640081E083BF889513BEFCCF0E94270656
:101C000082FF48C02D980E94270684788438E1F42A
:101C10000E94200688EC90E00E9422062F9882E025
:101C200090E00E9415148F3F29F06FEF82E090E062
:101C30000E941D1484EF91E00E9422062F9A0E94B8
:101C4000270684788438D9F30E942706847184316A
:101C5000E1F40E94200688EC90E00E9422062E9873
:101C600082E090E00E941514882329F060E082E071
:101C700090E00E941D1484EF91E00E9422062E9AAB
:101C80000E94270684718431D9F388EC90E00E9489
:101C90002206B4CF0E94200682E090E00E94C5098F
:101CA000882309F45EC23E9A3F9A81E090E00E9448
:101CB000C509282F2470522E81FF0FC021112E98A4
:101CC00001EF1FEF88E0A82EB12C0E94270686FFA7
:101CD0004BC22E9A2F9A0E94200682E390E00E9427
:101CE00022060E9427068111F8CF0E942F068091BC
:101CF000340290913502019709F0ECC18FEF9FEF0C
:101D0000C154DF4F99838883CF5BD040C354DF4FEA
:101D100099838883CD5BD04021E030E041E050E002
:101D2000BE0163547F4FCE0181549F4F0E947309BF
:101D300090E00E94040780918C0190918D01A09108
:101D40008E01B0918F01C754DF4F88839983AA8396
:101D5000BB83C95BD040CB54DF4F88839983AA8370
:101D6000BB83C55BD04022E030E042E050E0BE01E2
:101D70006B547F4FCE0187549F4F0E94730990E0B0
:101D80000E9404078091900190919101A09192018D
:101D9000B0919301CF54DF4F88839983AA83BB838B
:101DA000C15BD040C355DF4F88839983AA83BB832F
:101DB000CD5AD04022E030E042E050E0BE01635511
:101DC0007F4FCE018F549F4F0E94730990E00E9475
:101DD000040786E0E4E9F1E0DE01A955BF4F019078
:101DE0000D928A95E1F7CD55DF4F188219821A823C
:101DF0001B82C35AD04002E010E0CF55DF4F198359
:101E00000883C15AD04021E030E043E050E0BE01F9
:101E10006F557F4FCE0189559F4F0E94730990E007
:101E20000E94040786E0EAE9F1E0DE01A556BF4F13
:101E300001900D928A95E1F7C956DF4F18821982F9
:101E40001A821B82C759D040CB56DF4F19830883B3
:101E5000C559D04021E030E043E050E0BE016B5670
:101E60007F4FCE0185569F4F0E94730990E00E94DC
:101E7000040788E0E0EAF1E0DE01A357BF4F0190DC
:101E80000D928A95E1F7C757DF4F188219821A829F
:101E90001B82C958D040E4E0EE2EF12CCB57DF4F27
:101EA000F982E882C558D040C957DF4F19830883AB
:101EB000C758D04022E030E044E050E0BE016B570C
:101EC0007F4FCE0183579F4F0E94730990E00E947D
:101ED000040788E0E8EAF1E0DE01A358BF4F019073
:101EE0000D928A95E1F7ED961CAE1DAE1EAE1FAEAB
:101EF000ED97E7961FAF0EAFE797E996FFAEEEAE10
:101F0000E9978CE192E00E94F50622E030E044E09F
:101F100050E0BE016B587F4FCE0183589F4F0E9407
:101F2000730990E00E94040788E0E0EBF1E0DE0135
:101F3000A359BF4F01900D928A95E1F7AD961CAE63
:101F40001DAE1EAE1FAEAD97A7961FAF0EAFA797E3
:101F5000A996FFAEEEAEA99722E030E044E050E053
:101F6000BE016B597F4FCE0183599F4F0E94730969
:101F700090E00E9404078AE0E8EBF1E0DE01A55A58
:101F8000BF4F01900D928A95E1F7E1E5F0E0EC0F8B
:101F9000FD1F329688E0DF011D928A95E9F7F3E094
:101FA000CF2ED12C6396DFAECEAE639721E030E02A
:101FB00045E050E0BE016F5A7F4FCE01855A9F4FDA
:101FC0000E94730990E00E9404078AE0E2ECF1E0CD
:101FD000DE01A95BBF4F01900D928A95E1F78AE07F
:101FE000E2ECF1E0DE01DD9601900D928A95E1F7D9
:101FF00025E030E045E050E0BE01635C7F4FCE015C
:10200000895B9F4F0E94730990E00E9404078AE059
:10201000ECECF1E0DE01D39601900D928A95E1F7A8
:102020001FA618AA19AA1AAA1AA709A71CA70BA7BC
:10203000DEA6CDA623E030E045E050E0BE01675DBE
:102040007F4FCE01C3960E94730990E00E9404075F
:102050008AE0E6EDF1E0DE015F9601900D928A954F
:10206000E1F71B8E1C8E1D8E1E8E1E8B0D8BD88E47
:10207000CF8A1A8F098F23E030E045E050E0BE019F
:102080006B5E7F4FCE014F960E94730990E00E94D5
:1020900004078AE0E0EEF1E0DE011B9601900D926C
:1020A0008A95E1F71F82188619861A86DA82C98214
:1020B000FC82EB821E830D8323E030E045E050E09C
:1020C000BE016F5F7F4FCE010B960E94730990E0B7
:1020D0000E94040780913402909135020297A1F486
:1020E00064E070E080E091E00E944E0880E091E0C2
:1020F0000E94740881E292E00E94020764E070E0AE
:1021000080E091E00E944E080E944F0684E00E9409
:102110004406882309F4F4C082E090E090933502ED
:10212000809334020E942F06609114017091150172
:1021300088E191E00E944E080E944F0688E191E0FC
:102140000E94740881E292E00E94020760911401EB
:102150007091150188E191E00E944E080E944F069F
:10216000FFCF3E983F98A1CD552029F004301105AE
:1021700011F42E9A2F9881E00E94A503980117FF71
:1021800004C022273327201B310B27703327C801B7
:1021900017FD0796B3E095958795BA95E1F717FF78
:1021A00005C00197A501421B530B9A01AC0156953E
:1021B000542F4427579547954B5A5D4FB0E0A0E008
:1021C0001501221A330A8E3F6FEF960709F448C0B3
:1021D0007A0170E060E0FD01E653FA4F4F013A01E9
:1021E000F0E86F0E711C8F3F980779F0F401E60F4D
:1021F000F71FE491F0E06F01022E01C0CC0C0A94AD
:10220000EAF7F701D488CD28C48A21153105F9F001
:10221000F401E60FF71F44906301C60ED71EE42DAC
:10222000F0E0022C02C0F595E7950A94E2F7CF534F
:10223000DF4FF983E883C15CD040F6014488CF5377
:10224000DF4FF881C15CD0404F2AF601448A6F5FAE
:102250007F4FFFEFEF1AFF0A6835710509F0C3CF12
:102260000196A85ABF4F40585F4FA03BB10509F0F7
:10227000AACF0E944F068FE090E00E9422060F5FD7
:102280001F4F0931110509F020CD552011F02F9A6B
:102290002D9880E991E00E9422060E94200681E0AC
:1022A00090E00E94C50980FF18CD8AE090E00E946E
:1022B000C5099FEF980F9E3F08F00FCD22E330E055
:1022C00030932D0220932C0228E330E030932B0230
:1022D00020932A020BE010E0682F85EA96E00E9426
:1022E0007006C8010E94C5090F5F1F4F013111051B
:1022F00099F70E944F0688EE93E00E942206EDCCEB
:1023000000913402109135020115110509F0E1C167
:1023100080913102809330020E942706809331021F
:1023200088E00E944406882309F46AC020911401C1
:1023300030911501409116015091170180913202A0
:10234000909133020196B9016F5F7F4F7093150131
:1023500060931401F901EE0FFF1FE85EFE4F329704
:10236000821793073CF42150310960817181738396
:102370006283F5CF880F991FFC01E85EFE4F518301
:10238000408388E191E00E9474080E94BD1323E01D
:1023900030E040E050E00E942B146F5F7F4F8F4F82
:1023A0009F4F70931701609316010E94BD1324E0A4
:1023B00030E040E050E00E942B14672B682B692B23
:1023C00031F4EFEFFFEFF0931701E09316018091E6
:1023D0002E0290912F02059754F02FEF3FEF30938C
:1023E00017012093160110922F0210922E02809155
:1023F0002E0290912F02019690932F0280932E022D
:1024000080E20E944406E0901401F09015018823B8
:1024100069F08091320290913302181619060CF07F
:102420007AC00197909333028093320280E40E9435
:102430004406882381F0809132029091330231E08A
:10244000E31AF1088E159F050CF067C00196909372
:102450003302809332020E942F0658E1A52E51E0EC
:10246000B52E6091140170911501061717070CF035
:1024700059C0D5018D909D905D01072E000C880BF1
:10248000990B0E94AA159B01AC016BED7FE089ECD2
:1024900090E40E9400156B017C01B801012E000C34
:1024A000880B990B0E94AA159B01AC01C701B601CC
:1024B0000E9475166B017C010E94FB142B013C01EC
:1024C000C701B6010E94E21620E030E040EC51E482
:1024D0000E94751620E030E040E052E40E948F1424
:1024E0000E9472156B0120E030E040EC51E4C30122
:1024F000B2010E94751620E030E040E852E40E94EC
:102500008F140E947215CB01A401B6010E948107AD
:102510000F5F1F4FA6CFC70184CF109233021092D6
:10252000320299CF409116015091170160E270E09C
:1025300080E490E00E948107609114017091150180
:102540006115710509F4C3C0072E000C880B990BA7
:102550000E94AA159B01AC016BED7FE089EC90E431
:102560000E9400156B017C01609132027091330270
:10257000072E000C880B990B0E94AA15A701960143
:102580000E9475164B015C0120E030E040E05FE303
:10259000C701B6010E9475169B01AC01C501B401CB
:1025A0000E948F146B017C010E94E21620E030E053
:1025B00040EC51E40E94751620E030E040E052E427
:1025C0000E948F140E9472151B018B01C701B60176
:1025D0000E94FB1420E030E040EC51E40E947516AC
:1025E00020E030E040E852E40E948F140E9472150F
:1025F0007B013101B0E26B1A710877FE03C0719460
:10260000619471085B01E0E4AE1AB108B7FE03C043
:10261000B194A194B10880E490E030E2C32ED12CB3
:10262000A614B7043CF08B01710180E290E040E415
:10263000C42ED12C0C151D0554F03E2D2F2D7C01E0
:10264000832F922F302F212F8601C32ED22E4601A9
:10265000801A910A2C014E185F0857FE03C051944E
:1026600041945108140197FE03C0FFEF2F1A3F0A4F
:1026700035942794E816F90644F581E0282F880F51
:10268000330BCF53DF4F39832883C15CD040C01652
:10269000D106ECF041E0B801C701A614B70414F06C
:1026A000B701C8010E9452062418350837FE0AC037
:1026B000CF53DF4F48815981C15CD040E40EF51EF5
:1026C000280C391C0F5F1F4FE2CF8FEFD7CF0E942E
:1026D0004F0680E090E0892B09F418CD0E9400009D
:1026E00015CD8F929F92AF92BF92CF92DF92EF92D1
:1026F000FF92CF93DF93EC01688179818A819B817E
:10270000611571058105910521F464E279ED8BE590
:1027100097E02DE133EF41E050E00E942B14490196
:102720005A019B01AC01A7EAB1E40E944A146B0173
:102730007C01ACEEB4EFA50194010E945814C60EC2
:10274000D71EE81EF91EF7FE06C081E0C81AD108A0
:10275000E10880E8F80AC882D982EA82FB82C701D0
:10276000B6019F77DF91CF91FF90EF90DF90CF90F0
:10277000BF90AF909F908F9008958F929F92AF924D
:10278000BF92CF92DF92EF92FF9260918801709199
:10279000890180918A0190918B01611571058105F4
:1027A000910521F464E279ED8BE597E02DE133EFBB
:1027B00041E050E00E942B1449015A019B01AC01F9
:1027C000A7EAB1E40E944A146B017C01ACEEB4EFBD
:1027D000A50194010E945814C60ED71EE81EF91ECA
:1027E000F7FE06C081E0C81AD108E10880E8F80ABF
:1027F000C0928801D0928901E0928A01F0928B0107
:10280000C701B6019F77FF90EF90DF90CF90BF9008
:10281000AF909F908F900895609388017093890185
:1028200080938A0190938B010895F999FECF92BD10
:1028300081BDF89A992780B50895262FF999FECF82
:102840001FBA92BD81BD20BD0FB6F894FA9AF99ACD
:102850000FBE01960895052E97FB1EF400940E946A
:10286000421457FD07D00E945D1407FC03D04EF4BC
:102870000C94421450954095309521953F4F4F4F01
:102880005F4F089590958095709561957F4F8F4F1C
:102890009F4F08950E947F14A59F900DB49F900DA7
:1028A000A49F800D911D11240895B7FF0C944A1424
:1028B0000E944A14821B930B0895A1E21A2EAA1BB0
:1028C000BB1BFD010DC0AA1FBB1FEE1FFF1FA217E0
:1028D000B307E407F50720F0A21BB30BE40BF50BDD
:1028E000661F771F881F991F1A9469F76095709566
:1028F000809590959B01AC01BD01CF010895A29FE9
:10290000B001B39FC001A39F700D811D1124911DC3
:10291000B29F700D811D1124911D08955058BB2741
:10292000AA270E94A6140C9427160E94EE1538F0D0
:102930000E94F51520F039F49F3F19F426F40C9409
:10294000EB150EF4E095E7FB0C94E515E92F0E94DA
:102950004C1658F3BA17620773078407950720F0DF
:1029600079F4A6F50C946E160EF4E0950B2EBA2FA2
:10297000A02D0B01B90190010C01CA01A001112485
:10298000FF27591B99F0593F50F4503E68F11A1631
:10299000F040A22F232F342F4427585FF3CF4695C2
:1029A00037952795A795F0405395C9F77EF41F16E4
:1029B000BA0B620B730B840BBAF09150A1F0FF0FAE
:1029C000BB1F661F771F881FC2F70EC0BA0F621F9A
:1029D000731F841F48F4879577956795B795F7958A
:1029E0009E3F08F0B0CF9395880F08F09927EE0F1F
:1029F0009795879508950E94FE15E3950C943816D7
:102A00000E9414150C9427160E94F51558F00E9488
:102A1000EE1540F029F45F3F29F00C94E5155111B3
:102A20000C946F160C94EB150E944C1668F39923C6
:102A3000B1F3552391F3951B550BBB27AA276217BA
:102A40007307840738F09F5F5F4F220F331F441FC7
:102A5000AA1FA9F335D00E2E3AF0E0E832D09150FB
:102A60005040E695001CCAF72BD0FE2F29D0660FE8
:102A7000771F881FBB1F261737074807AB07B0E82B
:102A800009F0BB0B802DBF01FF2793585F4F3AF031
:102A90009E3F510578F00C94E5150C946F165F3F3E
:102AA000E4F3983ED4F3869577956795B795F795B7
:102AB0009F5FC9F7880F911D9695879597F908959F
:102AC000E1E0660F771F881FBB1F6217730784073B
:102AD000BA0720F0621B730B840BBA0BEE1F88F74A
:102AE000E09508950E9479156894B1110C946F16C1
:102AF00008950E94541688F09F5798F0B92F99278F
:102B0000B751B0F0E1F0660F771F881F991F1AF0D8
:102B1000BA95C9F714C0B13091F00E946E16B1E0B9
:102B200008950C946E16672F782F8827B85F39F0B8
:102B3000B93FCCF3869577956795B395D9F73EF471
:102B400090958095709561957F4F8F4F9F4F089519
:102B5000E89409C097FB3EF4909580957095619537
:102B60007F4F8F4F9F4F9923A9F0F92F96E9BB27ED
:102B70009395F695879577956795B795F111F8CF69
:102B8000FAF4BB0F11F460FF1BC06F5F7F4F8F4FD4
:102B90009F4F16C0882311F096E911C0772321F0CA
:102BA0009EE8872F762F05C0662371F096E8862F62
:102BB00070E060E02AF09A95660F771F881FDAF7B9
:102BC000880F9695879597F9089597F99F6780E8FC
:102BD00070E060E008959FEF80EC089500240A946F
:102BE0001616170618060906089500240A941216E8
:102BF00013061406050608950C94EB150E9454164E
:102C0000D8F3E894E0E0BB279F57F0F02AED3FE0CF
:102C100049EC06C0EE0FBB0F661F771F881F28F018
:102C2000B23A62077307840728F0B25A620B730B3B
:102C3000840BE3959A9572F7803830F49A95BB0F20
:102C4000661F771F881FD2F790480C94EC16092E48
:102C50000394000C11F4882352F0BB0F40F4BF2BF7
:102C600011F460FF04C06F5F7F4F8F4F9F4F089537
:102C7000EF93E0FF07C0A2EA2AED3FE049EC5FEBEB
:102C80000E94A6140E9427160F90039401FC9058EE
:102C9000ECEAF0E00C94F81657FD9058440F551FDD
:102CA00059F05F3F71F04795880F97FB991F61F0CE
:102CB0009F3F79F087950895121613061406551F45
:102CC000F2CF4695F1DF08C0161617061806991FB1
:102CD000F1CF86957105610508940895E894BB27A6
:102CE00066277727CB0197F908950E9488160C94E0
:102CF00027160E94EE1538F00E94F51520F0952356
:102D000011F00C94E5150C94EB1511240C946F162E
:102D10000E944C1670F3959FC1F3950F50E0551F1C
:102D2000629FF001729FBB27F00DB11D639FAA2720
:102D3000F00DB11DAA1F649F6627B00DA11D661F6F
:102D4000829F2227B00DA11D621F739FB00DA11D90
:102D5000621F839FA00D611D221F749F3327A00D4A
:102D6000611D231F849F600D211D822F762F6A2FE6
:102D700011249F5750409AF0F1F088234AF0EE0F4B
:102D8000FF1FBB1F661F771F881F91505040A9F778
:102D90009E3F510580F00C94E5150C946F165F3F33
:102DA000E4F3983ED4F3869577956795B795F795B4
:102DB000E7959F5FC1F7FE2B880F911D969587952C
:102DC00097F908959F930E94FE150F9007FCEE5F00
:102DD0000C9438169F3F31F0915020F487957795E9
:102DE0006795B795880F911D9695879597F90895E2
:102DF0009F938F937F936F93FF93EF939B01AC010E
:102E00000E947516EF91FF910E940C172F913F9130
:102E10004F915F910C947516DF93CF931F930F938F
:102E2000FF92EF92DF927B018C01689406C0DA2E4C
:102E3000EF010E948816FE01E894A5912591359135
:102E400045915591A6F3EF010E94A614FE0197014A
:102E5000A801DA9469F7DF90EF90FF900F911F912E
:102E6000CF91DF91089597FB072E16F4009407D0B9
:102E700077FD09D00E94471707FC05D03EF49095D6
:102E800081959F4F0895709561957F4F0895AA1B76
:102E9000BB1B51E107C0AA1FBB1FA617B70710F045
:102EA000A61BB70B881F991F5A95A9F78095909577
:102EB000BC01CD010895EE0FFF1F0590F491E02DA8
:062EC0000994F894FFCF15
:102EC600010004000100FFFF0000000000000000F8
:102ED60000000000010001000100000000000000E9
:102EE60000000000000000000000000000000000DC
:102EF60000000000000000000000000000000000CC
:102F060000000000000000000000000000000000BB
:102F160000000000000000000000000000000000AB
:102F2600000000000000000000000000000000009B
:102F3600000000000000000000000000FFFFFFFF8F
:102F460000E100000000000001000000FFFF01009A
:102F5600FFFFFFFF0100FFFF0100FFFF010001006F
:102F660004000100FFFF0100010004000100FFFF53
:102F7600FFFF01000400010002000100FFFF010045
:102F86000200010002000100FFFF02000100FFFF36
:102F96000100020003000100FFFF01000300020020
:102FA6000100030002000100FFFF00C18081000054
:102FB600000000000003046E05240419046A0428B6
:102FC600044604000000007006F305F206F1064907
:102FD6003A20004C3A0020523A0056000D0A002CC6
:0A2FE6000046696E616C200A0000CD
:00000001FF
