:100000000C947B030C94A3030C94A3030C94A30300
:100010000C94A3030C94A3030C94A3030C94A303C8
:100020000C94A3030C94A3030C9431090C94A00921
:100030000C94A3030C94A3030C94A3030C94A303A8
:100040000C94A3030C94A3030C94A3030C94A30398
:100050000C94A3030C94A3030C94A3030C94D20B51
:100060000C94A3030C94A3030C94A3030C94A30378
:100070000C94A3030C94A3030C94A3030C94A30368
:100080000C94A3030C94A3030C94A3030C94A30358
:100090000C94A3030C94A3030C94A3030C94A30348
:1000A0000C94A3030C94A3030C94A30305A84CCDB8
:1000B000B2D44EB93836A9020C50B9918688083CA2
:1000C000A6AAAA2ABE000000803F00000000003E51
:1000D0005B4F5B3E3E6B4F6B3E1C3E7C3E1C183CB8
:1000E0007E3C181C577D571C1C5E7F5E1C00183C14
:1000F0001800FFE7C3E7FF0018241800FFE7DBE75D
:10010000FF30483A060E2629792926407F05050743
:10011000407F05253F5A3CE73C5A7F3E1C1C08089F
:100120001C1C3E7F14227F22145F5F005F5F060964
:100130007F017F006689956A606060606094A2FFBD
:10014000A29408047E040810207E201008082A1CAF
:1001500008081C2A08081E101010100C1E0C1E0C7B
:1001600030383E3830060E3E0E060000000000001B
:10017000005F00000007000700147F147F14242A8A
:100180007F2A12231308646236495620500008075C
:100190000300001C2241000041221C002A1C7F1C7D
:1001A0002A08083E0808008070300008080808087F
:1001B000000060600020100804023E5149453E00E6
:1001C000427F400072494949462141494D33181444
:1001D000127F1027454545393C4A49493141211193
:1001E00009073649494936464949291E0000140085
:1001F00000004034000000081422411414141414A8
:10020000004122140802015909063E415D594E7C05
:100210001211127C7F494949363E414141227F41BA
:1002200041413E7F494949417F090909013E414118
:1002300051737F0808087F00417F41002040413F03
:10024000017F081422417F404040407F021C027F12
:100250007F0408107F3E4141413E7F090909063E67
:100260004151215E7F091929462649494932030136
:100270007F01033F4040403F1F2040201F3F403848
:10028000403F631408146303047804036159494D23
:1002900043007F4141410204081020004141417F59
:1002A00004020102044040404040000307080020CF
:1002B000545478407F2844443838444444283844CF
:1002C00044287F385454541800087E090218A4A406
:1002D0009C787F0804047800447D40002040403D25
:1002E000007F1028440000417F40007C047804789F
:1002F0007C080404783844444438FC182424181832
:10030000242418FC7C08040408485454542404048D
:100310003F44243C4040207C1C2040201C3C40307A
:10032000403C44281028444C9090907C4464544CA9
:100330004400083641000000770000004136080004
:1003400002010204023C2623263C1EA1A161123AAE
:100350004040207A385454555921555579412154FB
:10036000547841215554784020545579400C1E5200
:1003700072123955555559395454545939555454A4
:10038000580000457C410002457D420001457C400B
:10039000F0292429F0F0282528F07C545545002028
:1003A00054547C547C0A097F4932494949323248C5
:1003B000484832324A4848303A4141217A3A42402C
:1003C0002078009DA0A07D39444444393D40404000
:1003D0003D3C24FF2424487E4943662B2FFC2F2BD1
:1003E000FF0929F620C0887E090320545479410072
:1003F00000447D413048484A32384040227A007AF1
:100400000A0A727D0D19317D2629292F28262929CE
:10041000292630484D4020380808080808080808F0
:10042000382F10C8ACBA2F102834FA00007B000017
:1004300008142A142222142A14089500220095AACE
:10044000005500AAAA55AA55AA000000FF001010E6
:1004500010FF00141414FF001010FF00FF1010F024
:1004600010F0141414FC001414F700FF0000FF0037
:10047000FF1414F404FC141417101F10101F101F85
:100480001414141F00101010F0000000001F1010B2
:1004900010101F10101010F010000000FF101010AE
:1004A000101010101010FF10000000FF140000FFCB
:1004B00000FF00001F10170000FC04F414141710B4
:1004C000171414F404F40000FF00F71414141414A7
:1004D0001414F700F7141414171410101F101F141D
:1004E0001414F4141010F010F000001F101F00007E
:1004F000001F14000000FC140000F010F01010FFAA
:1005000010FF141414FF141010101F00000000F04E
:1005100010FFFFFFFFFFF0F0F0F0F0FFFFFF000023
:10052000000000FFFF0F0F0F0F0F38444438447CCA
:100530002A2A3E147E02020606027E027E026355CD
:100540004941633844443C04407E201E2006027E1C
:10055000020299A5E7A5991C2A492A1C4C7201722E
:100560004C304A4D4D303048784830BC625A463D98
:100570003E494949007E0101017E2A2A2A2A2A444D
:10058000445F444440514A444040444A5140000082
:10059000FF0103E080FF000008086B6B083612368D
:1005A0002436060F090F060000181800000010106E
:1005B000003040FF0101001F01011E00191D17122C
:1005C000003C3C3C3C0000000000F0F89C8E87831F
:1005D000878E9CF8F00000FEFF0303030303070E61
:1005E000FCF80000FEFF0303030303070EFCF80002
:1005F00000FFFF00000000000000FFFF0000FEFF02
:100600008383838383C7EE7C380000F8FC0E0703E6
:100610000303070EFCF800003F7FE0C08080C0E0CD
:100620007F3FFFFF01010101010101FFFF0000FF0A
:10063000FF0C0C0C0C1C3E77E3C100007FFFC0C018
:10064000C0C0C0E0703F1F00001F3F70E0C0C0C0CE
:10065000E0703F1F00007FFFC1C1C1C1C1E3773E11
:100660001C00001F3F70E0C0C0C0E0703F1F0000D2
:1006700000000001FFFF01000000D5F08D14A1C8AB
:1006800081CFD9F1AF2000080B000202020000095F
:1006900004000001020200000524001001052401ED
:1006A0000101042402060524060001070581031048
:1006B000004009040100020A000000070502024090
:1006C0000000070583024000000403090412010032
:1006D00002EF020140412336800001010203014183
:1006E000726475696E6F204C4C4300417264756290
:1006F0006F7900004F0C11241FBECFEFDAE0DEBF90
:10070000CDBF11E0A0E0B1E0E8EEF8E202C0059054
:100710000D92A23AB107D9F726E0A2EAB1E001C0F2
:100720001D92AF31B207E1F713E0CBE7D3E004C08D
:100730002197FE010E946C14CA37D107C9F70E94A5
:100740006C0C0C9472140C94000080E0EBECF1E063
:1007500081118FEF0024819381938193819303947E
:10076000D1F70895EBECF1E0A0E0B8E000800EBC1A
:100770008111012C1197A0FDFDCF0192B9F70DB4A5
:100780000895FC018091CA01882311F13FB7F894C4
:1007900082E08093E9002091F200822F90E0181609
:1007A000190614F481E090E0882339F0289844E693
:1007B0004093C9014091F1004083222339F02091F8
:1007C000F200211103C02BE62093E8003FBF0895FB
:1007D0008FEF9FEF08952FB7F89483E08093E9009F
:1007E0009091E800892F807295FF04C09091F200EB
:1007F00080E4891B2FBF08958091C10181110DC034
:1008000082E08093BD0184E08093BE011092C0011C
:100810001092BF0181E08093C1018DEB91E00895BA
:10082000CF93DF931F92CDB7DEB76983DC01ED91E3
:10083000FC910280F381E02D41E050E0BE016F5F4A
:100840007F4F09950F90DF91CF91089583E08093BA
:10085000E9008091F200882319F08AE38093E80090
:1008600008950E94EB0390E00895CF93DF931F92C9
:10087000CDB7DEB7FC018485958597FD08C02FEFC5
:100880003FEF358724870F90DF91CF910895CE01F8
:1008900001960E94C103019719F4898190E0F3CF7A
:1008A0008FEF9FEFF0CF0F931F93CF93DF931F92A4
:1008B000CDB7DEB78C01FC018485958597FF0BC011
:1008C000CE0101960E94C103019771F4898190E0E5
:1008D000F80195878487F801848595850F90DF91CD
:1008E000CF911F910F9108958FEF9FEFF1CFFC01F2
:1008F0008485958597FD0BC09FB7F89482E080931F
:10090000E9008091F2009FBF90E0019608959FB7A3
:10091000F89482E08093E9008091F2009FBF90E01C
:1009200008954091B7015091B8012091B5013091DF
:10093000B60142175307B4F49091E8009570E1F3C3
:100940009091E80092FD19C08093F1008091B70169
:100950009091B80101968F739927892B19F48EEF26
:100960008093E8008091B7019091B801019690932F
:10097000B8018093B70181E0089580E00895DF9287
:10098000EF92FF920F931F93CF93DF93D82E8A019C
:10099000EB017B01E40EF51ECE15DF0559F0D7FE05
:1009A00012C0FE0184910E94910421968111F4CF1E
:1009B0000FEF1FEFC801DF91CF911F910F91FF90B3
:1009C000EF90DF9008958881EECF0F931F93CF9320
:1009D000DF931F92CDB7DEB782E0898342E450E017
:1009E00067E876E080E80E94BF040E94FC03DC0117
:1009F00012960D911C910115110589F0D801ED9108
:100A0000FC910280F381E02DBE016F5F7F4FC80132
:100A1000099597FD04C0F80100851185ECCF898107
:100A20000F90DF91CF911F910F910895615030F099
:100A30002091F100FC0120830196F8CF289884E6EC
:100A40008093C90108953FB7F8948091B1019091C6
:100A5000B201A091B301B091B40126B5A89B05C025
:100A60002F3F19F00196A11DB11D3FBFBA2FA92F2D
:100A7000982F8827BC01CD01620F711D811D911D2A
:100A800042E0660F771F881F991F4A95D1F7089596
:100A90008F929F92AF92BF92CF92DF92EF92FF928E
:100AA0006B017C010E9423054B015C01C114D10440
:100AB000E104F104B9F00E942305681979098A0953
:100AC0009B09683E73408105910580F321E0C21ABD
:100AD000D108E108F10888EE880E83E0981EA11C79
:100AE000B11CE4CFFF90EF90DF90CF90BF90AF901C
:100AF0009F908F9008958F929F92AF92BF92CF92C6
:100B0000DF92EF92FF920F931F93CF93DF936C01CD
:100B10007B018A0180910D01882309F45CC08091DA
:100B2000CA01882309F457C08091BC0180FF05C029
:100B30008091E00082608093E000E801B12C8AEFB0
:100B4000A82E93E0892E2AE3922E209711F4BB2041
:100B5000D9F10E94EB0381110AC0AA94AA20D9F10D
:100B600061E070E080E090E00E944805EECF8C17D5
:100B70001D0611F00CF08C2F9FB7F8948092E900BD
:100B80002091E80025FD02C09FBFDFCF282F30E075
:100B9000C21BD30BF701815020F041914093F1002B
:100BA000FACFE20EF31EBB2021F09092E800B12CA8
:100BB000EBCF8091E80085FDE7CF9092E800BB2461
:100BC000B394209709F3F3CF5D9884E68093BB013B
:100BD000101611063CF081E090E0F60193838283C9
:100BE00010E000E0C801DF91CF911F910F91FF90BD
:100BF000EF90DF90CF90BF90AF909F908F9008952F
:100C0000AF92BF92CF92DF92EF92FF920F931F931A
:100C1000CF93DF936C017B018B01040F151FEB0158
:100C20005E01AE18BF08C017D10759F06991D6010F
:100C3000ED91FC910190F081E02DC6010995892B81
:100C400079F7C501DF91CF911F910F91FF90EF9040
:100C5000DF90CF90BF90AF9008952D9A0895BC017A
:100C600090E080E00C9448058FB18095807F669B72
:100C700088601C9B846008959091A201982329F4B8
:100C80009091A301982381E009F480E0089580E029
:100C90000C94B20380389105B8F460347105A0F467
:100CA00020E191E061FD94E060FD990F62FD929575
:100CB000687F269FD0011124A80FA553BE4F8C91A9
:100CC00040FF03C0892B8C93089590958923FBCF17
:100CD0008F929F92AF92BF92CF92DF92EF92FF924C
:100CE0000F931F93CF93DF936D3089F0C090A801CD
:100CF000D090A9016A30D1F41092A7011092A601F8
:100D000088E0C80ED11CD092A901C092A80181E050
:100D100090E0DF91CF911F910F91FF90EF90DF90C6
:100D2000CF90BF90AF909F908F9008950091A601B3
:100D30001091A701E5E06E9FE0011124C653DF4F3B
:100D40004801F12CF5E0E12CFF1629F0CE010196C7
:100D5000FE01E490EC01B12CA12C4E2D4170B601A6
:100D60006A0D7B1DC4010E944A06E694FFEFAF1A8C
:100D7000BF0A88E0A816B10481F7F394EFEF8E1A4A
:100D80009E0AF6E0FF12DECF0A5F1F4F1093A70105
:100D90000093A601BCCFFC01CB01209172013091E0
:100DA0007301B9010E944414AC01440F551FE40FB4
:100DB000F51F215031098217930734F44281538182
:100DC000419351930196F7CF3093730120937201B1
:100DD0000895089590E080E008958F929F92AF92D9
:100DE000BF920F931F93CF93DF93CDB7DEB7A19739
:100DF0000FB6F894DEBF0FBECDBF19A2423008F483
:100E00004AE08E010F5D1F4F842E912CB12CA12C36
:100E1000A50194010E946E11E62FB901CA01EA30C2
:100E200044F5E05DD801EE938D01232B242B252B77
:100E300079F790E080E0109769F0FD0101900020C3
:100E4000E9F73197AF014A1B5B0BBD018BE196E0DF
:100E50000E940006A1960FB6F894DEBF0FBECDBF6C
:100E6000DF91CF911F910F91BF90AF909F908F9086
:100E70000895E95CD7CFCF92DF92EF92FF92CF93A4
:100E8000DF936B017C016DE28BE196E00E946806C6
:100E9000EC0166277727CB016C197D098E099F0924
:100EA0004AE00E94ED068C0F9D1FDF91CF91FF90CD
:100EB000EF90DF90CF9008952F923F924F925F92E4
:100EC0006F927F928F929F92AF92BF92CF92DF925A
:100ED000EF92FF920F931F93CF93DF9300D000D038
:100EE00000D0CDB7DEB78C017E836D835C834B83EE
:100EF0006B5F7F4F41E00E944A066D817E816550A5
:100F0000710941E0C8010E944A0641E06D817E817D
:100F1000C80105960E944A0641E06D817E81C801A4
:100F200005970E944A06D12CC12C21E030E03A837B
:100F3000298385E0E82EF12C96EF292E33243A946C
:100F40002CEFA22EBB24BA949FEFC91AD90A29818B
:100F50003A812E5F3F4F3A832983A20EB31E36019A
:100F6000600E711E41E08D809E808E0C9F1CB4012E
:100F7000C3010E944A0628014C185D0841E0B401F3
:100F8000C2010E944A0641E08D809E808E189F0813
:100F9000B401C3010E944A0641E0B401C2010E94AB
:100FA0004A068D809E808C0C9D1C41E0B401380166
:100FB0006E0C7F1CC3010E944A0641E0B401280167
:100FC0004E185F08C2010E944A068D809E808C18D0
:100FD0009D0841E0B401C3010E944A0641E0B4010A
:100FE000C2010E944A06CE14DF047CF102501109AE
:100FF0001093A7010093A6018D819E810397909382
:10100000A9018093A8012B813C81B901330F880B82
:10101000990B97FF25C026960FB6F894DEBF0FBE3A
:10102000CDBFDF91CF911F910F91FF90EF90DF9097
:10103000CF90BF90AF909F908F907F906F905F9078
:101040004F903F902F900C943B07B7FC7DCF31E041
:10105000E31AF10882E0280E311CA20CB31C74CFF5
:101060004AE026960FB6F894DEBF0FBECDBFDF91E3
:10107000CF911F910F91FF90EF90DF90CF90BF9095
:10108000AF909F908F907F906F905F904F903F9028
:101090002F900C94ED065F926F927F928F929F92A9
:1010A000AF92BF92CF92DF92EF92FF920F931F9376
:1010B000CF93DF9310E000E06AE0562E79E0672ED0
:1010C000712C6091720170917301569EC001579E00
:1010D000900D1124081719070CF0B1C0C8010E9427
:1010E0004414EC01FC01EE0FFF1FE25FFE4F808114
:1010F0009181019609F0A0C06E0141E0C41AD108A7
:10110000A0907201B0907301C601B5010E94441411
:10111000FC01EE0FFF1FE25FFE4F20813181CE0107
:101120000196B5010E9444144C01880F991FDC01FF
:10113000A25FBE4F7D018D919C912817390709F060
:101140007BC0CE01B5010E944414DC01AA0FBB1F75
:10115000A25FBE4F8D919C9111978F3F980709F028
:101160005DC02F5F3F4F2D933C9311821082D701BA
:101170006D927C92B4018EE091E00E94CB0660916A
:10118000720170917301C6010E944414BC018EE08B
:1011900091E00E94CB06C0907201D0907301B3E041
:1011A000CB16D1040CF448C04AE0B6010D2C000C5B
:1011B000880B990B0E94ED0642E050E06DE971E06A
:1011C0008BE196E00E9400068EE0A82E81E0B82E0A
:1011D000F12CE12CF501619171915F01072E000C5A
:1011E000880B990B97FF24C00E943B07FFEFEF1A73
:1011F000FF0ACE14DF0471F741E050E060EA71E0CD
:101200008BE196E00E940006CE0102976091720188
:10121000709173010E944414EC016ECF8217930702
:101220001CF42E5F3F4F9FCF01968D939C939DCFD3
:101230004AE00E94ED06DACF0F5F1F4F42CFDF91E9
:10124000CF911F910F91FF90EF90DF90CF90BF90C3
:10125000AF909F908F907F906F905F9008950C94C7
:1012600026111F920F920FB60F9211248F939F9306
:101270008091E1009091E100937F9093E10083FFE2
:101280000FC01092E90091E09093EB001092EC00F7
:1012900092E39093ED001092CA0198E09093F000D1
:1012A00082FF22C093E09093E9009091F20099238D
:1012B00019F09AE39093E8009091BB01992341F0D3
:1012C0009091BB0191509093BB01911101C05D9A27
:1012D0009091C901992341F09091C9019150909347
:1012E000C901911101C0289A84FF18C08091E200C1
:1012F0008E7E81608093E2008091E1008F7E8093FA
:10130000E1008091BC018E7E80618093BC019F9141
:101310008F910F900FBE0F901F90189580FFF7CF01
:101320008091E2008E7E80618093E2008091E100F6
:101330008E7E8093E1008091BC018E7E8160E5CF3E
:101340001F920F920FB60F921124CF92DF92EF925D
:10135000FF920F931F932F933F934F935F936F933E
:101360007F938F939F93AF93BF93EF93FF93CF930D
:10137000DF93CDB7DEB76C97DEBFCDBF1092E9002B
:101380008091E80083FF25C068E0CE0145960E9469
:10139000160582EF8093E8008D8987FF39C0909110
:1013A000E80090FFFCCF982F907609F034C19E8919
:1013B0004F89588D2F89F88C911131C0803861F593
:1013C0008091BA018093F1001092F1008EEF80932A
:1013D000E8006C960FB6F894DEBF0FBECDBFDF916C
:1013E000CF91FF91EF91BF91AF919F918F917F919D
:1013F0006F915F914F913F912F911F910F91FF90AE
:10140000EF90DF90CF900F900FBE0F901F90189528
:101410009EEF9093E800C7CF1092F100D5CF9130A6
:1014200059F48111D3CF4130510581F68091BA0131
:101430008D7F8093BA01CACF933049F48111C6CF12
:101440004130510519F68091BA018260F2CF953092
:1014500041F48091E80080FFFCCF20682093E300F6
:10146000B5CF963009F0A9C00B8D1C8D22E01092EB
:10147000E9001092B8011092B701F2122EC010923A
:10148000B6011092B5010E94E5041F8299E099838C
:10149000FA8291E09E8390EA98879AEF998720914B
:1014A000B7013091B801275F3F4F3C832B838D8379
:1014B0001092E9001092B8011092B7011093B60192
:1014C0000093B50149E050E0BE016F5F7F4F80E0BF
:1014D0000E94BF040E94E50479CF1093B6010093E7
:1014E000B5010E94FC03DC0112960D911C910115BF
:1014F000110509F451C1D801ED91FC910480F581E9
:10150000E02DBE016B5E7F4FC8010995009709F081
:101510003EC1F80100851185EACFF3E0FF120EC04D
:101520008F89882309F440C0823061F440E867E085
:101530008BEE96E00E941C0C811148CF81E28093D3
:10154000EB0047CF813029F440E86BE08FED96E067
:10155000F1CF833099F70E94FC03DC011296ED90E5
:10156000FC908E010F5F1F4F6801E114F10479F0C8
:10157000D701ED91FC910680F781E02DB801C701FC
:101580000995080F111DF701E084F184EECFD80111
:101590001C92F60101900020E9F73197BF016C1908
:1015A0007D0940E0C601C6CF69EC76E0FB014491BD
:1015B00050E080E80E94BF0409CF973009F4BECF05
:1015C000983021F481E08093F10000CF993009F048
:1015D000FDCE837009F0B2CFE9E7F1E081E031E0C0
:1015E00096E32191222371F08093E9003093EB0080
:1015F000DF0111972C912093EC009093ED008F5F09
:10160000873079F78EE78093EA001092EA008F899D
:101610008093CA01DBCE8B8D9C8D1092E9001092D5
:10162000B8011092B7019093B6018093B501898DEE
:10163000811192C08E899D89913A49F4813209F0D5
:101640007DCF47E050E066E071E080E0B3CF9132BB
:1016500009F074CF833269F48F89988DB0E0A0E0EF
:101660008093020190930301A0930401B0930501BC
:10167000ADCE803269F48091E80082FFFCCF67E054
:1016800086E091E00E9416058BEF8093E8009ECEE5
:10169000823209F09BCE8F8980930D01EEEFFFE738
:1016A000859194918B3F9C4D51F1E0E0F8E0809161
:1016B000060190910701A0910801B0910901803BBA
:1016C0009440A105B105F1F480910D0180FD1AC08F
:1016D000EE3F8AE0F80789F587E797E791838083F3
:1016E000809160008093B90188E19BE00FB6F89487
:1016F000A895809360000FBE9093600067CEEEEFD8
:10170000FAE0D5CF808191818737974709F05ECE87
:10171000A895809160008861809360008091B901F4
:1017200080936000EE3F2AE0F20789F08091FE0A84
:101730009091FF0A9183808349CE80819181873780
:10174000980751F29093FF0A8093FE0AC5CF10923A
:10175000FF0A1092FE0A3ACE0E94FC03DC011296A8
:101760000D911C910115110509F4E8CED801ED91F8
:10177000FC910190F081E02DBE016B5E7F4FC801AE
:101780000995811123CEF80100851185EBCF18163C
:1017900019060CF41BCED2CEF1E0FF12BECE6DECDA
:1017A00076E004CF1F920F920FB60F9211242F9361
:1017B0003F938F939F93AF93BF938091AD0190918F
:1017C000AE01A091AF01B091B0013091AC0123E026
:1017D000230F2D3758F50196A11DB11D2093AC01A3
:1017E0008093AD019093AE01A093AF01B093B0018F
:1017F0008091B1019091B201A091B301B091B40177
:101800000196A11DB11D8093B1019093B201A093E7
:10181000B301B093B401BF91AF919F918F913F916C
:101820002F910F900FBE0F901F90189526E8230F51
:101830000296A11DB11DD2CFEF92FF920F931F937D
:10184000CF93DF93F82E192FE62E042F81E0860F19
:10185000880F0E94910483E00E949104CF2DD12F24
:10186000EC0EFD2EF11CCE15DF05B9F007FF13C0FD
:10187000FE0184910E949104182F80E00E9491043F
:10188000812321968111EFCFDF91CF911F910F918D
:10189000FF90EF9008958881EDCF81E0F5CFEBECDC
:1018A000F5E01382128288EE93E0A0E0B0E084833A
:1018B0009583A683B78383E891E0918380838FEF3C
:1018C0009FEF95878487EBE1F6E01382128285E92A
:1018D00091E0918380830895789484B5826084BD7B
:1018E00084B5816084BD85B5826085BD85B5816024
:1018F00085BD80916E00816080936E0010928100A2
:10190000809181008260809381008091810081605C
:10191000809381008091800081608093800080911D
:10192000910082608093910080919100816080930A
:101930009100809190008160809390008091C1001F
:1019400084608093C1008091C10082608093C10057
:101950008091C10081608093C1008091C30081604B
:101960008093C3008091C00082608093C00080910A
:10197000C20081608093C20080917A00846080936D
:101980007A0080917A00826080937A0080917A0058
:10199000816080937A0080917A00806880937A00D9
:1019A0001092CA011092BA011092BC018091D70026
:1019B00081608093D70080EA8093D80089B58061E8
:1019C00089BD89B5826089BD09B400FEFDCF61E0A3
:1019D00070E080E090E00E9448058091D8008F7C04
:1019E00080618093D8008091E000807F8093E00048
:1019F0008091E1008E7E8093E1008DE08093E20093
:101A0000559A209A81EC80937C0085B1806F85B9CE
:101A100084B1877E84B984B1876E84B95E9A5F98F9
:101A20008AB1806D8AB9769A6E9881B3806F81BBD6
:101A3000899880B38D7080BB80E58CBD81E08DBDC1
:101A400085E090E00E942F065F9A85E090E00E947A
:101A50002F065E985C98EAE7F6E084918EBD000060
:101A60000DB407FEFDCF319626E0E738F207A9F75F
:101A70005C9A81E880936400809165008160809326
:101A800065000E9447060E94340687FF15C05C98D7
:101A900085EA8EBD00000DB407FEFDCF5C9A2E983E
:101AA0002F982D988091640080628093640081E07B
:101AB00083BF889513BEFCCF0E94340682FF48C0C6
:101AC0002D980E94340684788438E1F40E942D0613
:101AD00088EC90E00E942F062F9882E090E00E9410
:101AE00026118F3F29F06FEF82E090E00E942E11C7
:101AF00084EF91E00E942F062F9A0E94340684788A
:101B00008438D9F30E94340684718431E1F40E9450
:101B10002D0688EC90E00E942F062E9882E090E03F
:101B20000E942611882329F060E082E090E00E9464
:101B30002E1184EF91E00E942F062E9A0E94340607
:101B400084718431D9F388EC90E00E942F06B4CFE1
:101B50000E942D0682E090E00E942F09882309F45C
:101B600063C03E9A3F9A81E090E00E942F09482F7F
:101B70004470742E81FF11C041112E98C1EFDFEF28
:101B800008E010E0ACE6EA2EF12C0E94340686FF55
:101B90004EC02E9A2F9A0E942D0682E390E00E945A
:101BA0002F060E9434068111F8CF0E94A5031092DF
:101BB000A9011092A8011092A7011092A6010E94FB
:101BC0004B088091A3018093A2010E943406809368
:101BD000A30188E00E943C06882309F42AC12091D1
:101BE0007201309173014091000150910101809187
:101BF000AA019091AB010196B9016F5F7F4F70937D
:101C0000730160937201F901EE0FFF1FE25FFE4F57
:101C10003297821793070CF0C8C0215031096081B8
:101C2000718173836283F4CF3E983F989CCF772075
:101C300029F0C430D10511F42E9A2F9881E00E942A
:101C4000B2039E01D7FF04C0222733272C1B3D0B74
:101C500027703327CE01D7FD0796F3E0959587953A
:101C6000FA95E1F7D7FF05C00197F801E21BF30BE6
:101C70009F01BC017695762F66277795679565530A
:101C80007E4FB0E0A0E02801421A530A8E3FFFEFDA
:101C90009F0709F43CC048E550E0FD01EE5DF94FB7
:101CA0005F014B01F0E88F0E911C8F3F9807A1F068
:101CB000F501E41BF50BE4916701C41AD50AC60EC1
:101CC000D71EF0E01F01022E01C0220C0A94EAF791
:101CD000F60160802628208221153105A9F0F50142
:101CE000E41BF50BE4916701C41AD50AC80CD91C92
:101CF000F0E01F01042C02C0359427940A94E2F707
:101D0000F6016080262820824150510971F6019623
:101D1000A85ABF4F60587F4FA03BB10509F0B6CF1E
:101D20000E9447068FE090E00E942F062196C9315D
:101D3000D10509F02ACF772011F02F9A2D9880E94C
:101D400091E00E942F060E942D0681E090E00E9403
:101D50002F0980FF22CF8AE090E00E942F099FEF99
:101D6000980F9E3F08F019CF22E330E03093A7018F
:101D70002093A60128E330E03093A9012093A80125
:101D8000CBE0D0E0682F8BE196E00E946806CE01A0
:101D90000E942F092196C131D105A1F70E94470663
:101DA00088EE93E00E942F06F8CE880F991FFC0161
:101DB000E25FFE4F518340830E944B080E94CE1089
:101DC00023E030E040E050E00E943C116F5F7F4F25
:101DD0008F4F9F4F70930101609300010E94CE10BE
:101DE00024E030E040E050E00E943C11672B682B7B
:101DF000692B31F44FEF5FEF5093010140930001E5
:101E00008091A4019091A501059754F08FEF9FEF69
:101E100090930101809300011092A5011092A401FA
:101E20008091A4019091A50101969093A5018093C2
:101E3000A40180E20E943C06C0917201D09173011E
:101E4000882369F08091AA019091AB0118161906B8
:101E50000CF07FC001979093AB018093AA0180E4BE
:101E60000E943C06882371F08091AA019091AB01F9
:101E700021978C179D070CF06EC001969093AB01D3
:101E80008093AA010E94A5031092A9011092A801B3
:101E90001092A7011092A6010EE011E0D0E0C0E080
:101EA0006091720170917301C617D7070CF058C08A
:101EB000F801A190B1908F01072E000C880B990BAF
:101EC0000E94BB129B01AC016BED7FE089EC90E4BA
:101ED0000E9411126B017C01BE010D2E000C880BBB
:101EE000990B0E94BB129B01AC01C701B6010E9475
:101EF00086136B017C010E940C122B013C01C7016F
:101F0000B6010E94F31320E030E040EC51E40E945F
:101F1000861320E030E040E052E40E94A0110E94CD
:101F200083126B0120E030E040EC51E4C301B201C8
:101F30000E94861320E030E040E852E40E94A011A5
:101F40000E948312CB01A501B6010E945C07219675
:101F5000A7CFCE017FCF1092AB011092AA0192CFF2
:101F6000409100015091010160E270E080E490E056
:101F70000E945C0760917201709173016115710597
:101F800009F4B6C0072E000C880B990B0E94BB12F7
:101F90009B01AC016BED7FE089EC90E40E94111293
:101FA0006B017C016091AA017091AB01072E000CBE
:101FB000880B990B0E94BB12A70196010E94861301
:101FC0004B015C0120E030E040E05FE3C701B60177
:101FD0000E9486139B01AC01C501B4010E94A011AF
:101FE0006B017C010E94F31320E030E040EC51E4EF
:101FF0000E94861320E030E040E052E40E94A011ED
:102000000E9483122B01EB01C701B6010E940C1242
:1020100020E030E040EC51E40E94861320E030E004
:1020200040E852E40E94A0110E9483128B016201D9
:10203000F0E2CF1AD108D7FE03C0D194C194D108E1
:102040004B0120E4821A910897FE03C09194819479
:10205000910880E490E030E2E32EF12C8C149D0492
:102060003CF0EB01820180E290E040E4E42EF12CB0
:10207000CE15DF0554F0302F212F8C01832F922FA6
:102080003C2F2D2FE701E32EF22E17012C1A3D0ACB
:102090003C01601A710A77FE03C071946194710863
:1020A000210137FE03C04FEF441A540A5594479458
:1020B00008171907DCF481E0A82E880FBB08EC167E
:1020C000FD06B4F041E0BE01C8018C149D0414F07B
:1020D000B801CE010E944A064618570857FE04C0B0
:1020E0000A0D1B1D420C531C2196E9CF8FEFE4CF44
:1020F0000E94470680E090E0892B09F462CD0E949F
:1021000000005FCD8F929F92AF92BF92CF92DF92ED
:10211000EF92FF92CF93DF93EC01688179818A81FE
:102120009B81611571058105910521F464E279EDCA
:102130008BE597E02DE133EF41E050E00E943C1148
:1021400049015A019B01AC01A7EAB1E40E945B116D
:102150006B017C01ACEEB4EFA50194010E94691102
:10216000C60ED71EE81EF91EF7FE06C081E0C81A8B
:10217000D108E10880E8F80AC882D982EA82FB82A5
:10218000C701B6019F77DF91CF91FF90EF90DF906D
:10219000CF90BF90AF909F908F9008958F929F9215
:1021A000AF92BF92CF92DF92EF92FF926091740153
:1021B000709175018091760190917701611571059B
:1021C0008105910521F464E279ED8BE597E02DE13D
:1021D00033EF41E050E00E943C1149015A019B015C
:1021E000AC01A7EAB1E40E945B116B017C01ACEE8B
:1021F000B4EFA50194010E946911C60ED71EE81E16
:10220000F91EF7FE06C081E0C81AD108E10880E88F
:10221000F80AC0927401D0927501E0927601F092B2
:102220007701C701B6019F77FF90EF90DF90CF90C5
:10223000BF90AF909F908F900895609374017093BA
:10224000750180937601909377010895F999FECFF7
:1022500092BD81BDF89A992780B50895262FF999E6
:10226000FECF1FBA92BD81BD20BD0FB6F894FA9A79
:10227000F99A0FBE01960895052E97FB1EF400945F
:102280000E94531157FD07D00E946E1107FC03D026
:102290004EF40C94531150954095309521953F4F35
:1022A0004F4F5F4F089590958095709561957F4F42
:1022B0008F4F9F4F08950E949011A59F900DB49F3E
:1022C000900DA49F800D911D11240895B7FF0C94CB
:1022D0005B110E945B11821B930B0895A1E21A2EE1
:1022E000AA1BBB1BFD010DC0AA1FBB1FEE1FFF1FBA
:1022F000A217B307E407F50720F0A21BB30BE40B0A
:10230000F50B661F771F881F991F1A9469F7609550
:102310007095809590959B01AC01BD01CF0108950A
:10232000A29FB001B39FC001A39F700D811D112416
:10233000911DB29F700D811D1124911D089550585B
:10234000BB27AA270E94B7110C9438130E94FF12D2
:1023500038F00E94061320F039F49F3F19F426F458
:102360000C94FC120EF4E095E7FB0C94F612E92FA6
:102370000E945D1358F3BA17620773078407950725
:1023800020F079F4A6F50C947F130EF4E0950B2E53
:10239000BA2FA02D0B01B90190010C01CA01A001B7
:1023A0001124FF27591B99F0593F50F4503E68F112
:1023B0001A16F040A22F232F342F4427585FF3CF53
:1023C000469537952795A795F0405395C9F77EF424
:1023D0001F16BA0B620B730B840BBAF09150A1F06D
:1023E000FF0FBB1F661F771F881FC2F70EC0BA0FF3
:1023F000621F731F841F48F4879577956795B7957B
:10240000F7959E3F08F0B0CF9395880F08F0992775
:10241000EE0F9795879508950E940F13E3950C94FE
:1024200049130E9425120C9438130E94061358F089
:102430000E94FF1240F029F45F3F29F00C94F6123D
:1024400051110C9480130C94FC120E945D1368F3DC
:102450009923B1F3552391F3951B550BBB27AA275D
:1024600062177307840738F09F5F5F4F220F331F97
:10247000441FAA1FA9F335D00E2E3AF0E0E832D05F
:1024800091505040E695001CCAF72BD0FE2F29D062
:10249000660F771F881FBB1F261737074807AB0734
:1024A000B0E809F0BB0B802DBF01FF2793585F4FA9
:1024B0003AF09E3F510578F00C94F6120C9480137C
:1024C0005F3FE4F3983ED4F3869577956795B7958B
:1024D000F7959F5FC9F7880F911D9695879597F996
:1024E0000895E1E0660F771F881FBB1F621773070F
:1024F0008407BA0720F0621B730B840BBA0BEE1F24
:1025000088F7E09508950E948A126894B1110C949E
:10251000801308950E94651388F09F5798F0B92F93
:102520009927B751B0F0E1F0660F771F881F991F08
:102530001AF0BA95C9F714C0B13091F00E947F1318
:10254000B1E008950C947F13672F782F8827B85F28
:1025500039F0B93FCCF3869577956795B395D9F760
:102560003EF490958095709561957F4F8F4F9F4F6A
:102570000895E89409C097FB3EF490958095709576
:1025800061957F4F8F4F9F4F9923A9F0F92F96E9BF
:10259000BB279395F695879577956795B795F11134
:1025A000F8CFFAF4BB0F11F460FF1BC06F5F7F4FD1
:1025B0008F4F9F4F16C0882311F096E911C07723E3
:1025C00021F09EE8872F762F05C0662371F096E8EC
:1025D000862F70E060E02AF09A95660F771F881FBB
:1025E000DAF7880F9695879597F9089597F99F6779
:1025F00080E870E060E008959FEF80EC089500248B
:102600000A941616170618060906089500240A9457
:10261000121613061406050608950C94FC120E9467
:102620006513D8F3E894E0E0BB279F57F0F02AED5C
:102630003FE049EC06C0EE0FBB0F661F771F881FF7
:1026400028F0B23A62077307840728F0B25A620B87
:10265000730B840BE3959A9572F7803830F49A9552
:10266000BB0F661F771F881FD2F790480C94FD138D
:10267000092E0394000C11F4882352F0BB0F40F490
:10268000BF2B11F460FF04C06F5F7F4F8F4F9F4FD0
:102690000895EF93E0FF07C0A2EA2AED3FE049EC7E
:1026A0005FEB0E94B7110E9438130F90039401FC56
:1026B0009058ECEAF0E00C94091457FD9058440F40
:1026C000551F59F05F3F71F04795880F97FB991F91
:1026D00061F09F3F79F0879508951216130614064E
:1026E000551FF2CF4695F1DF08C0161617061806DB
:1026F000991FF1CF86957105610508940895E894B6
:10270000BB2766277727CB0197F908950E94991375
:102710000C9438130E94FF1238F00E94061320F028
:10272000952311F00C94F6120C94FC1211240C94C5
:1027300080130E945D1370F3959FC1F3950F50E0D5
:10274000551F629FF001729FBB27F00DB11D639F63
:10275000AA27F00DB11DAA1F649F6627B00DA11D09
:10276000661F829F2227B00DA11D621F739FB00DAF
:10277000A11D621F839FA00D611D221F749F33271F
:10278000A00D611D231F849F600D211D822F762FB8
:102790006A2F11249F5750409AF0F1F088234AF095
:1027A000EE0FFF1FBB1F661F771F881F9150504001
:1027B000A9F79E3F510580F00C94F6120C948013FB
:1027C0005F3FE4F3983ED4F3869577956795B79588
:1027D000F795E7959F5FC1F7FE2B880F911D9695A2
:1027E000879597F908959F930E940F130F9007FC08
:1027F000EE5F0C9449139F3F31F0915020F4879580
:1028000077956795B795880F911D9695879597F958
:1028100008959F938F937F936F93FF93EF939B0103
:10282000AC010E948613EF91FF910E941D142F911D
:102830003F914F915F910C948613DF93CF931F9339
:102840000F93FF92EF92DF927B018C01689406C098
:10285000DA2EEF010E949913FE01E894A5912591CB
:10286000359145915591A6F3EF010E94B711FE01F4
:102870009701A801DA9469F7DF90EF90FF900F912C
:102880001F91CF91DF91089597FB072E16F40094C6
:1028900007D077FD09D00E94581407FC05D03EF4FC
:1028A000909581959F4F0895709561957F4F0895FC
:1028B000AA1BBB1B51E107C0AA1FBB1FA617B70766
:1028C00010F0A61BB70B881F991F5A95A9F7809582
:1028D0009095BC01CD010895EE0FFF1F0590F49176
:0828E000E02D0994F894FFCFEC
:1028E8000100FFFFFFFF00E1000000000000010001
:1028F80000000000000000000000000000000000D0
:1029080000000000000000000000000000000000BF
:1029180000000000000000000000000000000000AF
:10292800000000000000000000000000000000009F
:10293800000000000000000000000000000000008F
:10294800000000000000000000000000000000007F
:10295800000001000100000000C1808100000000AB
:1029680000000010047B0531042604770435045365
:10297800040000000068060006EA06E9063A20009E
:022988000A0043
:00000001FF
