:100000000C946C030C9494030C9494030C9494033C
:100010000C9494030C9494030C9494030C94940304
:100020000C9494030C9494030C94AC060C941B074E
:100030000C9494030C9494030C9494030C949403E4
:100040000C9494030C9494030C9494030C949403D4
:100050000C9494030C9494030C9494030C944D0905
:100060000C9494030C9494030C9494030C949403B4
:100070000C9494030C9494030C9494030C949403A4
:100080000C9494030C9494030C9494030C94940394
:100090000C9494030C9494030C9494030C94940384
:1000A0000C9494030C9494030C94940300000000AB
:1000B000003E5B4F5B3E3E6B4F6B3E1C3E7C3E1CEE
:1000C000183C7E3C181C577D571C1C5E7F5E1C0034
:1000D000183C1800FFE7C3E7FF0018241800FFE7EB
:1000E000DBE7FF30483A060E2629792926407F05AE
:1000F0000507407F05253F5A3CE73C5A7F3E1C1CC4
:1001000008081C1C3E7F14227F22145F5F005F5F83
:1001100006097F017F006689956A6060606060946F
:10012000A2FFA29408047E040810207E2010080874
:100130002A1C08081C2A08081E101010100C1E0C7F
:100140001E0C30383E3830060E3E0E060000000011
:100150000000005F00000007000700147F147F14F8
:10016000242A7F2A1223130864623649562050003D
:1001700008070300001C2241000041221C002A1C29
:100180007F1C2A08083E0808008070300008080814
:100190000808000060600020100804023E51494534
:1001A0003E00427F400072494949462141494D3352
:1001B0001814127F1027454545393C4A49493141B9
:1001C000211109073649494936464949291E000087
:1001D00014000000403400000008142241141414DC
:1001E0001414004122140802015909063E415D59C8
:1001F0004E7C1211127C7F494949363E41414122D1
:100200007F4141413E7F494949417F090909013EFA
:10021000414151737F0808087F00417F4100204021
:10022000413F017F081422417F404040407F021C33
:10023000027F7F0408107F3E4141413E7F0909094A
:10024000063E4151215E7F09192946264949493216
:1002500003017F01033F4040403F1F2040201F3FDC
:100260004038403F63140814630304780403615961
:10027000494D43007F4141410204081020004141A3
:10028000417F04020102044040404040000307084F
:100290000020545478407F2844443838444444284B
:1002A000384444287F385454541800087E090218F2
:1002B000A4A49C787F0804047800447D400020407A
:1002C000403D007F1028440000417F40007C0478BE
:1002D00004787C080404783844444438FC18242406
:1002E0001818242418FC7C08040408485454542486
:1002F00004043F44243C4040207C1C2040201C3C03
:100300004030403C44281028444C9090907C4464F9
:10031000544C44000836410000007700000041368C
:10032000080002010204023C2623263C1EA1A16112
:10033000123A4040207A3854545559215555794144
:100340002154547841215554784020545579400C1B
:100350001E527212395555555939545454593955FC
:100360005454580000457C410002457D420001453F
:100370007C40F0292429F0F0282528F07C545545AC
:10038000002054547C547C0A097F4932494949323F
:100390003248484832324A4848303A4141217A3A54
:1003A00042402078009DA0A07D39444444393D401E
:1003B00040403D3C24FF2424487E4943662B2FFCCB
:1003C0002F2BFF0929F620C0887E09032054547979
:1003D000410000447D413048484A32384040227A4A
:1003E000007A0A0A727D0D19317D2629292F2826C7
:1003F0002929292630484D402038080808080808CF
:100400000808382F10C8ACBA2F102834FA00007B27
:10041000000008142A142222142A1408950022002D
:1004200095AA005500AAAA55AA55AA000000FF00E7
:10043000101010FF00141414FF001010FF00FF1024
:1004400010F010F0141414FC001414F700FF000056
:10045000FF00FF1414F404FC141417101F10101FD5
:10046000101F1414141F00101010F0000000001FC3
:10047000101010101F10101010F010000000FF10CE
:100480001010101010101010FF10000000FF1400CA
:1004900000FF00FF00001F10170000FC04F41414FC
:1004A0001710171414F404F40000FF00F7141414C8
:1004B00014141414F700F7141414171410101F1048
:1004C0001F141414F4141010F010F000001F101F6B
:1004D0000000001F14000000FC140000F010F010D9
:1004E00010FF10FF141414FF141010101F00000050
:1004F00000F010FFFFFFFFFFF0F0F0F0F0FFFFFF54
:100500000000000000FFFF0F0F0F0F0F38444438AA
:10051000447C2A2A3E147E02020606027E027E02E5
:1005200063554941633844443C04407E201E200604
:10053000027E020299A5E7A5991C2A492A1C4C7241
:1005400001724C304A4D4D303048784830BC625AC8
:10055000463D3E494949007E0101017E2A2A2A2A58
:100560002A44445F444440514A444040444A514034
:100570000000FF0103E080FF000008086B6B0836F5
:1005800012362436060F090F060000181800000066
:100590001010003040FF0101001F01011E00191D55
:1005A0001712003C3C3C3C0000000000F0F89C8E20
:1005B0008783878E9CF8F00000FEFF03030303038C
:1005C000070EFCF80000FEFF0303030303070EFC05
:1005D000F80000FFFF00000000000000FFFF000027
:1005E000FEFF8383838383C7EE7C380000F8FC0E14
:1005F00007030303070EFCF800003F7FE0C0808084
:10060000C0E07F3FFFFF01010101010101FFFF0089
:1006100000FFFF0C0C0C0C1C3E77E3C100007FFFB9
:10062000C0C0C0C0C0E0703F1F00001F3F70E0C0EE
:10063000C0C0E0703F1F00007FFFC1C1C1C1C1E366
:10064000773E1C00001F3F70E0C0C0C0E0703F1F3D
:10065000000000000001FFFF01000000D5F08D1434
:10066000A1C881CFD9F1AF2000080B00020202001F
:100670000009040000010202000005240010010529
:100680002401010104240206052406000107058156
:100690000310004009040100020A000000070502DF
:1006A0000240000007058302400000040309041211
:1006B000010002EF020140412336800001010203E4
:1006C0000141726475696E6F204C4C430041726445
:1006D00075626F790000CA0911241FBECFEFDAE0FE
:1006E000DEBFCDBF11E0A0E0B1E0EAE0F9E102C079
:1006F00005900D92A233B107D9F725E0A2E3B1E04E
:1007000001C01D92AD3AB207E1F713E0CCE6D3E0A9
:1007100004C02197FE010E947D0CCB36D107C9F79A
:100720000E94E7090C94830C0C94000080E0E9E53A
:10073000F1E081118FEF0024819381938193819364
:100740000394D1F70895E9E5F1E0A0E0B8E0008076
:100750000EBC8111012C1197A0FDFDCF0192B9F7BC
:100760000DB40895FC0180915801882311F13FB721
:10077000F89482E08093E9002091F200822F90E0CB
:100780001816190614F481E090E0882339F02898AF
:1007900044E6409357014091F1004083222339F011
:1007A0002091F200211103C02BE62093E8003FBF07
:1007B00008958FEF9FEF08952FB7F89483E080930B
:1007C000E9009091E800892F807295FF04C0909114
:1007D000F20080E4891B2FBF089580914F018111A1
:1007E0000DC082E080934B0184E080934C01109215
:1007F0004E0110924D0181E080934F018BE491E016
:100800000895CF93DF931F92CDB7DEB76983DC01E4
:10081000ED91FC910280F381E02D41E050E0BE01BA
:100820006F5F7F4F09950F90DF91CF91089583E01F
:100830008093E9008091F200882319F08AE3809385
:10084000E80008950E94DC0390E00895CF93DF93C1
:100850001F92CDB7DEB7FC018485958597FD08C052
:100860002FEF3FEF358724870F90DF91CF910895C9
:10087000CE0101960E94B203019719F4898190E09C
:10088000F3CF8FEF9FEFF0CF0F931F93CF93DF93B3
:100890001F92CDB7DEB78C01FC018485958597FF4B
:1008A0000BC0CE0101960E94B203019771F48981B9
:1008B00090E0F80195878487F801848595850F90ED
:1008C000DF91CF911F910F9108958FEF9FEFF1CF9F
:1008D000FC018485958597FD0BC09FB7F89482E055
:1008E0008093E9008091F2009FBF90E00196089507
:1008F0009FB7F89482E08093E9008091F2009FBF57
:1009000090E00895409145015091460120914301A6
:100910003091440142175307B4F49091E800957068
:10092000E1F39091E80092FD19C08093F10080916D
:1009300045019091460101968F739927892B19F4EF
:100940008EEF8093E80080914501909146010196D9
:10095000909346018093450181E0089580E00895D9
:10096000DF92EF92FF920F931F93CF93DF93D82ED6
:100970008A01EB017B01E40EF51ECE15DF0559F06F
:10098000D7FE12C0FE0184910E948204219681113B
:10099000F4CF0FEF1FEFC801DF91CF911F910F919F
:1009A000FF90EF90DF9008958881EECF0F931F9313
:1009B000CF93DF931F92CDB7DEB782E0898342E405
:1009C00050E069E676E080E80E94B0040E94ED0302
:1009D000DC0112960D911C910115110589F0D801C9
:1009E000ED91FC910280F381E02DBE016F5F7F4F9E
:1009F000C801099597FD04C0F80100851185ECCF69
:100A000089810F90DF91CF911F910F9108956150CF
:100A100030F02091F100FC0120830196F8CF289856
:100A200084E68093570108953FB7F89480913F0181
:100A300090914001A0914101B091420126B5A89B3F
:100A400005C02F3F19F00196A11DB11D3FBFBA2F60
:100A5000A92F982F8827BC01CD01620F711D811D20
:100A6000911D42E0660F771F881F991F4A95D1F7A5
:100A700008958F929F92AF92BF92CF92DF92EF92A2
:100A8000FF926B017C010E9414054B015C01C114B3
:100A9000D104E104F104B9F00E9414056819790940
:100AA0008A099B09683E73408105910580F321E026
:100AB000C21AD108E108F10888EE880E83E0981E7A
:100AC000A11CB11CE4CFFF90EF90DF90CF90BF90BE
:100AD000AF909F908F9008958F929F92AF92BF9208
:100AE000CF92DF92EF92FF920F931F93CF93DF93FA
:100AF0006C017B018A0180910C01882309F45CC0A0
:100B000080915801882309F457C080914A0180FFE1
:100B100005C08091E00082608093E000E801B12C84
:100B20008AEFA82E93E0892E2AE3922E209711F4C3
:100B3000BB20D9F10E94DC0381110AC0AA94AA202B
:100B4000D9F161E070E080E090E00E943905EECFDD
:100B50008C171D0611F00CF08C2F9FB7F894809223
:100B6000E9002091E80025FD02C09FBFDFCF282FBC
:100B700030E0C21BD30BF701815020F0419140932C
:100B8000F100FACFE20EF31EBB2021F09092E800B4
:100B9000B12CEBCF8091E80085FDE7CF9092E80083
:100BA000BB24B394209709F3F3CF5D9884E6809338
:100BB0004901101611063CF081E090E0F6019383A4
:100BC000828310E000E0C801DF91CF911F910F9167
:100BD000FF90EF90DF90CF90BF90AF909F908F905D
:100BE0000895AF92BF92CF92DF92EF92FF920F9350
:100BF0001F93CF93DF936C017B018B01040F151FB3
:100C0000EB015E01AE18BF08C017D10759F069911A
:100C1000D601ED91FC910190F081E02DC60109957E
:100C2000892B79F7C501DF91CF911F910F91FF902B
:100C3000EF90DF90CF90BF90AF9008952D9A0895D8
:100C4000BC0190E080E00C9439058FB18095807FE5
:100C5000669B88601C9B84600895AF92BF92CF9280
:100C6000DF92EF92FF920F931F93CF93DF936D303C
:100C700079F0C0913801D09139016A30B1F4109205
:100C80003701109236012896D0933901C09338016C
:100C900081E090E0DF91CF911F910F91FF90EF9055
:100CA000DF90CF90BF90AF90089540913601509162
:100CB000370185E0689FF0011124E455FF4F9A0148
:100CC000C12C80E1E82EA5E070E0CA1621F0CF012A
:100CD00001967491FC0110E000E0B72FB170DB2E9B
:100CE00020383105D0F4CE01800F911F803491055A
:100CF000A0F461E081FD64E080FD660F82FD6295F5
:100D0000887FE89ED0011124A20FF62EA75ABE4F6D
:100D10008C91DD20A9F0862B8C9376950F5F1F4F69
:100D200008301105D1F6C3942F5F3F4F86E0C812FB
:100D3000CACF4A5F5F4F5093370140933601A8CF27
:100D4000F0948F21E9CF80E00C94A303089590E004
:100D500080E008950C94670C1F920F920FB60F92CB
:100D600011248F939F938091E1009091E100937FF4
:100D70009093E10083FF0FC01092E90091E09093FF
:100D8000EB001092EC0092E39093ED00109258016A
:100D900098E09093F00082FF22C093E09093E900E6
:100DA0009091F200992319F09AE39093E8009091C2
:100DB0004901992341F09091490191509093490143
:100DC000911101C05D9A90915701992341F0909142
:100DD0005701915090935701911101C0289A84FFB7
:100DE00018C08091E2008E7E81608093E200809145
:100DF000E1008F7E8093E10080914A018E7E8061C8
:100E000080934A019F918F910F900FBE0F901F907A
:100E1000189580FFF7CF8091E2008E7E80618093ED
:100E2000E2008091E1008E7E8093E10080914A0192
:100E30008E7E8160E5CF1F920F920FB60F92112424
:100E4000CF92DF92EF92FF920F931F932F933F93D6
:100E50004F935F936F937F938F939F93AF93BF93C2
:100E6000EF93FF93CF93DF93CDB7DEB76C97DEBFE1
:100E7000CDBF1092E9008091E80083FF25C068E0B3
:100E8000CE0145960E94070582EF8093E8008D8988
:100E900087FF39C09091E80090FFFCCF982F9076A3
:100EA00009F034C19E894F89588D2F89F88C911192
:100EB00031C0803861F5809148018093F100109233
:100EC000F1008EEF8093E8006C960FB6F894DEBFC9
:100ED0000FBECDBFDF91CF91FF91EF91BF91AF9149
:100EE0009F918F917F916F915F914F913F912F9142
:100EF0001F910F91FF90EF90DF90CF900F900FBE5A
:100F00000F901F9018959EEF9093E800C7CF109216
:100F1000F100D5CF913059F48111D3CF4130510533
:100F200081F6809148018D7F80934801CACF93302C
:100F300049F48111C6CF4130510519F6809148011D
:100F40008260F2CF953041F48091E80080FFFCCFC1
:100F500020682093E300B5CF963009F0A9C00B8D2F
:100F60001C8D22E01092E90010924601109245017A
:100F7000F2122EC010924401109243010E94D60436
:100F80001F8299E09983FA8291E09E8390EA988784
:100F90009AEF99872091450130914601275F3F4F95
:100FA0003C832B838D831092E900109246011092AE
:100FB0004501109344010093430149E050E0BE0114
:100FC0006F5F7F4F80E00E94B0040E94D60479CF0B
:100FD00010934401009343010E94ED03DC0112963B
:100FE0000D911C910115110509F451C1D801ED9124
:100FF000FC910480F581E02DBE016B5E7F4FC8013E
:101000000995009709F03EC1F80100851185EACFE6
:10101000F3E0FF120EC08F89882309F440C08230AC
:1010200061F440E867E08DEC96E00E949709811139
:1010300048CF81E28093EB0047CF813029F440E82C
:101040006BE081EC96E0F1CF833099F70E94ED03DD
:10105000DC011296ED90FC908E010F5F1F4F68012E
:10106000E114F10479F0D701ED91FC910680F7814C
:10107000E02DB801C7010995080F111DF701E084A3
:10108000F184EECFD8011C92F60101900020E9F71F
:101090003197BF016C197D0940E0C601C6CF6BEAEC
:1010A00076E0FB01449150E080E80E94B00409CF53
:1010B000973009F4BECF983021F481E08093F1009D
:1010C00000CF993009F0FDCE837009F0B2CFEEE089
:1010D000F1E081E031E096E32191222371F08093E9
:1010E000E9003093EB00DF0111972C912093EC0085
:1010F0009093ED008F5F873079F78EE78093EA0059
:101100001092EA008F8980935801DBCE8B8D9C8DE5
:101110001092E9001092460110924501909344010B
:1011200080934301898D811192C08E899D89913A66
:1011300049F4813209F07DCF47E050E065E071E08D
:1011400080E0B3CF913209F074CF833269F48F8994
:10115000988DB0E0A0E08093010190930201A093EC
:101160000301B0930401ADCE803269F48091E800B0
:1011700082FFFCCF67E085E091E00E9407058BEFDE
:101180008093E8009ECE823209F09BCE8F898093B7
:101190000C01EEEFFFE7859194918B3F9C4D51F14F
:1011A000E0E0F8E08091050190910601A09107012F
:1011B000B0910801803B9440A105B105F1F4809104
:1011C0000C0180FD1AC0EE3F8AE0F80789F587E739
:1011D00097E791838083809160008093470188E145
:1011E0009BE00FB6F894A895809360000FBE909393
:1011F000600067CEEEEFFAE0D5CF8081918187372E
:10120000974709F05ECEA895809160008861809331
:1012100060008091470180936000EE3F2AE0F20772
:1012200089F08091FE0A9091FF0A9183808349CED4
:10123000808191818737980751F29093FF0A8093BC
:10124000FE0AC5CF1092FF0A1092FE0A3ACE0E9403
:10125000ED03DC0112960D911C910115110509F4A5
:10126000E8CED801ED91FC910190F081E02DBE0116
:101270006B5E7F4FC8010995811123CEF80100856F
:101280001185EBCF181619060CF41BCED2CEF1E067
:10129000FF12BECE6FEA76E004CF1F920F920FB618
:1012A0000F9211242F933F938F939F93AF93BF93EC
:1012B00080913B0190913C01A0913D01B0913E0194
:1012C00030913A0123E0230F2D3758F50196A11DE7
:1012D000B11D20933A0180933B0190933C01A09370
:1012E0003D01B0933E0180913F0190914001A0915A
:1012F0004101B09142010196A11DB11D80933F01B2
:1013000090934001A0934101B0934201BF91AF91EE
:101310009F918F913F912F910F900FBE0F901F9033
:10132000189526E8230F0296A11DB11DD2CFEF928A
:10133000FF920F931F93CF93DF93F82E192FE62E72
:10134000042F81E0860F880F0E94820483E00E94B0
:101350008204CF2DD12FEC0EFD2EF11CCE15DF0512
:10136000B9F007FF13C0FE0184910E948204182F78
:1013700080E00E948204812321968111EFCFDF91CA
:10138000CF911F910F91FF90EF9008958881EDCF3D
:1013900081E0F5CFE9E5F5E01382128288EE93E073
:1013A000A0E0B0E084839583A683B78388E191E0D1
:1013B000918380838FEF9FEF95878487E9EAF5E03B
:1013C000138212828AE291E0918380830895789457
:1013D00084B5826084BD84B5816084BD85B582603A
:1013E00085BD85B5816085BD80916E0081608093EB
:1013F0006E00109281008091810082608093810054
:101400008091810081608093810080918000816063
:101410008093800080919100826080939100809100
:101420009100816080939100809190008160809311
:1014300090008091C10084608093C1008091C100C0
:1014400082608093C1008091C10081608093C1005F
:101450008091C30081608093C3008091C00082604E
:101460008093C0008091C20081608093C20080910F
:101470007A00846080937A0080917A008260809301
:101480007A0080917A00816080937A0080917A005E
:10149000806880937A00109258011092480110924F
:1014A0004A018091D70081608093D70080EA8093C1
:1014B000D80089B5806189BD89B5826089BD09B4CC
:1014C00000FEFDCF61E070E080E090E00E94390511
:1014D0008091D8008F7C80618093D8008091E0005B
:1014E000807F8093E0008091E1008E7E8093E10018
:1014F0008DE08093E200559A209A81EC80937C00E5
:1015000085B1806F85B984B1877E84B984B1876ED7
:1015100084B95E9A5F988AB1806D8AB9769A6E981E
:1015200081B3806F81BB899880B38D7080BB80E56B
:101530008CBD81E08DBD85E090E00E9420065F9A21
:1015400085E090E00E9420065E985C98ECE5F6E06D
:1015500089E696E024912EBD00000DB407FEFDCF74
:1015600031968E179F07B1F75C9A81E880936400EB
:10157000809165008160809365000E94A3060E94AF
:10158000250687FF15C05C9885EA8EBD00000DB466
:1015900007FEFDCF5C9A2E982F982D9880916400BD
:1015A00080628093640081E083BF889513BEFCCF86
:1015B0000E94250682FF48C02D980E942506847847
:1015C0008438E1F40E941E0688EC90E00E94200618
:1015D0002F9882E090E00E94670C8F3F29F06FEF18
:1015E00082E090E00E946F0C84EF91E00E94200660
:1015F0002F9A0E94250684788438D9F30E94250604
:1016000084718431E1F40E941E0688EC90E00E940F
:1016100020062E9882E090E00E94670C882329F033
:1016200060E082E090E00E946F0C84EF91E00E9405
:1016300020062E9A0E94250684718431D9F388EC05
:1016400090E00E942006B4CF0E941E0682E090E047
:101650000E94AA06882309F44BC03E9A3F9A81E073
:1016600090E00E94AA06482F4470942E81FF10C07B
:1016700041112E98C1EFDFEF08E010E078E5872EEA
:101680000E94250686FF37C02E9A2F9A0E941E06BA
:1016900082E390E00E9420060E9425068111F8CF87
:1016A0000E9496031092390110923801109237016E
:1016B0001092360180E18093000111E0C0E0D0E09B
:1016C00001E08FB7F89440913B0150913C0160914B
:1016D0003D0170913E018FBF80913401882309F450
:1016E000CBC010923401209761F30E940000E9CF33
:1016F0003E983F98B4CF992029F0C430D10511F419
:101700002E9A2F9881E00E94A3039E01D7FF04C068
:10171000222733272C1B3D0B27703327CE01D7FD03
:10172000079663E0959587956A95E1F7D7FF05C021
:101730000197F801E21BF30B9F01BC017695762F10
:10174000662777956795675A7E4FF12CE12C380113
:10175000621A730A8E3FFFEF9F0709F43DC08E9C0B
:10176000D0018F9CB00D112450E040E0A455BA4F39
:101770005B01E0E8AE0EB11C8F3F980791F0FD01D0
:10178000E40FF51FE4916B01C40ED51EF0E02F01AC
:10179000022E01C0440C0A94EAF7F6015488452849
:1017A000448A2115310599F0FD01E40FF51FE491FC
:1017B0006501C40ED51EF0E02F01062C02C0559421
:1017C00047940A94E2F7F60154884528448A4F5F0B
:1017D0005F4F4835510581F6019660587F4FEA9476
:1017E000EF2809F045C00E94A3068FE090E00E9418
:1017F00020062196C931D10509F042CF992011F078
:101800002F9A2D9880E991E00E9420060E941E06E2
:1018100081E090E00E94AA0680FF3ACF8AE090E043
:101820000E94AA069FEF980F9E3F08F031CF22E357
:1018300030E0309337012093360128E330E03093D5
:10184000390120933801CBE0D0E0682F89EA95E098
:101850000E942D06CE010E94AA062196C131D10513
:10186000A1F70E94A30688EE93E00E94200610CF05
:10187000EE24E394F12C6ECF80913501942F981BC8
:10188000892F90910001891740F48F5F891708F024
:101890002ACF13BF889513BE26CF009334014093FF
:1018A000350180913201909133010196909333017B
:1018B000809332010E9496031092390110923801F0
:1018C00010923701109236010E94A3060CCFF999AD
:1018D000FECF92BD81BDF89A992780B50895262F35
:1018E000F999FECF1FBA92BD81BD20BD0FB6F89405
:1018F000FA9AF99A0FBE01960895EE0FFF1F059010
:0A190000F491E02D0994F894FFCF54
:10190A0010FFFFFFFF00E100000000000000C1809F
:10191A00810000000000000001046C052204170485
:10192A00680426044404000000002D06F105A706F9
:02193A00A606FF
:00000001FF
