:100000000C947B030C94A3030C94A3030C94A30300
:100010000C94A3030C94A3030C94A3030C94A303C8
:100020000C94A3030C94A3030C94A80A0C94170B30
:100030000C94A3030C94A3030C94A3030C94A303A8
:100040000C94A3030C94A3030C94A3030C94A30398
:100050000C94A3030C94A3030C94A3030C94490DD8
:100060000C94A3030C94A3030C94A3030C94A30378
:100070000C94A3030C94A3030C94A3030C94A30368
:100080000C94A3030C94A3030C94A3030C94A30358
:100090000C94A3030C94A3030C94A3030C94A30348
:1000A0000C94A3030C94A3030C94A30305A84CCDB8
:1000B000B2D44EB93836A9020C50B9918688083CA2
:1000C000A6AAAA2ABE000000803F00000000003E51
:1000D0005B4F5B3E3E6B4F6B3E1C3E7C3E1C183CB8
:1000E0007E3C181C577D571C1C5E7F5E1C00183C14
:1000F0001800FFE7C3E7FF0018241800FFE7DBE75D
:10010000FF30483A060E2629792926407F05050743
:10011000407F05253F5A3CE73C5A7F3E1C1C08089F
:100120001C1C3E7F14227F22145F5F005F5F060964
:100130007F017F006689956A606060606094A2FFBD
:10014000A29408047E040810207E201008082A1CAF
:1001500008081C2A08081E101010100C1E0C1E0C7B
:1001600030383E3830060E3E0E060000000000001B
:10017000005F00000007000700147F147F14242A8A
:100180007F2A12231308646236495620500008075C
:100190000300001C2241000041221C002A1C7F1C7D
:1001A0002A08083E0808008070300008080808087F
:1001B000000060600020100804023E5149453E00E6
:1001C000427F400072494949462141494D33181444
:1001D000127F1027454545393C4A49493141211193
:1001E00009073649494936464949291E0000140085
:1001F00000004034000000081422411414141414A8
:10020000004122140802015909063E415D594E7C05
:100210001211127C7F494949363E414141227F41BA
:1002200041413E7F494949417F090909013E414118
:1002300051737F0808087F00417F41002040413F03
:10024000017F081422417F404040407F021C027F12
:100250007F0408107F3E4141413E7F090909063E67
:100260004151215E7F091929462649494932030136
:100270007F01033F4040403F1F2040201F3F403848
:10028000403F631408146303047804036159494D23
:1002900043007F4141410204081020004141417F59
:1002A00004020102044040404040000307080020CF
:1002B000545478407F2844443838444444283844CF
:1002C00044287F385454541800087E090218A4A406
:1002D0009C787F0804047800447D40002040403D25
:1002E000007F1028440000417F40007C047804789F
:1002F0007C080404783844444438FC182424181832
:10030000242418FC7C08040408485454542404048D
:100310003F44243C4040207C1C2040201C3C40307A
:10032000403C44281028444C9090907C4464544CA9
:100330004400083641000000770000004136080004
:1003400002010204023C2623263C1EA1A161123AAE
:100350004040207A385454555921555579412154FB
:10036000547841215554784020545579400C1E5200
:1003700072123955555559395454545939555454A4
:10038000580000457C410002457D420001457C400B
:10039000F0292429F0F0282528F07C545545002028
:1003A00054547C547C0A097F4932494949323248C5
:1003B000484832324A4848303A4141217A3A42402C
:1003C0002078009DA0A07D39444444393D40404000
:1003D0003D3C24FF2424487E4943662B2FFC2F2BD1
:1003E000FF0929F620C0887E090320545479410072
:1003F00000447D413048484A32384040227A007AF1
:100400000A0A727D0D19317D2629292F28262929CE
:10041000292630484D4020380808080808080808F0
:10042000382F10C8ACBA2F102834FA00007B000017
:1004300008142A142222142A14089500220095AACE
:10044000005500AAAA55AA55AA000000FF001010E6
:1004500010FF00141414FF001010FF00FF1010F024
:1004600010F0141414FC001414F700FF0000FF0037
:10047000FF1414F404FC141417101F10101F101F85
:100480001414141F00101010F0000000001F1010B2
:1004900010101F10101010F010000000FF101010AE
:1004A000101010101010FF10000000FF140000FFCB
:1004B00000FF00001F10170000FC04F414141710B4
:1004C000171414F404F40000FF00F71414141414A7
:1004D0001414F700F7141414171410101F101F141D
:1004E0001414F4141010F010F000001F101F00007E
:1004F000001F14000000FC140000F010F01010FFAA
:1005000010FF141414FF141010101F00000000F04E
:1005100010FFFFFFFFFFF0F0F0F0F0FFFFFF000023
:10052000000000FFFF0F0F0F0F0F38444438447CCA
:100530002A2A3E147E02020606027E027E026355CD
:100540004941633844443C04407E201E2006027E1C
:10055000020299A5E7A5991C2A492A1C4C7201722E
:100560004C304A4D4D303048784830BC625A463D98
:100570003E494949007E0101017E2A2A2A2A2A444D
:10058000445F444440514A444040444A5140000082
:10059000FF0103E080FF000008086B6B083612368D
:1005A0002436060F090F060000181800000010106E
:1005B000003040FF0101001F01011E00191D17122C
:1005C000003C3C3C3C0000000000F0F89C8E87831F
:1005D000878E9CF8F00000FEFF0303030303070E61
:1005E000FCF80000FEFF0303030303070EFCF80002
:1005F00000FFFF00000000000000FFFF0000FEFF02
:100600008383838383C7EE7C380000F8FC0E0703E6
:100610000303070EFCF800003F7FE0C08080C0E0CD
:100620007F3FFFFF01010101010101FFFF0000FF0A
:10063000FF0C0C0C0C1C3E77E3C100007FFFC0C018
:10064000C0C0C0E0703F1F00001F3F70E0C0C0C0CE
:10065000E0703F1F00007FFFC1C1C1C1C1E3773E11
:100660001C00001F3F70E0C0C0C0E0703F1F0000D2
:1006700000000001FFFF01000000D5F08D14A1C8AB
:1006800081CFD9F1AF2000080B000202020000095F
:1006900004000001020200000524001001052401ED
:1006A0000101042402060524060001070581031048
:1006B000004009040100020A000000070502024090
:1006C0000000070583024000000403090412010032
:1006D00002EF020140412336800001010203014183
:1006E000726475696E6F204C4C4300417264756290
:1006F0006F790000C60D11241FBECFEFDAE0DEBF18
:10070000CDBF11E0A0E0B1E0EEE7FFE202C005904E
:100710000D92AA3CB107D9F727E0AAECB1E001C0DD
:100720001D92AE3CB207E1F713E0CBE7D3E004C083
:100730002197FE010E94B717CA37D107C9F70E9457
:10074000E30D0C94BD170C940000EAE7F3E0A0E081
:10075000B8E000800EBC8111012C1197A0FDFDCFE7
:100760000192B9F70DB40895FC01809179038823B3
:1007700011F13FB7F89482E08093E9002091F200F4
:10078000822F90E01816190614F481E090E0882377
:1007900039F0289844E6409378034091F100408373
:1007A000222339F02091F200211103C02BE620937F
:1007B000E8003FBF08958FEF9FEF08952FB7F8949B
:1007C00083E08093E9009091E800892F807295FF83
:1007D00004C09091F20080E4891B2FBF089580919E
:1007E000700381110DC082E080936C0384E08093DC
:1007F0006D0310926F0310926E0381E0809370037B
:100800008CE693E00895CF93DF931F92CDB7DEB7C8
:100810006983DC01ED91FC910280F381E02D41E0E0
:1008200050E0BE016F5F7F4F09950F90DF91CF9130
:10083000089583E08093E9008091F200882319F005
:100840008AE38093E80008950E94DE0390E0089513
:10085000CF93DF931F92CDB7DEB7FC0184859585DA
:1008600097FD08C02FEF3FEF358724870F90DF916A
:10087000CF910895CE0101960E94B403019719F417
:10088000898190E0F3CF8FEF9FEFF0CF0F931F930D
:10089000CF93DF931F92CDB7DEB78C01FC01848527
:1008A000958597FF0BC0CE0101960E94B403019776
:1008B00071F4898190E0F80195878487F801848537
:1008C00095850F90DF91CF911F910F9108958FEF34
:1008D0009FEFF1CFFC018485958597FD0BC09FB7F5
:1008E000F89482E08093E9008091F2009FBF90E04D
:1008F000019608959FB7F89482E08093E900809173
:10090000F2009FBF90E00895409166035091670305
:10091000209164033091650342175307B4F490911A
:10092000E8009570E1F39091E80092FD19C0809382
:10093000F100809166039091670301968F73992768
:10094000892B19F48EEF8093E800809166039091D3
:1009500067030196909367038093660381E008958F
:1009600080E00895DF92EF92FF920F931F93CF9351
:10097000DF93D82E8A01EB017B01E40EF51ECE1524
:10098000DF0559F0D7FE12C0FE0184910E94840455
:1009900021968111F4CF0FEF1FEFC801DF91CF91A6
:1009A0001F910F91FF90EF90DF9008958881EECF17
:1009B0000F931F93CF93DF931F92CDB7DEB782E0E3
:1009C000898342E450E067E876E080E80E94B20460
:1009D0000E94EF03DC0112960D911C910115110587
:1009E00089F0D801ED91FC910280F381E02DBE01E8
:1009F0006F5F7F4FC801099597FD04C0F80100851E
:100A00001185ECCF89810F90DF91CF911F910F91CC
:100A10000895615030F02091F100FC01208301968F
:100A2000F8CF289884E68093780308953FB7F89428
:100A30008091600390916103A0916203B091630380
:100A400026B5A89B05C02F3F19F00196A11DB11D29
:100A50003FBFBA2FA92F982F8827BC01CD01620F65
:100A6000711D811D911D42E0660F771F881F991F20
:100A70004A95D1F708958F929F92AF92BF92CF92ED
:100A8000DF92EF92FF926B017C010E9416054B01F1
:100A90005C01C114D104E104F104B9F00E9416050F
:100AA000681979098A099B09683E73408105910597
:100AB00080F321E0C21AD108E108F10888EE880E1F
:100AC00083E0981EA11CB11CE4CFFF90EF90DF9053
:100AD000CF90BF90AF909F908F9008958F929F92EC
:100AE000AF92BF92CF92DF92EF92FF920F931F933C
:100AF000CF93DF936C017B018A01809113018823DE
:100B000009F45CC080917903882309F457C080916F
:100B10006B0380FF05C08091E00082608093E0005D
:100B2000E801B12C8AEFA82E93E0892E2AE3922EB9
:100B3000209711F4BB20D9F10E94DE0381110AC075
:100B4000AA94AA20D9F161E070E080E090E00E94D0
:100B50003B05EECF8C171D0611F00CF08C2F9FB7C4
:100B6000F8948092E9002091E80025FD02C09FBF23
:100B7000DFCF282F30E0C21BD30BF701815020F0CC
:100B800041914093F100FACFE20EF31EBB2021F019
:100B90009092E800B12CEBCF8091E80085FDE7CF83
:100BA0009092E800BB24B394209709F3F3CF5D98AB
:100BB00084E680936A03101611063CF081E090E011
:100BC000F6019383828310E000E0C801DF91CF91AA
:100BD0001F910F91FF90EF90DF90CF90BF90AF905B
:100BE0009F908F900895AF92BF92CF92DF92EF9235
:100BF000FF920F931F93CF93DF936C017B018B01C7
:100C0000040F151FEB015E01AE18BF08C017D10716
:100C100059F06991D601ED91FC910190F081E02DA0
:100C2000C6010995892B79F7C501DF91CF911F91F5
:100C30000F91FF90EF90DF90CF90BF90AF9008950D
:100C40002D9A0895BC0190E080E00C943B058FB193
:100C50008095807F669B88601C9B8460089580E0FF
:100C6000EAE7F3E081118FEF002481938193819370
:100C700081930394D1F71092CB011092CA01109284
:100C8000CD011092CC0108959091D201982329F4BE
:100C90009091D301982381E009F480E0089580E0E9
:100CA0000C94A50380389105B8F460347105A0F464
:100CB00020E191E061FD94E060FD990F62FD929565
:100CC000687F269FD0011124A80FA658BC4F8C9195
:100CD00040FF03C0892B8C93089590958923FBCF07
:100CE0002F923F924F925F926F927F928F929F923C
:100CF000AF92BF92CF92DF92EF92FF920F931F932A
:100D0000CF93DF9300D000D0CDB7DEB78C017C83CA
:100D10006B836B5F7F4F41E00E9452066B817C8149
:100D20006550710941E0C8010E94520641E06B81A3
:100D30007C81C80105960E94520641E06B817C814E
:100D4000C80105970E94520681E090E09A8389834A
:100D5000D12CC12C85E0E82EF12C96EF292E3324DE
:100D60003A942CEFA22EBB24BA949FEFC91AD90A49
:100D700089819A8102969A838983A80EB91E3601C9
:100D8000600E711E41E08B809C808E0C9F1CB40114
:100D9000C3010E94520628014C185D0841E0B401CD
:100DA000C2010E94520641E08B809C808E189F08F1
:100DB000B401C3010E94520641E0B401C2010E9485
:100DC00052068B809C808C0C9D1C41E0B401380144
:100DD0006E0C7F1CC3010E94520641E0B401280141
:100DE0004E185F08C2010E9452068B809C808C18AE
:100DF0009D0841E0B401C3010E94520641E0B401E4
:100E0000C2010E945206CE14DF04BCF00F900F9076
:100E10000F900F90DF91CF911F910F91FF90EF9066
:100E2000DF90CF90BF90AF909F908F907F906F900A
:100E30005F904F903F902F900895B7FC96CF91E030
:100E4000E91AF10882E0280E311CA20CB31C8DCFE8
:100E50008F929F92AF92BF92CF92DF92EF92FF92CA
:100E60000F931F93CF93DF936D3089F0C090CA0129
:100E7000D090CB016A30D1F41092CD011092CC0108
:100E800088E0C80ED11CD092CB01C092CA0181E08B
:100E900090E0DF91CF911F910F91FF90EF90DF9045
:100EA000CF90BF90AF909F908F9008950091CC010C
:100EB0001091CD01E5E06E9FE0011124C653DF4F94
:100EC0004801F12CF5E0E12CFF1629F0CE01019646
:100ED000FE01E490EC01B12CA12C4E2D4170B60125
:100EE0006A0D7B1DC4010E945206E694FFEFAF1A03
:100EF000BF0A88E0A816B10481F7F394EFEF8E1AC9
:100F00009E0AF6E0FF12DECF0A5F1F4F1093CD015D
:100F10000093CC01BCCFFC01CB0120917801309132
:100F20007901B9010E948F17AC01440F551FE40FDE
:100F3000F51F215031098217930734F44281538100
:100F4000419351930196F7CF309379012093780123
:100F50000895089590E080E00895FC01019000203C
:100F6000E9F73197AF01481B590BBC018AEC97E0B8
:100F70000C94F3058F929F92AF92BF920F931F93A1
:100F8000CF93DF93CDB7DEB7A1970FB6F894DEBF4E
:100F90000FBECDBF19A2423008F44AE08E010F5DAA
:100FA0001F4F842E912CB12CA12CA50194010E94DD
:100FB0008614E62FB901CA01EA30F4F4E05DD801E5
:100FC000EE938D01232B242B252B79F790E080E0E5
:100FD000109719F0CD010E94AD07A1960FB6F894B5
:100FE000DEBF0FBECDBFDF91CF911F910F91BF909C
:100FF000AF909F908F900895E95CE1CFCF92DF9200
:10100000EF92FF92CF93DF936C01990FEE08FF08E8
:10101000F7FE19C06DE28AEC97E00E942807EC0108
:1010200066277727CB016C197D098E099F094AE055
:101030000E94BA078C0F9D1FDF91CF91FF90EF9018
:10104000DF90CF9008954AE0C701B601DF91CF91BC
:10105000FF90EF90DF90CF900C94BA07EF92FF9241
:101060000F931F93CF93DF938C01EB017A010E94C2
:101070007006025011091093CD010093CC01239703
:10108000D093CB01C093CA01C701DF91CF911F91CB
:101090000F91FF90EF900C94FE07EF92FF920F9349
:1010A0001F93CF93DF938C01E0907801F09079014A
:1010B000C7010E94FE0784EA91E00E94AD07E801A3
:1010C00010E000E00E151F053CF4899199910E94F3
:1010D000FE070F5F1F4FF6CF84EB91E0DF91CF91BA
:1010E0001F910F91FF90EF900C94AD072F923F92BC
:1010F0004F925F926F927F928F929F92AF92BF9228
:10110000CF92DF92EF92FF920F931F93CF93DF93D3
:10111000F12CE12CF9E02F2E312C609178017091A7
:101120007901CB01880F991F880F991FE816F906DE
:101130000CF0ECC0C7010E948F17EC01FC01EE0F10
:10114000FF1FEC5EFE4F80819181019609F0DAC0AD
:101150002091780130917901233031050CF4D2C00F
:101160006E0141E0C41AD108490151E0851A910885
:10117000209729F0C601B9010E948F174C01C401C4
:10118000880F991FFC01EC5EFE4F2F010081118139
:101190005E01FFEFAF1ABF0AC501B9010E948F17A8
:1011A000FC01EE0FFF1FEC5EFE4F6080718083EA52
:1011B00091E00E94AD0787EA91E00E94AD07C4016B
:1011C0000E94FE078AEA91E00E94AD0760917801D3
:1011D00070917901C5010E948F170E94FE078EEA67
:1011E00091E00E94AD0787EA91E00E94AD07C80137
:1011F0000E94FE078AEA91E00E94AD07C3010E94A7
:10120000FE0783EB91E00E94AD070615170509F074
:1012100079C020917801309179010F3F100709F4CE
:1012200071C0CE01B9010E948F17FC01EE0FFF1FA4
:10123000EC5EFE4F808191818F3F980779F50F5FBB
:101240001F4F11830083F20111821082C501B90181
:101250000E948F17FC01EE0FFF1FEC5EFE4F3182E4
:101260002082209729F561E070E084E191E00E94FE
:101270008B0760917801709179016150710984E167
:1012800091E00E948B0780917801909179010397FA
:10129000CCF184E191E00E944D085ACF801791076C
:1012A0001CF40E5F1F4FCDCF019691838083CBCF6F
:1012B000BC0184E191E00E948B07609178017091FC
:1012C0007901C601C617D70719F4CE010297BE01EE
:1012D0000E948F17BC0184E191E00E948B078091EE
:1012E00078019091790103976CF084E191E00E947C
:1012F0004D086091780170917901C6010E948F17A5
:10130000EC0126CFFFEFEF1AFF0A07CFDF91CF9155
:101310001F910F91FF90EF90DF90CF90BF90AF9013
:101320009F908F907F906F905F904F903F902F9005
:1013300008952F923F924F925F926F927F928F9279
:101340009F92AF92BF92CF92DF92EF92FF920F9354
:101350001F93CF93DF93EC018A011901072E000C34
:10136000880B990B0E94D8159B01AC016BED7FE0B7
:1013700089EC90E40E942E156B017C01AC019B016D
:101380000E944117882309F44FC086EB91E00E9428
:10139000AD0783EB91E00E94AD07BE01DD0F880B26
:1013A000990B0E94D815A70196010E94CC166B01DB
:1013B0007C010E94291520E030E040EC51E40E94BD
:1013C000CC1620E030E040E852E40E94B8140E94BD
:1013D000A015F80171836083C701B6010E94391717
:1013E00020E030E040EC51E40E94CC1620E030E0F8
:1013F00040E052E40E94B8140E94A015F1017183EC
:101400006083DF91CF911F910F91FF90EF90DF905C
:10141000CF90BF90AF909F908F907F906F905F9094
:101420004F903F902F90089546015701E894B7F8E8
:101430002FEF3FEF4FE75FE7C501B4010E9441176F
:1014400081110DC02FEF3FEF4FE75FE7C501B401FA
:101450000E94241518161CF48AEB91E098CF2FEF08
:101460003FEF4FE75FE4C701B6010E94C7161816A9
:101470001CF48EEB91E08BCF2FEF3FEF4FE75FEC4B
:10148000C701B6010E94241587FDF3CF20E030E0AC
:10149000A901C701B6010E94241587FF54C06DE25F
:1014A0008AEC97E00E942807C701B60190582AE00D
:1014B00037ED43EA5BE30E94B8142B013C010E9424
:1014C000A7154B015C010E94D6159B01AC01C3011D
:1014D000B2010E94B7142B013C014AE0C501B401DE
:1014E0000E94BA076EE28AEC97E00E94280720E08B
:1014F00030E040E251E4C301B2010E94CC162B015E
:101500003C010E94A7154B01B12CA12C4AE0C5015A
:10151000B4010E94BA07C501B4010E94D6159B010F
:10152000AC01C301B2010E94B71420E030E040E2F8
:1015300051E40E94CC160E94A71590E080E04AE09A
:101540000E94BA0726CFC701B601B1CF0C943E1452
:101550001F920F920FB60F9211248F939F93809139
:10156000E1009091E100937F9093E10083FF0FC031
:101570001092E90091E09093EB001092EC0092E35E
:101580009093ED001092790398E09093F00082FF21
:1015900022C093E09093E9009091F200992319F012
:1015A0009AE39093E80090916A03992341F0909117
:1015B0006A03915090936A03911101C05D9A9091D2
:1015C0007803992341F09091780391509093780398
:1015D000911101C0289A84FF18C08091E2008E7E8C
:1015E00081608093E2008091E1008F7E8093E10032
:1015F00080916B038E7E806180936B039F918F91AE
:101600000F900FBE0F901F90189580FFF7CF80911D
:10161000E2008E7E80618093E2008091E1008E7E08
:101620008093E10080916B038E7E8160E5CF1F92F5
:101630000F920FB60F921124CF92DF92EF92FF928A
:101640000F931F932F933F934F935F936F937F93CA
:101650008F939F93AF93BF93EF93FF93CF93DF93BA
:10166000CDB7DEB76C97DEBFCDBF1092E900809199
:10167000E80083FF25C068E0CE0145960E94090579
:1016800082EF8093E8008D8987FF39C09091E80050
:1016900090FFFCCF982F907609F034C19E894F8936
:1016A000588D2F89F88C911131C0803861F5809167
:1016B00069038093F1001092F1008EEF8093E800AF
:1016C0006C960FB6F894DEBF0FBECDBFDF91CF9101
:1016D000FF91EF91BF91AF919F918F917F916F910A
:1016E0005F914F913F912F911F910F91FF90EF903C
:1016F000DF90CF900F900FBE0F901F9018959EEF28
:101700009093E800C7CF1092F100D5CF913059F4F3
:101710008111D3CF4130510581F6809169038D7FCE
:1017200080936903CACF933049F48111C6CF413009
:10173000510519F6809169038260F2CF953041F42A
:101740008091E80080FFFCCF20682093E300B5CFB4
:10175000963009F0A9C00B8D1C8D22E01092E90093
:101760001092670310926603F2122EC01092650366
:10177000109264030E94D8041F8299E09983FA8230
:1017800091E09E8390EA98879AEF9987209166036B
:1017900030916703275F3F4F3C832B838D831092EB
:1017A000E90010926703109266031093650300939B
:1017B000640349E050E0BE016F5F7F4F80E00E940C
:1017C000B2040E94D80479CF109365030093640398
:1017D0000E94EF03DC0112960D911C910115110579
:1017E00009F451C1D801ED91FC910480F581E02DFF
:1017F000BE016B5E7F4FC8010995009709F03EC19D
:10180000F80100851185EACFF3E0FF120EC08F8941
:10181000882309F440C0823061F440E867E08BEE31
:1018200096E00E94930D811148CF81E28093EB00F6
:1018300047CF813029F440E86BE08FED96E0F1CF9F
:10184000833099F70E94EF03DC011296ED90FC9033
:101850008E010F5F1F4F6801E114F10479F0D70189
:10186000ED91FC910680F781E02DB801C701099543
:10187000080F111DF701E084F184EECFD8011C920E
:10188000F60101900020E9F73197BF016C197D093D
:1018900040E0C601C6CF69EC76E0FB01449150E020
:1018A00080E80E94B20409CF973009F4BECF983087
:1018B00021F481E08093F10000CF993009F0FDCE52
:1018C000837009F0B2CFEFE7F1E081E031E096E319
:1018D0002191222371F08093E9003093EB00DF0126
:1018E00011972C912093EC009093ED008F5F87303F
:1018F00079F78EE78093EA001092EA008F8980934F
:101900007903DBCE8B8D9C8D1092E90010926703DA
:10191000109266039093650380936403898D81110F
:1019200092C08E899D89913A49F4813209F07DCF28
:1019300047E050E06CE071E080E0B3CF913209F015
:1019400074CF833269F48F89988DB0E0A0E08093E2
:10195000080190930901A0930A01B0930B01ADCE49
:10196000803269F48091E80082FFFCCF67E08CE070
:1019700091E00E9409058BEF8093E8009ECE8232B1
:1019800009F09BCE8F8980931301EEEFFFE78591DD
:1019900094918B3F9C4D51F1E0E0F8E080910C0177
:1019A00090910D01A0910E01B0910F01803B9440E8
:1019B000A105B105F1F48091130180FD1AC0EE3F3D
:1019C0008AE0F80789F587E797E79183808380911C
:1019D00060008093680388E19BE00FB6F894A895B7
:1019E000809360000FBE9093600067CEEEEFFAE048
:1019F000D5CF808191818737974709F05ECEA89532
:101A0000809160008861809360008091680380937A
:101A10006000EE3F2AE0F20789F08091FE0A909183
:101A2000FF0A9183808349CE80819181873798070F
:101A300051F29093FF0A8093FE0AC5CF1092FF0ADD
:101A40001092FE0A3ACE0E94EF03DC0112960D912D
:101A50001C910115110509F4E8CED801ED91FC9116
:101A60000190F081E02DBE016B5E7F4FC8010995AA
:101A7000811123CEF80100851185EBCF18161906C8
:101A80000CF41BCED2CEF1E0FF12BECE6DEC76E0B0
:101A900004CF1F920F920FB60F9211242F933F93F2
:101AA0008F939F93AF93BF9380915C0390915D035D
:101AB000A0915E03B0915F0330915B0323E0230F9D
:101AC0002D3758F50196A11DB11D20935B0380931E
:101AD0005C0390935D03A0935E03B0935F038091DA
:101AE000600390916103A0916203B091630301963A
:101AF000A11DB11D8093600390936103A0936203C5
:101B0000B0936303BF91AF919F918F913F912F91BC
:101B10000F900FBE0F901F90189526E8230F029686
:101B2000A11DB11DD2CFEF92FF920F931F93CF93C0
:101B3000DF93F82E192FE62E042F81E0860F880FF1
:101B40000E94840483E00E948404CF2DD12FEC0EE8
:101B5000FD2EF11CCE15DF05B9F007FF13C0FE0105
:101B600084910E948404182F80E00E9484048123C1
:101B700021968111EFCFDF91CF911F910F91FF90AF
:101B8000EF9008958881EDCF81E0F5CFEAE7F7E0A7
:101B90001382128288EE93E0A0E0B0E08483958304
:101BA000A683B78389E891E0918380838FEF9FEFCD
:101BB00095878487EAECF7E0138212828BE991E043
:101BC000918380830895CF93DF93CDB7DEB72A97B3
:101BD0000FB6F894DEBF0FBECDBF789484B5826097
:101BE00084BD84B5816084BD85B5826085BD85B5C1
:101BF000816085BD80916E00816080936E0010923F
:101C000081008091810082608093810080918100B9
:101C1000816080938100809180008160809380004A
:101C20008091910082608093910080919100816009
:101C300080939100809190008160809390008091CA
:101C4000C10084608093C1008091C1008260809354
:101C5000C1008091C10081608093C1008091C30068
:101C600081608093C3008091C00082608093C00037
:101C70008091C20081608093C20080917A0084606C
:101C800080937A0080917A00826080937A008091BC
:101C90007A00816080937A0080917A0080688093D6
:101CA0007A00109279031092690310926B0380916D
:101CB000D70081608093D70080EA8093D80089B5EF
:101CC000806189BD89B5826089BD09B400FEFDCF00
:101CD00061E070E080E090E00E943B058091D800D8
:101CE0008F7C80618093D8008091E000807F80931A
:101CF000E0008091E1008E7E8093E1008DE0809392
:101D0000E200559A209A81EC80937C0085B1806F27
:101D100085B984B1877E84B984B1876E84B95E9AAF
:101D20005F988AB1806D8AB9769A6E9881B3806F18
:101D300081BB899880B38D7080BB80E58CBD81E0CC
:101D40008DBD85E090E00E9422065F9A85E090E0DC
:101D50000E9422065E985C98EAE7F6E084918EBDC8
:101D600000000DB407FEFDCF319626E0E738F207FC
:101D7000A9F75C9A81E88093640080916500816096
:101D8000809365000E944F060E94270687FF15C0BA
:101D90005C9885EA8EBD00000DB407FEFDCF5C9A0D
:101DA0002E982F982D988091640080628093640013
:101DB00081E083BF889513BEFCCF0E94270682FF77
:101DC00048C02D980E94270684788438E1F40E9448
:101DD000200688EC90E00E9422062F9882E090E096
:101DE0000E943E148F3F29F06FEF82E090E00E9446
:101DF000461484EF91E00E9422062F9A0E94270643
:101E000084788438D9F30E94270684718431E1F400
:101E10000E94200688EC90E00E9422062E9882E024
:101E200090E00E943E14882329F060E082E090E078
:101E30000E94461484EF91E00E9422062E9A0E948E
:101E4000270684718431D9F388EC90E00E94220641
:101E5000B4CF0E94200682E090E00E94A60A882368
:101E600009F440C03E9A3F9A81E090E00E94A60AA1
:101E7000382F3470532E81FF0FC031112E9801EF8F
:101E80001FEF68E0A62EB12C0E94270686FF2DC00A
:101E90002E9A2F9A0E94200682E390E00E9422064A
:101EA0000E9427068111F8CF0E942F0680E18093BF
:101EB00000018FB7F89440915C0350915D036091ED
:101EC0005E0370915F038FBF8091D001882309F476
:101ED000CFC01092D00180E090E0892B51F30E9496
:101EE0000000E7CF3E983F98BFCF552029F004303F
:101EF000110511F42E9A2F9881E00E94A5039801F4
:101F000017FF04C022273327201B310B27703327EC
:101F1000C80117FD079653E0959587955A95E1F707
:101F200017FF05C00197A501421B530B9A01BC0185
:101F30007695762F66277795679566587C4FB0E043
:101F4000A0E01501221A330A8E3F5FEF950709F4CE
:101F50003FC07B0150E040E0FD01E653FA4F4F01E6
:101F60003B01F0E86F0E711C8F3F980779F0F40188
:101F7000E40FF51FE491F0E06F01022E01C0CC0CDC
:101F80000A94EAF7F701D488CD28C48A21153105CF
:101F9000B9F0F401E40FF51F44906301C40ED51E9F
:101FA000E42DF0E0022C02C0F595E7950A94E2F7E3
:101FB000FA87E987F6014488F9854F2AF601448AB1
:101FC0004F5F5F4FFFEFEF1AFF0A4835510561F68B
:101FD0000196A85ABF4F60587F4FA03BB10509F04A
:101FE000B3CF0E944F068FE090E00E9422060F5F61
:101FF0001F4F0931110509F047CF552011F02F9AD5
:102000002D9880E991E00E9422060E94200681E03E
:1020100090E00E94A60A80FF3FCF8AE090E00E94F5
:10202000A60A9FEF980F9E3F08F036CF22E330E0DC
:102030003093CD012093CC0128E330E03093CB01E5
:102040002093CA010BE010E0682F8AEC97E00E9411
:102050002807C8010E94A60A0F5F1F4F0131110512
:1020600099F70E944F0688EE93E00E94220614CF53
:102070008091D101242F281B822F909100012917D4
:1020800048F48F5F891708F026CF81E083BF8895D9
:1020900013BE21CF11E01093D0014093D101809164
:1020A000CE019091CF0101969093CF018093CE0104
:1020B0008091D3018093D2010E9427068093D3019F
:1020C00080E10E944406882329F08091070181273E
:1020D0008093070184E00E944406882331F081E068
:1020E00090E090935A038093590300915903109103
:1020F0005A0301301105A9F40E942F0684E191E0F2
:102100000E944D080E944F060E94760882EC91E0E2
:102110000E94AD0784E191E00E944D080E944F06A5
:10212000FFCF0115110509F0D6CEE0907801F090AF
:10213000790180915803882309F464C00E942F0616
:10214000A090D401B090D5013FEFA31AB30AB0928A
:10215000D501A092D40186EDC82E81E0D82E0E15AF
:102160001F050CF043C0D6011C96ED91FC911D9704
:1021700014968D909C90159712962D913C911397E3
:102180001A964D915C91421B530B4A9DC0014B9D89
:10219000900D5A9D900D11244E966CE370E00E94B4
:1021A0008F17260F371FD60117963C932E9316973D
:1021B000E819F909EA9DC001EB9D900DFA9D900D7B
:1021C00011244E966CE370E00E948F17680D791D04
:1021D000F60171876087C9010E9470060E944F0650
:1021E0000F5F1F4FFEE0CF0ED11CB9CF2DE3A2161B
:1021F000B1040CF470CE109258031092D5011092D5
:10220000D40169CE88E00E944406882309F430C1D5
:10221000B4E1AB2EB1E0BB2EE4EFF2E0D50190E0EB
:1022200080E08E159F0534F42D913D9121933193DB
:102230000196F7CF20910501309106018091F202BD
:102240009091F30201964091F0025091F1024F5F9C
:102250005F4F5093F1024093F002B7010E948F1735
:10226000A7014F5F5F4F5093790140937801F701C9
:10227000EE0FFF1FEC5EFE4F32978E159F0544F464
:1022800041E0E41AF1084081518153834283F4CF45
:10229000880F991FFC01EC5EFE4F318320838091F3
:1022A000070181110E9476088091F0029091F1025D
:1022B00068E270E00E948F17892B99F480910101E8
:1022C0009091020120910301309104012F5F3F4F53
:1022D00030930401209303010196909302018093AF
:1022E00001018091030190910401C0900101D090FF
:1022F00002012C01092E000C660877089C012C0DA8
:102300003D1D82179307ACF40D2C000CEE08FF085E
:10231000C114D104E104F10441F00E94E613A701C5
:1023200096010E9454146B017C014C0C5D1C6E1CC8
:102330007F1C50920601409205010E94E61324E0A2
:1023400030E040E050E00E945414672B682B692B6A
:1023500031F48FEF9FEF90930601809305018091F8
:10236000EE029091EF02059754F0AFEFBFEFB093FC
:102370000601A09305011092EF021092EE028091E7
:10238000EE029091EF0201969093EF028093EE029D
:1023900066EDE62E61E0F62ED12CC12C609178011D
:1023A00070917901C616D7060CF05FC061507109B3
:1023B0004601BFEF8B1A9B0A8091F2029091F302C3
:1023C0009E012B5F3F4FAE01495F5F4F8C159D050E
:1023D000ECF1C6010E949909609178017091790130
:1023E0009E012F5F3F4FAE014D5F5F4FC6010E94C0
:1023F0009909D501ED91FD915D012F8138858D8180
:102400009E816B817C8149815A81D7011196FC9311
:10241000EE9313963C932E93129715969C938E935E
:10242000149717963C932E93169719969C938E9318
:1024300018971B967C936E931A971D965C934E93F8
:102440001C97BEE0EB0EF11C6401A8CFC6010E94F0
:10245000990960917801709179019E012F5F3F4F3A
:10246000AE014D5F5F4FC401C2CF81E0809358033E
:1024700080E20E944406E0907801F0907901882380
:1024800069F08091F2029091F302181619060CF08F
:102490007AC001979093F3028093F20280E40E9445
:1024A0004406882381F08091F2029091F302E1E0EA
:1024B000EE1AF1088E159F050CF067C001969093F7
:1024C000F3028093F2020E942F0654E1A52E51E000
:1024D000B52E6091780170917901061717070CF0FD
:1024E00059C0D5018D909D905D01072E000C880B81
:1024F000990B0E94D8159B01AC016BED7FE089EC34
:1025000090E40E942E156B017C01B801012E000C95
:10251000880B990B0E94D8159B01AC01C701B6012D
:102520000E94CC166B017C010E9429152B013C01F5
:10253000C701B6010E94391720E030E040EC51E4B9
:102540000E94CC1620E030E040E052E40E94B81433
:102550000E94A0156B0120E030E040EC51E4C30183
:10256000B2010E94CC1620E030E040E852E40E9424
:10257000B8140E94A015CB01A401B6010E942E0838
:102580000F5F1F4FA6CFC70184CF1092F3021092A6
:10259000F20299CF409105015091060160E270E08E
:1025A00080E490E00E942E0860917801709179019A
:1025B0006115710509F4BBC0072E000C880B990B3F
:1025C0000E94D8159B01AC016BED7FE089EC90E493
:1025D0000E942E156B017C016091F2027091F30252
:1025E000072E000C880B990B0E94D815A7019601A5
:1025F0000E94CC164B015C0120E030E040E05FE33C
:10260000C701B6010E94CC169B01AC01C501B40103
:102610000E94B8146B017C010E94391720E030E061
:1026200040EC51E40E94CC1620E030E040E052E45F
:102630000E94B8140E94A0151B018B01C701B601AE
:102640000E94291520E030E040EC51E40E94CC16B5
:1026500020E030E040E852E40E94B8140E94A01547
:102660007B013101B0E26B1A710877FE03C07194EF
:10267000619471085B01E0E4AE1AB108B7FE03C0D3
:10268000B194A194B10880E490E030E2C32ED12C43
:10269000A614B7043CF08B01710180E290E040E4A5
:1026A000C42ED12C0C151D0554F03E2D2F2D7C0170
:1026B000832F922F302F212F8601C32ED22E460139
:1026C000801A910A2C014E185F0857FE03C05194DE
:1026D00041945108140197FE03C0FFEF2F1A3F0ADF
:1026E00035942794E816F90604F581E0282F880F21
:1026F000330B3A872987C016D106CCF041E0B801E8
:10270000C701A614B70414F0B701C8010E9452060D
:102710002418350837FE06C049855A85E40EF51E93
:10272000280C391C0F5F1F4FE6CF8FEFDFCF0E94C1
:102730004F06D1CB8F929F92AF92BF92CF92DF92F2
:10274000EF92FF92CF93DF93EC01688179818A81C8
:102750009B81611571058105910521F464E279ED94
:102760008BE597E02DE133EF41E050E00E945414F7
:1027700049015A019B01AC01A7EAB1E40E9473141C
:102780006B017C01ACEEB4EFA50194010E948114B1
:10279000C60ED71EE81EF91EF7FE06C081E0C81A55
:1027A000D108E10880E8F80AC882D982EA82FB826F
:1027B000C701B6019F77DF91CF91FF90EF90DF9037
:1027C000CF90BF90AF909F908F9008958F929F92DF
:1027D000AF92BF92CF92DF92EF92FF9260917A0117
:1027E00070917B0180917C0190917D016115710553
:1027F0008105910521F464E279ED8BE597E02DE107
:1028000033EF41E050E00E94541449015A019B010A
:10281000AC01A7EAB1E40E9473146B017C01ACEE39
:10282000B4EFA50194010E948114C60ED71EE81EC4
:10283000F91EF7FE06C081E0C81AD108E10880E859
:10284000F80AC0927A01D0927B01E0927C01F0926A
:102850007D01C701B6019F77FF90EF90DF90CF9089
:10286000BF90AF909F908F90089560937A0170937E
:102870007B0180937C0190937D010895F999FECFAF
:1028800092BD81BDF89A992780B50895262FF999B0
:10289000FECF1FBA92BD81BD20BD0FB6F894FA9A43
:1028A000F99A0FBE01960895052E97FB1EF4009429
:1028B0000E946B1457FD07D00E94861407FC03D0BA
:1028C0004EF40C946B1450954095309521953F4FE4
:1028D0004F4F5F4F089590958095709561957F4F0C
:1028E0008F4F9F4F08950E94A814A59F900DB49FED
:1028F000900DA49F800D911D11240895B7FF0C9495
:1029000073140E947314821B930B0895A1E21A2E74
:10291000AA1BBB1BFD010DC0AA1FBB1FEE1FFF1F83
:10292000A217B307E407F50720F0A21BB30BE40BD3
:10293000F50B661F771F881F991F1A9469F760951A
:102940007095809590959B01AC01BD01CF010895D4
:10295000A29FB001B39FC001A39F700D811D1124E0
:10296000911DB29F700D811D1124911D0895505825
:10297000BB27AA270E94CF140C9479160E944016F8
:1029800038F00E94471620F039F49F3F19F426F4DE
:102990000C943D160EF4E095E7FB0C943716E92FE6
:1029A0000E949E1658F3BA176207730784079507AB
:1029B00020F079F4A6F50C94C0160EF4E0950B2ED9
:1029C000BA2FA02D0B01B90190010C01CA01A00181
:1029D0001124FF27591B99F0593F50F4503E68F1DC
:1029E0001A16F040A22F232F342F4427585FF3CF1D
:1029F000469537952795A795F0405395C9F77EF4EE
:102A00001F16BA0B620B730B840BBAF09150A1F036
:102A1000FF0FBB1F661F771F881FC2F70EC0BA0FBC
:102A2000621F731F841F48F4879577956795B79544
:102A3000F7959E3F08F0B0CF9395880F08F099273F
:102A4000EE0F9795879508950E94131608F481E07C
:102A500008950E945016E3950C948A160E94421520
:102A60000C9479160E94471658F00E94401640F0C8
:102A700029F45F3F29F00C94371651110C94C116BC
:102A80000C943D160E949E1668F39923B1F35523CA
:102A900091F3951B550BBB27AA2762177307840771
:102AA00038F09F5F5F4F220F331F441FAA1FA9F307
:102AB00035D00E2E3AF0E0E832D091505040E695F5
:102AC000001CCAF72BD0FE2F29D0660F771F881F56
:102AD000BB1F261737074807AB07B0E809F0BB0B49
:102AE000802DBF01FF2793585F4F3AF09E3F51055D
:102AF00078F00C9437160C94C1165F3FE4F3983EBF
:102B0000D4F3869577956795B795F7959F5FC9F745
:102B1000880F911D9695879597F90895E1E0660FC6
:102B2000771F881FBB1F621773078407BA0720F03F
:102B3000621B730B840BBA0BEE1F88F7E0950895A8
:102B40000E94A7156894B1110C94C11608950E94B3
:102B5000A61688F09F5798F0B92F9927B751B0F073
:102B6000E1F0660F771F881F991F1AF0BA95C9F711
:102B700014C0B13091F00E94C016B1E008950C94D9
:102B8000C016672F782F8827B85F39F0B93FCCF38C
:102B9000869577956795B395D9F73EF4909580958E
:102BA000709561957F4F8F4F9F4F0895E89409C0AE
:102BB00097FB3EF490958095709561957F4F8F4F70
:102BC0009F4F9923A9F0F92F96E9BB279395F69586
:102BD000879577956795B795F111F8CFFAF4BB0F04
:102BE00011F460FF1BC06F5F7F4F8F4F9F4F16C068
:102BF000882311F096E911C0772321F09EE8872FF2
:102C0000762F05C0662371F096E8862F70E060E0AD
:102C10002AF09A95660F771F881FDAF7880F969526
:102C2000879597F90895990F0008550FAA0BE0E8CA
:102C3000FEEF16161706E807F907C0F0121613067E
:102C4000E407F50798F0621B730B840B950B39F4BE
:102C50000A2661F0232B242B252B21F408950A2624
:102C600009F4A140A6958FEF811D811D089597F964
:102C70009F6780E870E060E008959FEF80EC089522
:102C800000240A941616170618060906089500244B
:102C90000A94121613061406050608950C943D16A0
:102CA0000E94A616D8F3E894E0E0BB279F57F0F007
:102CB0002AED3FE049EC06C0EE0FBB0F661F771F01
:102CC000881F28F0B23A62077307840728F0B25AC7
:102CD000620B730B840BE3959A9572F7803830F48E
:102CE0009A95BB0F661F771F881FD2F790480C94E8
:102CF0004817092E0394000C11F4882352F0BB0FDF
:102D000040F4BF2B11F460FF04C06F5F7F4F8F4F03
:102D10009F4F0895EF93E0FF07C0A2EA2AED3FE03E
:102D200049EC5FEB0E94CF140E9479160F90039438
:102D300001FC9058ECEAF0E00C94541757FD9058C1
:102D4000440F551F59F05F3F71F04795880F97FB6F
:102D5000991F61F09F3F79F0879508951216130629
:102D60001406551FF2CF4695F1DF08C01616170658
:102D70001806991FF1CF869571056105089408958D
:102D8000E894BB2766277727CB0197F908950E941F
:102D9000131608F48FEF08950E94DF160C9479162D
:102DA0000E94401638F00E94471620F0952311F03B
:102DB0000C9437160C943D1611240C94C1160E94E5
:102DC0009E1670F3959FC1F3950F50E0551F629FBB
:102DD000F001729FBB27F00DB11D639FAA27F00D74
:102DE000B11DAA1F649F6627B00DA11D661F829F9B
:102DF0002227B00DA11D621F739FB00DA11D621F80
:102E0000839FA00D611D221F749F3327A00D611D9C
:102E1000231F849F600D211D822F762F6A2F11247E
:102E20009F5750409AF0F1F088234AF0EE0FFF1FB1
:102E3000BB1F661F771F881F91505040A9F79E3F08
:102E4000510580F00C9437160C94C1165F3FE4F3E3
:102E5000983ED4F3869577956795B795F795E7955E
:102E60009F5FC1F7FE2B880F911D9695879597F967
:102E700008959F930E9450160F9007FCEE5F0C94EC
:102E80008A160E941316880B990B08959F3F31F004
:102E9000915020F4879577956795B795880F911D88
:102EA0009695879597F908959F938F937F936F9346
:102EB000FF93EF939B01AC010E94CC16EF91FF9121
:102EC0000E9468172F913F914F915F910C94CC16FF
:102ED000DF93CF931F930F93FF92EF92DF927B01CB
:102EE0008C01689406C0DA2EEF010E94DF16FE0105
:102EF000E894A5912591359145915591A6F3EF015F
:102F00000E94CF14FE019701A801DA9469F7DF90BF
:102F1000EF90FF900F911F91CF91DF91089597FB54
:102F2000072E16F4009407D077FD09D00E94A3174E
:102F300007FC05D03EF4909581959F4F08957095BC
:102F400061957F4F0895AA1BBB1B51E107C0AA1FC3
:102F5000BB1FA617B70710F0A61BB70B881F991F3A
:102F60005A95A9F780959095BC01CD010895EE0F73
:0E2F7000FF1F0590F491E02D0994F894FFCF17
:102F7E001003000100010001FFFFFFFF00E1000050
:102F8E000000000001000000000000000000000032
:102F9E000000000000000000000000000000000023
:102FAE000000000000000000000000000000000013
:102FBE000000000000000000000000000000000003
:102FCE0000000000000000000000000000000000F3
:102FDE0000000000000000000000000000000000E3
:102FEE00000000000000000001000100000000C110
:102FFE0080810000000000000003046E0524041907
:10300E00046A0428044604000000002807F305AAF9
:10301E0007A907493A20004C3A0020523A002056A0
:10302E003A20000D0A006E616E00696E66006F76C2
:0A303E00660046696E616C200A000E
:00000001FF
