:100000000C947B030C94A3030C94A3030C94A30300
:100010000C94A3030C94A3030C94A3030C94A303C8
:100020000C94A3030C94A3030C949A090C94090A4E
:100030000C94A3030C94A3030C94A3030C94A303A8
:100040000C94A3030C94A3030C94A3030C94A30398
:100050000C94A3030C94A3030C94A3030C943B0CE7
:100060000C94A3030C94A3030C94A3030C94A30378
:100070000C94A3030C94A3030C94A3030C94A30368
:100080000C94A3030C94A3030C94A3030C94A30358
:100090000C94A3030C94A3030C94A3030C94A30348
:1000A0000C94A3030C94A3030C94A30305A84CCDB8
:1000B000B2D44EB93836A9020C50B9918688083CA2
:1000C000A6AAAA2ABE000000803F00000000003E51
:1000D0005B4F5B3E3E6B4F6B3E1C3E7C3E1C183CB8
:1000E0007E3C181C577D571C1C5E7F5E1C00183C14
:1000F0001800FFE7C3E7FF0018241800FFE7DBE75D
:10010000FF30483A060E2629792926407F05050743
:10011000407F05253F5A3CE73C5A7F3E1C1C08089F
:100120001C1C3E7F14227F22145F5F005F5F060964
:100130007F017F006689956A606060606094A2FFBD
:10014000A29408047E040810207E201008082A1CAF
:1001500008081C2A08081E101010100C1E0C1E0C7B
:1001600030383E3830060E3E0E060000000000001B
:10017000005F00000007000700147F147F14242A8A
:100180007F2A12231308646236495620500008075C
:100190000300001C2241000041221C002A1C7F1C7D
:1001A0002A08083E0808008070300008080808087F
:1001B000000060600020100804023E5149453E00E6
:1001C000427F400072494949462141494D33181444
:1001D000127F1027454545393C4A49493141211193
:1001E00009073649494936464949291E0000140085
:1001F00000004034000000081422411414141414A8
:10020000004122140802015909063E415D594E7C05
:100210001211127C7F494949363E414141227F41BA
:1002200041413E7F494949417F090909013E414118
:1002300051737F0808087F00417F41002040413F03
:10024000017F081422417F404040407F021C027F12
:100250007F0408107F3E4141413E7F090909063E67
:100260004151215E7F091929462649494932030136
:100270007F01033F4040403F1F2040201F3F403848
:10028000403F631408146303047804036159494D23
:1002900043007F4141410204081020004141417F59
:1002A00004020102044040404040000307080020CF
:1002B000545478407F2844443838444444283844CF
:1002C00044287F385454541800087E090218A4A406
:1002D0009C787F0804047800447D40002040403D25
:1002E000007F1028440000417F40007C047804789F
:1002F0007C080404783844444438FC182424181832
:10030000242418FC7C08040408485454542404048D
:100310003F44243C4040207C1C2040201C3C40307A
:10032000403C44281028444C9090907C4464544CA9
:100330004400083641000000770000004136080004
:1003400002010204023C2623263C1EA1A161123AAE
:100350004040207A385454555921555579412154FB
:10036000547841215554784020545579400C1E5200
:1003700072123955555559395454545939555454A4
:10038000580000457C410002457D420001457C400B
:10039000F0292429F0F0282528F07C545545002028
:1003A00054547C547C0A097F4932494949323248C5
:1003B000484832324A4848303A4141217A3A42402C
:1003C0002078009DA0A07D39444444393D40404000
:1003D0003D3C24FF2424487E4943662B2FFC2F2BD1
:1003E000FF0929F620C0887E090320545479410072
:1003F00000447D413048484A32384040227A007AF1
:100400000A0A727D0D19317D2629292F28262929CE
:10041000292630484D4020380808080808080808F0
:10042000382F10C8ACBA2F102834FA00007B000017
:1004300008142A142222142A14089500220095AACE
:10044000005500AAAA55AA55AA000000FF001010E6
:1004500010FF00141414FF001010FF00FF1010F024
:1004600010F0141414FC001414F700FF0000FF0037
:10047000FF1414F404FC141417101F10101F101F85
:100480001414141F00101010F0000000001F1010B2
:1004900010101F10101010F010000000FF101010AE
:1004A000101010101010FF10000000FF140000FFCB
:1004B00000FF00001F10170000FC04F414141710B4
:1004C000171414F404F40000FF00F71414141414A7
:1004D0001414F700F7141414171410101F101F141D
:1004E0001414F4141010F010F000001F101F00007E
:1004F000001F14000000FC140000F010F01010FFAA
:1005000010FF141414FF141010101F00000000F04E
:1005100010FFFFFFFFFFF0F0F0F0F0FFFFFF000023
:10052000000000FFFF0F0F0F0F0F38444438447CCA
:100530002A2A3E147E02020606027E027E026355CD
:100540004941633844443C04407E201E2006027E1C
:10055000020299A5E7A5991C2A492A1C4C7201722E
:100560004C304A4D4D303048784830BC625A463D98
:100570003E494949007E0101017E2A2A2A2A2A444D
:10058000445F444440514A444040444A5140000082
:10059000FF0103E080FF000008086B6B083612368D
:1005A0002436060F090F060000181800000010106E
:1005B000003040FF0101001F01011E00191D17122C
:1005C000003C3C3C3C0000000000F0F89C8E87831F
:1005D000878E9CF8F00000FEFF0303030303070E61
:1005E000FCF80000FEFF0303030303070EFCF80002
:1005F00000FFFF00000000000000FFFF0000FEFF02
:100600008383838383C7EE7C380000F8FC0E0703E6
:100610000303070EFCF800003F7FE0C08080C0E0CD
:100620007F3FFFFF01010101010101FFFF0000FF0A
:10063000FF0C0C0C0C1C3E77E3C100007FFFC0C018
:10064000C0C0C0E0703F1F00001F3F70E0C0C0C0CE
:10065000E0703F1F00007FFFC1C1C1C1C1E3773E11
:100660001C00001F3F70E0C0C0C0E0703F1F0000D2
:1006700000000001FFFF01000000D5F08D14A1C8AB
:1006800081CFD9F1AF2000080B000202020000095F
:1006900004000001020200000524001001052401ED
:1006A0000101042402060524060001070581031048
:1006B000004009040100020A000000070502024090
:1006C0000000070583024000000403090412010032
:1006D00002EF020140412336800001010203014183
:1006E000726475696E6F204C4C4300417264756290
:1006F0006F790000B80C11241FBECFEFDAE0DEBF27
:10070000CDBF11E0A0E0B1E0E8EBFAE202C0059055
:100710000D92AE3BB107D9F726E0AEEBB1E001C0D8
:100720001D92AF33B207E1F713E0CBE7D3E004C08B
:100730002197FE010E945415CA37D107C9F70E94BC
:10074000D50C0C945A150C940000EBEEF1E0A0E0EF
:10075000B8E000800EBC8111012C1197A0FDFDCFE7
:100760000192B9F70DB40895FC018091EA01882344
:1007700011F13FB7F89482E08093E9002091F200F4
:10078000822F90E01816190614F481E090E0882377
:1007900039F0289844E64093E9014091F100408304
:1007A000222339F02091F200211103C02BE620937F
:1007B000E8003FBF08958FEF9FEF08952FB7F8949B
:1007C00083E08093E9009091E800892F807295FF83
:1007D00004C09091F20080E4891B2FBF089580919E
:1007E000E10181110DC082E08093DD0184E08093FE
:1007F000DE011092E0011092DF0181E08093E101BF
:100800008DED91E00895CF93DF931F92CDB7DEB7C2
:100810006983DC01ED91FC910280F381E02D41E0E0
:1008200050E0BE016F5F7F4F09950F90DF91CF9130
:10083000089583E08093E9008091F200882319F005
:100840008AE38093E80008950E94DE0390E0089513
:10085000CF93DF931F92CDB7DEB7FC0184859585DA
:1008600097FD08C02FEF3FEF358724870F90DF916A
:10087000CF910895CE0101960E94B403019719F417
:10088000898190E0F3CF8FEF9FEFF0CF0F931F930D
:10089000CF93DF931F92CDB7DEB78C01FC01848527
:1008A000958597FF0BC0CE0101960E94B403019776
:1008B00071F4898190E0F80195878487F801848537
:1008C00095850F90DF91CF911F910F9108958FEF34
:1008D0009FEFF1CFFC018485958597FD0BC09FB7F5
:1008E000F89482E08093E9008091F2009FBF90E04D
:1008F000019608959FB7F89482E08093E900809173
:10090000F2009FBF90E008954091D7015091D80127
:100910002091D5013091D60142175307B4F490913C
:10092000E8009570E1F39091E80092FD19C0809382
:10093000F1008091D7019091D80101968F7399278A
:10094000892B19F48EEF8093E8008091D701909164
:10095000D80101969093D8018093D70181E0089542
:1009600080E00895DF92EF92FF920F931F93CF9351
:10097000DF93D82E8A01EB017B01E40EF51ECE1524
:10098000DF0559F0D7FE12C0FE0184910E94840455
:1009900021968111F4CF0FEF1FEFC801DF91CF91A6
:1009A0001F910F91FF90EF90DF9008958881EECF17
:1009B0000F931F93CF93DF931F92CDB7DEB782E0E3
:1009C000898342E450E067E876E080E80E94B20460
:1009D0000E94EF03DC0112960D911C910115110587
:1009E00089F0D801ED91FC910280F381E02DBE01E8
:1009F0006F5F7F4FC801099597FD04C0F80100851E
:100A00001185ECCF89810F90DF91CF911F910F91CC
:100A10000895615030F02091F100FC01208301968F
:100A2000F8CF289884E68093E90108953FB7F894B9
:100A30008091D1019091D201A091D301B091D401C4
:100A400026B5A89B05C02F3F19F00196A11DB11D29
:100A50003FBFBA2FA92F982F8827BC01CD01620F65
:100A6000711D811D911D42E0660F771F881F991F20
:100A70004A95D1F708958F929F92AF92BF92CF92ED
:100A8000DF92EF92FF926B017C010E9416054B01F1
:100A90005C01C114D104E104F104B9F00E9416050F
:100AA000681979098A099B09683E73408105910597
:100AB00080F321E0C21AD108E108F10888EE880E1F
:100AC00083E0981EA11CB11CE4CFFF90EF90DF9053
:100AD000CF90BF90AF909F908F9008958F929F92EC
:100AE000AF92BF92CF92DF92EF92FF920F931F933C
:100AF000CF93DF936C017B018A01809112018823DF
:100B000009F45CC08091EA01882309F457C0809100
:100B1000DC0180FF05C08091E00082608093E000EE
:100B2000E801B12C8AEFA82E93E0892E2AE3922EB9
:100B3000209711F4BB20D9F10E94DE0381110AC075
:100B4000AA94AA20D9F161E070E080E090E00E94D0
:100B50003B05EECF8C171D0611F00CF08C2F9FB7C4
:100B6000F8948092E9002091E80025FD02C09FBF23
:100B7000DFCF282F30E0C21BD30BF701815020F0CC
:100B800041914093F100FACFE20EF31EBB2021F019
:100B90009092E800B12CEBCF8091E80085FDE7CF83
:100BA0009092E800BB24B394209709F3F3CF5D98AB
:100BB00084E68093DB01101611063CF081E090E0A2
:100BC000F6019383828310E000E0C801DF91CF91AA
:100BD0001F910F91FF90EF90DF90CF90BF90AF905B
:100BE0009F908F900895AF92BF92CF92DF92EF9235
:100BF000FF920F931F93CF93DF936C017B018B01C7
:100C0000040F151FEB015E01AE18BF08C017D10716
:100C100059F06991D601ED91FC910190F081E02DA0
:100C2000C6010995892B79F7C501DF91CF911F91F5
:100C30000F91FF90EF90DF90CF90BF90AF9008950D
:100C40002D9A0895BC0190E080E00C943B058FB193
:100C50008095807F669B88601C9B8460089580E0FF
:100C6000EBEEF1E081118FEF00248193819381936A
:100C700081930394D1F71092BF011092BE0110929C
:100C8000C1011092C00108959091C601982329F4E2
:100C90009091C701982381E009F480E0089580E0F5
:100CA0000C94A50380389105B8F460347105A0F464
:100CB00020E191E061FD94E060FD990F62FD929565
:100CC000687F269FD0011124A80FA551BE4F8C919B
:100CD00040FF03C0892B8C93089590958923FBCF07
:100CE0008F929F92AF92BF92CF92DF92EF92FF923C
:100CF0000F931F93CF93DF936D3089F0C090BE01A7
:100D0000D090BF016A30D1F41092C1011092C0019D
:100D100088E0C80ED11CD092BF01C092BE0181E014
:100D200090E0DF91CF911F910F91FF90EF90DF90B6
:100D3000CF90BF90AF909F908F9008950091C00189
:100D40001091C101E5E06E9FE0011124C653DF4F11
:100D50004801F12CF5E0E12CFF1629F0CE010196B7
:100D6000FE01E490EC01B12CA12C4E2D4170B60196
:100D70006A0D7B1DC4010E945206E694FFEFAF1A74
:100D8000BF0A88E0A816B10481F7F394EFEF8E1A3A
:100D90009E0AF6E0FF12DECF0A5F1F4F1093C101DB
:100DA0000093C001BCCFFC01CB01209177013091B1
:100DB0007801B9010E942C15AC01440F551FE40FB6
:100DC000F51F215031098217930734F44281538172
:100DD000419351930196F7CF309378012093770197
:100DE0000895089590E080E00895FC0101900020AE
:100DF000E9F73197AF01481B590BBC018BE396E033
:100E00000C94F3050C94F5068F929F92AF92BF92CB
:100E1000CF92DF92EF92FF920F931F93CF93DF93C6
:100E2000CDB7DEB7A1970FB6F894DEBF0FBECDBF2A
:100E30006C01990FEE08FF08F7FE41C06DE28BE3ED
:100E400096E00E9470068C0122273327A9012C19F5
:100E50003D094E095F0919A2CE0181967C019AE0F5
:100E6000892E912CA12CB12CCA01B901A5019401A4
:100E70000E945612605DF70162937F0121153105D2
:100E80004105510589F790E080E0309719F0CF01D6
:100E90000E94F506800F911FA1960FB6F894DEBF51
:100EA0000FBECDBFDF91CF911F910F91FF90EF90BB
:100EB000DF90CF90BF90AF909F908F900895A70143
:100EC000960119A28E010F5D1F4F8AE0C82ED12C0A
:100ED000E12CF12CCA01B901A70196010E9456121A
:100EE000605DF80162938F012115310541055105BF
:100EF00089F790E080E0309779F2CF010E94F50603
:100F0000CBCF2F923F924F925F926F927F928F92B0
:100F10009F92AF92BF92CF92DF92EF92FF920F9388
:100F20001F93CF93DF9300D000D000D0CDB7DEB7B2
:100F30008C017E836D835C834B836B5F7F4F41E0CD
:100F40000E9452066D817E816550710941E0C801A1
:100F50000E94520641E06D817E81C80105960E9483
:100F6000520641E06D817E81C80105970E945206BC
:100F700081E090E09A838983D12CC12C85E0E82E12
:100F8000F12C96EF292E33243A942CEFA22EBB2479
:100F9000BA949FEFC91AD90A89819A8102969A83D5
:100FA0008983A80EB91E3601600E711E41E08D8046
:100FB0009E808E0C9F1CB401C3010E945206280122
:100FC0004C185D0841E0B401C2010E94520641E0A4
:100FD0008D809E808E189F08B401C3010E94520626
:100FE00041E0B401C2010E9452068D809E808C0CAB
:100FF0009D1C41E0B40138016E0C7F1CC3010E94AE
:10100000520641E0B40128014E185F08C2010E9457
:1010100052068D809E808C189D0841E0B401C3016A
:101020000E94520641E0B401C2010E945206CE1451
:10103000DF044CF1025011091093C1010093C0016B
:101040008D819E8103979093BF018093BE018B8118
:101050009C8126960FB6F894DEBF0FBECDBFDF9100
:10106000CF911F910F91FF90EF90DF90CF90BF90A5
:10107000AF909F908F907F906F905F904F903F9038
:101080002F900C940407B7FC84CF91E0E91AF10883
:1010900082E0280E311CA20CB31C7BCFEF92FF9292
:1010A0000F931F93CF93DF938C01E0907701F09023
:1010B0007801C7010E94040783EA91E00E940207B9
:1010C000E80110E000E00E151F053CF489919991AC
:1010D0000E9404070F5F1F4FF6CF83EB91E0DF9173
:1010E000CF911F910F91FF90EF900C9402072F92D8
:1010F0003F924F925F926F927F928F929F92AF92A8
:10110000BF92CF92DF92EF92FF920F931F93CF93F4
:10111000DF93F12CE12CF9E02F2E312C6091770137
:1011200070917801CB01880F991FE816F9060CF031
:10113000ECC0C7010E942C15EC01FC01EE0FFF1F53
:10114000ED5EFE4F80819181019609F0DAC0209119
:10115000770130917801233031050CF4D2C06E0153
:1011600041E0C41AD108490151E0851A910820973D
:1011700029F0C601B9010E942C154C01C401880F49
:10118000991FFC01ED5EFE4F2F01008111815E0170
:10119000FFEFAF1ABF0AC501B9010E942C15FC016F
:1011A000EE0FFF1FED5EFE4F6080718082EA91E0DE
:1011B0000E94020786EA91E00E940207C4010E9491
:1011C000040789EA91E00E9402076091770170911B
:1011D0007801C5010E942C150E9404078DEA91E058
:1011E0000E94020786EA91E00E940207C8010E945D
:1011F000040789EA91E00E940207C3010E940407E4
:1012000082EB91E00E94F5060615170509F079C0FA
:1012100020917701309178010F3F100709F471C0D8
:10122000CE01B9010E942C15FC01EE0FFF1FED5EEF
:10123000FE4F808191818F3F980779F50F5F1F4F97
:1012400011830083F20111821082C501B9010E944D
:101250002C15FC01EE0FFF1FED5EFE4F3182208248
:10126000209729F561E070E083E191E00E94D306C8
:1012700060917701709178016150710983E191E08B
:101280000E94D30680917701909178010397CCF169
:1012900083E191E00E944E085ACF801791071CF419
:1012A0000E5F1F4FCDCF019691838083CBCFBC01C2
:1012B00083E191E00E94D3066091770170917801FB
:1012C000C601C617D70719F4CE010297BE010E94C6
:1012D0002C15BC0183E191E00E94D3068091770137
:1012E0009091780103976CF083E191E00E944E08A1
:1012F0006091770170917801C6010E942C15EC0174
:1013000026CFFFEFEF1AFF0A09CFDF91CF911F9190
:101310000F91FF90EF90DF90CF90BF90AF909F9094
:101320008F907F906F905F904F903F902F90089597
:101330000C940E121F920F920FB60F9211248F93DE
:101340009F938091E1009091E100937F9093E10061
:1013500083FF0FC01092E90091E09093EB00109290
:10136000EC0092E39093ED001092EA0198E09093E4
:10137000F00082FF22C093E09093E9009091F20088
:10138000992319F09AE39093E8009091DB01992357
:1013900041F09091DB0191509093DB01911101C0DC
:1013A0005D9A9091E901992341F09091E901915062
:1013B0009093E901911101C0289A84FF18C080918F
:1013C000E2008E7E81608093E2008091E1008F7E5A
:1013D0008093E1008091DC018E7E80618093DC014E
:1013E0009F918F910F900FBE0F901F90189580FFC7
:1013F000F7CF8091E2008E7E80618093E200809141
:10140000E1008E7E8093E1008091DC018E7E816020
:10141000E5CF1F920F920FB60F921124CF92DF9259
:10142000EF92FF920F931F932F933F934F935F93EE
:101430006F937F938F939F93AF93BF93EF93FF939C
:10144000CF93DF93CDB7DEB76C97DEBFCDBF1092E1
:10145000E9008091E80083FF25C068E0CE01459651
:101460000E94090582EF8093E8008D8987FF39C0CB
:101470009091E80090FFFCCF982F907609F034C14E
:101480009E894F89588D2F89F88C911131C08038F1
:1014900061F58091DA018093F1001092F1008EEFF6
:1014A0008093E8006C960FB6F894DEBF0FBECDBFF8
:1014B000DF91CF91FF91EF91BF91AF919F918F916C
:1014C0007F916F915F914F913F912F911F910F915C
:1014D000FF90EF90DF90CF900F900FBE0F901F9076
:1014E00018959EEF9093E800C7CF1092F100D5CFEA
:1014F000913059F48111D3CF4130510581F680915B
:10150000DA018D7F8093DA01CACF933049F48111DB
:10151000C6CF4130510519F68091DA018260F2CFD1
:10152000953041F48091E80080FFFCCF2068209343
:10153000E300B5CF963009F0A9C00B8D1C8D22E0D9
:101540001092E9001092D8011092D701F2122EC029
:101550001092D6011092D5010E94D8041F8299E002
:101560009983FA8291E09E8390EA98879AEF99870F
:101570002091D7013091D801275F3F4F3C832B83C7
:101580008D831092E9001092D8011092D701109328
:10159000D6010093D50149E050E0BE016F5F7F4F57
:1015A00080E00E94B2040E94D80479CF1093D60143
:1015B0000093D5010E94EF03DC0112960D911C915E
:1015C0000115110509F451C1D801ED91FC91048078
:1015D000F581E02DBE016B5E7F4FC8010995009734
:1015E00009F03EC1F80100851185EACFF3E0FF1252
:1015F0000EC08F89882309F440C0823061F440E82E
:1016000067E08BEE96E00E94850C811148CF81E265
:101610008093EB0047CF813029F440E86BE08FEDF9
:1016200096E0F1CF833099F70E94EF03DC01129628
:10163000ED90FC908E010F5F1F4F6801E114F104E3
:1016400079F0D701ED91FC910680F781E02DB8018A
:10165000C7010995080F111DF701E084F184EECF51
:10166000D8011C92F60101900020E9F73197BF01E3
:101670006C197D0940E0C601C6CF69EC76E0FB013C
:10168000449150E080E80E94B20409CF973009F4F9
:10169000BECF983021F481E08093F10000CF9930E3
:1016A00009F0FDCE837009F0B2CFEEE7F1E081E002
:1016B00031E096E32191222371F08093E900309389
:1016C000EB00DF0111972C912093EC009093ED003B
:1016D0008F5F873079F78EE78093EA001092EA00F7
:1016E0008F898093EA01DBCE8B8D9C8D1092E9006F
:1016F0001092D8011092D7019093D6018093D50112
:10170000898D811192C08E899D89913A49F48132E7
:1017100009F07DCF47E050E06BE071E080E0B3CFAF
:10172000913209F074CF833269F48F89988DB0E0DB
:10173000A0E08093070190930801A0930901B09362
:101740000A01ADCE803269F48091E80082FFFCCFBF
:1017500067E08BE091E00E9409058BEF8093E80041
:101760009ECE823209F09BCE8F8980931201EEEFDC
:10177000FFE7859194918B3F9C4D51F1E0E0F8E0BB
:1017800080910B0190910C01A0910D01B0910E017F
:10179000803B9440A105B105F1F48091120180FDD8
:1017A0001AC0EE3F8AE0F80789F587E797E791834B
:1017B0008083809160008093D90188E19BE00FB61F
:1017C000F894A895809360000FBE9093600067CE58
:1017D000EEEFFAE0D5CF808191818737974709F006
:1017E0005ECEA895809160008861809360008091B2
:1017F000D90180936000EE3F2AE0F20789F08091E2
:10180000FE0A9091FF0A9183808349CE8081918165
:101810008737980751F29093FF0A8093FE0AC5CF4D
:101820001092FF0A1092FE0A3ACE0E94EF03DC01EA
:1018300012960D911C910115110509F4E8CED801FD
:10184000ED91FC910190F081E02DBE016B5E7F4F28
:10185000C8010995811123CEF80100851185EBCFD0
:10186000181619060CF41BCED2CEF1E0FF12BECE34
:101870006DEC76E004CF1F920F920FB60F921124F9
:101880002F933F938F939F93AF93BF938091CD01FD
:101890009091CE01A091CF01B091D0013091CC01B7
:1018A00023E0230F2D3758F50196A11DB11D20937C
:1018B000CC018093CD019093CE01A093CF01B09342
:1018C000D0018091D1019091D201A091D301B0912A
:1018D000D4010196A11DB11D8093D1019093D20135
:1018E000A093D301B093D401BF91AF919F918F91F9
:1018F0003F912F910F900FBE0F901F90189526E8E3
:10190000230F0296A11DB11DD2CFEF92FF920F932C
:101910001F93CF93DF93F82E192FE62E042F81E02B
:10192000860F880F0E94840483E00E948404CF2DD8
:10193000D12FEC0EFD2EF11CCE15DF05B9F007FFFF
:1019400013C0FE0184910E948404182F80E00E943D
:101950008404812321968111EFCFDF91CF911F91D4
:101960000F91FF90EF9008958881EDCF81E0F5CF42
:10197000EBEEF5E01382128288EE93E0A0E0B0E097
:1019800084839583A683B78388E891E091838083DD
:101990008FEF9FEF95878487EBE3F6E01382128247
:1019A0008AE991E0918380830895789484B5826078
:1019B00084BD84B5816084BD85B5826085BD85B5F3
:1019C000816085BD80916E00816080936E00109271
:1019D00081008091810082608093810080918100EC
:1019E000816080938100809180008160809380007D
:1019F000809191008260809391008091910081603C
:101A000080939100809190008160809390008091FC
:101A1000C10084608093C1008091C1008260809386
:101A2000C1008091C10081608093C1008091C3009A
:101A300081608093C3008091C00082608093C00069
:101A40008091C20081608093C20080917A0084609E
:101A500080937A0080917A00826080937A008091EE
:101A60007A00816080937A0080917A008068809308
:101A70007A001092EA011092DA011092DC01809152
:101A8000D70081608093D70080EA8093D80089B521
:101A9000806189BD89B5826089BD09B400FEFDCF32
:101AA00061E070E080E090E00E943B058091D8000A
:101AB0008F7C80618093D8008091E000807F80934C
:101AC000E0008091E1008E7E8093E1008DE08093C4
:101AD000E200559A209A81EC80937C0085B1806F5A
:101AE00085B984B1877E84B984B1876E84B95E9AE2
:101AF0005F988AB1806D8AB9769A6E9881B3806F4B
:101B000081BB899880B38D7080BB80E58CBD81E0FE
:101B10008DBD85E090E00E9422065F9A85E090E00E
:101B20000E9422065E985C98EAE7F6E087E896E075
:101B300024912EBD00000DB407FEFDCF31968E1707
:101B40009F07B1F75C9A81E88093640080916500FB
:101B50008160809365000E944F060E94270687FFE0
:101B600015C05C9885EA8EBD00000DB407FEFDCF60
:101B70005C9A2E982F982D988091640080628093B3
:101B8000640081E083BF889513BEFCCF0E942706C6
:101B900082FF48C02D980E94270684788438E1F49B
:101BA0000E94200688EC90E00E9422062F9882E096
:101BB00090E00E940E128F3F29F06FEF82E090E0DC
:101BC0000E94161284EF91E00E9422062F9A0E9432
:101BD000270684788438D9F30E94270684718431DB
:101BE000E1F40E94200688EC90E00E9422062E98E4
:101BF00082E090E00E940E12882329F060E082E0EB
:101C000090E00E94161284EF91E00E9422062E9A24
:101C10000E94270684718431D9F388EC90E00E94F9
:101C20002206B4CF0E94200682E090E00E9498092C
:101C3000882309F465C03E9A3F9A81E090E00E94B3
:101C40009809282F2470722E81FF0EC021112E9822
:101C5000C1EFDFEF08E010E00E94270686FF53C0C7
:101C60002E9A2F9A0E94200682E390E00E9422067C
:101C70000E9427068111F8CF0E942F068091CA0189
:101C80009091CB01019771F483E191E00E944E089D
:101C90000E94770885EB91E00E94020783E191E0C2
:101CA0000E944E080E944F0680E10E94440688234D
:101CB00031F08091060191E089278093060184E04C
:101CC0000E944406882309F4DCC081E090E09093F0
:101CD000CB018093CA010E942F0683E191E00E940C
:101CE0004E080E944F060E94770885EB91E00E9403
:101CF000020783E191E00E944E080E944F06FFCF49
:101D00003E983F989ACF772029F0C430D10511F43E
:101D10002E9A2F9881E00E94A5039E01D7FF04C050
:101D2000222733272C1B3D0B27703327CE01D7FDED
:101D30000796E3E095958795EA95E1F7D7FF05C00B
:101D40000197A801421B530B9A01AC015695542FE1
:101D500044275795479545515E4FF12CE12C2801BA
:101D6000421A530A8E3F6FEF960709F43AC0DA0120
:101D700070E060E0F701E653FA4F5F014A01F0E8D6
:101D80008F0E911C8F3F980781F0F501E60FF71F2A
:101D9000E491022E01C0EE0F0A94EAF75496FC91EA
:101DA0005497EF2B5496EC9354972115310599F0E5
:101DB000F501E60FF71FE4916401C60ED71EF0E0AF
:101DC0001F01042C02C0359427940A94E2F7F6010F
:101DD00064882628248A6F5F7F4F119668357105C5
:101DE00089F60196F8E5EF0EF11C40585F4F60EB65
:101DF000E616F10409F0B6CF0E944F068FE090E09E
:101E00000E9422062196C931D10509F025CF7720FD
:101E100011F02F9A2D9880E991E00E9422060E94ED
:101E2000200681E090E00E94980980FF1DCF8AE0A3
:101E300090E00E9498099FEF980F9E3F08F014CF02
:101E400022E330E03093C1012093C00128E330E069
:101E50003093BF012093BE01CBE0D0E0682F8BE32D
:101E600096E00E947006CE010E9498092196C13129
:101E7000D105A1F70E944F0688EE93E00E9422064A
:101E8000F3CEC091CA01D091CB01209709F01AC2BC
:101E90008091C7018093C6010E9427068093C701E5
:101EA00088E00E944406882309F4B4C02091770199
:101EB00030917801E0910401F09105018091C80111
:101EC0009091C90101964091C4015091C5014F5FA5
:101ED0005F4F5093C5014093C401B9010E942C1576
:101EE000A9014F5F5F4F5093780140937701D9016B
:101EF000AA0FBB1FAD5EBE4F12978217930754F413
:101F0000215031094D915C91119713965C934E933A
:101F10001297F2CF880F991FDC01AD5EBE4FED9393
:101F2000FC938091060181110E947708E0910201E3
:101F3000F091030120910001309101018091C401D1
:101F40009091C50168E270E00E942C15892B59F42C
:101F50003196F0930301E09302012F5F3F4F3093DE
:101F60000101209300018091020190910301C09032
:101F70000001D09001014C01092E000CAA08BB08F9
:101F80009C012C0D3D1D82179307ACF40D2C000C09
:101F9000EE08FF08C114D104E104F10441F00E94ED
:101FA000B611A70196010E9424126B017C018C0CD2
:101FB0009D1CAE1CBF1C90920501809204010E94E2
:101FC000B61124E030E040E050E00E942412672B7C
:101FD000682B692B31F4EFEFFFEFF0930501E093ED
:101FE00004018091C2019091C301059754F04FEF15
:101FF0005FEF50930501409304011092C3011092CA
:10200000C2018091C2019091C30101969093C301D6
:102010008093C20180E20E944406009177011091F2
:102020007801882369F08091C8019091C901181640
:1020300019060CF076C001979093C9018093C801EE
:1020400080E40E944406882379F08091C801909131
:10205000C90101501109801791070CF064C0019665
:102060009093C9018093C8010E942F0603E111E0FB
:102070006091770170917801C617D7070CF058C0AE
:10208000F801A190B1908F01072E000C880B990BDD
:102090000E94A3139B01AC016BED7FE089EC90E4FF
:1020A0000E94F9126B017C01BE010D2E000C880B01
:1020B000990B0E94A3139B01AC01C701B6010E94BA
:1020C0006E146B017C010E94F4122B013C01C701CC
:1020D000B6010E94DB1420E030E040EC51E40E94A5
:1020E0006E1420E030E040E052E40E9488120E942A
:1020F0006B136B0120E030E040EC51E4C301B2010E
:102100000E946E1420E030E040E852E40E94881201
:102110000E946B13CB01A501B6010E948107219695
:10212000A7CFC80188CF1092C9011092C8019CCFD7
:10213000409104015091050160E270E080E490E07C
:102140000E94810760917701709178016115710596
:1021500009F4B6C0072E000C880B990B0E94A3133C
:102160009B01AC016BED7FE089EC90E40E94F912D9
:102170006B017C016091C8017091C901072E000CB0
:10218000880B990B0E94A313A70196010E946E145D
:102190004B015C0120E030E040E05FE3C701B601A5
:1021A0000E946E149B01AC01C501B4010E9488120B
:1021B0006B017C010E94DB1420E030E040EC51E434
:1021C0000E946E1420E030E040E052E40E94881249
:1021D0000E946B132B01EB01C701B6010E94F412A0
:1021E00020E030E040EC51E40E946E1420E030E04A
:1021F00040E852E40E9488120E946B138B01620136
:10220000F0E2CF1AD108D7FE03C0D194C194D1080F
:102210004B0120E4821A910897FE03C091948194A7
:10222000910880E490E030E2E32EF12C8C149D04C0
:102230003CF0EB01820180E290E040E4E42EF12CDE
:10224000CE15DF0554F0302F212F8C01832F922FD4
:102250003C2F2D2FE701E32EF22E17012C1A3D0AF9
:102260003C01601A710A77FE03C071946194710891
:10227000210137FE03C04FEF441A540A5594479486
:1022800008171907DCF481E0A82E880FBB08EC16AC
:10229000FD06B4F041E0BE01C8018C149D0414F0A9
:1022A000B801CE010E9452064618570857FE04C0D6
:1022B0000A0D1B1D420C531C2196E9CF8FEFE4CF72
:1022C0000E944F0680E090E0892B09F4EDCC0E943B
:1022D0000000EACC8F929F92AF92BF92CF92DF9292
:1022E000EF92FF92CF93DF93EC01688179818A812D
:1022F0009B81611571058105910521F464E279EDF9
:102300008BE597E02DE133EF41E050E00E9424128D
:1023100049015A019B01AC01A7EAB1E40E944312B2
:102320006B017C01ACEEB4EFA50194010E94511247
:10233000C60ED71EE81EF91EF7FE06C081E0C81AB9
:10234000D108E10880E8F80AC882D982EA82FB82D3
:10235000C701B6019F77DF91CF91FF90EF90DF909B
:10236000CF90BF90AF909F908F9008958F929F9243
:10237000AF92BF92CF92DF92EF92FF92609179017C
:1023800070917A0180917B0190917C0161157105BA
:102390008105910521F464E279ED8BE597E02DE16B
:1023A00033EF41E050E00E94241249015A019B01A1
:1023B000AC01A7EAB1E40E9443126B017C01ACEED0
:1023C000B4EFA50194010E945112C60ED71EE81E5B
:1023D000F91EF7FE06C081E0C81AD108E10880E8BE
:1023E000F80AC0927901D0927A01E0927B01F092D2
:1023F0007C01C701B6019F77FF90EF90DF90CF90EF
:10240000BF90AF909F908F900895609379017093E3
:102410007A0180937B0190937C010895F999FECF16
:1024200092BD81BDF89A992780B50895262FF99914
:10243000FECF1FBA92BD81BD20BD0FB6F894FA9AA7
:10244000F99A0FBE01960895052E97FB1EF400948D
:102450000E943B1257FD07D00E94561207FC03D082
:102460004EF40C943B1250954095309521953F4F7A
:102470004F4F5F4F089590958095709561957F4F70
:102480008F4F9F4F08950E947812A59F900DB49F83
:10249000900DA49F800D911D11240895B7FF0C94F9
:1024A00043120E944312821B930B0895A1E21A2E3D
:1024B000AA1BBB1BFD010DC0AA1FBB1FEE1FFF1FE8
:1024C000A217B307E407F50720F0A21BB30BE40B38
:1024D000F50B661F771F881F991F1A9469F760957F
:1024E0007095809590959B01AC01BD01CF01089539
:1024F000A29FB001B39FC001A39F700D811D112445
:10250000911DB29F700D811D1124911D0895505889
:10251000BB27AA270E949F120C9420140E94E71345
:1025200038F00E94EE1320F039F49F3F19F426F49E
:102530000C94E4130EF4E095E7FB0C94DE13E92F02
:102540000E94451458F3BA1762077307840795076A
:1025500020F079F4A6F50C9467140EF4E0950B2E98
:10256000BA2FA02D0B01B90190010C01CA01A001E5
:102570001124FF27591B99F0593F50F4503E68F140
:102580001A16F040A22F232F342F4427585FF3CF81
:10259000469537952795A795F0405395C9F77EF452
:1025A0001F16BA0B620B730B840BBAF09150A1F09B
:1025B000FF0FBB1F661F771F881FC2F70EC0BA0F21
:1025C000621F731F841F48F4879577956795B795A9
:1025D000F7959E3F08F0B0CF9395880F08F09927A4
:1025E000EE0F9795879508950E94F713E3950C9445
:1025F00031140E940D130C9420140E94EE1358F015
:102600000E94E71340F029F45F3F29F00C94DE1399
:1026100051110C9468140C94E4130E94451468F34F
:102620009923B1F3552391F3951B550BBB27AA278B
:1026300062177307840738F09F5F5F4F220F331FC5
:10264000441FAA1FA9F335D00E2E3AF0E0E832D08D
:1026500091505040E695001CCAF72BD0FE2F29D090
:10266000660F771F881FBB1F261737074807AB0762
:10267000B0E809F0BB0B802DBF01FF2793585F4FD7
:102680003AF09E3F510578F00C94DE130C946814D8
:102690005F3FE4F3983ED4F3869577956795B795B9
:1026A000F7959F5FC9F7880F911D9695879597F9C4
:1026B0000895E1E0660F771F881FBB1F621773073D
:1026C0008407BA0720F0621B730B840BBA0BEE1F52
:1026D00088F7E09508950E9472136894B1110C94E4
:1026E000681408950E944D1488F09F5798F0B92FF0
:1026F0009927B751B0F0E1F0660F771F881F991F37
:102700001AF0BA95C9F714C0B13091F00E9467145D
:10271000B1E008950C946714672F782F8827B85F6D
:1027200039F0B93FCCF3869577956795B395D9F78E
:102730003EF490958095709561957F4F8F4F9F4F98
:102740000895E89409C097FB3EF4909580957095A4
:1027500061957F4F8F4F9F4F9923A9F0F92F96E9ED
:10276000BB279395F695879577956795B795F11162
:10277000F8CFFAF4BB0F11F460FF1BC06F5F7F4FFF
:102780008F4F9F4F16C0882311F096E911C0772311
:1027900021F09EE8872F762F05C0662371F096E81A
:1027A000862F70E060E02AF09A95660F771F881FE9
:1027B000DAF7880F9695879597F9089597F99F67A7
:1027C00080E870E060E008959FEF80EC08950024B9
:1027D0000A941616170618060906089500240A9486
:1027E000121613061406050608950C94E4130E94AD
:1027F0004D14D8F3E894E0E0BB279F57F0F02AEDA2
:102800003FE049EC06C0EE0FBB0F661F771F881F25
:1028100028F0B23A62077307840728F0B25A620BB5
:10282000730B840BE3959A9572F7803830F49A9580
:10283000BB0F661F771F881FD2F790480C94E514D2
:10284000092E0394000C11F4882352F0BB0F40F4BE
:10285000BF2B11F460FF04C06F5F7F4F8F4F9F4FFE
:102860000895EF93E0FF07C0A2EA2AED3FE049ECAC
:102870005FEB0E949F120E9420140F90039401FCB2
:102880009058ECEAF0E00C94F11457FD9058440F86
:10289000551F59F05F3F71F04795880F97FB991FBF
:1028A00061F09F3F79F0879508951216130614067C
:1028B000551FF2CF4695F1DF08C016161706180609
:1028C000991FF1CF86957105610508940895E894E4
:1028D000BB2766277727CB0197F908950E948114BB
:1028E0000C9420140E94E71338F00E94EE1320F09D
:1028F000952311F00C94DE130C94E41311240C9422
:1029000068140E94451470F3959FC1F3950F50E031
:10291000551F629FF001729FBB27F00DB11D639F91
:10292000AA27F00DB11DAA1F649F6627B00DA11D37
:10293000661F829F2227B00DA11D621F739FB00DDD
:10294000A11D621F839FA00D611D221F749F33274D
:10295000A00D611D231F849F600D211D822F762FE6
:102960006A2F11249F5750409AF0F1F088234AF0C3
:10297000EE0FFF1FBB1F661F771F881F915050402F
:10298000A9F79E3F510580F00C94DE130C94681457
:102990005F3FE4F3983ED4F3869577956795B795B6
:1029A000F795E7959F5FC1F7FE2B880F911D9695D0
:1029B000879597F908959F930E94F7130F9007FC4E
:1029C000EE5F0C9431149F3F31F0915020F48795C5
:1029D00077956795B795880F911D9695879597F987
:1029E00008959F938F937F936F93FF93EF939B0132
:1029F000AC010E946E14EF91FF910E9405152F917A
:102A00003F914F915F910C946E14DF93CF931F937E
:102A10000F93FF92EF92DF927B018C01689406C0C6
:102A2000DA2EEF010E948114FE01E894A591259110
:102A3000359145915591A6F3EF010E949F12FE0139
:102A40009701A801DA9469F7DF90EF90FF900F915A
:102A50001F91CF91DF91089597FB072E16F40094F4
:102A600007D077FD09D00E94401507FC05D03EF441
:102A7000909581959F4F0895709561957F4F08952A
:102A8000AA1BBB1B51E107C0AA1FBB1FA617B70794
:102A900010F0A61BB70B881F991F5A95A9F78095B0
:102AA0009095BC01CD010895EE0FFF1F0590F491A4
:082AB000E02D0994F894FFCF1A
:102AB80003000100010001FFFFFFFF00E10000002B
:102AC80000000001000000000000000000000000FD
:102AD80000000000000000000000000000000000EE
:102AE80000000000000000000000000000000000DE
:102AF80000000000000000000000000000000000CE
:102B080000000000000000000000000000000000BD
:102B180000000000000000000000000000000000AD
:102B28000000000000000001000100000000C1805A
:102B3800810000000000000003046E05240419044D
:102B48006A0428044604000000007006F305F20633
:102B5800F106493A20004C3A0020523A0020563AF1
:0E2B680020000D0A0046696E616C200A000014
:00000001FF
